S00E000076656869636C652E73333706
S3150800000058070020617E010895800108978001083D
S31508000010A70B0000000000000000FFFF3C000008DE
S3150800002004030300000000000000000000000000B8
S315080000300000000000000000000000005807002033
S31508000040617E01089580010897800108A70A0401C6
S31508000050000100080403039C324000000000000071
S315080000600000000000000000000000000000000082
S315080000700000000000000000000000000000000072
S3150800008000000000FFFFFFFFFFFFFFFFFFFFFFFF6E
S3150800009000E00108FFFFFFFFFFFFFFFFFFFFFFFF75
S315080000A0FFFFFFFFFFFFFFFFFFFFFFFFFFFFFFFF52
S315080000B0FFFFFFFFFFFFFFFFFFFFFFFFE01F00201F
S315080000C0000000001C1A0020071500205807002011
S30D080000D0149C010834810108A3
S3150800010058070020617E010895800108978001083C
S315080001109B800108998001089D8001089480010848
S31508000120948001089480010894800108948001084D
S315080001309F80010894800108458001089480010881
S315080001409480010894800108A1120008948001088F
S315080001505D4300084B42000894800108948001081A
S3150800016095320008891F0008A518000885010008AF
S315080001709480010894800108DF24000827250008D8
S315080001809D1301084FF6FF70DFF878120860704774
S3150800019038B500F059F90500DFF86C020078002838
S315080001A030D0DFF868020068C0072BD400200400AE
S315080001B0E4B2022C28DADFF8500200780100E140A8
S315080001C0C8071DD5DFF848020470DFF83C0200783E
S315080001D00121A1404840DFF830120870DFF83402E8
S315080001E0E4B230F81400DFF8241208604FF6FF7006
S315080001F0DFF8101208604FF40060DFF81C12086080
S31508000200641CD5E7022004002800C0B200F022F9D9
S315080002102000C0B232BD80B50020DFF8EC110870AE
S315080002200220DFF8EC1108700020DFF8F0110870E2
S315080002300520DFF8EC1108800020DFF8E8110870C7
S315080002400020DFF8C81108600020DFF8DC1108601C
S315080002504FF40040DFF8D41108601020DFF8D01101
S315080002600860DFF8D001DFF8D01108600120DFF858
S31508000270CC1108600320DFF8B81108604FF6FF704C
S31508000280604908600020DFF8B811086000F042FBFA
S3150800029001BD2DE9F04104000D0016001F00EDB266
S315080002A0C02D01D0012030E0FFB2F6B2F00050EACE
S315080002B047305B49098808435649E4B221F81400D7
S315080002C0514800780121A140084201D082201CE053
S315080002D000F0BAF880464C4800780121A14008434E
S315080002E0494908704F4800780121A14088434D4983
S315080002F008704046C0B200F0ADF8FFF749FFE4B217
S31508000300A04201D1812000E08220BDE8F0812DE9DC
S31508000310F04104000D0000F0A3FD00280CD13E4872
S315080003200068000508D546480068C0F3800010F04C
S31508000330010090F0010600E0012600F085F88046ED
S31508000340F6B2002E09D034480068000505D53C48A9
S315080003500068400701D5FFF715FF3248007801000D
S31508000360E140C8070ED53748E4B230F814002880B3
S315080003702C4800780121A14048402A49087080206D
S31508000380070012E0204800780121A140084202D067
S315080003908220070009E01E480078E4B2A04202D194
S315080003A08120070001E0842007004046C0B200F023
S315080003B051F83800C0B2BDE8F08170B504000D00F0
S315080003C000F064FD29002000C0B2FFF7A0FF060078
S315080003D0F6B2842E02D0F6B2802EF1D13000C0B229
S315080003E070BD80B5FFF717FF00210D2000F053FD03
S315080003F000210E2000F04FFD00210F2000F04BFDDC
S3150800040001BD000010A80040DA14002004D0004006
S31508000410DB140020E00A002000E100E0DD140020E3
S3150800042006130020DC14002008D000400CD0004041
S3150800043010D00040F612002018D000401CD0004012
S3150800044050A80040DC0A0020EFF31180602181F3F8
S315080004501188704780F3118870470268531C03603F
S315080004601170704710B500F015F81040C84010BD5F
S3150800047010B500F00FF8D44320401140084380B26D
S31508000480D860022018600020186058680028FCD13F
S3150800049010BD0000064B5C68002CFCD1986001205A
S315080004A018600020186058680028FCD11869704741
S315080004B0E81000402B490A68920992010A600A6806
S315080004C010430860DFF8C4034FF4004101600021BF
S315080004D00160642000F038BF2DE9F0478046DFF858
S315080004E0A45628681FFA80FA286840F40040286055
S315080004F01C4E306820F480503060DFF84C98DFF8E6
S315080005005848607860B1E078A17809EB810111F864
S315080005102A1C401A09EB880111F82A1C081804E05D
S3150800052020270120607001E0781C87B23846FFF763
S31508000530C1FF306B042804D0306B4007F4D4781E12
S31508000540F3E7F06A30B184F80280E770C5F800A0D6
S31508000550BDE8F08707B540F2F31109F1400000F055
S315080005601BFFE6E7D010004010B504464FF478723A
S31508000570610189B21020FFF77BFF1F222146102058
S31508000580BDE8104074E700002DE9F04F85B08346BA
S315080005909BF800004FF67F7202EA0004012202FA75
S315080005A001F1ADF80010000603D400F06BF808421C
S315080005B05CD0314D286880B20490686880B2039098
S315080005C0DFF8B880D8F8000080B202902C4F38685F
S315080005D080B2019048F2800028600220686048F2E4
S315080005E0D000C8F800000220386000240526012043
S315080005F0711E88401FFA80F949EA0404A0B2FFF781
S31508000600B3FF00F0A3FB78681FFA80FABAF1C00FAF
S3150800061002DB24EA0904A4B2701E86B2012EE6DAC9
S315080006201F2C12DA661CB0B2FFF79EFF00F08EFB95
S315080006307868C0384EF6FF710840AAF1C0014EF638
S31508000640FF721140884200D2B4B204982860039819
S3150800065068600298C8F80000019838608BF8004076
S3150800066000F010F88843DFF8F016C880A0B205B08D
S31508000670BDE8F04F78E700BF0C1100404410004079
S3150800068010400040DFF8D006C088BDF8001070475B
S315080006903F22410089B22020EAE62DE9F34F97B0C0
S315080006A0DFF89C57DFF8B0060079002814BF686A9F
S315080006B0286980B20390179800784FF67F7101EA8F
S315080006C0000418990978039B5B1C8B4203DB039B88
S315080006D05B1E994201DA012100E00021012303FA99
S315080006E002F2ADF80A20000609D4DFF86C06008984
S315080006F0BDF80A20104202D1002900F0BE80E86C3D
S3150800070080B20690286880B20590604EF06A80B282
S3150800071004904FF6FF7200211120FFF7A3FE8346CF
S315080007204FF6FF720021A020FFF79CFE82464FF489
S315080007300040286000203061706148F2020000F035
S31508000740B9F84CF68C30E86448F2F000F0624FF4E1
S31508000750805211461120FFF78BFE4FF6FF720021DB
S3150800076000F012FA00F0ABF802A900F09BF900F0CD
S31508000770ADF800F095F94CF69C30E8640020FFF7D8
S3150800078087FF0020009006231A46C02101F0E6F8EC
S315080007900024A0B2FFF77CFF00F091F807A800EB51
S315080007A0440100F07FF9641C202CF2DB01A900F05B
S315080007B079F91020FFF76CFF00F088F801A900F01E
S315080007C071F9BDF80400BDF80610401ABDF83C10D2
S315080007D0BDF808208C1A404304FB04084FF01009A2
S315080007E0112700F055F800F071F801A900F05AF940
S315080007F000F056F804DB8046B9467F1C202FF0DB54
S315080008001FFA89F9B9F1100F10D10F2700F040F837
S3150800081000F05CF801A900F045F900F041F805DBA5
S315080008208046B9467F1E3FB2002FEFD54FEA4904EE
S31508000830A4B20698E864059828600498F0624FF612
S31508000840FF7259461120FFF713FE4FF6FF72514605
S3150800085000F09AF901203061002000F02BF8179873
S315080008600470189803990170DFF8EC040089BDF844
S315080008700A108843DFF8E01408813F222146202029
S31508000880FFF7F6FD19B0BDE8F08F0000181000401C
S3150800089007A830F81700BDF80810441AB8B2F7E6EA
S315080008A0BDF80400BDF80610401A404304FB0400D6
S315080008B040457047306040F24C4000F045BD00208E
S315080008C0009006230622C02101F048B800200090B7
S315080008D006230722C02101F041B800000C48DFF8C2
S315080008E07C158A780AB149780FE089566FF00802B4
S315080008F0914201DA302108E0C16D39B140F24A313E
S31508000900C26DB1FBF2F189B2C91E0160704700BF22
S315080009106410004000B587B00A237F224148018849
S3150800092003A801F0E4F8BDF812104FF6FF729142E1
S3150800093073D1DFF82805808900F0D6F84FF47C6279
S315080009404FF40071C020FFF793FD0323892200F0BE
S3150800095074F801A900F06CF800F06DF80DF10201C9
S3150800096000F066F8BDF8020000F05EF8ADF8020087
S315080009700323B92200F061F802A900F059F8BDF87E
S31508000980080000F051F8ADF808004FF47C624FF407
S315080009906061C020FFF76CFD00F04DF800A900F07B
S315080009A047F8BDF8000000F03FF8ADF80000032353
S315080009B0B92200F042F80DF1060100F039F8BDF849
S315080009C0060000F031F8ADF80600BDF80600BDF8DF
S315080009D00010490801EB0040BDF80010B0FBF1F02B
S315080009E080B2BDF80810BDF80220520802EB01419A
S315080009F0BDF80220B1FBF2F1411A89B24FF47C62CC
S31508000A00A0F5404001EBD1735B1003EB0010B0FB7F
S31508000A10F1F0083800F03F008101C020FFF728FDFB
S31508000A2007B000BD82980108BDF80410401A704747
S31508000A300020FFF7C2BC0323A922C0210020FFF72C
S31508000A4028BC7CB500F046F800200090022303225B
S31508000A50002100F083FF00F023F8BDF806400020CF
S31508000A60009002230122014600F078FF00F018F8F2
S31508000A70BDF806500020009002230246014600F009
S31508000A806DFF00F00DF8BDF8066000F091FF00F06C
S31508000A9019F80EBF4FF4E1600A2190FBF1F004E06B
S31508000AA00DF10601002000F073BFADF80400301BFD
S31508000AB00004291BB0FBF1F0BDF8041048434000C0
S31508000AC0000C76BDBDF804004FF6FF7188427047EA
S31508000AD00000000002237F220248018801A801F0D5
S31508000AE006B800BF869801082DE9F04182B0054690
S31508000AF0DFF86843B5F5004F0FD102237F221F4860
S31508000B0000F0A0F9BDF80000000AFF2800D000B9DF
S31508000B1018206070BDF80000C54305F0010805F00F
S31508000B200200470808EB4800154946184FF4F852E2
S31508000B30B0780102E020FFF79BFC1248016841F4F7
S31508000B40004101604FF440527078010389B22020B9
S31508000B50FFF78EFC404601F055F84022B90100F037
S31508000B6013F817B915F0040000D00120A070FFF79C
S31508000B70B5FEA5810020BDE8F68100BF889801086A
S31508000B80789301081C100040A02071E4B3488089BE
S31508000B90704710B5704800786A490A880123A0F1A1
S31508000BA00B04A3401A430A80BDE8104000E0000089
S31508000BB02DE9F04F83B08046A8F10B04A4B201F0EA
S31508000BC025FB8246B8F10B0F02D3B8F11B0F02D3EF
S31508000BD08A20BDE8FE8F564EB068000702D43068FA
S31508000BE0C00701D58C20F4E75B4D85F80080514F8E
S31508000BF038680C2801D10020EBE7287938B9786ADB
S31508000C0040F400507862786A20F4805078624A4846
S31508000C100078012801D101F0C1FA4848D0F80090BF
S31508000C2047484FF4E0610160306A20F00200306204
S31508000C300423E2B2002100A800F059FF9DF8000045
S31508000C408DF807009DF801008DF806009DF8020052
S31508000C508DF805009DF803008DF804003A4830F831
S31508000C602400F86148F2607B2879B8B1C7F824B047
S31508000C70306A400840003062012000F065FB306AA7
S31508000C8040F00100306200F061F8786A20F4805084
S31508000C907862786A40F40050786202E04046FFF7CE
S31508000CA01BFC21460DF1010001F0C0FB21460DF1A8
S31508000CB00200FFF769FC224600A90DF10300FFF7C1
S31508000CC0ECFC9DF800009DF80710884211D19DF8AC
S31508000CD001009DF8061088420BD19DF802009DF888
S31508000CE00510884205D19DF803009DF80410884236
S31508000CF005D0042300AAE1B2002000F049FF09F458
S31508000D00E0600E49086000F05DFC306A40F00200C1
S31508000D103062287918B1C7F824B000F017F800F047
S31508000D2047FEBAF1010F01D101F008FA63E700BFE7
S31508000D3060200040AC100040280A002000E100E0D6
S31508000D4080E100E0CC1400200C930108642000F038
S31508000D50FBBA0148007870479E0800202DE9F0414B
S31508000D6086B006466FF02A00864201DA8B205DE0DF
S31508000D7014237F222F4800F065F8BDF810004FF6BF
S31508000D80FF71884204D00E21084201D0012506E0F1
S31508000D903F220021F020FFF765FB0446002528487E
S31508000DA02E49042E0FDA0022234B01E0521CD2B240
S31508000DB0D756B742FADB02600F70002000260746B6
S31508000DC04FF003080EE0092ED0DA725C02600E704E
S31508000DD014237F22194800F035F80320012601273D
S31508000DE04FF0280825B14FF6BF72BDF8101018E06D
S31508000DF04FF46052C10200F029F84FF4E062310264
S31508000E0000F024F88022F90100F020F884F0200090
S31508000E1008EB0004A4B2402C00DB3F243F2284F0F8
S31508000E202001FFF7B1FEFFF759FD002006B0BDE827
S31508000E30F08100BF7E980108589301088098010840
S31508000E40C0100040018800A800F051BE89B2A02059
S31508000E50FFF70EBB014890F900007047A80800206C
S31508000E60EFF311806028D4BF0120002070470000EE
S31508000E700120DFF8041208604EF6BE20DFF8FC11E8
S31508000E8008600120DFF8F811086070470120DFF8D4
S31508000E90E8110860704730B4DFF8E831840853F881
S31508000EA024301B681A000F2310F00304E4B2A400D0
S31508000EB0A3409A4310F00303DBB29B0011FA03F335
S31508000EC01343DFF8C041850854F82540236030BC39
S31508000ED0704780B5FFF7B5FD40F68C21884207DAE2
S31508000EE0DFF8A401006850F008006749086005E0CB
S31508000EF06548006830F008006349086001BDC0B263
S31508000F00082190FBF1F103290DDAC0B2082190FB04
S31508000F10F1F14FF480625D4B02FB0131012210F0C2
S31508000F2007039A400A607047C0B2082190FBF1F1A6
S31508000F3003290DDAC0B2082190FBF1F14FF4806263
S31508000F40534B02FB0131012210F007039A400A6055
S31508000F50704780B501210320FFF79DFF0320FFF7A7
S31508000F60CEFF01210620FFF796FF0620FFF7C7FFF1
S31508000F7009211520FFF78FFF01210720FFF78BFFB7
S31508000F800720FFF7BCFF0220FFF7AEFD01BD80B5C5
S31508000F9002237F223F4801883F4800F0A8FD3E48CB
S31508000FA000884FF6FF71884201D100F0A9F80020A9
S31508000FB000F010F93448006850F00800324908601B
S31508000FC000F0C6F800F088F8FFF752FF00F03BF88B
S31508000FD0FFF77FFFC920314908607920304908604A
S31508000FE0E7203049086049F6D9502F49086048F685
S31508000FF011102E49086049F299402D49086040F2BF
S3150800100019102C49086044F699102B49086049F6CE
S3150800101094102A4908601C48006830F010001A49E4
S315080010200860FFF7F8F801F01DFA01F0ADFA01BD06
S3150800103080B540F2016000F007F901BD80B50420D3
S3150800104000F0CDFD01BD80B510201D4908600220C5
S315080010501C4908604FF400601B49086000F038F925
S3150800106007201A4908600020194908601020194904
S315080010700860002002BD00000860004004600040CF
S3150800108000600040D088010800BC004010B0004055
S3150800109014B000408A980108D20900200CB000401C
S315080010A00CB400400CB8004000B0004004B000404A
S315080010B000B4004004B4004000B8004004B8004042
S315080010C080E100E0080000400C60004014A00040E9
S315080010D054A0004000E100E038B56FF00F04074D5A
S315080010E00120A8602C60802000F02EF9E868FF280F
S315080010F002D8641C102CF5DB31BD00BF0840004047
S3150800110070B5304C0220A0612F4D00202880102693
S31508001110F605360E28883018288080B2206040F2FE
S31508001120DC5000F011F9A068C00702D52888801B9A
S315080011302880002EECD1A068C00702D42888401C5D
S31508001140288028880D2834BF801C0F20288070BD71
S315080011502DE9F041002400251A4E0220B06140F224
S31508001160DC58194F00F032F8B06800F00100B16899
S3150800117011F0020100D001213A8808B9521C012455
S3150800118009B1521E01253A803A8801B918B90F2AC1
S3150800119001D2002AE6D10CB9022A05D20D2A2CBFA3
S315080011A00F20901C388000E00DB100F00FF8B069F0
S315080011B040F00100B0610120F061BDE8F04101F0A6
S315080011C06DBB000004400040D2090020388830601A
S315080011D04046B9E010B582B0044602237F2218487B
S315080011E0018800A800F083FC9DF80000FF2809D1BB
S315080011F09DF80100FF2805D104208DF80100002084
S315080012008DF8000024B19DF80100801C8DF80100BE
S315080012109DF80100082802D307208DF801009DF8E3
S315080012200000082802D307208DF800009DF8010069
S315080012309DF8001041EAC0100249086013BD00BFBE
S31508001240849801081800004010B50446FFF7FCF81A
S315080012500D48302101600D4801600D4801600D48B8
S3150800126010210160200A00D12402184804804FF298
S315080012700F014180BFF35F8F45480021016041603F
S3150800128005480649016010BD3020004030C80040BE
S3150800129030C0004010D000400CED00E00400FA0514
S315080012A080B508480068C0060BD5084806490A688C
S315080012B0C0F890204968C0F88C1040F60620FFF761
S315080012C0C3FF01BD18A000402050004000000020C8
S315080012D02DE9F0410024194D2C60194E34604FF465
S315080012E0A040706041F29A08404600F02DF8686800
S315080012F043F20121884201D2084604E0B0F5C84FFE
S3150800130001D94FF4C840C0F5964000B24FF4487171
S3150800131090FBF1F000B2FFF75AFF0827404600F0AD
S3150800132013F8686804197F1EF8D10648211DC908F4
S31508001330B0FBF1F080B27060BDE8F081104000406B
S315080013400C0000400060E31610B510490A68134601
S315080013500F4C2468E40700D44008C41EA4182403CC
S31508001360240B042811D3486D40F0010048659442C7
S3150800137005D218460B68934201D38342F9D2184620
S315080013800B68A34201D28342F9D210BD382000402F
S315080013901C40004042DE704738B504460D46FFF74C
S315080013A075FDFFF751F82A4621460FF2042001F091
S315080013B0D4FA29462046BDE83440EBE7DFF8C811E1
S315080013C02DE9F843DFF8C4610868DFF8C491371DD2
S315080013D04FF42068386506F188040A6A7A65DFF8EA
S315080013E0B4211268BA654A6AFA658A6A3A66CA6AA6
S315080013F07A660A6BBA66896BDFF89C21F96697F8F4
S31508001400341049074CBFFD6BBD6B954228BFA945F3
S3150800141020D3A9693964C005EA692035C00D7A6404
S31508001420062802BF08884DF64261884215D13868F9
S31508001430606040F201787868A06055F8040B38605F
S3150800144055F8040B786055F8040BB86055F8040B8A
S31508001450786302E000203864786400F082F8B864A3
S3150800146018210020F86406F1740001F0C9FA386CF6
S3150800147000283ED00020DFF82421DFF8243104E0DC
S31508001480C0B206EB800CCCF87410A9452CD359F8D9
S31508001490041D9942F9D39142F7D25FEAC17CF4D58B
S315080014A04FF0000C06EB8C0EDEF874E08E4506D085
S315080014B00CF1010C5FFA8CFCBCF1060FF2DBBCF1F7
S315080014C0060FE2D1002814BF401E0520D8E7396F61
S315080014D04FF0000C06EB8C020CF1010C936F53676E
S315080014E0BCF1050FF6DB21600146481EC9B200298A
S315080014F0EDD1386DC005C00D02280AD0032816D0D4
S31508001500042817D0052818D0062819D00C281DD06D
S315080015101FE0DFF890000168890748BF40F6021807
S315080015201CD40068C00719D540F2025816E040F6E8
S31508001530012813E040F6022810E040F603280DE0E3
S31508001540B8F5206F0AD140F6042807E040F60528CA
S3150800155004E018B1212838BF40F607284046BDE800
S31508001560F28311480068C00654BF0B480F4800E0D4
S31508001570001D0749884203D20368B3F1CD3FF7D06F
S31508001580081A70470000000004ED00E00000002083
S315080015905807002000E300E000000020348101081D
S315080015A0840100081CA000402C0000409400002084
S315080015B00D0A5B4153534552543A25703A25645DEA
S315080015C00D0A00000F48102101630F490A6842F00E
S315080015D001020A60B0490A1D426002604268893207
S315080015E042600122026301F28E01C1608160C16816
S315080015F08931C16002210163DFF850034FF6FF719C
S3150800160001607047002000408420004038B5294911
S3150800161045F26402CA601E224A6250220A62C82241
S31508001620CA618A65F022CA6545F690024A6688222A
S315080016308A660622CA6644F206620A604FF6FF7296
S315080016404A601D4C2178002906D01C4A48F260736E
S3150800165013604FF4C1535360194D2A6842F00402CF
S315080016602A6003D1296841F001012960FFF7A0FA31
S3150800167020B107B5FD218A48FFF78EFE207868B1AC
S3150800168028684008400028600120FFF75DFE2868AA
S3150800169040F0010028606420FFF756FE00F0C4F908
S315080016A0DFF8DC1308800748F121416078210160E2
S315080016B031BD00BF4C100040A2080020D0100040E9
S315080016C08020004040A000402DE9F04705467249B9
S315080016D08A2202FB001202F205046278237803EBE1
S315080016E002221FFA82F909F44042304B1B780B702C
S315080016F04B469B0657D5694E736E1B0653D547183E
S315080017004FF480684FF4006AB2F5404F0BD1E01DE4
S3150800171001F0CAF978BBF06DC00642D5B06C002D51
S3150800172038D0D04636E0B2F5004FF4D1207AE179C8
S3150800173001EB002080B201F00DFCFF2808D01C49FF
S31508001740096831F810004FF4FE61084213D1E2E748
S3150800175009F007000328DED1002D14BF7068306831
S315080017600528D8D3002D14BF706830680628F9D329
S31508001770607A0428CFD1F06DC00609D4B06C05B1E3
S31508001780D04610EA080F03D0706C40F00100706470
S31508001790012007E010EA080F03D0706C40084000EB
S315080017A070640020B870BDE8F08700BF9E0800206E
S315080017B0480900202DE9F04E0446DFF8DC908A201F
S315080017C000FB049000F1040A344E002C0CBF30686C
S315080017D07068C0B241005FFA81FB052805DA07B5D3
S315080017E04FF4F3712E48FFF7D7FD0BEB0A0010F8FC
S315080017F0081D427802EB01218DB299F8001001709C
S31508001800224FF86B20F48050F863E80401D500F005
S3150800181027FD4FF4E45005422FD100F055FD08B1DD
S3150800182068042AD59AF80000802826D254B9386860
S3150800183040050CD404EB090082785946504601F05D
S31508001840A9FB1CE0012CF5D138680005F2D5104833
S31508001850017851B1002101709AF8010000F01002D8
S315080018600C4801688F2001F09FFC002C0CBF4FF438
S3150800187080604FF40060386001E000F0F5FA002C53
S315080018800CBF012002203061BDE8F08E04A00040A4
S31508001890DC120020E0120020C411002020200040A5
S315080018A068940108F8B5294C2068216C01EA0006FD
S315080018B0254D06E026F04006402020600120FFF76F
S315080018C079FF002E3CD0300706D50020FFF7FCFE36
S315080018D026F0080608202060F00606D50120FFF746
S315080018E0F3FE26F010061020206006F0600060283F
S315080018F008D12868C005DDD426F0200620202060FF
S315080019000020DCE7B006F7D47006D3D4F004D8D5A7
S315080019102F6D26F480564FF48050206008202865E5
S31508001920686D000509D5A86940084000A861A8693E
S3150800193040F00100A86100F097FABFB22F65C0E732
S3150800194000202060F1BD00BF6820004000A00040D4
S3150800195001480068704700BF38200040F8B51446B3
S315080019601E46069D104F386C20F008003864FEF7B6
S315080019706BFD310341EAC41141EA850141F00101D9
S31508001980354A116008213960FEF764FD0020F2BD72
S31508001990054802681207FCD5082202600348006859
S315080019A0088000207047000018A000400070004022
S315080019B029480168490849000160704770B58AB02E
S315080019C004460D4600200090002303220146FFF737
S315080019D0C5FF1EE0002601A800F023F805A800F0C0
S315080019E020F8B61C102EF6DB05A901A801F0C6FCE6
S315080019F000202080218801AA8218527801ABC35C96
S31508001A0003EB022251402180801C1028F2DB6D1E58
S31508001A10A41CEDB2002DDDD100F017F801200AB0A4
S31508001A2070BD31180020B3E700B583B000200090E0
S31508001A30042302220021FFF791FF01A9FFF7F2FF15
S31508001A4000F003F8BDF804000EBD03480168490814
S31508001A5049000160704700000470004070B500241A
S31508001A60FFF7E2FF0546064E305F29B2401A01F03D
S31508001A709BFCB0F5CD7F01DD35800124204670BD85
S31508001A80CA14002010B5594C0120207082B00020DD
S31508001A9001F08EFC38B1002001F08AFC18B1002054
S31508001AA02070492016BD02237F2240F2F4710DF101
S31508001AB0020000F01CF802237F22012100A800F092
S31508001AC016F8BDF80210BDF80000B1F5FF7F04D185
S31508001AD0B0F57F7F07D1002016BDB0F57F7F0CBF1C
S31508001AE00620042000E007200021217016BD30B52D
S31508001AF0FF2983B0044608DC3C480078002845D016
S31508001B00C9B2204601F0EBFE37BDB1F5004F34D11E
S31508001B1008237F2240F6120100A8FFF7E8FF9DF888
S31508001B20000000ADFF2804BF6878FF281ED19DF885
S31508001B300200FF2804BF9DF80300FF2816D19DF870
S31508001B400400FF2804BF9DF80500FF280ED19DF864
S31508001B500600FF2804BF9DF80700FF2806D10823C2
S31508001B607F2240F2A27100A8FFF7C1FF0020415D65
S31508001B700155401C0828FADB37BD1D4801430020E3
S31508001B8002E0425C0255401C9842FADB37BD000071
S31508001B902DE9F0410546FF2D0E46174698460FF2E9
S31508001BA0540014DC114C2178B9B16178002903D0AE
S31508001BB007B5D221FFF7F0FB012060704346324695
S31508001BC03946E8B201F0E6FF0020607005E007B587
S31508001BD0BDE8F041E021FFF7DFBBBDE8F08103492E
S31508001BE00978002918BF02F09CB87047F114002044
S31508001BF0000004082446494C455F464E414D45249D
S31508001C00000000002DE9F04F89B004460020FFF7D8
S31508001C10E1FA0A237F228548018800A8FFF767FFB3
S31508001C204FF6FF75BDF80200A84261D04FF47C421A
S31508001C30BDF800101020FEF71BFC2A46BDF802105E
S31508001C4000F00FF94EF23F02BDF80410B020FEF77F
S31508001C500FFC2A46BDF80610C020FEF709FC2A46E6
S31508001C60BDF80810D020FEF703FC012C03D114237D
S31508001C707F226F4802E014237F226E48018803A85A
S31508001C80FFF735FF2A46BDF80C101120FEF7F0FBCA
S31508001C904FF6C072BDF80E102020FEF7E9FB2A4663
S31508001CA0BDF810103020FEF7E3FB2A46BDF81210E7
S31508001CB04020FEF7DDFB2A46BDF814106020FEF72B
S31508001CC0D7FB2A46BDF816107020FEF7D1FB2A4628
S31508001CD0BDF818108020FEF7CBFB2A46BDF81A106F
S31508001CE09020FEF7C5FB2A46BDF81E10E02092E0BC
S31508001CF04FF480520C21F020FEF7B4FB002848D19F
S31508001D004D4DA8681FFA80FB48F20100A8604FF005
S31508001D10000806274FF0010A781E0AFA00F646EA76
S31508001D2008001FFA80F83F2288F0200100F099F891
S31508001D306420FFF709FB2868C00701D528EA0608CA
S31508001D407F1EBFB2012FE7DA3F2288F0200100F09C
S31508001D5088F800270626701E0AFA00F949EA0707D6
S31508001D60BFB200F078F86420FFF7EEFA286880071B
S31508001D7001D527EA0907701E86B2012EEBDA00F0B4
S31508001D806AF84FF48052114600F06BF8C5F808B0AF
S31508001D900EE03F220021F020FEF764FB80F02008C9
S31508001DA04FF47C620621F020FEF75CFB80F02007EA
S31508001DB00025224EA01900EBC50090F90500C019B0
S31508001DC080B2402800DB3F2006EBC50100F03AF858
S31508001DD036F83500FEF74CFB6D1C062DEAD30025B8
S31508001DE0174FE01900EBC50090F90500404480B292
S31508001DF0402800DB3F2007EBC50100F023F837F841
S31508001E003500FEF735FB6D1C0B2DEAD34FF4405217
S31508001E104FF480514020FEF72BFB012C02D1012004
S31508001E20FFF7D8F909B0BDE8F08F00BF829801081E
S31508001E30809801087E9801080411004070940108F2
S31508001E400C9501084A8880F0200091F9041000FAE0
S31508001E5001F189B270474FF47C6287F02000810156
S31508001E6089B2F020FEF704BB80B58648017861B1D7
S31508001E7000210170DFF85C140A6822F480520A60B7
S31508001E8000224168402001F08FF901BD0149405CFC
S31508001E90704700BF74950108020603D54FF67F7296
S31508001EA01040C0000004800AB0FBF1F080B2FF28A1
S31508001EB000D9FF20C0F1FF00C0B2704710B57248C4
S31508001EC0417879B1C1786F4AD2785418A4B20079AA
S31508001ED0844200DB044601F0D7FF0121A140491ED8
S31508001EE0084000E00020C0B210BD000038B5044626
S31508001EF0C00704D507B5F5212248FFF74DFA604D0E
S31508001F00286DC00701D58C2032BD202028626C6060
S31508001F102C6068687F306860042028625948002170
S31508001F200170594C21780029A96F12BF41F00101AF
S31508001F3049084900A967617849B10021C170286D2F
S31508001F4040F004002865A86F40F0080006E0286DF8
S31508001F5020F004002865A86F20F00800A867FFF79E
S31508001F60ADFFA86460790028286D14BF40F008000A
S31508001F7020F008002865286D40F00100286500203B
S31508001F8032BD00BF649501082DE9F0413B4E7068EB
S31508001F90716C01EA0004A4B27460394F394D68784F
S31508001FA0002845D1DFF8E080E00719D53868396C94
S31508001FB07A6C42EA0141696098F8002062B140787B
S31508001FC0800609D5012028704FF480503060306CA7
S31508001FD040F48050306403E00022002001F0E4F869
S31508001FE020060CD5287830B10020287000226968B0
S31508001FF0402001F0D9F8306C20F480503064E006B7
S3150800200016D5E878401CE87098F80210C0B28842E5
S3150800201007D2FFF753FFB864386D40F00100386502
S3150800202006E0FFF795FC002201468D2001F0BCF87A
S31508002030A0060ED5386D00F00100386520203862FC
S31508002040687830B9FFF784FC00220146882001F041
S31508002050ABF8600608D5687830B9FFF779FC002236
S315080020600146892001F0A0F8687828B14FF440703D
S31508002070044201D10120A870BDE8F08100A000400B
S3150800208010200040DC120020C80900202DE9F0418C
S315080020900546294800210170DFF870627171524FB8
S315080020A07963884C1520A060FEF770FDFEF71CFDCD
S315080020B01E48092101601F21B963012101611C48DD
S315080020C00078FFF7A3FA01F0F2FE804601F0ECFE75
S315080020D0414601F0EFFE01F0F5FE00F0CBF820686E
S315080020E040F040002060B07800F0A2F8F07800F0E8
S315080020F0ABF8707800F0DAF80E4890F90000FEF7B1
S315080021002DFE307800F0E8F896F9040000F0F2F8B1
S31508002110FFF758FA01203860012D02D100F00EF8B9
S3150800212001E000F065F8BDE8F08100BFAC100040A2
S315080021309E080020A8080020F614002070B5154C4B
S315080021402668B6B2714D6879012822D0FEF77CF967
S3150800215048F2D00121606268520509D548F2220288
S3150800216022606268D205F5D5216062685207F1D40B
S31508002170266009494FF4E0620A605D490A68520818
S3150800218052000A600021E16001216971FEF762F9D7
S31508002190012070BD1C10004080E100E070B55B4C6A
S315080021A0607900B3FEF750F905460F480121016032
S315080021B00E4E306D40F00100306500206071FFF76B
S315080021C001FA20203060306B40F002003063F06D79
S315080021D040F00800F0652846FEF73CF9C820FFF7EE
S315080021E0B3F800F005F870BD281000403020004014
S315080021F005484FF6FF71016002484FF4E06101603F
S31508002200704700BF00E100E004A000403F48407965
S31508002210704700000548006880099A3800B210F136
S31508002220800F01DA6FF07F0040B270470C10004053
S31508002230244900280A6814BF42F0120222F012024A
S315080022400A603249887070471E4900280A6814BF18
S3150800225042F0800222F080020A602C49C87070475A
S315080022602A48C0787047024A1160506070470000DB
S31508002270902000400B480C494A780B7803EB022261
S315080022800260CA788B7803EB022242604A790B799E
S3150800229003EB02228260CA79897901EB0221C160C7
S315080022A0704700BF982000406811002005490028A3
S315080022B00A6814BF42F0200222F020020A6013497D
S315080022C04870704784200040014800787047000035
S315080022D0220A002040A00040054900280A6814BFC9
S315080022E042F0020222F002020A60084908707047AA
S315080022F08020004000F19A010904890A024A116007
S3150800230002490871704700BF54100040230A002094
S315080023104FF4FE52810189B2B020FEF7A9B8000039
S3150800232030B583B00F4C002060602060FFF740FB9B
S3150800233000F01AF801A90020FFF72AFBBDF904509E
S315080023404FF6FF7060602060FFF732FB00F00CF874
S3150800235001A90020FFF71CFBBDF90400281A00B2EA
S315080023603EBD00BF38100040002000900623092219
S31508002370C021FFF7F3BA00002DE9F84F274CA06AF1
S315080023800090D4F800B0264D2E68264F26480078CF
S3150800239010B148F2607038600220A0620120206007
S315080023A040F24C40FEF7D0FF0120E86028604CF26E
S315080023B04C00F8630020FFF7ABFFFFF7B1FF80463C
S315080023C07F20FFF7A5FFFFF7ABFF8146404600F0E9
S315080023D0EBFF8246A8EB090000F0E6FF80460020E6
S315080023E0F863B6B22E60E860022020601FFA8BF010
S315080023F0206000A80088A06240F24C40FEF7A4FFC7
S31508002400FE2000FB0AF01FFA88F1B0FBF1F080B25B
S31508002410401CC003000CBDE8F28F00BF60200040DE
S3150800242028100040D0100040A208002070B50446CD
S31508002430012000FA01F62078094D010602D4298800
S31508002440314206D0FFF798FF20702988B1432980CA
S3150800245002E04FF67F710840BDE8704058E700BFBC
S31508002460CC140020F8B5424C4249434F0020606521
S31508002470A0654FF48045414805604FF40046066064
S315080024800420206008202060E560E66007200860D8
S3150800249000206065606D40F060006065072000F010
S315080024A00FF838700020A065A06D40F06000A065A8
S315080024B0002000F005F87870314805600660F1BD27
S315080024C0304920B1072808D10868C00900E0086823
S315080024D000F0010080F0010070470020704710B539
S315080024E02348254C4FF48041C16004210160072030
S315080024F0FFF7E6FF227801468A4218BF21700DD100
S31508002500501E8041C00F20700720217801F0EEFC94
S315080025102178481E8041C00F20702178BDE8104000
S31508002520072001F0E3BC10B51148134C4FF40041E5
S31508002530C160082101600020FFF7C2FF62780146EA
S315080025408A4218BF61700DD1501E8041C00F60705D
S315080025500020617801F0CAFC6178481E8041C00FEE
S3150800256060706178BDE81040002001F0BFBC000033
S3150800257014A8004014BC0040F314002080E100E0D9
S3150800258000E100E008B00040002181F3118870479F
S31508002590BFF35F8FBFF36F8F704700000848094984
S315080025A00160094A0260416042600E4901220A60E0
S315080025B04A68D207FCD58168C907FCD4704700BFB2
S315080025C00480004023016745AB89EFCD0548416883
S315080025D08907FCD400210160014880210160704709
S315080025E0108000402C4000402DE9F04106460C467C
S315080025F01546002706F0010005F00101084301D041
S3150800260001204AE0A819DFF89082B6F1006F02D3DC
S315080026102349884206D3464502D32249884201D334
S3150800262002203AE0FFF7BAFF00214B4801E0B61C4A
S31508002630891CA9422ED232880B195B7811F804C07E
S315080026400CEB03239BB29A42F1D04FF6FF7C62450E
S3150800265000D0F3B9464505D3134A964202D24FF441
S31508002660047201E040F20122426033800268D20718
S31508002670FCD420220260026814231A42D7D00168CB
S31508002680C9064CBF042705271021016004210160F3
S3150800269000E00627FFF79AFF3846BDE8F08100BF3D
S315080026A001000208010A0408100804082DE9F84385
S315080026B0044600258E0AB602C0B2012823D1042793
S315080026C04FF000694FF40048E00518D5FFF766FF9C
S315080026D021484760E1B2022900D1866047F04001EF
S315080026E041600168C907FCD4202101600168C90658
S315080026F002D5102101600425FFF768FF3DBBA00540
S3150800270025D500201AE002280CD1B1F1006F02D3BA
S315080027101048814201D302201AE00227B1464FF43D
S315080027208078D1E7032806D14FF40877DFF8689157
S315080027304FF08008C8E703200AE0401C404506D24F
S3150800274059F8041B11F1010FF7D0072000E02846BD
S31508002750BDE8F283000002080C8000402DE9F84F1E
S3150800276080468946FDF770FE834600F08DF81D4FBA
S31508002770012038704FF4807040EA0800404D6C8A9A
S315080027804FF47F410C4205D1022C03D34946AA6A6D
S31508002790904702E04946FFF789FF82460098306075
S315080027A0FFF7F6FE5846FDF755FE00203870BAF1D9
S315080027B0000F04D033481AF80000BDE8F28F4FF432
S315080027C0007040EA08004FF47F410C4206D1022C03
S315080027D004D34946AA6A90478246EBE74946FFF77B
S315080027E065FFF9E7051500202DE9F84F804689466B
S315080027F05400FDF729FE824600F046F8DFF880B05F
S31508002800BBF812704FF47F40074209D1022F07D355
S315080028100023224649464046DBF824C0E04705E047
S315080028200023224649464046FFF7DEFE0546009845
S315080028303060FFF7ADFE5046FDF70CFE1DB111489E
S31508002840285CBDE8F28F4FF47F4007420AD1022F79
S3150800285008D32346002249464046DBF82480C04771
S315080028600546ECE7002000E0401CA042E7D218F835
S31508002870011B10F809209142F6D00725DFE7000072
S315080028800000040850960108114E30680090306820
S315080028904008400030607BE60008040870B5FDF784
S315080028A0D3FD04460A4D2E68286840084000286073
S315080028B0FFF76EFE0548112101602E60FFF768FEDE
S315080028C02046BDE87040FDF7C5BD00BF008000404A
S315080028D094ED00E000281EBF8178427891420AD024
S315080028E04A1C09188270D2B2C978402AA4BF0022AD
S315080028F08270084670470020704700281EBF8178FE
S315080029004078814201D1012070470020704748B1C4
S315080029104278531C12184370D17041784029A4BFDD
S3150800292000214170704710B10021417081707047D5
S3150800293081B04FF4403100912A49CA68520704D43D
S31508002940009A531E002A0093F7D1009A002A1ABF4C
S3150800295008600120002001B070470EB430B5044667
S3150800296021480078B8B1214D8021281D00F048F88B
S3150800297003AA2146281D01F05DFB2C1D08E00A2844
S3150800298004BF0D20FFF7D4FF14F8010BFFF7D0FFA3
S3150800299020780028F3D130BC5DF810FB2DE9F04112
S315080029A00446022C0D4616469846A8BF002015DA9E
S315080029B00D4F54220021384601F093FB0C48F86469
S315080029C043460C48B86432460B487864E9B20B486B
S315080029D038652046BDE8F04101F0F6BBBDE8F08158
S315080029E0000000003CC80040B40C0020E40A0020A7
S315080029F0FB280008D52800080F2900082729000801
S31508002A00002201F07DBC0000DFF8400500210170BE
S31508002A10FF21017101727047F8B5054601F08AFC7D
S31508002A20064620480488DFF82475284601F030FD5C
S31508002A30B0F5006F16D1284601F04EFD00F08AFA6F
S31508002A40FF280DD000F00DFA294607F1080002F01C
S31508002A5071F8387888B13019B989441AA4B211E0E6
S31508002A609320F2BDFF21381D02F08FF8052802D207
S31508002A702946381DEBE73920F2BDBE812146384686
S31508002A8002F0AFF822460321284601F07CFC032217
S31508002A900521284601F082FC284601F0DDFD0020CC
S31508002AA0F2BD00BFA2090020F8B5DFF8A00400793E
S31508002AB0FF2815D000F0D0F9304601F0FEFC074695
S31508002AC0304601F0FAFC08220146384601F068FB58
S31508002AD0002801D10120F2BD2068365CAE42EBD158
S31508002AE00020F2BD70B5064601F079FC10F4805559
S31508002AF000D00125EDB2304601F003FD044630460C
S31508002B0001F0EEFCB0F5404F19D1002D15D0214645
S31508002B10002000F05EF90446FF2C0ED0002102F0DA
S31508002B20A1F8002809D00521204601F03EFC40F016
S31508002B3080020521204601F031FC012070BD2046A7
S31508002B4001F0ACFF00F006FAFF2801D1002070BDA5
S31508002B50012181409B4A13680B431360002DECD07A
S31508002B60C44B1B6833F810004FF4FE631842E4D0D8
S31508002B70506808435060E0E738B5044601F088FC21
S31508002B80B0F5006F0CBF01250025204601F095FC25
S31508002B9004462146284600F01CF9FF2801D00120EA
S31508002BA032BD002D0ED0204601F078FF00F0D2F994
S31508002BB0FF2807D0AF49096831F810004FF4FA61C9
S31508002BC00842ECD1002032BD2DE9F04104460D46FD
S31508002BD0DFF8786301F05CFCB0F5006F0CBF06F116
S31508002BE00800301D0078FF2846D0DFF8641309680E
S31508002BF0405C0746BC423CD1FDF726FC80460521D1
S31508002C00384601F0D2FB00F07F00441EE4B22246AB
S31508002C100521384601F0C2FB15B1312D00D00CBB99
S31508002C20FDF712FC0446F8B201F032FCB0F5006F6D
S31508002C30F9B206D106F1080001F0A7FF00F0F3F893
S31508002C4002E0301D01F0A1FF2046FDF703FC4046D7
S31508002C50FDF700FC2946384602F054FF384601F0D5
S31508002C6008FD04E000F0DFF84046FDF7F3FB01201D
S31508002C7003E07F5C8742BDD10020BDE8F08138B50E
S31508002C8001F058FBB14CA189421A92B24FF6FF7572
S31508002C90ADF80050A08100A9104600F0EDF8BDF887
S31508002CA00000A84202D10020207031BD014620460E
S31508002CB001F097FF31BD00214FF6FF70DCE0000000
S31508002CC02DE9F84F3F4F3868002874D000240125B5
S31508002CD0DFF8E8B0DFF89CA10026B046FDF7B4FBA4
S31508002CE039680D4209D00126EA43114039607968EE
S31508002CF00D4202D0B04611407960FDF7ABFB002EBD
S31508002D0052D000F061F889074ED530F81400DBF888
S31508002D10001031F81460B8F1000F07D04FF498711D
S31508002D200140102902D14FF0010901E04FF00009D6
S31508002D302349096800226254B8F1000F30D0800692
S31508002D4023D58DF8006030128DF8010000A9012006
S31508002D5000F03FF88046B8F1FF0F07D100F034F8CD
S31508002D604FF6DF72114020F8141019E0002101F027
S31508002D7079FFA8B10521404601F017FB40F0800213
S31508002D800521404601F00AFB0AE0B9F1000F07D118
S31508002D9000F01AF841F4006120F8141003F0E8F97D
S31508002DA04946304601F00BF9641C6D00202C02DA06
S31508002DB03868002890D1BDE8F18F00BF400900208F
S31508002DC04C090020C8130020DAF8000030F8141067
S31508002DD070472DE9F04188465C49002819BF01F182
S31508002DE008000224081D08240078FF2818D0584E29
S31508002DF03168475C3D460521284601F0D6FA0006AB
S31508002E000AD4284601F059FB22460146404601F0FD
S31508002E10C7F908B9284604E030682D5CBD42EAD1F6
S31508002E20FF20BDE8F08170B50021202003F096FB55
S31508002E304648007AFF280ED000F00EF8304601F01A
S31508002E404BFB00F087F8FF2801D000F00AF820684D
S31508002E50365CAE42F2D170BD3D4C2168455C2E46CB
S31508002E6070470449096831F8102042F0200221F819
S31508002E7010207047480900202DE9F84F82468946F8
S31508002E80314800680090DFF8C4B00BF10404304DF7
S31508002E9001E00BF10804FDF7D7FA064606E02046DE
S31508002EA001F05DFE394600A801F044FE204601F017
S31508002EB091FE40B920782968475C0321384601F01D
S31508002EC059FA8245EBD20BF10800844201D1FFF78B
S31508002ED0AAFF3046FDF7BEFA2078FF2819D02968E0
S31508002EE0465C37460321384601F044FAA0EB0A004F
S31508002EF01FFA80F842460321384601F044FAB9F829
S31508002F000000804501DAA9F8008028683F5CB742CE
S31508002F10E8D10BF108008442BBD100A801F05AFEA3
S31508002F2080B900A801F01BFE0446052101F03DFA10
S31508002F30000603D44221204602F0E4FD204601F0B3
S31508002F4098FBEAE7BDE8F18FC8950108600A0020FA
S31508002F5038090020F8B504000C4D2E6814D0FDF78A
S31508002F6073FA0B4F39782A6822F8114036F8021B93
S31508002F70A142FBD1FDF76EFAB01E2968401AC005BA
S31508002F80000E3978884200D1FF20F2BD40090020A2
S31508002F904409002070B506460C461546FFF760F949
S31508002FA038B1002D707814BF40F0200000F0DF0023
S31508002FB070702146304601F0DCFBFF2803D001463D
S31508002FC0694801F0B7FD70BD2DE9F04F85B0634E35
S31508002FD0301D01F0C4FD0446FF2C00F09E8001F070
S31508002FE0D7FA90F800A08178407800EB012B4C4F77
S31508002FF00020009008233868205CA0F10802D2B2AD
S31508003000214602A801F0D1FB02AD4648007868B116
S31508003010306800280DD095F9020000F166035BB20E
S31508003020EA785146204600F085F86DE00BF0070077
S3150800303002286FD0FF208DF80400204601F0A8FA78
S3150800304000F10109484601F003FA8046AAEB080098
S31508003050861EF6B201A9484603F0F2FD002859D1AA
S315080030600BF0070001280BD108EB09019DF80400B5
S3150800307003F01AF820B99DF8040001F0FAFA49E0BD
S315080030809DF80400396810F801B0274909684454C6
S315080030903868205C00F12001C9B29DF8040001F0EF
S315080030A07FFA9DF8040001F09FF900F00C0004284F
S315080030B003D04644F6B24FF00008009608F1010323
S315080030C09BB2224659469DF8040001F002FD06EB24
S315080030D00B01C9B29DF8040001F01BFC5146E878C3
S315080030E0FEF7DAFE0246032100F020F8A87800F180
S315080030F06602D2B2042100F019F89DF808200521CD
S3150800310000F014F89DF804400648007810B92046E7
S3150800311001F0C2FE204601F0ACFA05B0BDE8F08F1A
S315080031202C090020DD120020340900209DF8040037
S3150800313001F034B930B5A1B014461D4600220092FC
S315080031404B1CDBB2014601A801F02FFB2A4621469B
S3150800315001A8024B1B68984721B030BD840A00209D
S31508003160014801F037BD0000880A002038B5054639
S315080031700C46012003F02EFE3148002C12BF002118
S315080031800178491C017006494D70012141700548B6
S31508003190FEF7ACFE0020BDE8324003F01BBE00BFC0
S315080031A0C80900204813002038B523490B78244C59
S315080031B0050036D040281FD08D282BD08F2833D134
S315080031C0002B02D00020087031BD1C480078042866
S315080031D00DD142B124480221017040F63540BDE8C0
S315080031E0324003F009BE00206070312015E000204F
S315080031F06070002A11D1F8E7002BE3D12078032864
S3150800320004D200210120BDE83440AFE700206070F9
S31508003210402002E0002060708D20BDE8324001F0B9
S31508003220F7BD00216170F8E707B5AE211848BDE87B
S315080032303440FEF7B1B800BFF6140020040A002097
S315080032400115002038B50024FDF7FEF805460648A6
S31508003250007810B9FEF702FC04462846FDF7FAF88E
S315080032600CB103F046FE31BD4013002080B5FFF7D0
S31508003270E9FF14210248BDE8044001F0BCBC00BFC8
S31508003280900A002007B5D3210148FEF785B800004B
S315080032902C96010838B5084C2068216C01EA00050F
S315080032A0ADB2680705D5206C20F00400206402F052
S315080032B0E9FF256031BD00BF08A0004038B50446C7
S315080032C0154D214600F057F8E860211D00F053F827
S315080032D0A86004F1080100F04EF8686004F10C01DA
S315080032E000F049F8286031BD38B504460A4DEA6849
S315080032F0214600F03DF8AA68211D00F039F86A68F1
S3150800330004F1080100F034F82A6804F10C010020E1
S31508003310BDE8384003F032BE383000407047000040
S31508003320F8B50446104D80202860104E06203060FF
S315080033300720286030688007FCD5002704EB870142
S3150800334000F019F8A8627F1C042FF7D330684007ED
S31508003350FCD500262A6B04EB860100F009F8761CDA
S31508003360042EF7D3F1BD00BF0030004010A0004086
S31508003370002003F003BE002003F00EBE7FB505460D
S315080033800C46FDF761F8064600A8FFF7ADFF204694
S31508003390FFF794FF2846FFF7C3FF00A8FFF78EFF45
S315080033A03046FDF757F87FBD002848BF40427047B2
S315080033B000B585B000A900F09FF805B000BD000073
S315080033C010B5DFF8983A00F0F7FC002304E030F86F
S315080033D0134021F813405B1C9342F8DB002010BD14
S315080033E02DE9F04182B004460D4616460027DFF85F
S315080033F06C8A01E0B81CC7B2B74218DA7819407867
S31508003400795D01EB0020ADF80000012200A907EB69
S31508003410D77004EB6000DFF8383A1B88C01A08EB4F
S315080034204000FFF7E1F90028E4D003F065FDBDE8A8
S31508003430F381F8B504460F46154600260DE000F060
S3150800344019F87F1C04EB4600BDF80010090A417004
S31508003450BDF8000004F81600761C68088642EEDB04
S31508003460E80706D500F006F82819BDF8001000F898
S31508003470011CF1BD012200A9B8B2A1E7DFF8341991
S31508003480415CDFF82C29825C12B101F5997189B289
S31508003490DFF8F427805C40EAC11080B2704710B5A7
S315080034A0DFF8042902EB400003884FF48074A34236
S315080034B002D2C81802EB400010BD38B50C46DFF83A
S315080034C098190D782A462146FFF77AFF20880028A2
S315080034D003D04FF6FF71884201D1002032BD01208A
S315080034E005E034F8101022889142F6D1401CA84213
S315080034F0F7DB012032BD00002DE9F24F9CB00446EF
S31508003500DFF8A8080088ADF804000246FF211C98D9
S3150800351000F03EFEDFF8A0030088ADF80E0042007A
S3150800352092B2FF21DFF8800800F032FEDFF81CB9FE
S3150800353000208BF80000ABF80200BDF8040041003B
S315080035401FFA81F8074600260546DFF854A709E062
S31508003550B9F1010F05D0DFF8500820F816704F446E
S31508003560BFB2761CAE4228DADFF84808305C411C48
S3150800357001EBD171C905090EDFF80C2716F8029080
S31508003580DFF82C28B25C0AB11931C9B2491C01FB13
S3150800359009881FFA88F8FF2805D107B54FF4F37193
S315080035A05046FDF7F9FEB9F17F0FD1DB07B540F2BA
S315080035B0E7115046FDF7F0FECDE7B8F57A7F05DD51
S315080035C007B54FF4F8715046FDF7E6FEDFF88408B4
S315080035D00088ADF8020007A9FFF76FFF80460120B3
S315080035E08BF80100DFF868080088ADF8000082460D
S315080035F0BDF80270DFF898060688DFF89006B0F87E
S31508003600009009A95046FFF758FF00283ED0B8F1A8
S31508003610000F3FD0BDF81C00BDF82410884239D2EF
S3150800362000208BF801003846CDF810A0ADF80C90B4
S315080036300696DFF8241809788DF806100818ADF8EC
S31508003640080001220DF10A01BDF80800FFF7B8FECF
S31508003650BDF80A00000BDFF804984FF6FF789DF8CE
S315080036600610884201D00F2800D1F4B100259DF834
S315080036700600854280F20481BDF8020000F023F9B5
S31508003680BDF8000000F01FF96D1CF0E7B8F1000F57
S31508003690C6D101249BF801000128C4D150460497DD
S315080036A0ADF80C60CDF81890C3E7BDF80870012294
S315080036B00DF102013846FFF783FE7F1CBFB2BDF845
S315080036C00200C043C0B2ADF80200BDF8041088423B
S315080036D000D0012400261FE00AF101005FFA80FAF3
S315080036E0AA4517DADFF8380430F81A00BDF81610BC
S315080036F08842F1D15046FFF7C1FE4FF68071084067
S31508003700BDF814104FF680721140884202D11C98F9
S315080037100AF80060701C86B2BDF80200864209DA13
S31508003720022205A93846FFF74BFEBF1CBFB24FF071
S31508003730000AD5E7002100E0491CA9421CDA1C98BA
S31508003740085C8842F8D0012416E0DFF85C2622F8E7
S315080037501170012201A9BDF8083003EB4000401C96
S3150800376000F0A0FABDF804004004000E401C00EB6F
S31508003770D07007EB6007BFB20698874211DA00F0EF
S31508003780AAF8BDF8000040450BD07F1CBFB2000A5E
S31508003790BDF8001001F07F02BDF80210884202DB76
S315080037A00124002529E0002100E0491CA942D0DABD
S315080037B01C9BCB5C8342F8D1C9B2FF29C9D07F2AAA
S315080037C00CBF00231346DFF8C0648E5DB34201DBED
S315080037D00124BEE7BDF80030DB1103F00103DFF872
S315080037E0D0658E5DB342F3D17F2AAED0DFF8B83507
S315080037F033F811105118A8E76D1CBDF80E00854264
S3150800380006DADFF8A40530F815004045F4D101249E
S31508003810ABF8027007E000F05EF87F1CBFB2BDF897
S31508003820000040452CD106988742F4DB44BB0122B0
S315080038300BA9049800F036FABDF82C00404535D19E
S3150800384014E0651820220BA9A8B2FFF7B9FD0027D6
S315080038500BA830F81700404503D0ADB2680A00F04F
S315080038602DF87F1C202FF3DB2034A4B2BDF80C0002
S315080038700499401A8442E4DB01208BF8000015E025
S31508003880002507E00498C003000E281880B200F04F
S3150800389015F86D1C9DF806008542F3DB41460120AC
S315080038A000F05AF820B100F03DF908B1002000E018
S315080038B001201DB0BDE8F08FF295010809EB8021C3
S315080038C00220FEF74BBF400A281880B209EB802178
S315080038D00220FEF743BF012200A9384670E52DE90C
S315080038E0F84605460E4614469A4621463046FFF7E0
S315080038F0D6FDB0F80090DFF8BC74DFF8B01409887C
S315080039008E420AD27F2C00D10024DFF87C03305C7B
S31508003910844202DAF05D824504D007B540F28A3166
S3150800392000F0BAF9DFF88804305C70B149463046D1
S3150800393000F0E3F9F15D012901D128700AE00229B6
S3150800394001D1288006E0286004E052464946284608
S31508003950FFF76FFDBDE8F1862DE9F34F83B0DFF879
S31508003960F0040088ADF80200DFF8E004407800288B
S315080039701ABFDFF8E0040088BDF80200DFF8D814A3
S3150800398009780C18A4B2DFF824040088ADF80600FC
S31508003990C043C0B200EB013000F56060ADF804002A
S315080039A0012201A9DFF8B404BDF80230E31A00F0D9
S315080039B081F9651CADB2002836D10024584E10E0B6
S315080039C0E0B2FFF75BFDADF8080036F81400ADF875
S315080039D00A00022200F069F9002825D1AD1CADB213
S315080039E0641CBDF806008442EADB002400E0641C7F
S315080039F0BDF80600844280F28D8000261EE0012272
S31508003A0001A94046FFF7DCFC08F101001FFA80F81F
S31508003A10012201A9DFF844047B19BDF802C0A3EB13
S31508003A200C0300F047F900286CD17F1C4F45E6DBF4
S31508003A309848205C4519ADB2761CF6B2924814F83F
S31508003A4000904E45D3DA3146E0B2FFF728FD074627
S31508003A50B7F80080DFF8580314F800A04FEACA1038
S31508003A6040EA0420ADF80000B9F1010FBDF80000E6
S31508003A700CBF40F07F003043ADF80000DFF8DC03F0
S31508003A80BDF80210691A00EB4100691C1FFA81FB98
S31508003A904FF6FF71884505D0BDF80010BDF8102017
S31508003AA0914213D19DF80C100029C5D0012200A916
S31508003AB0FEF79AFE5D4628BB3D80BE48225C174845
S31508003AC050F824102846FFF78BFCB1E7B949615C2A
S31508003AD0491C01EBD17149105FFA81F9012200A94D
S31508003AE0FEF782FE5D4668B93D80BAF1000F0FD039
S31508003AF04146E0B200F001F902904A4600F0D5F8D6
S31508003B00002895D003F0F8F9002005B0BDE8F08F3D
S31508003B1000278BE7CD4845800120F6E79C0A002060
S31508003B20909601082DE9F04182B0CA480688C8482F
S31508003B300488C64D6878002812BF204630462646B7
S31508003B40012200A9FFF73CFCBDF80000401EADF8B5
S31508003B500000C1480778DFF804833846411E8FB253
S31508003B6068B1012200A9B819001B08EB4000FEF74E
S31508003B703BFE0028F1D003F0BFF9002007E0697882
S31508003B80481E8041C00F6870002028700120BDE8DB
S31508003B90F68100002DE9F24F82B0804617461E4690
S31508003BA000243946FFF77BFC0546DFF808B27F4953
S31508003BB0098888450BD27F2F00D10027324818F88C
S31508003BC00000874203DA18F80B00864204D007B5CE
S31508003BD040F28F4100F060F89D48B0F800A09B4F76
S31508003BE0787818B129480688504603E02848068898
S31508003BF098480088397849B97988081A214909887E
S31508003C008842B4BF4320442003F076F9012200A974
S31508003C102888401E00F046F81E4818F80090788854
S31508003C20711EA1EB0901814200DB60B9387818B929
S31508003C30452003F061F922E0BDF800100020FFF7E7
S31508003C408BFEE0B101247888401C788018F80B2098
S31508003C50029980B2FFF7C4FB012200A97F487B883E
S31508003C605B1EA3EB0A0300F025F80028E1D114B186
S31508003C70FFF758FF18B17888288048447880BDE84F
S31508003C80F78F00BFEE950108D0960108E895010860
S31508003C90EC950108F49501080148FDF77DBB000085
S31508003CA00496010880B2FFF78BBB02A96B48BDF8E2
S31508003CB00230EB1A00EB4300FEF796BD70B582B0F2
S31508003CC0064600240025012200A9B0B2FFF778FBBA
S31508003CD0761CBDF80000C1B2FF290CD000F47F4065
S31508003CE0B0F57F4F02D1641CE4B204E0A41CE4B230
S31508003CF06D1C192DE7DB204676BD38B50C462D49D7
S31508003D00455C2A46214600A8FFF793FB681C00EB92
S31508003D10D07004EB600080B2FFF7D0FF009940181E
S31508003D2032BDF0B583B005462C461F4830F81470EE
S31508003D301E4909888D4202D21D48205C20B907B564
S31508003D404FF4A561FFF7A8FF1A48245C601C00EB36
S31508003D50D07007EB6006B6B23046FFF7AFFF3228E1
S31508003D6014DAC1074CBF00214FF47F41ADF80410A7
S31508003D70012201A9394B06EB600000F01DF8FEF799
S31508003D8033FD00280FD003F0B7F8F7BD39462846AB
S31508003D90FFF7B3FF0090401C009023467F2200A93E
S31508003DA02846FFF7F7FEF7BDE8130020F09501084F
S31508003DB0B0960108C0960108254C2488001B03EB21
S31508003DC040007047F8B5214F387800283DD1204883
S31508003DD00488787800281ABF1E48058825461E4894
S31508003DE006783046461EF6B2022822D3012200A9DA
S31508003DF07019FFF757FFBDF800000028F1D0174FDC
S31508003E006812C0B2301880B207EB80210220FEF794
S31508003E10A5FC0020ADF80000012200A97019001BBE
S31508003E2007EB4000FEF7E0FC00280ED003F064F82C
S31508003E30F1BD0A486912C9B200EB81210220FEF7DA
S31508003E408DFC002E01D101203870F1BDD21400205E
S31508003E50E6950108EA950108E495010800E00108DD
S31508003E6081B209B94BF6EF610E4A000C08BF4FF64E
S31508003E70CE201180508070470288130448BF4A40FC
S31508003E80510001801046704738B5064C622120461D
S31508003E90FFF7F2FF054641F20B01A01CFFF7ECFF06
S31508003EA0684032BD800A00200548008870470448EB
S31508003EB040887047024A10805180FEF7D4B9000046
S31508003EC01C0A002000B583B008237F220548018814
S31508003ED000A8FDF70CFE082200A9034800F015F912
S31508003EE007BD00BF8C98010868110020C0B20728DA
S31508003EF005D1C9B2012902D10122364B1A70C0B2C6
S31508003F00002805D1C9B2012902D10122324B1A7003
S31508003F10704710B50024E4B2002C06D12F4803F0F0
S31508003F204FF80400E4B2002CFFD010BD70B50400B1
S31508003F3025000826F6B2002E0FD02948407C002816
S31508003F4009D1F6B2701910F8012C26492648264BD5
S31508003F50D3F8B0319847761EECE770BD70B504000B
S31508003F60200080B2FEF7F6FF06002148008801000F
S31508003F70F140C80715D539201C4948801D480378E3
S31508003F801A4A210089B2002003F08EF918480088E1
S31508003F900121B14081F47F4191F0FF0108401449A5
S31508003FA00880134800880100F140C80706D420009D
S31508003FB080B203F092FC0500EDB2002D70BD38B555
S31508003FC004000D00EDB2002D03D0200080B2FFF7EB
S31508003FD0C5FF31BDDE140020DF140020C20D00200D
S31508003FE0B00D0020C0850108E40A0020980C0020C6
S31508003FF0C41400208808002070B584B004000D00A1
S31508004000EDB2012D14D100AA01A92000C0B202F018
S31508004010EAFB0600F6B2002E0AD19DF80000062833
S3150800402006D12000C0B202F0D0FB80B203F046FCF5
S315080040307FBD704716B50446009401AB0A4600A931
S31508004040054803F05FFD009900220A7000285CBF4E
S315080040500098001B16BD00BF5B040008814233D2DE
S3150800406010185118401E491E10E011F8013900F8C1
S315080040700139121F11F8013900F8013911F801390F
S3150800408000F8013911F8013900F8013992B2042A09
S31508004090EBDA92B2002A1EBF11F8013900F801398D
S315080040A0521EF6D1704711F8013B00F8013B121F6A
S315080040B011F8013B00F8013B11F8013B00F8013B00
S315080040C011F8013B00F8013B92B2042AEBDA92B2EE
S315080040D0002A1EBF11F8013B00F8013B521EF6D11B
S315080040E07047130000D057E0704710B502E0521E23
S315080040F0401C491C92B232B10B7804789C42F6D027
S31508004100E01A40B210BD002010BD814233D210180B
S315080041105118401E491E10E011F8013900F80139FE
S31508004120121F11F8013900F8013911F8013900F8A0
S31508004130013911F8013900F80139D2B2042AEBDA4B
S31508004140D2B2002A1EBF11F8013900F80139521EF1
S31508004150F6D1704711F8013B00F8013B121F11F820
S31508004160013B00F8013B11F8013B00F8013B11F84F
S31508004170013B00F8013BD2B2042AEBDAD2B2002A9C
S315080041801EBF11F8013B00F8013B521EF6D17047DD
S31508004190130000D000E070470A46194604F08ABBAF
S315080041A010B500E0521ED2B21AB100F004F8F9D0E8
S315080041B007E0002010BD10F8013B11F8014BA3429F
S315080041C07047181B40B210BD01283CD1132906D2EE
S315080041D00FF2E00050F8210010F1010F01D1202064
S315080041E0704700282E4903D540424861012001E066
S315080041F0486100208861180907280CBF00200220A2
S31508004200012A08BF40F0180003D0022A08BF40F070
S31508004210080003F00F02022AA8BF40F004008860D5
S315080042200120086001211F48C164016C41F4C041A6
S3150800423041F0090101644FF6FF71016020201A4917
S315080042400860002070472120704710B5154C07E01C
S3150800425046F22971206008421CBF80B200F006F8B9
S315080042602068216C0840F3D110BD704738B50007A7
S315080042700F4C0E4D08D5E86880070FD52968626C83
S31508004280C9B220469047F6E7E868800706D5204673
S315080042902968626CBDE83840C9B2104731BD0000D4
S315080042A054C8004008A8004000E100E03CC80040AF
S315080042B0B40C0020409C0000204E0000EBCBFFFF12
S315080042C01027000088130000C4090000E20400005B
S315080042D0BFFCFFFF7102000060FEFFFFC8FEFFFF84
S315080042E0F000000030FFFFFF9C000000780000008F
S315080042F068000000340000001A0000000D000000ED
S3150800430000B500BF130096469446103928BFA0E8AA
S315080043100C50FAD85FEA417C28BF0CC048BF40F869
S31508004320042BC90728BF20F8022B48BF00F8012B29
S3150800433000BD000080B500F009F880B202BD80B566
S3150800434000F004F80002000C02BD000002480168F3
S31508004350406840EA01407047106000400448072161
S315080043600160024801210170704700000415002011
S3150800437014A0004010B50C4600F00AF92018BDE854
S31508004380104000F08BBB38B50D46144600F000F916
S3150800439021462818BDE8344000F086BB38B50C46DF
S315080043A0154600F0F5F8255431BD10B50C4600F059
S315080043B0EFF8205C10BD80B500F016F800F079F82B
S315080043C001D1082002BD062002BD38B5044600F01A
S315080043D0DFF805462046FFF7EEFF401932BD0121FA
S315080043E0C8E70A460121CEE780B500F0D1F8407843
S315080043F002BD80B500F0CCF8417841F0100141705B
S3150800440001BD10B50446FFF7EFFF00F052F804D0DF
S3150800441007B553210D48FCF7BFFF06212046BDE826
S315080044201040A7E738B505460C46FFF7DDFF00F054
S3150800443040F804D007B559210448FCF7ADFF2246D9
S3150800444006212846BDE838409DE7000090950108FA
S3150800445080B500F023FB01468A12D2B242EAA200D6
S3150800446000F00F00094BC05C4B0701D4002801D1AE
S31508004470FF2002BD490607D412F0030104D03021FB
S315080044800A4201D0801CC0B202BD00BFA095010837
S3150800449010B50446FFF7A8FF00F00BF802D14FF459
S315080044A0006010BD06212046FFF764FF00F4406057
S315080044B010BD00F00C000428704738B5044600F01B
S315080044C067F805462046FFF78FFFFFF7F2FF0CBF98
S315080044D006200B20401932BD80B5FFF7EEFF31E00C
S315080044E010B50446FFF780FFFFF7E3FF02D14FF44C
S315080044F0004010BD06212046FFF73CFF00F440406F
S3150800450010BD70B5044600F043F805462046FFF78F
S315080045106BFFFFF7CEFF01D1A81D70BDA81DFFF7E1
S3150800452097FF06462046FFF7DBFFB0F5004F0CBFA6
S3150800453002200820404271194018801D70BD80B5C0
S31508004540FFF7DFFFBDE8024000F0A8BAF8B5054658
S315080045500E461446012000F029F80746FF2F16D00C
S315080045602946FFF73EFF3846FFF725FF014638463E
S3150800457000F016F82146384600F0BCF805F00C00A5
S31508004580042803D131463846FFF74CFF3846F2BDBA
S315080045900249096801EB4010704700BF280900204E
S315080045A0DFF8542412688154704700002DE9F04161
S315080045B0040001D1FF204BE0FBF746FFDFF8881324
S315080045C0FF22454DDFF8D0341E78FE2E1CD100267A
S315080045D01E70204E37782F700027DFF8F4C509E0E3
S315080045E007F1010E07F808E0DCF8008007F8082054
S315080045F05FFA8EF796F800E0D1F800807745EFDB92
S315080046000EEB080606F8012C2E78A64202D2FBF716
S3150800461021FFCFE7361B2E701D78454E1F78D6F83A
S3150800462000C04FF0010E07F80CE0D1F800C017F8EB
S315080046300CE083F800E0641EE4B2002CEED107F823
S315080046400C2000F0D2F800226A54FBF703FF284634
S31508004650BDE8F0812409002010B50446FBF7F4FEF6
S3150800466033490968625C521C6254BDE81040FBF786
S31508004670F1BE2DE9F041054600F030F88046FBF71B
S31508004680E3FEDFF81414144AAF4B294E00E06546E2
S31508004690FF2D1DD03768EC5D641EEC55376815F89C
S315080046A007C07F241CEA040F12D11C6815F804C041
S315080046B00024EC5517787F1C17701F680C78EC558A
S315080046C00D70BCF1FF0FE2D145464FF0FF08DFE75A
S315080046D0BDE8F041FBF7BEBE2509002080B51449A8
S315080046E00968415C090603D5FFF752FF007802BD49
S315080046F0FF2002BDB0B505460C46FFF7EFFFFF28C1
S3150800470001D0FFF7B6FF0A4FFF2C04D13868295CA1
S3150800471001F07F0106E02046FFF79EFF3868295C16
S3150800472041F0800129542846FFF732FF0470B0BDD6
S31508004730300900200EB430B504460120FFF736FFD5
S315080047400546FFF725FFFF2D01D1FF200EE000F0FB
S315080047504CF86C5403A9002205E051F8043B00F814
S31508004760013B521CD2B2A242F7DB284630BC5DF8A8
S3150800477010FB70B582B005460C4604F11F00000414
S31508004780400DC0B2FFF712FF0646FF2E0CD09A481E
S31508004790006834543DB1012000902346002231467A
S315080047A0284600F002F8304676BDF2B582B00746D4
S315080047B014461D46089E084600F017F8405C29195D
S315080047C0884204DA07B540F24D1100F0D7F85DB11A
S315080047D0214602A800F0D8F800962B4602469DF816
S315080047E00810384600F004F8F7BD83490968704791
S315080047F02DE9F8430646884617461C46089DDFF805
S3150800480048910BE08A5D0A54491CB942FADBE41B5D
S31508004810BE19D9F8000018F800800027E4B2CCB118
S315080048204046FFF7B5FE3818391989B2202932BF34
S315080048302746C7F12007FFB22DB93A46014630464A
S31508004840FFF763FCE3E7012D02D13A463146F7E765
S315080048500021DAE7BDE8F1832DE9F04182B006468A
S31508004860884614001F4664480068355C0ED06119F6
S31508004870C9B2304600F04DF808B1182007E0009795
S3150800488023462A4631464046FFF78FFF0020BDE8FB
S31508004890F6810123E0E70A4600E0521C1378002B54
S315080048A0FBD10223521AD2B2D6E7F8B5044601F173
S315080048B01F004611F6B202F11F00C004000E06B929
S315080048C0012600B90120864221D01F4D10DA801B2F
S315080048D0C0B2FFF76BFE0746FF2F01D10020F2BDDD
S315080048E0711EC9B2204600F025F8296847540EE023
S315080048F08A420CD2411EC9B2204600F01BF8044673
S315080049002868205CFFF7B5FE2868FF21215401209E
S31508004910F2BD70B505460C46374E22463068295C0E
S315080049202846FFF7C2FF18B130682C54002070BD26
S31508004930182070BD03E0491E034A1268805CC9B29C
S315080049400029F8D1704700003409002011B581B05C
S315080049500C46FFF74AFF405C844204D307B54FF480
S31508004960EA7100F00BF8214601A800F00DF804469C
S315080049709DF80400FFF70CFE201816BD0148FCF749
S315080049800BBD00BF8093010838B504460D4669097A
S31508004990C9B22078FFF7CEFF207005F01F0032BDA0
S315080049A080B5FFF7D3FF007802BD10B51446FFF7B0
S315080049B0CDFF047010BDF8B504460F4E3068275C6D
S315080049C0FF2C04D107B54FF4FA71FFF7D7FF07F1AB
S315080049D01F00C004000EFFF7E9FD0546FF2D09D0AC
S315080049E030682F540097002322460021284600F0FD
S315080049F070F82846F2BD00002C090020F8B50646D6
S31508004A000C4615460120FFF7D1FD0746FFF7C0FD06
S31508004A10FF2F01D1FF20F2BD2A462146301800F0AB
S31508004A200EF8FFF7E2FE301878543846F2BD0CB49B
S31508004A3080B502AAFFF7E2FF02BC5DF80CFB2DE980
S31508004A40F04104460F469046264608E058F8040BFF
S31508004A50C5B22A463046FFF758FBAE197F1C387890
S31508004A60A8B1312801D0322809D158F8041B06F814
S31508004A70011B3228F2D1081206F8010BEEE758F8A6
S31508004A80041B3328E2DB3A28E0DA3038E0E7301B4B
S31508004A90C0B2BDE8F0810000F20800204178007835
S31508004AA000EB012080B270470170090A4170704717
S31508004AB070B504460D46691CC9B2FFF747FF06786C
S31508004AC029462046FFF742FF007800EB062080B211
S31508004AD070BD2DE9F5411D46089CA4B244B326468F
S31508004AE089B200A8FFF750FF0746A9B201A8FFF749
S31508004AF04BFF0546AF4200D33846C0F12000C0B28E
S31508004B00B04200DA06469DF80400FFF741FD8046EC
S31508004B109DF80000FFF73CFDF2B205EB08013818D6
S31508004B20FFF7F3FAA41BF1197519A4B2002CD6D114
S31508004B30BDE8F38170B505460C46FBF785FC244AAB
S31508004B4012682B78FF2B01D1A45403E09B181E781A
S31508004B50A6541C702C70BDE87040FBF77BBC38B5BA
S31508004B600446FBF771FC2178FF22FF2901D1FF25B6
S31508004B7007E0174B1B68CD5C8D420EBF2270EA5CBE
S31508004B80CA54FBF767FC284632BDF8B505460C46FD
S31508004B900026FBF759FC2978FF2914D00A46012676
S31508004BA00B4B1B6801E03A46761CD75CA74208D136
S31508004BB0FF5CD754A14206D18A4200D1FF222A704F
S31508004BC001E08F42EFD1FBF745FCF0B2F2BD0000E1
S31508004BD0380900200078FF2801D1012070470020FD
S31508004BE0704738B505460C46FFF7A4FB20186880C1
S31508004BF00120287031BD38B505460C46FFF79FFBE6
S31508004C00201868800220287031BD38B505460C4644
S31508004C10FFF79CFB04EB104068800320287031BD29
S31508004C2030B583B00546FFF791FB00AC6080010AFA
S31508004C30A180000CADF806000FE00178042909D020
S31508004C4051B134F811104288891A48F2010289B222
S31508004C50914201D269688847083528680028ECD14E
S31508004C6037BD0000F8B505460C463B4800780028D5
S31508004C702BD1884E3069002827D1DFF880030078C9
S31508004C80092801D0022C20D1FBF7DEFB07467279F2
S31508004C90082A18D2012C02D19019057206E006F1ED
S31508004CA0080106F10900FFF730FA35727079401CE1
S31508004CB070713846FBF7CEFB2846FFF7CDFC01F0AE
S31508004CC057FA0120F2BDFBF7C5FB0020F2BD80B5FF
S31508004CD07048817919B90121817101F049FA01BD3C
S31508004CE06C4800218171704738B51B480078002848
S31508004CF02FD1FBF7A9FB0546664C607978B1217A76
S31508004D006170421E6271D2B204F1090104F1080011
S31508004D10FFF7FBF92846FBF79DFB012032BD284625
S31508004D20FBF798FB2069002813D1A079022802D046
S31508004D3002F018FE60706078FF28EED1A07900288E
S31508004D4007D003F0ABFE6070FF2802D00020A071E8
S31508004D50E3E7002032BD0000DD1200202DE9F04116
S31508004D6005460C46FDF7A7FF4A4E0020B071FBF733
S31508004D706BFB8046306920B14046FBF76BFB002091
S31508004D8013E09F480078052801D101F0A7FA00F042
S31508004D900EF8074607B935614046FBF75BFB1FB1BE
S31508004DA004B1A847012000E00220BDE8F08110B553
S31508004DB0FBF74AFB37494A79914B1B781A4389799D
S31508004DC0114305D12C4909784C1EA441E40F00E093
S31508004DD00024FBF73FFB204610BD000010B58848AD
S31508004DE0002101702B4CFF2060702161FFF74CF801
S31508004DF0E070FFF749F820711F4800210170034849
S31508004E000170A171BDE81040FDF7FEBD480A0020FB
S31508004E102DE9F04180461F4D6878FF2805D107B572
S31508004E2040F259117448FCF7B7FA2878124E744FB5
S31508004E30FF24811F01290ED805213970414604F047
S31508004E4083F818B903203870042030706878FFF7A3
S31508004E5010FC6C7005E085F8028003203870042089
S31508004E6030702878042804D0A879012801D10220B6
S31508004E70A8712C70BDE8F0814413002038B50446AB
S31508004E80044DA978FDF7A0FE18B9A978204600F0C8
S31508004E9039FE31BD040A00202DE9F0470446FFF724
S31508004EA0A3FA00F00C05FF26FF2C05D107B54FF431
S31508004EB0D1715148FCF770FA2046FFF795FA00F0D1
S31508004EC00C0008286BD00C2D58D12046FFF77DFA28
S31508004ED00746FFF7E3FD814609F44C483846FFF7D5
S31508004EE0B7FAC65D4FF6FF7A4FF4406019EA000F2D
S31508004EF006D0F81CFFF7D2FD504501D148F040080E
S31508004F0009F44060B0F5006F06D1781DFFF7C6FDBD
S31508004F10504501D148F010084CF65000012E18D023
S31508004F20022E19D0042E08D0062E25D0072E25D0FD
S31508004F30082E19D07C2E12D05AE0B8F5484F02D068
S31508004F40B8F5084F54D12046FDF7CCFD00284FD1BF
S31508004F5014E0B8F5484FFAE7B8F54C4FF7E7B8F557
S31508004F604C4F0BD08045F2E74CF6404080453FD188
S31508004F70224800780528EAE7804539D12048007894
S31508004F8002280CD1042D05D00C2D08D1022E01D0F3
S31508004F907C2E04D101F047FF0020FFF739FF204699
S31508004FA0FFF71DFA05462046FFF71EFA00F00C002B
S31508004FB0082816D0A80614D54FF6DF7000EA0501B2
S31508004FC02046FFF70EFA2046FFF7F5F90546204674
S31508004FD0FFF7FBF9FFF73CFA4119C9B22046FFF77C
S31508004FE098FC21460348FFF7A5FD2046FFF734FB4A
S31508004FF0BDE8F087180A002058940108400A0020E6
S315080050004013002080B50F48002101704FF6FF714C
S315080050104FF6FE70FEF74EFF03F0D3FF04F024FAB6
S3150800502004F0D2FA04F056FB01F052FA06480021C1
S3150800503001804180FEF728FF04490870BDE8014059
S3150800504004F04EBE10090020CE140020FA140020E9
S31508005050DFF8AC0A0078112801D0432801D10120D5
S315080050607047002070472DE9F041064604F0C7F95D
S3150800507008B1002031E04FF6FF7800F067FC07D34F
S31508005080DFF8C40801884145F3D03046FFF7CAF96E
S3150800509000220221304604F059FA0028E9D03046A9
S315080050A0FFF793F90746FC79FEF7FEFE0546FEF77D
S315080050B0FBFE2A46214604F0B1F900F0F3F9404513
S315080050C002D1304602F022FC38780321084203D187
S315080050D00121304601F034F80120BDE8F0812DE9C0
S315080050E0FE4F82460026002000965046FFF76DF9CF
S315080050F00746381DFFF7D2FC044600F0D3F9804670
S31508005100387800F0C00002902046FDF723FFFF28FC
S3150800511014BF4FF00109B14638780321084207D178
S31508005120FEF7C2FE844201D04D4615B1012500E0C6
S315080051300025B87900280CD0FEF7B6FE80450CD1BC
S31508005140FEF7B2FE834600225946504600F08EF816
S31508005150002800F08780002085E000F0F7FB04D3E4
S31508005160DFF8E407B0F800B0EDE7404601F073FB5E
S3150800517020B95046FFF733F9400504D5C346002E3B
S31508005180E1D03022E0E7787840071ED5504604F093
S3150800519019FE054629465046FFF702FC07466C1CD1
S315080051A0E1B25046FFF7FCFB0FB1FF2805D10022FC
S315080051B0E1B25046FFF7F9FBE0E705EB4000811C3A
S315080051C0C9B25046FFF774FCBCE700AA01A94046DD
S315080051D004F070F88346DDB10298802804D0402890
S315080051E016D19DF8040098B1387800F03F00387061
S315080051F0204601F030FB002814BF2046FEF754FE77
S3150800520002460021404605F02FF858B301202AE04F
S315080052100098E8B1007900F03001CDB1B9F1000F7E
S3150800522000D031B9102904D0202911D10C21084207
S315080052300ED0FB795A464146204605F085FB009874
S31508005240007900F0F30040F0040000990871012687
S315080052509DF80400002892D00121404604F043FC42
S3150800526000288BD10220BDE8FE8F002270B50646C5
S315080052700C461546FFF7D6F8FEF716FE844205D10A
S315080052800121304600F05CFF012070BD204601F088
S31508005290D4FA30B92A460F213046BDE8704004F0EA
S315080052A055B9FEF701FE00233246214602F080FA80
S315080052B00028E5D13046FFF792F8400505D50021CC
S315080052C03046BDE87040FFF7CDBC3046FDF7A4FB7D
S315080052D0401E8041C00F70BD2DE9F0410546884645
S315080052E0144600F068FD07462046FFF764F83C1AA6
S315080052F0E4B267196A480678A8EB0402D2B23946BE
S3150800530007F10E00FEF701FF282038707E7305F0BE
S3150800531077FB0246791C012001F030FE08225F491E
S31508005320781DFEF7F2FE304606F0FCFA2346002208
S3150800533008F10E01C9B2284605F0A2FD1220BDE803
S31508005340F08100002DE9F04F85B080460F4604F045
S31508005350F8FD04464046FFF754F881464046FFF7F5
S315080053602AF80546002000900E232246414601A849
S31508005370FFF71BFA0DF10501012001F00DFE82462B
S315080053809DF811B09DF80400282837D10822434912
S315080053900DF10900FEF704FF80B3414E584606F0AA
S315080053A0C1FA50B93078ABEB0000C0B280280BDAEE
S315080053B00021002006F07DFC06E00023224629464F
S315080053C0404605F098FDC8B1404604F0DFFC494662
S315080053D00DF1090007F0A8FB0446FE2C0ED0FF2CA1
S315080053E03AD1484604F0C5F90446294DFF2C0BD09E
S315080053F00DF1090104F09EFB287868B300211920F5
S3150800540007F082FC00208BE2387800F003000128C0
S315080054100AD1404604F095FD01464046FFF7C0FA1A
S31508005420082801D10120EEE728780028E6D1194896
S31508005430007819490978884205D300F033F84FF601
S31508005440F8718842DAD20DF10901484604F0D2FA19
S31508005450484604F08EF904463078834505D0594607
S31508005460012006F0BBF80028C8D03078834503D160
S31508005470204607F0CBFB28B95146204607F03CFBEF
S315080054800028C0D05146204607F045FBCAE700BFB2
S31508005490F9140020E4120020740900206811002085
S315080054A000150020B81CFFF7F9BA000038B50E48F9
S315080054B0FFF755FB0446FF2C15D00C4D0321FEF7CC
S315080054C074FF287004212046FEF76FFF68700120DC
S315080054D001F080FC204600F00BF82046FFF7C9F8DB
S315080054E0002001F077FC31BD180A0020F7140020CF
S315080054F0F8B50446FEF778FF00F00C07DFF84464B9
S315080055002046FEF771FF00F04FFB18D13068205C8B
S31508005510851FEDB200950623224600212046FFF797
S31508005520D8FA29462046FFF7F4F92046FFF730F85F
