S00E000076656869636C652E73333706
S315080000005807002069420008954C0108974C0108DA
S31508000010A70B0000000000000000FFFF3C000008DE
S3150800002004070300000000000000000000000000B4
S315080000300000000000000000000000005807002033
S3150800004069420008954C0108974C0108A70A040163
S31508000050000100080407039C32400000000000006D
S315080000600000000000000000000000000000000082
S315080000700000000000000000000000000000000072
S3150800008000000000FFFFFFFFFFFFFFFFFFFFFFFF6E
S3150800009000E00108FFFFFFFFFFFFFFFFFFFFFFFF75
S315080000A0FFFFFFFFFFFFFFFFFFFFFFFFFFFFFFFF52
S315080000B0FFFFFFFFFFFFFFFFFFFFFFFFE01F00201F
S315080000C0000000005C190020471400205807002093
S30D080000D036980108067C0108B8
S315080001005807002069420008954C0108974C0108D9
S315080001109B4C0108994C01089D4C0108E43B0108D9
S31508000120E43B0108E43B0108E43B0108E43B010821
S315080001309F4C0108E43B0108ADA40008E43B010814
S31508000140E43B0108E43B010821960008E43B01086A
S315080001508938010827990008E43B0108E43B0108AF
S31508000160953101088DAE0008D5A70008850100085D
S31508000170E43B0108E43B0108F79700085598000896
S3150800018041330108DFF87C024FF6FF7101607047C2
S3150800019038B504F017F90500DFF86C020078002876
S315080001A030D0DFF868020068C0072BD400200400AE
S315080001B0E4B2022C28D20120A040DFF84C120978BC
S315080001C008421DD0DFF848020470DFF83C020078C8
S315080001D00121A1404840DFF830120870E4B2DFF888
S315080001E0340230F81400DFF824120860DFF814022D
S315080001F04FF6FF710160DFF820024FF400610160DD
S31508000200641CD5E7022004002800C0B204F0D6F822
S315080002102000C0B232BD80B5DFF8EC0100210170C4
S31508000220DFF8EC0102210170DFF8F001002101700E
S31508000230DFF8CC0105210180DFF8E4010021017017
S31508000240DFF8C80100210160DFF8D801002101604C
S31508000250DFF8D4014FF400410160DFF8D001102126
S315080002600160DFF8CC01DFF8CC110160DFF8C801C6
S3150800027001210160DFF8B4010321016061484FF6EE
S31508000280FF710160DFF8B4010021016004F004FB8E
S3150800029001BD2DE9F04104000D0016001F00EDB266
S315080002A0C02D01D0012030E0FFB2F6B2F00050EACE
S315080002B04730534909880843E4B2564921F81400DF
S315080002C0514800780121A140084201D082201CE053
S315080002D004F078F880464C4800780121A14008438C
S315080002E0494908704E4800780121A14088434C4985
S315080002F008704046C0B204F061F8FFF749FFE4B25F
S31508000300A04201D1812000E08220BDE8F0812DE9DC
S31508000310F04104000D0004F05BF800280BD13E48BC
S315080003200068000507D545480068400701D401273D
S3150800033000E0002700E0012704F044F88046FFB2F9
S31508000340002F09D034480068000505D53B480068E9
S31508000350400701D5FFF716FF0120A040304909786C
S3150800036008420ED0E4B2364830F8140028802C48EB
S3150800037000780121A14048402949087080200600DC
S3150800038012E0214800780121A140084202D08220CB
S31508000390060009E01E480078E4B2A04202D1812096
S315080003A0060001E0842006004046C0B204F006F8C4
S315080003B03000C0B2BDE8F08170B504000D0001F050
S315080003C0B9FB29002000C0B2FFF7A1FF0600F6B26C
S315080003D0842E02D0F6B2802EF1D13000C0B270BDA4
S315080003E080B5FFF718FF00210D2001F0A8FB0021BA
S315080003F00E2001F0A4FB00210F2001F0A0FB01BD97
S315080004000214002010A800401A14002004D000404E
S315080004101B140020C00A002000E100E01D14002083
S315080004201C14002008D000400CD0004010D000401A
S3150800043018D00040001400201CD0004050A80040EE
S31508000440BC0A00202DE9F04104000D00160068885A
S315080004503B2811D100213000C0B205F03DF9070054
S315080004603100C9B2280004F05AFE80465FFA88F8BF
S31508000470B8F1000F08D107E03200D2B229002000F7
S31508000480C0B21A4BDB6B9847BDE8F0812DE9F04105
S3150800049082B005000E0017009846089C78883B280D
S315080004A009D12200D2B24146C9B2380004F0AEFDE5
S315080004B000280ED10DE0E4B200944346DBB23A00C0
S315080004C0310089B22800C0B2DFF820C0DCF840C08D
S315080004D0E047BDE8F3817047704710B50400200077
S315080004E0C0B20249496C884710BD7047E80D002024
S315080004F070477047C0B2002829D0022829D027D3D0
S31508000500042828D026D3062827D025D3082826D07D
S3150800051024D30A2825D023D30C2824D022D30E2866
S3150800052023D021D3102822D020D3122821D01FD39C
S31508000530142820D01ED316281FD01DD318281ED045
S315080005401CD31A281DD01BD31B281BD01AE019E070
S3150800055018E017E016E015E014E013E012E011E0E9
S3150800056010E00FE00EE00DE00CE00BE00AE009E019
S3150800057008E007E006E005E004E003E002E001E049
S3150800058000E0FFE77047000080B5DFF85C09407CB3
S31508000590002808D1DFF86019DFF85009DFF84C2980
S315080005A0D2F8B0219047DFF84009407C002808D1EE
S315080005B0DFF84C19DFF83409DFF83029D2F8B02112
S315080005C09047DFF82409407C002808D1DFF8341961
S315080005D0DFF81809DFF81429D2F8B0219047DFF8B8
S315080005E00809407C002808D1DFF81C19DFF8FC0848
S315080005F0DFF8F828D2F8B0219047DFF8EC08407CFD
S31508000600002808D1DFF80419DFF8E008DFF8DC284D
S31508000610D2F8B0219047DFF8D008407C002808D1EE
S31508000620DFF8EC18DFF8C408DFF8C028D2F8B021E4
S315080006309047DFF8B408407C002808D1DFF8D418C2
S31508000640DFF8A808DFF8A428D2F8B0219047DFF829
S315080006509808407C002808D1DFF8BC18DFF88C0819
S31508000660DFF88828D2F8B0219047DFF87C08407C6C
S31508000670002808D1DFF8A418DFF87008DFF86C281E
S31508000680D2F8B0219047DFF86008407C002808D1EE
S31508000690DFF88C18DFF85408DFF85028D2F8B021B4
S315080006A09047DFF84408407C002808D1DFF8741822
S315080006B0DFF83808DFF83428D2F8B021904701BDB2
S315080006C038B50400DFF82C08407A00283FD1DFF857
S315080006D0240801214172DFF81C08007A002809D095
S315080006E0DFF810080021017260220021DFF83808BF
S315080006F006F0CDF9DFF8FC07007ADFF8F81740189E
S3150800070080F8D040DFF8EC07007A401CDFF8E417E1
S315080007100872E4B20A2C02D0E4B20D2C03D1DFF839
S31508000720D40700214172DFF8C007407C002840F05A
S315080007308E80E4B22300DFF8F427DFF8F417DFF839
S31508000740AC07DFF8A857D5F8B051A8477FE0DFF81F
S31508000750A407407A01287AD1E4B20A2C02D0E4B27E
S315080007600D2C2BD1DFF88C07007A002813D0DFF880
S315080007707807407C002807D1A3A1DFF87007DFF8C7
S315080007806C27D2F8B0219047DFF86807017ADFF8BE
S31508000790980706F090FBDFF85007407C002808D140
S315080007A0DFF89017DFF84407DFF84027D2F8B021C2
S315080007B09047DFF840070021417248E0DFF8280734
S315080007C0407C002809D1E4B2220090A1DFF81C077A
S315080007D0DFF81837D3F8B0319847DFF81807007AEA
S315080007E0DFF81017401880F8D040DFF80807007ABD
S315080007F0401CDFF800170872DFF8F806007A602850
S3150800080025D3DFF8E406407C002807D17EA1DFF86F
S31508000810DC06DFF8D826D2F8B0219047DFF8D406F0
S31508000820017ADFF8040706F046FBDFF8BC06407CD1
S31508000830002808D1DFF8FC16DFF8B006DFF8AC268A
S31508000840D2F8B0219047DFF8AC060021417231BDDD
S3150800085038B504002078532838D054280ED05628A6
S3150800086077D0572800F0AF80592856D05A2819D083
S315080008705E283FD0ED2800F0C380C4E0DFF86806A4
S31508000880407C002808D1DFF8B016DFF86006DFF8EC
S315080008905C26D2F8B02190470020DFF8A016896AB6
S315080008A08847B0E0DFF84006407C002808D1DFF82A
S315080008B09016DFF83806DFF83426D2F8B0219047CC
S315080008C0DFF88006D0F8E00080479CE0DFF81806DD
S315080008D0407C002808D1DFF87016DFF81006DFF82C
S315080008E00C26D2F8B02190470020DFF85016C96AC6
S315080008F0884788E0DFF8F005407C002809D162794E
S31508000900DFF84816DFF8E405DFF8E035D3F8B0314C
S315080009109847607906F0C4F975E0201D0500287A25
S31508000920012815D3287ADFF8C015898880B288424D
S315080009300ED260780A280BD1DFF8AC05297A80F840
S315080009403A10DFF8A405697A80F83B1006F084F9B6
S3150800095059E0201D0500A87ADFF88C1591F84E108D
S31508000960884205D12868DFF88015496C884229D065
S31508000970A87ADFF8741591F84E10884207D0A87A3D
S31508000980112804D2012095F90A10884028602B689E
S31508000990AA7ADFF8540590F83B10DFF84C05C07AC0
S315080009A006F0ECF8DFF84005407C002808D1DFF8AF
S315080009B0A015DFF83805DFF83425D2F8B0219047BE
S315080009C001F069F91FE0201D05002888FA2816D2CB
S315080009D0A879012813D3A879512810D2E8790128D3
S315080009E00DD3E87904280AD260780E2807D10E229A
S315080009F02900DFF8600506F007F806F02DF902E091
S31508000A00200003F0A5FB31BD0A0D00002563000098
S31508000A10F0B595B004000D00022C02DA01F080FF53
S31508000A205EE2686800783F2804D1022C02D1FFF7FD
S31508000A30ABFD55E2DFF820252900200006F00CFA68
S31508000A4006005FF0FF3140B2884200F0498276B274
S31508000A50002EEFD0DFF89C04C0680028EAD076B2F2
S31508000A603000612800F08780622800F00082632841
S31508000A7000F05B816A285BD06B2800F074816C28D3
S31508000A8000F0EF806E2808D0722800F0BC80742829
S31508000A902AD0782800F093801FE202AACBA1DFF8BB
S31508000AA05404C06814F014FA0298DFF83C148988D4
S31508000AB08842BFDADFF83004029980F83A105920E4
S31508000AC08DF80C00DFF82004C088ADF80E000A2067
S31508000AD08DF80D000A22DFF8841404A805F094FFA7
S31508000AE003A8FFF7B5FEA5E702AAB8A1DFF8040434
S31508000AF0C06814F0EDF9029810289BDBDFF8E803CC
S31508000B00029980F83B1059208DF80C00DFF8D803BD
S31508000B10C088ADF80E000A208DF80D000A22DFF80D
S31508000B203C1404A805F070FF03A8FFF791FE81E7BF
S31508000B3002AAA6A1DFF8BC03C06814F0C9F9029896
S31508000B401028BFF677AF5E208DF80C00DFF8980303
S31508000B50C088ADF80E0001208DF80D00DFF8880377
S31508000B6090F83A008DF8100002988DF8110003A845
S31508000B70FFF76EFE5EE702AA94A1DFF87803C06865
S31508000B8014F0A6F902980428BFF654AFDFF8580304
S31508000B900299C17257208DF80C00DFF84C03C08803
S31508000BA0ADF80E000E208DF80D000E22DFF8A41306
S31508000BB004A805F029FF03A8FFF74AFE3AE702AAA8
S31508000BC082A1DFF83003C06814F082F90298FB2886
S31508000BD0BFF630AFDFF810030299818057208DF8F1
S31508000BE00C00DFF80403C088ADF80E000E208DF85F
S31508000BF00D000E22DFF85C1304A805F005FF03A814
S31508000C00FFF726FE16E702AA70A1DFF8E802C06819
S31508000C1014F05EF9DFF848030078002803D0DFF8FF
S31508000C20440306F0DAF9B048407C002801D00020D9
S31508000C3000E00120AC494874AB48407C002801D04C
S31508000C40002000E00120DFF818130870DFF8100311
S31508000C50007800283FF4EEAEDFF80C0306F0BDF985
S31508000C60E8E602AA59A1A348C06814F031F9B548C4
S31508000C7090F82A0000280CD19B48407C00287FF475
S31508000C80D9AEDFF8E8129948984AD2F8B0219047C9
S31508000C90D0E69548407C002808D1AA4890F82A2032
S31508000CA0B3499248914BD3F8B031984700200700D2
S31508000CB0A44890F82A00FFB2874211D28A48407C9D
S31508000CC000280BD1FFB29F4810EB470090F82C2064
S31508000CD0A8498648854BD3F8B03198477F1CE7E783
S31508000CE08148407C002805D181A180487F4AD2F8F6
S31508000CF0B021904700200700924890F82A00FFB2DA
S31508000D008742BFF497AE7848407C00280BD1FFB2E3
S31508000D108C4810EB470090F82D2096497348734B82
S31508000D20D3F8B03198477F1CE6E7934802F026F8D7
S31508000D3002F011FD00283FF47DAE8248407A002873
S31508000D403FF478AE6848407C00287FF473AE7D484F
S31508000D50437A654890F83A2088496448634FD7F83B
S31508000D60B071B84766E602AA18A16248C06814F0CE
S31508000D70AFF802F0E0FC00282AD05B48407C002847
S31508000D8009D1402000902023029A7D495748574FA1
S31508000D90D7F8B071B84702982028FFF64BAE0298EC
S31508000DA04028BFF647AE67480069029981716348D3
S31508000DB0808A50F0400061498882624800690021B3
S31508000DC0C1716D4801F0DAFF34E600BF2564000002
S31508000DD05C4890F82A0000283DD04348407C00280B
S31508000DE019D1584890F82B000090564890F82B00D7
S31508000DF0544911EB400090F82D30524890F82B00DA
S31508000E00504911EB400090F82C205E493748374F7F
S31508000E10D7F8B071B8474B4890F82B00494911EB01
S31508000E20400090F82C0047494876464890F82B0031
S31508000E30401C444981F82B00424890F82B00414950
S31508000E4091F82A108842FFF4F5AD822200214E4817
S31508000E5005F01DFEEEE52448407C00287FF4EAAD47
S31508000E604A492248214AD2F8B0219047E2E502AA27
S31508000E7022A12048C06814F02BF80298002802D056
S31508000E8004280FD028E01848407C002805D140499E
S31508000E901648164AD2F8B021904701F0CDFC00F06A
S31508000EA0FAFE19E01048407C002805D139490F4858
S31508000EB00E4AD2F8B02190472248807D50F00400AF
S31508000EC020498875344801900C2000905A23002246
S31508000ED00221044806F0F2F8ACE5FFF755FBFFE7F8
S31508000EE015B0F0BDEC0C0020900D0020C40A0020BF
S31508000EF00D0A000058070020807C010825640000C0
S31508000F00AC7C0108D07C0108F47C0108187D010836
S31508000F10487D0108747D0108AC7D0108CC7D010877
S31508000F20F07D01081C7E010828080020647E01085F
S31508000F305C7E01086C7E0108747E01086010002042
S31508000F40807E0108580E00208C7E01089C7E0108D0
S31508000F50BC7E0108940D00203C800108C20D0020CB
S31508000F60940C0020E47E0108FC7E0108107F01082D
S31508000F70287F0108447F01087A1000204C7F010869
S31508000F80747F0108907F0108820E0020C47F010843
S31508000F90D87F0108248001086C0E0020C0B20728FB
S31508000FA005D1C9B2012902D1374A01231370C0B24B
S31508000FB0002805D1C9B2012902D1344A0123137088
S31508000FC0704710B500200400E4B2002C06D1304862
S31508000FD016F056FB0400E4B2002CFFD010BD70B525
S31508000FE00400250008200600F6B2012E0FD3294872
S31508000FF0407C002809D1F6B2701910F8012C264950
S315080010002648264BD3F8B0319847761EECE770BDD4
S3150800101070B50400200080B206F028FD0600012005
S31508001020B04020490988084214D01D48392141801A
S315080010301D4803781A4A210089B2002007F024FACD
S31508001040184800880121B1404FF6FF725140084008
S31508001050144908800120B04012490988084206D17F
S31508001060200080B206F031FD0500EDB2002D70BDFE
S3150800107038B504000D00EDB2002D03D0200080B273
S31508001080FFF7C6FF31BD00001E1400201F14002004
S31508001090A20D0020900D002060800108C40A0020DF
S315080010A0780C002004140020900A002070B584B043
S315080010B004000D00EDB2012D14D100AA01A92000EB
S315080010C0C0B206F0FAFA0600F6B2002E0AD19DF86A
S315080010D00000062806D12000C0B206F0E0FA80B269
S315080010E006F0E4FC7FBD704780B501F07EFA07F094
S315080010F013F852494873524800785049497B884248
S315080011003AD04E48407B002806D001280FD0022846
S3150800111018D0042821D02BE04A48407C002827D143
S3150800112049494A48494AD2F8B021904720E04548FB
S31508001130407C00281CD146494448444AD2F8B0218C
S31508001140904715E03F48407C002811D141493F4867
S315080011503E4AD2F8B02190470AE03A48407C002837
S3150800116006D13D493948394AD2F8B0219047FFE7B8
S315080011703248407B324908703048407B002802D00C
S31508001180022803D00CE001F023F909E02B48007887
S31508001190012804D129480021017007F07FFCFFE7E8
S315080011A02E48808840F2D171884205D2202101203C
S315080011B02A4A526B90470BE020210320274A526B9C
S315080011C09047002804D020210220244A526B9047D9
S315080011D02248006B8047002807D02048006B8047CC
S315080011E01849898880B281420CD2402103201B4AC3
S315080011F0526B9047002805D140210120174A526BAF
S31508001200904718E01548006B8047012813D3134808
S31508001210006B80470B49898880B281420BD34021F5
S3150800122003200E4A526B9047002804D04021012023
S315080012300A4A526B904701BD00000000E80D0020E5
S31508001240910A0020900D002068800108C40A002039
S3150800125084800108A4800108C48001086010002069
S315080012602DE9FC4704000D001600F6B2DFF88006EB
S315080012700068305C070007F0CBFD8046002130008F
S31508001280C0B204F029FA8146DFF8680690F83A00F9
S31508001290DFF8641608706888DFF85C164870DFF8AF
S315080012A05806FF2181706888132800F0FD825028AF
S315080012B02AD0512800F06B82522800F0BD825328AC
S315080012C000F01A81542800F0E980552800F0CF82F2
S315080012D0562800F0DC81572800F09781582800F03E
S315080012E0B081592800F002825A2800F060815B28F4
S315080012F000F02C825C2800F089805D2800F073825B
S315080013005E2800F02781D0E299F80000DFF8E4159E
S3150800131091F83A10884207D099F80300DFF8D415F7
S3150800132091F83A10884264D1DFF8C805407C002855
S315080013300FD199F80300009099F8023099F8002027
S31508001340DFF8B815DFF8B805DFF8B4C5DCF8B0C1C2
S31508001350E04702F0F0F9002835D0DFF8A805006963
S315080013600021C171DFF89C050069C07899F8021060
S31508001370884205D0DFF88C05006999F80210C1701B
S31508001380DFF8800500698079002804D0DFF8740545
S3150800139000690021817199F80200022806D1DFF858
S315080013A06405006999F80310417104E0DFF85405F3
S315080013B0006900214171DFF84C050069C078DFF843
S315080013C03815887015E002F0C6F9002811D099F88A
S315080013D00200022805D1DFF82C0599F800104172A1
S315080013E003E0DFF8200500214172DFF80C05002133
S315080013F08170DFF804050190032000905F23002226
S315080014000221DFF8040505F059FE6EE299F800009E
S31508001410DFF8E01491F83A10884232D1DFF8D404A4
S31508001420407C00280CD199F8013099F80020DFF8A3
S31508001430DC14DFF8CC04DFF8C8C4DCF8B0C1E04738
S31508001440DFF8B40499F801104170FFB2B81E4008DD
S31508001450DFF8A414887019F10202DFF89C04817879
S31508001460DFF89404407802F0FBFBDFF88C148870F0
S315080014706888DFF884144870DFF87C0499F801104E
S31508001480C170DFF874040190042000905F230022E5
S315080014900221DFF8740405F011FE26E299F800002F
S315080014A0DFF8501491F83A10884218D1DFF844044E
S315080014B0407C00280AD199F80020DFF85414DFF898
S315080014C04004DFF83C34D3F8B03198474846DFF893
S315080014D04414896A8847DFF8200400218170DFF800
S315080014E018040190032000905F2300220221DFF8F0
S315080014F0180405F0E3FDF8E199F80000DFF8F413A5
S3150800150091F83A10884218D1DFF8E803407C0028A1
S315080015100AD199F80020DFF80014DFF8E403DFF8B1
S31508001520E033D3F8B03198474846DFF8E813C96A7C
S315080015308847DFF8C40300218170DFF8BC030190F7
S31508001540032000905F2300220221DFF8BC0305F088
S31508001550B5FDCAE199F80000DFF8981391F83A103A
S31508001560884217D1DFF88C03407C00280AD199F805
S315080015700120DFF8A813DFF88803DFF88433D3F8EF
S31508001580B031984799F8010005F08AFBDFF868033F
S3150800159000218170DFF860030190032000905F232B
S315080015A000220221DFF8600305F088FD9DE199F825
S315080015B00000DFF8401391F83A1088421AD1DFF894
S315080015C03403407C00280AD199F80020DFF850132C
S315080015D0DFF82C03DFF82833D3F8B0319847DFF863
S315080015E02403D0F8E000804702F082F9DFF8080308
S315080015F000218170C0480190032000905F230022DB
S315080016000221C14805F05AFD6FE1FFB20E2F0DD138
S315080016100E224946C34805F03BFA002806D00E229A
S315080016204946C04805F0F0F905F016FBBD4801909B
S315080016300E200090572300220221B34805F03EFDF4
S3150800164053E1FFB2202F17D1AA48407C002805D1C4
S31508001650B549AB48AA4AD2F8B02190472022494654
S31508001660B24805F015FA002806D020224946AF48A8
S3150800167005F0CAF905F0F0FAAC4801902020009070
S31508001680582300220221A04805F018FD2DE1FFB2DB
S31508001690142F20D19748407C002805D1A4499848A2
S315080016A0974AD2F8B021904714224946A14805F036
S315080016B0EFF900280FD0142249469E4805F0A4F9F0
S315080016C08C4890F84E00102805D28A484FF6FF71CC
S315080016D0416405F0C1FA97480190142000905623FA
S315080016E000220221884805F0E9FCFEE0CA469AF87D
S315080016F0080001281FD39AF808007E49898880B215
S31508001700884218D2FFB20A2F15D17A48407C0028A1
S3150800171005D189497A487A4AD2F8B021904775485E
S315080017209AF8081080F83A1072489AF8091080F862
S315080017303B1005F091FA814801900A200090592340
S3150800174000220221704805F0B9FCCEE099F80000A5
S31508001750684991F83A1088420ED16648407C0028BC
S3150800176005D177496648664AD2F8B021904701F014
S3150800177063F86148002181705F480190032000905A
S315080017805F2300220221604805F098FCADE099F835
S315080017900000584991F83A10884219D15548407CBA
S315080017A0002805D167495648554AD2F8B0219047CE
S315080017B051480021817050480190032000905F2312
S315080017C000220221504805F079FC00F064FA8CE00A
S315080017D049480190032000905F23002202214A48CD
S315080017E005F06CFC81E0FFB23A0092B249464548E2
S315080017F0D0F8B00005F008F93F48002181700021B3
S315080018000800C0B2FFB2B8420BD23B498978C0B2D1
S315080018103C4AD2F8B020825C5118374A9170401C75
S31508001820EFE735480190032000905F23002202214C
S31508001830354805F043FC58E001F08DFF002806D036
S315080018403448808A50F01000324988824DE001F011
S3150800185072FF002849D02B480069C079002844D077
S315080018602C48808A50F040002A4988823DE0484644
S3150800187005F079FC20210320264A526B9047002860
S3150800188004D020210220234A526B90471A4800218F
S31508001890817019480190032000905F2300220221DD
S315080018A0194805F00BFC20E01FE0688813281CD0B7
S315080018B01048407C00280AD11FFA88F843466A88EF
S315080018C021490F48DFF838C0DCF8B0C1E0470A48BC
S315080018D0FE21817008480190032000906B88DBB2D6
S315080018E000220221084805F0E9FBBDE8F38700BF9E
S315080018F018090020900D0020840C0020E4800108BF
S31508001900C40A0020580E0020EC0C00202081010893
S315080019104C8101086010002070810108948101083B
S31508001920BC810108940D0020DC810108A20D00206D
S315080019300C820108D40D002040820108C20D002047
S3150800194074820108B0820108F082010810B51822D5
S315080019500021624805F09BF861486249B1F84810D1
S31508001960A0F860105E485F4991F94C1080F8621043
S315080019705B485C4991F84D1080F8631008225A4973
S31508001980564805F041F807F0CBFA0400E4B2002CFB
S3150800199005D007B52B21554803F026FAFFE710BDF9
S315080019A000B583B04E48807C01280DD14C48C07CD8
S315080019B0002809D14E4801900C200090552300229A
S315080019C001214C4805F07AFB07BD80B54448C06C38
S315080019D0002802D04248C06C804701BD80B5404807
S315080019E0806C80473E48806B804701BD80B503F018
S315080019F085FC414815F081FE01BD80B53848006A6E
S31508001A0080473748406A80473548806A8047344867
S31508001A10406B002802D03248406B804701BD80B534
S31508001A20012300220821012005F0F8FA002805D034
S31508001A30012300220821012005F0F0FA01BD7047B4
S31508001A4080B508222D492E4804F0DEFF2548407C43
S31508001A5000280CD12248807C012801D1294A00E0BF
S31508001A60294A2A492A482A4BD3F8B031984701BD52
S31508001A7080B52848082101701948006B8047FFF790
S31508001A80DFFF01BD7047704780B500F0B4F8FFF777
S31508001A90C6FFFFF7D4FFFEF7A3FC00F0ABF807F08C
S31508001AA0C1F900F0E9FE00F053F900F05FFAFFF71C
S31508001AB0E9FFFFF7E8FFFFF749FFFFF7D9FF0848F7
S31508001AC04068401C0649486000F034F80448C06A7B
S31508001AD08047FFF792FFFFF789FFF0E7400E0020E7
S31508001AE0E80D0020900D0020DF0D00201C83010862
S31508001AF064100020EC0C002058830108A410002074
S31508001B00C20D002034830108448301082C83010890
S31508001B10C40A002030140020DFF8C4010121016046
S31508001B20DFF8C0014EF6BE210160DFF8BC010121D5
S31508001B3001607047DFF8A80101210160704730B4E1
S31508001B408308DFF8A84154F823301B681A000F23CE
S31508001B5010F00304E4B2A400A3409A4310F0030370
S31508001B60DBB29B0011FA03F3134384085F4D55F863
S31508001B702440236030BC704780B502F024FF40F64D
S31508001B808C21884206D25A48006850F00800584905
S31508001B90086004E05648016821F00801016001BDAB
S31508001BA0C0B2082190FBF1F103290DDAC0B2082171
S31508001BB090FBF1F14FF480624E4B02FB013101229A
S31508001BC010F007039A400A607047C0B2082190FBDC
S31508001BD0F1F103290DDAC0B2082190FBF1F14FF4B7
S31508001BE08062454B02FB0131012210F007039A403F
S31508001BF00A607047704780B502237F223F480188F4
S31508001C003F4807F0A5FB3E4800884FF6FF7188421B
S31508001C1001D107F035FC002007F09CFC3448006829
S31508001C2050F008003249086007F052FC07F014FC2F
S31508001C30FFF772FF00F03AF8FFF79EFF3148C92117
S31508001C4001603148792101603048E7210160304858
S31508001C5049F6D95101602F4848F6111101602E48FE
S31508001C6049F2994101602D4840F2191101602C484A
S31508001C7044F6991101602B4849F6941101601C48F5
S31508001C80016821F010010160FEF7C5FA07F074FD3E
S31508001C9002F0A6FB01BD80B540F2016007F094FC96
S31508001CA001BD80B5042007F0CAFB01BD80B51E48FA
S31508001CB0102101601D48022101601D484FF4006192
S31508001CC0016007F0C5FC1B48072101601A4800217E
S31508001CD001601A4810210160002002BD00000000C2
S31508001CE008600040046000400060004070830108FE
S31508001CF000BC004010B0004014B00040BA9401087F
S31508001D00820A00200CB000400CB400400CB8004019
S31508001D1000B0004004B0004000B4004004B40040E5
S31508001D2000B8004004B8004080E100E00800004028
S31508001D300C60004014A0004054A0004000E100E000
S31508001D40DFF808000021016070470000E80C002059
S31508001D5080B570220021724804F099FE704801216E
S31508001D6001736F48002141736D48002181736C48E7
S31508001D700021C1736A480021018169480021417424
S31508001D806748012101756648002101746448654960
S31508001D900162634864494162614864490165604873
S31508001DA0634941655E48022181745D480221C17418
S31508001DB05B486049C1625A485F49016358485F49B0
S31508001DC0C16357485E49016455485E4941645448B1
S31508001DD05D49816352485D49816251485C49816425
S31508001DE04F485C49C1644E480021416305F08DF9AE
S31508001DF005F0DEF904F0F9FF574808F0A7FA01BD27
S31508001E00564AB2F84A200A80C0B24880444A127B31
S31508001E100A71434A127B4A714FF4A072CA8070470E
S31508001E204E4AB2F84A200A80C0B248803C4A127B21
S31508001E300A713B4A127B4A710022CA8041F211128A
S31508001E400A8170472DE9FF4104000D0016001F00A6
S31508001E50002F02D0F6B2002E03D10120060000A8FA
S31508001E6007003100C9B2380003F049FB80465FFA23
S31508001E7088F8B8F1FF0F01D1FF2014E001A920006E
S31508001E80C0B2FFF7BDFF4346DBB201AA290089B2FB
S31508001E90002006F0F9FA8DF800004046C0B203F0BB
S31508001EA0AEFA9DF8000004B0BDE8F081F0B585B043
S31508001EB004000D001600002E02D0EDB2002D03D14D
S31508001EC00120050000A806002900C9B2300003F069
S31508001ED016FB0700FFB2FF2F01D1FF2013E001A96F
S31508001EE02000C0B2FFF79CFF3B00DBB208220021AE
S31508001EF001A806F015FB8DF800003800C0B203F003
S31508001F007EFA9DF8000005B0F0BD1549096808007D
S31508001F1041F2111101800249097B81707047000066
S31508001F20E80D00209D8F0008819D0008451E0008C9
S31508001F30AD1E000855270008ED26000861120008A6
S31508001F40812000085D210008E9100008493E0008C4
S31508001F5069400008693F0008C40A0020900D002067
S31508001F604409002080B5FFF7E5FD01BD10B53848E6
S31508001F7000210160374801210160374801210160CD
S31508001F803648002101603548602101600921062094
S31508001F90FFF7D5FD00F03AF800F042F800F04AF8ED
S31508001FA000F027F82E484FF47A7101602D480A216F
S31508001FB001602D480021016002F004FA04002B4854
S31508001FC04FF4807101602A48006850F001002849E2
S31508001FD008602000C0B202F0F1F910BD4FF47A7122
S31508001FE0081A002804D4B0F57A7F01DC1D49086078
S31508001FF070472048006850F040001E4908601D4898
S31508002000006850F080001B490860704780B50121C0
S315080020101720FFF794FD01211620FFF790FD01BD5B
S3150800202080B501210820FFF78AFD01210720FFF767
S3150800203086FD01BD1048006850F001000E49086091
S315080020400E48006850F080000C4908607047000090
S3150800205050E0004028E0004014E000401CE000404A
S315080020602CE000403CE0004024E0004020E0004036
S3150800207000E0004010B8004010B4004010B0004026
S315080020802DE9FC4105000E0017009846089C788843
S31508002090DFF824178968497889B288425CD1E4B2A6
S315080020A0002C55D0DFF81407407C00280DD138885D
S315080020B000907B88E4B22200DFF80417DFF80407F3
S315080020C0DFF800C7DCF8B0C1E04701F034FB0028B0
S315080020D016D0DFF8E4068068801D0190DFF8D80680
S315080020E0806880780090DFF8D00680684378DFF84B
S315080020F0C806806882880221DFF8BC0604F0DEFF85
S31508002100DFF8C406407C401CDFF8BC164874C0B231
S31508002110022821D3DFF8A406407C00280BD1DFF87B
S31508002120A806427CDFF8A416DFF89806DFF894368E
S31508002130D3F8B0319847DFF8900600214174DFF8EC
S31508002140700601210170DFF868060021817303E03B
S31508002150DFF8740600214174BDE8F38130B589B013
S315080021600400E4B22000902809D0912800F0EB8002
S31508002170942800F0FF80AB2800F00B8126E1DFF8F9
S315080021803C06407C002808D1DFF84416DFF8340600
S31508002190DFF83026D2F8B021904702A805F0CEFF26
S315080021A000282ED1DFF81406407C002808D1DFF875
S315080021B02416DFF81006DFF80C26D2F8B02190476F
S315080021C0DFF8F805407C00280CD1BDF810309DF8E2
S315080021D01320DFF80416DFF8EC05DFF8E855D5F824
S315080021E0B051A847DFF8D405407C002809D102AAD7
S315080021F0DFF8E815DFF8CC05DFF8C835D3F8B031D5
S315080022009847DFF8AC0590F863001A280FD1DFF875
S31508002210AC05407C002840F09380DFF8C415DFF851
S31508002220A405DFF8A025D2F8B021904788E0DFF8AA
S315080022308005B0F86000BDF81010884207D1DFF8B5
S31508002240700590F863009DF8131088422CD0DFF8CB
S315080022506C05407C002810D1DFF85405B0F86030D2
S31508002260DFF84C0590F86320DFF87815DFF8540599
S31508002270DFF85055D5F8B051A847DFF84005407C3F
S3150800228000280CD1BDF810309DF81320DFF858153A
S31508002290DFF83005DFF82C55D5F8B051A847DFF838
S315080022A01005012101704BE0DFF81005B0F8480071
S315080022B0DFF8FC14B1F86010884209D1DFF8FC0495
S315080022C090F84D00DFF8E81491F8631088421FD0A3
S315080022D0DFF8E804407C002808D1DFF81015DFF89D
S315080022E0E404DFF8E024D2F8B0219047DFF8CC0404
S315080022F0DFF8BC14B1F86010A0F84810DFF8BC0489
S31508002300DFF8AC1491F8631080F84D1004F0A4FCC3
S31508002310DFF8DC0401210170DFF8940402218173DF
S31508002320DFF88C040021C173DFF8C80401900C2083
S315080023300090522300220221DFF87C0404F0BEFE3E
S31508002340FFF7E3FD42E0DFF8680400214173DFF898
S31508002350600400218173DFF86404407C002835D1CD
S31508002360DFF89414DFF85C04DFF85824D2F8B021BB
S3150800237090472BE0DFF84404407C002826D1DFF89C
S315080023807C14DFF84004DFF83C24D2F8B0219047EB
S315080023901CE0DFF82804407C002808D1DFF8601428
S315080023A0DFF82004DFF81C24D2F8B0219047DFF8C4
S315080023B01804407C401CDFF810144874C0B2032887
S315080023C004D3DFF8040400214174FFE709B030BDE7
S315080023D0F8B55FF0FF30040000200500DFF81004B0
S315080023E0007801283DD1DFF8080400210170DFF8E4
S315080023F0D80305210170DFF8D00301214170DFF809
S31508002400040400210170DFF8000464218170182299
S315080024100021DFF8A00304F03AFB0822DFF8EC13EA
S31508002420DFF8900304F0F0FADFF88403DFF88C1382
S31508002430B1F84810A0F86010DFF87403DFF87C13D1
S3150800244091F94C1080F86210DFF86403DFF86C131A
S3150800245091F84D1080F86310DFF85403002180F8D6
S315080024606410DFF86403007801281FD3DFF84C03F3
S3150800247090F84D000B2814D3DFF8400390F84D0070
S315080024801B280ED2DFF840030078401EDFF8381309
S315080024900870DFF81C03002180F86410012005008D
S315080024A095E0DFF824030021017090E0DFF81803B7
S315080024B04078012807D1DFF8100300214170DFF8C2
S315080024C050030121017007F0BBFA002800F07F8055
S315080024D000200700DFF83C030078FFB2874201D2EC
S315080024E07F1CF7E7DFF82C030078002805D1DFF812
S315080024F0200301210170012076E0C24800780128F6
S315080025000BD3C0480078401EBE490870A848002171
S3150800251080F864100120050059E00020040000201E
S315080025200700BC480078FFB2874210D2FFB20620E7
S31508002530B54900FB0710807864B20621B24A01FB50
S3150800254004218978884200D23C007F1CE9E764B2FE
S315080025500620AD4900FB04108078642832D064B2A6
S315080025600620A94900FB041064218170A5480321AF
S315080025700170182200218F4804F089FA0822A3491D
S315080025808C4804F041FA64B206209F4900FB041007
S3150800259080888749A1F860008548884991F94C10D8
S315080025A080F8621064B20620974900FB0410C078D0
S315080025B07F4981F863007E48002180F86410012075
S315080025C0050004E092480121017000200CE0EDB2FC
S315080025D0012D08D100200500FEF7F3FC75490220FD
S315080025E003F098FA06000120F2BD80B58848007805
S315080025F0012804D107F0A0FA85480021017007F0E8
S31508002600A4FA07F013FA002803D08049824807F095
S315080026109FFA01BD694890F83A0080B2704767484A
S31508002620C07A022803D1654890F83B0000E01020E4
S31508002630704710B40200D2B2012A1AD15F48C07A94
S31508002640022807D16048007F08435F4B18775E4829
S31508002650007F3DE05C485C4B1B7FDBB251EA5303CD
S31508002660047F63F3470404775748007FC0B24008E5
S315080026702EE0D2B2022A1CD15048C07A022807D1CD
S315080026805148007F8843504B18774F48007F1FE01A
S315080026904D484D4B1B7FDBB2C9B2CC4314EA5303FA
S315080026A0047F63F3470404774748007FC0B24008B5
S315080026B00EE04248C07A022804D14348007F084009
S315080026C0C0B205E04048007FC0B211EA5000C0B26F
S315080026D010BC70473948C07A022802D13A48407F70
S315080026E003E03948007F10F00100704780B5334891
S315080026F0C07A022802D100F0B5FE1CE03248818A71
S3150800270021F01001818230482C4991F83A10418312
S315080027102A48007B800707D52B48642141773F4824
S315080027202949896A884706E02748002141773B48B6
S315080027302549C96A884724483949016322483949DD
S3150800274081632148384941631F483849C163FFF707
S31508002750F7FA01BD10B592B035483549C96C8847B6
S31508002760002816D132483249896C88470400314816
S31508002770002101802100C9B21248124AD2F89821D4
S31508002780904710480078002803D12000C0B2FDF712
S3150800279097FF00A90B480B4AD2F8942190470028C6
S315080027A002D000A8FEF754F812B010BD00000000D1
S315080027B0E80D0020400E0020EC0C0020900D0020B3
S315080027C088830108C40A002060100020B883010825
S315080027D0F883010824840108448401086C840108EC
S315080027E08C840108A4840108CC840108EC840108BF
S315080027F0930A00207A1000202885010854850108CC
S315080028008085010821140020C0100020AC8501082D
S31508002810201400208C09002000F8FF077D100020F6
S31508002820152600081F26000833260008D5260008A6
S31508002830940C0020580E0020F8B502200400002051
S315080028400600E4B2022C02D12020050007E0E4B21B
S31508002850032C02D11020050001E0102005004FF6D8
S31508002860FF7007003B003200D2B22900C9B220002F
S31508002870C0B204F083F9F1BD80B5DFF8702758219E
S31508002880002007F0C5FDDFF86407008845F2AA5165
S31508002890884204D1DFF854074088582802D0FFF749
S315080028A0CBFF23E0DFF8440790F84D000B280BD345
S315080028B0DFF8380790F84D001B2805D2DFF82C07FB
S315080028C090F84E00112802D3FFF7B6FF0EE0DFF8A6
S315080028D01C0790F83B00012808D0DFF8100790F88D
S315080028E03B00102802D2FFF7A7FFFFE701BD80B51E
S315080028F0DFF8F806407C002805D1DFF8F00601214C
S31508002900417404F0A9F9DFF8E406407C002801D0F8
S31508002910002000E00120DFF8D816087001BD00008D
S3150800292030B58BB072A00400DFF8C006407C0028E2
S3150800293008D1DFF8C416DFF8BC06DFF8B826D2F8E7
S31508002940B0219047DFF8A406407C00280BD1DFF8B9
S315080029509C06C288DFF8A416DFF89806DFF89436D6
S31508002960D3F8B0319847DFF88406407C00280BD1AD
S31508002970DFF878068288DFF88816DFF87806DFF849
S315080029807436D3F8B0319847DFF86006407C0028E3
S315080029900CD1DFF8580690F83B20DFF86816DFF808
S315080029A05406DFF85036D3F8B0319847DFF83C06BE
S315080029B090F83B00012809D3DFF8300690F83B0071
S315080029C0102803D2DFF8400604004EE0DFF81C06A4
S315080029D090F83B00102809D3DFF8100690F83B0062
S315080029E0202803D2DFF8240604003EE0DFF8FC05C1
S315080029F090F83B00202809D3DFF8F00590F83B0053
S31508002A00402803D2DFF8080604002EE0DFF8DC05CC
S31508002A1090F83B00502809D3DFF8D00590F83B0022
S31508002A20602803D2DFF8EC0504001EE0DFF8BC05D9
S31508002A3090F83B00102809D3DFF8B00590F83B0062
S31508002A40202803D2DFF8D00504000EE0DFF89C0545
S31508002A5090F83B00102808D3DFF8900590F83B0063
S31508002A60302802D2DFF8B4050400DFF88005407C80
S31508002A70002808D12200C0A1DFF87805DFF87435F0
S31508002A80D3F8B0319847DFF86405407C00280BD1AD
S31508002A90DFF85805027BDFF88815DFF85805DFF8F8
S31508002AA05435D3F8B0319847DFF87805807C02288A
S31508002AB011D1DFF83805407C00280CD1DFF82C0549
S31508002AC090F83A20DFF86015DFF82805DFF8243596
S31508002AD0D3F8B0319847DFF81405407C002814D1A4
S31508002AE0DFF80805407C002804D0DFF8402503E01D
S31508002AF000000000DFF83825DFF83815DFF8F404A1
S31508002B00DFF8F034D3F8B0319847DFF8E004407CBA
S31508002B1000280BD1DFF8D404827BDFF81C15DFF818
S31508002B20D404DFF8D034D3F8B0319847DFF8BC04C2
S31508002B30407C00280BD1DFF8B404C27BDFF8FC1414
S31508002B40DFF8B004DFF8AC34D3F8B0319847DFF8D3
S31508002B509C04407C00280BD1DFF89004027CDFF847
S31508002B60E014DFF89004DFF88C34D3F8B0319847D6
S31508002B70DFF87804407C002808D1DFF8C814DFF8AD
S31508002B807404DFF87024D2F8B0219047DFF8B8044F
S31508002B90FEF725FADFF85404407C00280BD1DFF84D
S31508002BA04C04827ADFF8A414DFF84804DFF84434CA
S31508002BB0D3F8B0319847DFF83404407C00280BD1AD
S31508002BC0DFF82804427BDFF88814DFF82804DFF8EA
S31508002BD02434D3F8B0319847DFF81004407C002835
S31508002BE00BD1DFF80804426CDFF86814DFF8040438
S31508002BF0DFF80034D3F8B0319847DFF8F003407CAB
S31508002C0000280CD1DFF8E40390F84E20DFF84814CA
S31508002C10DFF8E003DFF8DC33D3F8B0319847DFF8A4
S31508002C20CC03407C002812D1DFF8C003007AC3B277
S31508002C30DFF8B803008980B2020A92B2DFF81C14E2
S31508002C40DFF8B003DFF8AC53D5F8B051A84704A8AD
S31508002C5005F074FA002820D1DFF89003407C00289C
S31508002C600AD1BDF81820DFF8F813DFF88803DFF873
S31508002C708433D3F8B0319847DFF87003407C0028D6
S31508002C802FD19DF81B20DFF8DC13DFF86803DFF887
S31508002C906433D3F8B031984723E0DFF85003407C1B
S31508002CA000280CD1DFF84403B0F84820DFF8B01349
S31508002CB0DFF84003DFF83C33D3F8B0319847DFF844
S31508002CC02C03407C00280CD1DFF8200390F84D2017
S31508002CD0DFF89013DFF81C03DFF81833D3F8B031A8
S31508002CE09847DFF80803407C00280CD1DFF8FC027F
S31508002CF090F84C20DFF87013DFF8F802DFF8F432AA
S31508002D00D3F8B0319847DFF8E402407C00280CD1AC
S31508002D10DFF8D802B0F84A20DFF85013DFF8D402FB
S31508002D20DFF8D032D3F8B0319847DFF8C002407CDC
S31508002D3000281ED1DFF83803807A0390DFF83003C5
S31508002D40407A0290DFF82803007A0190DFF8200322
S31508002D50C0790090DFF818038379DFF814038288B6
S31508002D60DFF81013DFF88C02DFF88852D5F8B05177
S31508002D70A8470BB030BD00002573000070B588B0B9
S31508002D800400002C00F02E81DFF86002C07A0128CA
S31508002D9040F0CE80DFF85402407C002809D1228812
S31508002DA0DFF8D412DFF84C02DFF84832D3F8B03136
S31508002DB09847DFF83802407C00280AD1A078C0B2CC
S31508002DC04208D2B2DFF8B4128A488A4BD3F8B03137
S31508002DD098478648407C00280ED1A078C00702D5BF
S31508002DE0DFF89C2201E0DFF89C22DFF89C1281487C
S31508002DF0804BD3F8B03198477C48407C00280DD1E9
S31508002E002079C00701D578A201E0DFF88022DFF833
S31508002E1080127848774BD3F8B03198477348407C8E
S31508002E2000280AD12079C0B24208D2B2DFF864126B
S31508002E307048704BD3F8B03198476C48407C0028EE
S31508002E4007D16279DFF850126A486A4BD3F8B03175
S31508002E5098476648407C002807D1627ADFF83C121A
S31508002E606448644BD3F8B03198476048407C0028E2
S31508002E7008D1A07A10F00F0289495E485D4BD3F855
S31508002E80B03198475948407C002809D1A07AC0B289
S31508002E900209D2B283495748564BD3F8B0319847FE
S31508002EA05248407C002806D1E27A7F495148514B66
S31508002EB0D3F8B03198474D48407C002806D1E278CF
S31508002EC07A494C484B4BD3F8B03198474748407C31
S31508002ED0002808D1207A10F00F0275494548454B5D
S31508002EE0D3F8B03198474148407C002809D1207A68
S31508002EF0C0B20209D2B26F493E483E4BD3F8B03150
S31508002F0098473A48407C002806D1A2796A49394848
S31508002F10384BD3F8B03198473448407C002861D103
S31508002F20E27966493348334BD3F8B031984759E0CC
S31508002F302E48C07A022855D100F00DFC002826D06C
S31508002F402A48407C002805D15D492A48294AD2F8F2
S31508002F50B02190472548407C002843D12089079016
S31508002F60E0790690A07905906089049060790390CD
S31508002F7020790290A0780190E07800902378627812
S31508002F8050491C481B4DD5F8B051A8472AE000F017
S31508002F90D2FB002826D025001448407C002805D1FD
S31508002FA049491448134AD2F8B02190470F48407C43
S31508002FB0002817D168890790E8790690287905903E
S31508002FC028890490A8780390A879029068790190D6
S31508002FD0E87800902B786A783C490648054ED6F87A
S31508002FE0B061B04708B070BD4E6F0000900D00206C
S31508002FF0940C0020C40A0020B4850108DC85010869
S31508003000EC8501080086010814860108288601084F
S3150800301040860108588601087086010884860108DA
S315080030209C860108E80D0020B4860108E886010898
S31508003030F0860108C8860108F88601082487010871
S315080030405087010884870108C20D0020A48701085B
S31508003050BC870108DC870108F48701080C88010889
S315080030602C8801084C8801086C88010884880108A6
S3150800307060100020A0880108D0880108E0880108AF
S315080030800889010810890108F48801083C890108A3
S3150800309018890108448901085C89010870890108B2
S315080030A08C890108AC890108CC890108E0890108E6
S315080030B0F88901080C8A0108208A0108348A01085F
S315080030C0488A0108888A0108C08A0108FC8A01081A
S315080030D080B501210220FEF732FD0220FEF775FDBC
S315080030E001BD81B00020ADF80000BDF8000040F633
S315080030F0FF71884209D2BDF80000ADF80000BDF89E
S315080031000000401CADF80000EFE701B0704738B585
S315080031100400052005000220FEF742FDFFF7E1FF47
S315080031202000C0B203F044FF002804D12800451E41
S31508003130C0B20028F4D10220FEF747FD31BD38B5EC
S31508003140040000F0F8FA002811D12078FFF7DFFF15
S315080031506078FFF7DCFF00200500EDB2042D06D2EB
S31508003160EDB228198078FFF7D2FF6D1CF5E731BD5F
S3150800317037B50400DFF8900D00780621DFF8882DB2
S3150800318001FB00207E218170DFF87C0D0078062186
S31508003190DFF8742D01FB0020C470022201A9DFF8B4
S315080031A0680D00780623DFF8605D03FB0050001DFC
S315080031B003F02AFC022202A9DFF84C0D0078062348
S315080031C0DFF8445D03FB0050801D03F01DFCDFF8AB
S315080031D0380D0078401CDFF8301D0870DFF8280D20
S315080031E00078202803D3DFF8200D0021017037BDB1
S315080031F000210800DFF8101D4978DFF80C2D127839
S31508003200914219D0DFF8001D49780622DFF8F83C0C
S3150800321002FB0131891C0800DFF8EC1C4978491CBF
S31508003220DFF8E42C5170DFF8E01C4978202903D335
S31508003230DFF8D41C00224A70704780B5DFF8F00B1F
S31508003240407C002808D1DFF8EC1BDFF8EC0BDFF830
S31508003250E82BD2F8B02190470120FEF7B6FC01BD55
S3150800326080B5DFF8CC0B407C002808D1DFF8CC1BF2
S31508003270DFF8C40BDFF8C02BD2F8B0219047012045
S31508003280FEF78EFC01BD80B5DFF8A40B407C002854
S3150800329008D1DFF8AC1BDFF8A00BDFF89C2BD2F8BF
S315080032A0B0219047DFF8A80C0068800703D50120F5
S315080032B0FEF78BFC02E00120FEF772FC01BD38B573
S315080032C00400DFF8900C407B002831D1DFF8600B52
S315080032D0407C002808D1DFF86C1BDFF85C0BDFF8B0
S315080032E0582BD2F8B021904700200500EDB2082DE2
S315080032F009D2002200215420DFF8583CD3F8D430F4
S3150800330098476D1CF2E7DFF84C0C54210172DFF880
S31508003310FC0B808A50F02000DFF8F01B8882DFF86B
S31508003320340C807D002803D0DFF8280C0021817535
S3150800333031BD38B50400DFF8F80A407C002808D10A
S31508003340DFF8141CDFF8F00ADFF8EC2AD2F8B0210F
S31508003350904700200500EDB2082D09D20022002171
S315080033605320DFF8F03BD3F8D43098476D1CF2E7CA
S31508003370DFF8E00B53210172DFF8900B808A50F0DA
S315080033802000DFF8881B888231BD70B5040025004F
S31508003390002C4CD0287850280ED1DFF8940A407CAF
S315080033A0002829D1DFF8B41BDFF88C0ADFF8882A51
S315080033B0D2F8B02190471FE0287851280ED1DFF8BF
S315080033C0700A407C002817D1DFF8941BDFF8680ADA
S315080033D0DFF8642AD2F8B02190470DE0DFF8500AEA
S315080033E0407C002808D1DFF87C1BDFF84C0ADFF8A0
S315080033F0482AD2F8B021904700200600F6B2082ED7
S3150800340009D2AA8869882878DFF8483BD3F8D430E7
S315080034109847761CF2E7DFF83C0B29780172DFF84B
S31508003420EC0A808A50F02000DFF8E01A888270BD26
S3150800343030B402000800002529002B002C00C9B270
S31508003440082909D2D50700D55B1CD50500D5641C0B
S31508003450491C92B25208F2E71D1B0570E518457023
S3150800346030BC704710B5EC220021DFF8E80A03F0FB
S315080034700EFBC2220021DFF8900A03F008FB0C229B
S315080034800021DFF8600C03F002FB0C220021DFF8B4
S31508003490580C03F0FCFA20220021DFF8C00B03F0D9
S315080034A0F6FADFF8680ADFF8881991F83A10817693
S315080034B0DFF8580ADFF8781991F83B10C176DFF87B
S315080034C04C0ADFF89C1B8162DFF8400ADFF8941B80
S315080034D0C162DFF8380ADFF8141C0164DFF8740AE1
S315080034E0DFF84C1991F83A100175DFF8680ADFF829
S315080034F0401991F83B104175DFF8580A5321C175F8
S31508003500DFF8500A08214180DFF8480ADFF84C1B2B
S31508003510C0F8B010DFF83C0ADFF8181CC0F8D41061
S31508003520DFF8300ADFF8101CC0F8D810DFF8240AD4
S31508003530DFF8081CC0F8DC10DFF8180ADFF8001CF2
S31508003540C0F8E010DFF80C0ADFF8F81BC0F8E41042
S31508003550DFF8000ADFF8F01BC0F8E810DFF8F40916
S31508003560DFF8E81BC0F8AC10DFF8C40890F83A009A
S31508003570DFF8741B0870DFF8700BDFF8B41891F8E1
S315080035803B104170FFF7A4FDFFF7B1F900F0D3F83F
S31508003590002853D001210120FEF7D1FA0120FEF7B9
S315080035A0FFFA08210020FEF7CAFA08210420FEF7D0
S315080035B0C6FA0020FEF7F4FA0420FEF7F1FADFF85F
S315080035C09409DFF8201B0161DFF888090069DFF834
S315080035D0601891F83A100170DFF878090069DFF889
S315080035E0501891F83B104170DFF86809006900210E
S315080035F0C171DFF86009006900218171DFF854099B
S3150800360000690021C170DFF84C0900690021417189
S31508003610DFF84009006900218170DFF83809006980
S3150800362000210171DFF82C09006900214181DFF8CA
S315080036302409006942F2486101817BE000F08BF8B9
S31508003640002877D00A220021DFF8B40B03F01FFA0E
S31508003650DFF8AC2B0A214FF4805006F0D9FEDFF8CC
S31508003660A40B03F0BAFC00200400E4B2052C39D2FE
S31508003670E4B2DFF8E00810EB440090F820000028D8
S3150800368008D0E4B2DFF8CC0810EB440090F821002B
S31508003690002800D126E0E4B2DFF8B80810EB4400B1
S315080036A090F82000FF2808D0E4B2DFF8A80810EB4D
S315080036B0440090F82100FF2800D113E0E4B2DFF8B7
S315080036C0940810EB440090F82120E4B2DFF884084F
S315080036D010EB440090F82010DFF82C0B03F07DFC6B
S315080036E0641CC2E7DFF86C088473DFF86808807B1F
S315080036F00400E4B2052C11D2E4B2DFF8580810EB46
S315080037004400002180F82010E4B2DFF8480810EBE6
S315080037104400002180F82110641CEAE7DFF8E02A5B
S31508003720DFF83008817B002000F09AFADFF82408D9
S315080037300021016110BDDFF8F80690F83B0010285B
S3150800374007D3DFF8EC0690F83B00202801D20120C9
S3150800375000E000207047DFF8D80690F83B002028E4
S3150800376007D3DFF8CC0690F83B00402801D20120A9
S3150800377000E000207047010000221000DFF8D4277F
S3150800378092F82A20C0B290420DD2C0B2DFF8C42700
S3150800379012EB400292F82C20C9B28A4201D1C0B27B
S315080037A002E0401CEAE7FF20704700B583B0DFF867
S315080037B05C0A807B022840F09A80FFF7BCFF00284D
S315080037C02BD0DFF84807007D400640F19080DFF8EF
S315080037D06006407C00280CD1DFF8780700698279FA
S315080037E0DFF82C1ADFF85006DFF84C36D3F8B0317C
S315080037F09847DFF86007006901900C200090522373
S3150800380000220221DFF80C0A03F058FCDFF8FC0658
S31508003810818A21F04001818269E0DFF8F006007DA7
S31508003820C00664D50C22DFF8F019DFF8B80803F0F3
S315080038302FF9002821D00C22DFF8DC19DFF8A408BC
S3150800384003F0E2F8DFF8E805407C002808D1DFF845
S31508003850CC19DFF8E405DFF8E025D2F8B021904767
S31508003860DFF8800801900C200090522300220221E4
S31508003870DFF8A00903F022FC33E0DFF89006807A2F
S31508003880DFF8AC15897A90FBF1F201FB12000028EB
S3150800389027D1DFF87806C07CDFF87016897A884267
S315080038A01FD0DFF86806DFF86416897AC174DFF876
S315080038B08005407C002808D1DFF86419DFF8780510
S315080038C0DFF87425D2F8B0219047DFF81808019080
S315080038D00C200090522300220221DFF8380903F059
S315080038E0EDFBDFF82806818A21F01001818207BDE9
S315080038F080B5DFF83C05407C002808D1DFF824199C
S31508003900DFF83405DFF83025D2F8B0219047822257
S315080039100021DFF8140903F0BAF8DFF838060021A9
S31508003920C172DFF8C40700218170DFF8280600217C
S315080039308175DFF8D80500210177DFF8D005808A80
S3150800394050F01000DFF8C415888201BD30B583B089
S31508003950DFF8D808007D800640F18181FFF7EBFE8D
S3150800396000280ED0DFF8C408818A21F02001818260
S31508003970DFF8B808808A50F01000DFF8B01888829F
S315080039806DE1DFF8D005407E002800F03781DFF8CA
S31508003990C405407EDFF8BC15897A884200F02E817E
S315080039A0DFF8B005C088DFF88418497A3C22DFF8CA
S315080039B07C389B7A02FB0131884206D1DFF86C0815
S315080039C0818A21F02001818249E1DFF88805DFF844
S315080039D08415497E8172DFF85408407A3C21DFF865
S315080039E04C28927A01FB0020DFF86815C880DFF8BA
S315080039F06405807AFFF7BFFE0400DFF8580590F8E3
S31508003A002A00E4B2A04226D2DFF8480590F82A0038
S31508003A10002801D0012000E01020DFF83815897D44
S31508003A200843DFF830158875DFF80404407C002861
S31508003A3040F0DB80DFF81C0590F82A30DFF8140523
S31508003A40827ADFF8EC17DFF8F003DFF8EC53D5F8E5
S31508003A50B051A847C9E0DFF8FC0490F82B00E4B29F
S31508003A6084420BD0DFF8EC0480F82B40DFF8E4043E
S31508003A70807D50F00200DFF8DC148875DFF8D40486
S31508003A8090F82B00DFF8CC1411EB400090F82D00CD
S31508003A90DFF8C014C872DFF8BC04D0F8AC00DFF851
S31508003AA0B414C97A0170DFF8AC04D0F8AC00007819
S31508003AB0502802D140F6AC500AE0DFF89804D0F856
S31508003AC0AC000078512802D140F6A66000E000203C
S31508003AD0DFF88014D1F8AC104880DFF87804D0F805
S31508003AE0AC000078502802D140F6A6600AE0DFF85C
S31508003AF06404D0F8AC000078512802D140F6AC50E6
S31508003B0000E00020DFF84C14D1F8AC108880DFF80C
S31508003B104404D0F8AC00DFF81417096C8847DFF8BE
S31508003B203404C07A532806D1C148807A1421484300
S31508003B30DFF820144873BE48407C00281AD1DFF805
S31508003B40140490F82B000090DFF80804D0F8AC00B5
S31508003B500378DFF8000490F82B00DFF8F81311EB70
S31508003B60400090F82C20DFF8CC16B348B24DD5F8B3
S31508003B70B051A847DFF8DC03DFF8D81391F82B100B
S31508003B808176DFF8D00390F82B00401CDFF8C413C9
S31508003B9081F82B00DFF8BC0390F82B00DFF8B4138C
S31508003BA091F82A10884220D3DFF8A80390F82A0053
S31508003BB000281AD00020DFF87416C96A8847FFF76C
S31508003BC097FEDFF89003807D50F00400DFF8841339
S31508003BD08875DFF8100501900C2000905A23002202
S31508003BE00221DFF8300603F069FADFF84006808A1A
S31508003BF050F01000DFF8341688822AE0DFF8540304
S31508003C00C07A532814D1D348C07D532810D0002039
S31508003C10DFF81816C96A8847CE4800218175DFF88B
S31508003C200C06808A50F01000DFF80016888210E033
S31508003C300C22DFF8E415DFF8AC0402F029FF0028AF
S31508003C4007D0DFF8E805808A50F01000DFF8DC15A9
S31508003C508882DFF8D805818A21F02001818237BD64
S31508003C602DE9F84304000D00160000208046E4B252
S31508003C70EDB2281980B2402802D34046C0B2D5E03A
S31508003C80B448007A532804D00020DFF8A015C96A82
S31508003C90884755EA0400C0B2002804D1FFF728FE79
S31508003CA04046C0B2C2E0EDB22A00E4B22100DFF815
S31508003CB0880503F092F92700FFB2EDB2E4B2601965
S31508003CC087421DDAFFB2A34810EB4700317880F827
S31508003CD02C10FFB29F4810EB4700717880F82D1022
S31508003CE030787178081810EB080873783278FFB2C4
S31508003CF03900DFF8480503F070F97F1CB61CDBE7CE
S31508003D00944890F82A00EDB2E4B26119884203DAC1
S31508003D102819904981F82A008E488E4991F82A1068
S31508003D20C1768C4890F82A00052875D2E4B2002C92
S31508003D3072D1002007008146864890F82A00FFB213
S31508003D4087420BD2FFB2834810EB470090F82D004C
S31508003D50532801D119F101097F1CEDE75FFA89F9AA
S31508003D60B9F1010F58D17B487A4991F82A10817325
S31508003D70784890F82A0080B2420092B2DFF88014A0
S31508003D80DFF8BC0402F084FE002845D0714890F89C
S31508003D902A10DFF8B00403F020F90A220021DFF820
S31508003DA0600402F074FE002007006A4890F82A00B2
S31508003DB0FFB2874229D2FFB2664810EB4700FFB22E
S31508003DC0644911EB470191F82C1080F82010FFB2D6
S31508003DD0604810EB4700FFB25E4911EB470191F8C6
S31508003DE02D1080F82110FFB25A4810EB470090F8C2
S31508003DF02120FFB2574810EB470090F82010DFF853
S31508003E00480403F0EAF87F1CCFE70A22DFF8F0132C
S31508003E104FF4805006F0C6FADFF81004808A50F096
S31508003E201000DFF8081488824046C0B2BDE8F28365
S31508003E30900D0020308B0108C40A0020408B010831
S31508003E40508B0108648B010880B5DFF8C003807BBE
S31508003E50022814D1DFF8B403007C00280DD1DFF85E
S31508003E60AC030121017406F0DFFA284908832748C4
S31508003E70808A50F0020025498882FFF796FCFFF7F2
S31508003E8065FDFFF758FC00283CD0324800690079E8
S31508003E9030490969C978884218D02E4800692D49E1
S31508003EA00969C97801712B480069C078032804D1CB
S31508003EB02848D0F8E000804708E026480069C0781E
S31508003EC0022803D12348D0F8DC008047214800693E
S31508003ED0C078012816D11F4800694089401C1D4931
S31508003EE0096948811B48006940891A49096909898D
S31508003EF0884207D31748D0F8E40080471548006978
S31508003F000021418101BD0000440F002060100020FF
S31508003F1080B5FFF710FC002817D0DFF830030068DB
S31508003F20C00707D4DFF8280390F83B00C0B240006A
S31508003F30C0B20BE0C5480068C00606D4C44890F86D
S31508003F403B004000401CC0B200E0002002BD00005B
S31508003F500CB00040580E0020788B0108888B0108A9
S31508003F60A08B0108B88B010838B5BA480088401CF0
S31508003F70B8490880A548807B02281ED1B648006843
S31508003F80401CB5490860A34803F078F8002814D106
S31508003F90B14800684FF44871B0FBF1F201FB12001A
S31508003FA000280AD19B4803F073F80400A31DA278E1
S31508003FB000216078954D2D6DA847FFF7BCFB0028BA
S31508003FC034D0A44800884FF48071884245D3FFF75F
S31508003FD09FFF04009F48407AE4B2844220D1E4B2AD
S31508003FE0002C1DD09B48006984719A4800690121FC
S31508003FF0C1719748407C002808D1964800698279A3
S3150800400096499748964BD3F8B03198478748808A9F
S3150800401050F04000854988828E480021417201E0AF
S315080040208C4844728B480021018016E0FFF793FB09
S31508004030002812D0874800888649498888420CD3C8
S315080040408448D0F8D80080470400824800210180BF
S31508004050002C02D02000FFF772F831BD14100020A2
S31508004060BF3200083333000880B57048407A784973
S31508004070897A90FBF1F201FB120000281BD16B48EC
S31508004080807C6A49497A884215D068486749497ADE
S3150800409081745E48807B02280DD1FFF75CFB0028FF
S315080040A009D06248007DC00605D46048808A50F071
S315080040B010005E4988826748C07A532809D1654846
S315080040C0407B002805D06348407B401E6149487301
S315080040D006E06048407B002802D05E480021417314
S315080040E001BD00007A100020081000208B3300085C
S315080040F00278CA7042780A710A79002A05D08A7845
S3150800410052F008028A70D2B204E08A7812F0F702F6
S315080041108A70D2B282784A71C279037A52EA032245
S315080041204A814C4A92F82B208A714A4A92F82A20E8
S31508004130CA71704771310008F13100083B32000836
S315080041406132000887320008313400083410002034
S3150800415010B50400FFF7FFFA002808D06078052894
S3150800416005D3A079002802D02079002800D146E09E
S3150800417038488088401C374988806079002809D1EA
S3150800418038484079A179884204D13648C0782179DF
S3150800419088421ED03349201DFFF7AAFF0C22314959
S315080041A01D4802F031FC2F48C07854280AD1002057
S315080041B01E49896A88472748C07A532802D1254864
S315080041C05421C1721948808A50F020001749888204
S315080041D015E020488088802811D32249201DFFF742
S315080041E087FF0C221F490C4802F00EFC0F48808AF4
S315080041F050F010000D49888216480021818010BDB4
S31508004200780E0020C88B0108E08B0108E80D002015
S31508004210F88B0108EC0C00206C0E0020348C010889
S31508004220488C01086C8C0108820E00206010002062
S31508004230948C0108C48C0108E88C0108088D0108D3
S31508004240840E0020308D0108588D010808B0004002
S31508004250900D0020580E00203C100020648D0108A7
S31508004260C40A00200810002038B5344C40F2073044
S31508004270206072B632480168490849000160314831
S31508004280112101606069800620D46069C00601D5E5
S315080042902D4805E02D4803E04FF0CD3140F8041BCA
S315080042A02B498842F8D32B482B492C4A00F07EF834
S315080042B02B482C49002200F073F82B482B4900F0B4
S315080042C06FF82B482B492C4A00F070F82B4D2C48D8
S315080042D068604FF0784068612A48A8612A48E86112
S315080042E02A482B4901604FF0803141608160C160E6
S315080042F0E02101612748A860102028614FF4E020DA
S31508004300286206F0B3F86069800608D522480021BD
S315080043100170286840F08050286006F0E3F805F040
S31508004320F9F900F04FF862B6FDF7AEFB07B5D421F0
S315080043301A48BDE8344000F057BD00BF18000040D9
S31508004340FCED00E000800040940000200000002002
S3150800435058070020D494010858070020BC0A0020FA
S31508004360BC0A002047140020481400205C190020CD
S3150800437000000000000000000000000004ED00E05E
S3150800438000010008F8F8F88080F8408000E400E0B2
S31508004390808040800004FA05F8100020948D0108FA
S315080043A001E040F8042B8842FBD3704703E050F83D
S315080043B0043B41F8043B9142F9D3704780F31188D6
S315080043C070470000EFF31180602181F31188704770
S315080043D0EFF311806028D4BF012000207047000049
S315080043E0002181F31188704710B500F015F81040C8
S315080043F0C84010BD10B500F00FF8D4432040114056
S31508004400084380B2D86002201860002018605868F7
S315080044100028FCD110BD0000064B5C68002CFCD1BE
S315080044209860012018600020186058680028FCD1A0
S3150800443018697047E81000402B490A6892099201EA
S315080044400A600A6810430860DFF8C4034FF40041A5
S31508004450016000210160642005F036B92DE9F047B6
S315080044608046DFF8A45628681FFA80FA286840F4C0
S31508004470004028601C4E306820F480503060DFF819
S315080044804C98DFF85848607860B1E078A17809EB75
S31508004490810111F82A1C401A09EB880111F82A1C17
S315080044A0081804E020270120607001E0781C87B214
S315080044B03846FFF7C1FF306B042804D0306B40073D
S315080044C0F4D4781EF3E7F06A30B184F80280E77016
S315080044D0C5F800A0BDE8F08707B540F2F31109F169
S315080044E0400000F081FCE6E7D010004010B5044615
S315080044F04FF47872610189B21020FFF77BFF1F2203
S3150800450021461020BDE8104074E700002DE9F04F61
S3150800451085B083469BF800004FF67F7202EA0004D6
S31508004520012202FA01F1ADF80010000603D400F0EA
S315080045306BF808425CD0314D286880B204906868F0
S3150800454080B20390DFF8B880D8F8000080B20290F5
S315080045502C4F386880B2019048F28000286002200B
S31508004560686048F2D000C8F80000022038600024CD
S3150800457005260120711E88401FFA80F949EA0404BD
S31508004580A0B2FFF7B3FF00F0A3FB78681FFA80FA22
S31508004590BAF1C00F02DB24EA0904A4B2701E86B27F
S315080045A0012EE6DA1F2C12DA661CB0B2FFF79EFF60
S315080045B000F08EFB7868C0384EF6FF710840AAF105
S315080045C0C0014EF6FF721140884200D2B4B2049878
S315080045D02860039868600298C8F800000198386057
S315080045E08BF8004000F010F88843DFF8F016C88012
S315080045F0A0B205B0BDE8F04F78E700BF0C11004047
S315080046004410004010400040DFF8D006C088BDF8CE
S31508004610001070473F22410089B22020EAE62DE9C2
S31508004620F34F97B0DFF89C57DFF8B00600790028FB
S3150800463014BF686A286980B20390179800784FF605
S315080046407F7101EA000418990978039B5B1C8B4269
S3150800465003DB039B5B1E994201DA012100E000217E
S31508004660012303FA02F2ADF80A20000609D4DFF89E
S315080046706C060089BDF80A20104202D1002900F014
S31508004680BE80E86C80B20690286880B20590604EBD
S31508004690F06A80B204904FF6FF7200211120FFF7EE
S315080046A0A3FE83464FF6FF720021A020FFF79CFE6B
S315080046B082464FF40040286000203061706148F25D
S315080046C0020000F0B9F84CF68C30E86448F2F000C5
S315080046D0F0624FF4805211461120FFF78BFE4FF619
S315080046E0FF72002100F012FA00F0ABF802A900F000
S315080046F09BF900F0ADF800F095F94CF69C30E864AB
S315080047000020FFF787FF0020009006231A46C021E5
S3150800471006F0BCF80024A0B2FFF77CFF00F091F881
S3150800472007A800EB440100F07FF9641C202CF2DB9B
S3150800473001A900F079F91020FFF76CFF00F088F85E
S3150800474001A900F071F9BDF80400BDF80610401A79
S31508004750BDF83C10BDF808208C1A404304FB040839
S315080047604FF01009112700F055F800F071F801A96B
S3150800477000F05AF900F056F804DB8046B9467F1C6B
S31508004780202FF0DB1FFA89F9B9F1100F10D10F2786
S3150800479000F040F800F05CF801A900F045F900F0D7
S315080047A041F805DB8046B9467F1E3FB2002FEFD59C
S315080047B04FEA4904A4B20698E86405982860049864
S315080047C0F0624FF6FF7259461120FFF713FE4FF6B7
S315080047D0FF72514600F09AF901203061002000F07E
S315080047E02BF817980470189803990170DFF8EC04F1
S315080047F00089BDF80A108843DFF8E01408813F22D3
S3150800480021462020FFF7F6FD19B0BDE8F08F00001D
S315080048101810004007A830F81700BDF80810441A09
S31508004820B8B2F7E6BDF80400BDF80610401A4043D2
S3150800483004FB040040457047306040F24C4004F0E9
S3150800484043BF0020009006230622C02106F01EB8AA
S315080048500020009006230722C02106F017B80000A2
S315080048600C48DFF87C158A780AB149780FE0895632
S315080048706FF00802914201DA302108E0C16D39B1C2
S3150800488040F24A31C26DB1FBF2F189B2C91E01602C
S31508004890704700BF6410004000B587B00A237F2226
S315080048A04148018803A804F053FDBDF812104FF6DD
S315080048B0FF72914273D1DFF82805808900F0D6F897
S315080048C04FF47C624FF40071C020FFF793FD032379
S315080048D0892200F074F801A900F06CF800F06DF870
S315080048E00DF1020100F066F8BDF8020000F05EF86E
S315080048F0ADF802000323B92200F061F802A900F01E
S3150800490059F8BDF8080000F051F8ADF808004FF462
S315080049107C624FF46061C020FFF76CFD00F04DF833
S3150800492000A900F047F8BDF8000000F03FF8ADF820
S3150800493000000323B92200F042F80DF1060100F049
S3150800494039F8BDF8060000F031F8ADF80600BDF8F4
S315080049500600BDF80010490801EB0040BDF800103C
S31508004960B0FBF1F080B2BDF80810BDF8022052087D
S3150800497002EB0141BDF80220B1FBF2F1411A89B2FE
S315080049804FF47C62A0F5404001EBD1735B1003EB5A
S315080049900010B0FBF1F0083800F03F008101C0209C
S315080049A0FFF728FD07B000BDB2940108BDF8041052
S315080049B0401A70470020FBF7FFBC0323A922C02139
S315080049C00020FBF766BC7CB500F046F80020009096
S315080049D002230322002105F059FF00F023F8BDF851
S315080049E006400020009002230122014605F04EFFF2
S315080049F000F018F8BDF80650002000900223024681
S31508004A00014605F043FF00F00DF8BDF8066005F015
S31508004A1067FF00F019F80EBF4FF4E1600A2190FB1A
S31508004A20F1F004E00DF10601002005F049BFADF8EC
S31508004A300400301B0004291BB0FBF1F0BDF804107C
S31508004A4048434000000C76BDBDF804004FF6FF71E0
S31508004A50884270470000000002237F22024801882E
S31508004A6001A804F075BC00BFB69401082DE9F04111
S31508004A7082B00546DFF86843B5F5004F0FD102232B
S31508004A807F221F4800F0A0F9BDF80000000AFF28A1
S31508004A9000D000B918206070BDF80000C54305F0C5
S31508004AA0010805F00200470808EB480015494618B2
S31508004AB04FF4F852B0780102E020FFF79BFC124849
S31508004AC0016841F4004101604FF4405270780103D7
S31508004AD089B22020FFF78EFC404605F06BFF402286
S31508004AE0B90100F013F817B915F0040000D0012039
S31508004AF0A070FFF7B5FEA5810020BDE8F68100BFCE
S31508004B00B8940108108E01081C100040A02071E41A
S31508004B10B3488089704710B5704800786A490A8892
S31508004B200123A0F10B04A3401A430A80BDE81040F4
S31508004B3000E000002DE9F04F83B08046A8F10B0491
S31508004B40A4B206F0E5FA8246B8F10B0F02D3B8F123
S31508004B501B0F02D38A20BDE8FE8F564EB0680007A9
S31508004B6002D43068C00701D58C20F4E75B4D85F880
S31508004B700080514F38680C2801D10020EBE72879CE
S31508004B8038B9786A40F400507862786A20F4805020
S31508004B9078624A480078012801D106F081FA484827
S31508004BA0D0F8009047484FF4E0610160306A20F081
S31508004BB0020030620423E2B2002100A804F0C8FB18
S31508004BC09DF800008DF807009DF801008DF8060095
S31508004BD09DF802008DF805009DF803008DF8040085
S31508004BE03A4830F82400F86148F2607B2879B8B171
S31508004BF0C7F824B0306A400840003062012004F04B
S31508004C0063FD306A40F00100306200F061F8786AAE
S31508004C1020F480507862786A40F40050786202E0A6
S31508004C204046FFF71BFC21460DF1010006F082F80D
S31508004C3021460DF10200FFF769FC224600A90DF195
S31508004C400300FFF7ECFC9DF800009DF8071088426A
S31508004C5011D19DF801009DF8061088420BD19DF8E8
S31508004C6002009DF80510884205D19DF803009DF8BD
S31508004C700410884205D0042300AAE1B2002004F0FB
S31508004C80B9FB09F4E0600E49086005F033FC306AA8
S31508004C9040F002003062287918B1C7F824B000F055
S31508004CA017F805F01DFEBAF1010F01D106F0C8F993
S31508004CB063E700BF60200040AC100040B40A002043
S31508004CC000E100E080E100E00C140020A48D01085A
S31508004CD0642004F0F9BC0148007870476C0A00208B
S31508004CE02DE9F04186B006466FF02A00864201DAC1
S31508004CF08B205DE014237F222F4800F065F8BDF86D
S31508004D0010004FF6FF71884204D00E21084201D0E8
S31508004D10012506E03F220021F020FFF765FB044647
S31508004D20002528482E49042E0FDA0022234B01E0DD
S31508004D30521CD2B2D756B742FADB02600F70002077
S31508004D40002607464FF003080EE0092ED0DA725CFB
S31508004D5002600E7014237F22194800F035F80320EC
S31508004D60012601274FF0280825B14FF6BF72BDF876
S31508004D70101018E04FF46052C10200F029F84FF401
S31508004D80E062310200F024F88022F90100F020F8F0
S31508004D9084F0200008EB0004A4B2402C00DB3F247A
S31508004DA03F2284F02001FFF7B1FEFFF759FD0020EE
S31508004DB006B0BDE8F08100BFAE940108F08D010889
S31508004DC0B0940108C0100040018800A804F0C0BAD9
S31508004DD089B2A020FFF70EBB014890F90000704782
S31508004DE09808002042DE704738B504460D46FCF7A1
S31508004DF0A1FEFFF7E7FA2A462146DFF8E40102F0AA
S31508004E00ECF829462046BDE83440EBE72DE9F8439F
S31508004E104FF42068DFF8CC110868DFF8CC61371D3D
S31508004E2038650A6A7A65DFF8C4211268BA654A6A7B
S31508004E30FA658A6A3A66CA6A7A660A6BBA66896BD4
S31508004E40F96697F8341049074CBFFD6BBD6B40F205
S31508004E50FF14DFF89C91DFF89C21954227D3A945DA
S31508004E6025D305F2180555F8041B396455F8041BB3
S31508004E707964204006281DD1386C00884DF64261B9
S31508004E80884217D106F288007168416079688160A6
S31508004E9055F8040B706055F8040B786055F8040B48
S31508004EA0B86055F8040B786340F2017802E00020F8
S31508004EB03864786400F082F8B8640020F864002248
S31508004EC006EB80014A67401C0628F9DB386C002887
S31508004ED03DD00020DFF82021DFF8203103E006EB83
S31508004EE0800CCCF87410A9452CD359F8041D9942A6
S31508004EF0F9D39142F7D25FEAC17CF4D54FF0000CA2
S31508004F0006EB8C0EDEF874E08E4504D00CF1010C2D
S31508004F10BCF1060FF4DBBCF1060FE4D100281ABF7A
S31508004F20401EC0B20520DAE7396F4FF0000C06EBD9
S31508004F308C02936F53670CF1010CBCF1050FF6DB7D
S31508004F40C6F888100146481EC0B20029ECD1386D53
S31508004F50204002280AD0032816D0042817D005288E
S31508004F6018D0062819D00C281DD01FE0DFF89000AD
S31508004F700168890748BF40F602181CD40068C007B4
S31508004F8019D540F2025816E040F6012813E040F61B
S31508004F90022810E040F603280DE0B8F5206F0AD184
S31508004FA040F6042807E040F6052804E018B1212851
S31508004FB038BF40F607284046BDE8F2831148006826
S31508004FC0C00654BF0B48104800E0001D084A90422E
S31508004FD003D20368B3F1CD3FF7D0101A704700002B
S31508004FE0188E010804ED00E00000002000E300E050
S31508004FF05807002000000020067C010884010008EC
S315080050001CA000402C00004094000020F8B50C4677
S315080050101646C088000422D50027BC4D78190179A8
S315080050208C4219D1AEB9FF210171204600F0E7F98B
S31508005030E878401EE870C0B2002808D1A878B249BE
S3150800504009780818A87000F00CF800F044F8012058
S31508005050F2BD304600F03FF87F1C0A2FDEDB002049
S31508005060F2BD70B5A94CA678A74D04E0E078401CBF
S31508005070E070761CF6B2A078301A29788842BCBF50
S31508005080607886420FDA06F0FF0101EB00202083E4
S315080050903019037904F11002A18B207803F0F4F992
S315080050A00028E3D070BDE078002804D1FF202070E6
S315080050B00020FBF710FA002070BD38B5044600251D
S315080050C0285DFF2803D0FF21295500F098F96D1CAB
S315080050D00A2DF5DB31BD38B504000BD08B4D287889
S315080050E0FF2807D0281DFFF7E8FFFF202870204675
S315080050F0FBF7F1F931BD10B5834800780146844ABB
S31508005100137994780419A342BCBF93FBF0F100FB12
S31508005110113101208840401EC043D07010BD2DE9D2
S31508005120F84F07468A46F888000402D40020BDE8EE
S31508005130F28F97F808900325764C754E308B4FF60C
S31508005140FF71884217D170480078814513DA03F059
S315080051505FFE3083B87A70700020B0707071FF20DF
S315080051603071FFF7C8FF0A22FF2106F1080001F097
S31508005170E7FC00F0ACF803F04BFE318B884203D114
S31508005180B87A7178884201D00120D0E7F078FF28F4
S315080051900BD1B0785C4909780A18914505DB0818DF
S315080051A0B070FFF7A8FF00F092F85748007801465C
S315080051B0B2788A189145E7DA4FF0010899FBF1F2BF
S315080051C001FB129108FA01F1CCB2F17821404D1E8B
S315080051D0AD41ED0F31780C4204BF44EA010030704E
S315080051E0D2D0B9F1000F0AD13989090A31718B4633
S315080051F0834538BFFFF77FFFBBF10B0F64D2F0780A
S315080052002043F07009EB06043DB17079401C7071BB
S3150800521084F808A0504600F0E5F8F0783179491E80
S3150800522089450BD03849097899FBF1F201FB1291AF
S3150800523008FA01F1491E0143FF2909D1B17801EBAA
S31508005240002080B203F054FBFF21788803F079FB35
S3150800525070793179884297D1504600F072FA4FF04A
S315080052600009FF2830D02072504600F0C8F8002107
S31508005270504600F014FA4F461FE007EB060898F868
S31508005280084020480068255C05EB090B5FFA8BF19E
S31508005290504600F004FAB8B900950023224649465C
S315080052A0504600F0DCFA5FFA8BF9204600F0A7F8C2
S315080052B0FF2088F808007F1CFFB230798742DCDBC4
S315080052C04FF6FF70308331E700F009F85CE7208875
S315080052D005FB00F189B206F1140012F0EFB938B5F2
S315080052E00B4C002020754FF6FF75208BA84204D082
S315080052F004F10800FFF7E1FE258331BD064812F0E8
S31508005300FCB9000018090020A00A0020C4080020E3
S31508005310A8080020760A00202C8E01080249096890
S3150800532001EB4010704700BF14090020DFF8542431
S3150800533012688154704700002DE9F041040001D13C
S31508005340FF204BE0FFF73EF8DFF88813FF22454DB4
S31508005350DFF8D0341E78FE2E1CD100261E70204E93
S3150800536037782F700027DFF8F4C509E007F1010E3A
S3150800537007F808E0DCF8008007F808205FFA8EF7DF
S3150800538096F800E0D1F800807745EFDB0EEB0806CB
S3150800539006F8012C2E78A64202D2FFF70FF8CFE7BF
S315080053A0361B2E701D78454E1F78D6F800C04FF074
S315080053B0010E07F80CE0D1F800C017F80CE083F8E6
S315080053C000E0641EE4B2002CEED107F80C2000F0D1
S315080053D0D2F800226A54FEF7F1FF2846BDE8F081AC
S315080053E0950A002010B50446FEF7ECFF3349096814
S315080053F0625C521C6254BDE81040FEF7DFBF2DE91F
S31508005400F041054600F030F88046FEF7DBFFDFF88E
S315080054101414144AAF4B294E00E06546FF2D1DD0E3
S315080054203768EC5D641EEC55376815F807C07F24AD
S315080054301CEA040F12D11C6815F804C00024EC55A8
S3150800544017787F1C17701F680C78EC550D70BCF127
S31508005450FF0FE2D145464FF0FF08DFE7BDE8F04110
S31508005460FEF7ACBF960A002080B514490968415C6E
S31508005470090603D5FFF752FF007802BDFF2002BDDB
S31508005480B0B505460C46FFF7EFFFFF2801D0FFF73A
S31508005490B6FF0A4FFF2C04D13868295C01F07F015A
S315080054A006E02046FFF79EFF3868295C41F0800138
S315080054B029542846FFF732FF0470B0BD1C090020A6
S315080054C00EB430B504460120FFF736FF0546FFF750
S315080054D025FFFF2D01D1FF200EE000F04CF86C549B
S315080054E003A9002205E051F8043B00F8013B521CD1
S315080054F0D2B2A242F7DB284630BC5DF810FB70B585
S3150800550082B005460C4604F11F000004400DC0B2E7
S31508005510FFF712FF0646FF2E0CD09A48006834544F
S315080055203DB101200090234600223146284600F06E
