S00E000076656869636C652E73333706
S315080000005807002021410008ED4C0108EF4C010873
S31508000010A70B0000000000000000FFFF3C000008DE
S3150800002004070300000000000000000000000000B4
S315080000300000000000000000000000005807002033
S3150800004021410008ED4C0108EF4C0108A70A0401FC
S31508000050000100080407039C32400000000000006D
S315080000600000000000000000000000000000000082
S315080000700000000000000000000000000000000072
S3150800008000000000FFFFFFFFFFFFFFFFFFFFFFFF6E
S3150800009000E00108FFFFFFFFFFFFFFFFFFFFFFFF75
S315080000A0FFFFFFFFFFFFFFFFFFFFFFFFFFFFFFFF52
S315080000B0FFFFFFFFFFFFFFFFFFFFFFFFE01F00201F
S315080000C000000000C41E0020CD14002058070020A0
S30D080000D0C9980108827D0108A8
S315080001005807002021410008ED4C0108EF4C010872
S31508000110F34C0108F14C0108F54C0108483B01086D
S31508000120483B0108483B0108483B0108483B010891
S31508000130F74C0108483B0108B5A30008483B0108ED
S31508000140483B0108483B0108E1940008483B010880
S31508000150ED370108E7970008483B0108483B0108C6
S31508000160F930010895AD0008DDA6000885010008EC
S31508000170483B0108483B0108B79600081597000850
S31508000180A5320108DFF87C024FF6FF71016070475F
S3150800019038B504F073F80500DFF86C02007800281B
S315080001A030D0DFF868020068C0072BD400200400AE
S315080001B0E4B2022C28D20120A040DFF84C120978BC
S315080001C008421DD0DFF848020470DFF83C020078C8
S315080001D00121A1404840DFF830120870E4B2DFF888
S315080001E0340230F81400DFF824120860DFF814022D
S315080001F04FF6FF710160DFF820024FF400610160DD
S31508000200641CD5E7022004002800C0B204F032F8C6
S315080002102000C0B232BD80B5DFF8EC0100210170C4
S31508000220DFF8EC0102210170DFF8F001002101700E
S31508000230DFF8CC0105210180DFF8E4010021017017
S31508000240DFF8C80100210160DFF8D801002101604C
S31508000250DFF8D4014FF400410160DFF8D001102126
S315080002600160DFF8CC01DFF8CC110160DFF8C801C6
S3150800027001210160DFF8B4010321016061484FF6EE
S31508000280FF710160DFF8B4010021016004F060FA33
S3150800029001BD2DE9F04104000D0016001F00EDB266
S315080002A0C02D01D0012030E0FFB2F6B2F00050EACE
S315080002B04730534909880843E4B2564921F81400DF
S315080002C0514800780121A140084201D082201CE053
S315080002D003F0D4FF80464C4800780121A14008432A
S315080002E0494908704E4800780121A14088434C4985
S315080002F008704046C0B203F0BDFFFFF749FFE4B2FD
S31508000300A04201D1812000E08220BDE8F0812DE9DC
S31508000310F04104000D0003F0B7FF00280BD13E485A
S315080003200068000507D545480068400701D401273D
S3150800033000E0002700E0012703F0A0FF8046FFB297
S31508000340002F09D034480068000505D53B480068E9
S31508000350400701D5FFF716FF0120A040304909786C
S3150800036008420ED0E4B2364830F8140028802C48EB
S3150800037000780121A14048402949087080200600DC
S3150800038012E0214800780121A140084202D08220CB
S31508000390060009E01E480078E4B2A04202D1812096
S315080003A0060001E0842006004046C0B203F062FF62
S315080003B03000C0B2BDE8F08170B504000D0001F050
S315080003C02DFB29002000C0B2FFF7A1FF0600F6B2F8
S315080003D0842E02D0F6B2802EF1D13000C0B270BDA4
S315080003E080B5FFF718FF00210D2001F01CFB002146
S315080003F00E2001F018FB00210F2001F014FB01BDAF
S315080004008214002010A800409C14002004D000404C
S315080004109D140020C00A002000E100E09F1400207F
S315080004209E14002008D000400CD0004010D0004098
S3150800043018D00040801400201CD0004050A800406E
S31508000440BC0A00202DE9F04104000D00160068885A
S315080004503B2811D100213000C0B205F099F80700F9
S315080004603100C9B2280004F0B6FD80465FFA88F864
S31508000470B8F1000F08D107E03200D2B229002000F7
S31508000480C0B21A4BDB6B9847BDE8F0812DE9F04105
S3150800049082B005000E0017009846089C78883B280D
S315080004A009D12200D2B24146C9B2380004F00AFD89
S315080004B000280ED10DE0E4B200944346DBB23A00C0
S315080004C0310089B22800C0B2DFF820C0DCF840C08D
S315080004D0E047BDE8F3817047704710B50400200077
S315080004E0C0B20249496C884710BD7047E80D002024
S315080004F070477047C0B2002829D0022829D027D3D0
S31508000500042828D026D3062827D025D3082826D07D
S3150800051024D30A2825D023D30C2824D022D30E2866
S3150800052023D021D3102822D020D3122821D01FD39C
S31508000530142820D01ED316281FD01DD318281ED045
S315080005401CD31A281DD01BD31B281BD01AE019E070
S3150800055018E017E016E015E014E013E012E011E0E9
S3150800056010E00FE00EE00DE00CE00BE00AE009E019
S3150800057008E007E006E005E004E003E002E001E049
S3150800058000E0FFE77047000080B5DFF8C408407C4C
S31508000590002808D1DFF8CC18DFF8B808DFF8B42847
S315080005A0D2F8B0219047DFF8A808407C002808D187
S315080005B0DFF8B418DFF89C08DFF89828D2F8B021DD
S315080005C09047DFF88C08407C002808D1DFF89C1893
S315080005D0DFF88008DFF87C28D2F8B0219047DFF8EA
S315080005E07008407C002808D1DFF88418DFF8640812
S315080005F0DFF86028D2F8B0219047DFF85408407C2D
S31508000600002808D1DFF86C18DFF84808DFF8442816
S31508000610D2F8B0219047DFF83808407C002808D186
S31508000620DFF85418DFF82C08DFF82828D2F8B021AC
S315080006309047DFF81C08407C002808D1DFF83C18F2
S31508000640DFF81008DFF80C28D2F8B0219047DFF859
S315080006500008407C002808D1DFF82418DFF8F407E2
S31508000660DFF8F027D2F8B0219047DFF8E407407C9E
S31508000670002808D1DFF80C18DFF8D807DFF8D427E8
S31508000680D2F8B0219047DFF8C807407C002808D187
S31508000690DFF8F417DFF8BC07DFF8B827D2F8B0217F
S315080006A0904701BD38B50400DFF8B007407A002846
S315080006B03FD1DFF8A80701214172DFF8A007007AC9
S315080006C0002809D0DFF89407002101726022002172
S315080006D0DFF8B80706F047F9DFF88007007ADFF891
S315080006E07C17401880F8D040DFF87007007A401C65
S315080006F0DFF868170872E4B20A2C02D0E4B20D2CAF
S3150800070003D1DFF8580700214172DFF84407407C1F
S31508000710002840F08E80E4B22300DFF87427DFF863
S315080007207417DFF83007DFF82C57D5F8B051A8470B
S315080007307FE0DFF82807407A01287AD1E4B20A2C4C
S3150800074002D0E4B20D2C2BD1DFF81007007A00286E
S3150800075013D0DFF8FC06407C002807D1A3A1DFF8F8
S31508000760F406DFF8F026D2F8B0219047DFF8EC0659
S31508000770017ADFF8180706F00AFBDFF8D406407C92
S31508000780002808D1DFF81017DFF8C806DFF8C426F6
S31508000790D2F8B0219047DFF8C4060021417248E03C
S315080007A0DFF8AC06407C002809D1E4B2220090A10B
S315080007B0DFF8A006DFF89C36D3F8B0319847DFF8A3
S315080007C09C06007ADFF89416401880F8D040DFF8C7
S315080007D08C06007A401CDFF884160872DFF87C065F
S315080007E0007A602825D3DFF86806407C002807D100
S315080007F07EA1DFF86006DFF85C26D2F8B0219047C4
S31508000800DFF85806017ADFF8840606F0C0FADFF842
S315080008104006407C002808D1DFF87C16DFF834064D
S31508000820DFF83026D2F8B0219047DFF830060021ED
S31508000830417231BD38B504002078532838D0542881
S315080008400ED0562877D0572800F0AF80592856D0B2
S315080008505A2819D05E283FD0ED2800F0C380C4E09E
S31508000860DFF8EC05407C002808D1DFF83016DFF801
S31508000870E405DFF8E025D2F8B02190470020DFF83C
S315080008802016896A8847B0E0DFF8C405407C00284E
S3150800089008D1DFF81016DFF8BC05DFF8B825D2F85E
S315080008A0B0219047DFF80006D0F8DC0080479CE0CE
S315080008B0DFF89C05407C002808D1DFF8F015DFF842
S315080008C09405DFF89025D2F8B02190470020DFF88C
S315080008D0D015C96A884788E0DFF87405407C002887
S315080008E009D16279DFF8C815DFF86805DFF86435DD
S315080008F0D3F8B0319847607906F03EF975E0201DC7
S315080009000500287A012815D3287ADFF8441589883E
S3150800091080B288420ED260780A280BD1DFF83005FB
S31508000920297A80F83A10DFF82805697A80F83B10AA
S3150800093006F0FEF859E0201D0500A87ADFF8101524
S3150800094091F84E10884205D12868DFF80415496CDD
S31508000950884229D0A87ADFF8F81491F84E10884210
S3150800096007D0A87A112804D2012095F90A108840E0
S3150800097028602B68AA7ADFF8D80490F83B10DFF8CD
S31508000980D004C07A06F066F8DFF8C404407C002874
S3150800099008D1DFF82015DFF8BC04DFF8B824D2F850
S315080009A0B021904701F0EBF81FE0201D05002888CC
S315080009B0FA2816D2A879012813D3A879512810D273
S315080009C0E87901280DD3E87904280AD260780E2838
S315080009D007D10E222900DFF8E00405F081FF06F0B2
S315080009E0A7F802E0200003F009FB31BD0A0D00005C
S315080009F025630000F0B595B004000D00022C02DA5C
S31508000A0001F000FF22E2686800783F2804D1022C32
S31508000A1002D1FFF7B9FD19E2DFF8A024290020006A
S31508000A2006F086F906005FF0FF3140B2884200F012
S31508000A300D8276B2002EEFD0DFF82004C0680028B9
S31508000A40EAD076B23000612800F08480622800F08F
S31508000A50C4816A285BD06B2800F04C816C2800F0B2
S31508000A60E6806E2808D0722800F0B78074282AD04D
S31508000A70782800F09180E6E102AAAFA1DFF8DC034E
S31508000A80C06814F0E3FA0298DFF8C413898888422C
S31508000A90C2DADFF8BC03029980F83A1059208DF8BB
S31508000AA00C00DFF8AC03C088ADF80E000A208DF8FC
S31508000AB00D000A22DFF8081404A805F011FF03A8A0
S31508000AC0FFF7B8FEA8E702AA9BA1DFF89003C06863
S31508000AD014F0BCFA029810289EDBDFF8740302991A
S31508000AE080F83B1059208DF80C00DFF86403C088A5
S31508000AF0ADF80E000A208DF80D000A22DFF8C013A3
S31508000B0004A805F0EDFE03A8FFF794FE84E702AA01
S31508000B1089A1DFF84803C06814F098FA02981028EB
S31508000B20BFF67AAF5E208DF80C00DFF82403C08884
S31508000B30ADF80E0001208DF80D00DFF8140390F8CB
S31508000B403A008DF8100002988DF8110003A8FFF7F7
S31508000B5071FE61E702AA78A1DFF80003C06814F005
S31508000B6075FA02980428BFF657AFB9480299C172B8
S31508000B7057208DF80C00B648C088ADF80E000E2038
S31508000B808DF80D000E22DFF8301304A805F0A8FE34
S31508000B9003A8FFF74FFE3FE702AA67A1AF48C06860
S31508000BA014F054FA0298FB28BFF636AFA848029903
S31508000BB0818057208DF80C00A548C088ADF80E0036
S31508000BC00E208DF80D000E22DFF8EC1204A805F0B1
S31508000BD087FE03A8FFF72EFE1EE702AA56A19F4826
S31508000BE0C06814F033FADFF8DC020078002803D076
S31508000BF0DFF8D40206F05DF99548407C002801D05C
S31508000C00002000E00120924948749148407C002861
S31508000C1001D0002000E00120AA490870A948007800
S31508000C2000283FF4F9AEA94806F043F9F4E602AA0B
S31508000C3041A18A48C06814F009FA9B4890F8260032
S31508000C4000280BD18248407C00287FF4E5AEA049F5
S31508000C508048804AD2F8B0219047DDE67C48407C3F
S31508000C60002808D1904890F826209A497948794B67
S31508000C70D3F8B0319847002007008B4890F8260033
S31508000C80FFB2874211D27248407C00280BD1FFB2CE
S31508000C90854810EB470090F828208F496D486D4B22
S31508000CA0D3F8B03198477F1CE7E76948407C0028AD
S31508000CB005D169A16748674AD2F8B0219047002054
S31508000CC00700794890F82600FFB28742BFF4A4AE21
S31508000CD05F48407C00280BD1FFB2734810EB4700F1
S31508000CE090F829207C495B485A4BD3F8B03198478D
S31508000CF07F1CE6E702AA10A15848C06814F0A6F9B6
S31508000D00764801F0ABFF02F026FC002816D05048C2
S31508000D10407C002806D1029A71494E484D4BD3F8BB
S31508000D20B031984760480299C1745D48808A50F08E
S31508000D3020005B4988826FE6256400005A4890F8CF
S31508000D40260000283DD04248407C002819D1564844
S31508000D5090F827000090544890F82700524911EB64
S31508000D60400090F82930504890F827004E4911EB7A
S31508000D70400090F828205B493648364FD7F8B071BE
S31508000D80B847494890F82700474911EB400090F8C2
S31508000D90280045494875444890F82700401C4249B0
S31508000DA081F82700404890F827003F4991F8261017
S31508000DB08842FFF431AE822200214B4805F0D3FD6C
S31508000DC02AE62348407C00287FF426AE4749214876
S31508000DD0204AD2F8B02190471EE602AA20A11F4851
S31508000DE0C06814F033F90298002802D004280FD0FE
S31508000DF028E01748407C002805D13D491548154A82
S31508000E00D2F8B021904701F089FC00F0B8FE19E04D
S31508000E100F48407C002805D136490E480D4AD2F8BD
S31508000E20B02190472048807C50F004001E49887401
S31508000E30314801900C2000905A23002202212F48A5
S31508000E4006F0A8F8E8E5FFF79FFBFFE715B0F0BD49
S31508000E50900D0020C40A00200D0A00005807002043
S31508000E6025640000007E01082C7E0108507E0108DA
S31508000E70747E0108987E0108C87E0108F47E010880
S31508000E802C7F01084C7F0108707F01082808002084
S31508000E90B87F0108B07F0108C07F0108C87F010834
S31508000EA0A0100020D47F0108580E0020E07F01081A
S31508000EB0F07F010810800108940D00206081010868
S31508000EC0C20D0020940C00203880010850800108CB
S31508000ED0648001087C80010898800108BA10002007
S31508000EE0A0800108B48001087E0E0020E880010871
S31508000EF0FC80010848810108680E0020EC0C0020DF
S31508000F00C0B2072805D1C9B2012902D1374A01233F
S31508000F101370C0B2002805D1C9B2012902D1344ADA
S31508000F2001231370704710B500200400E4B2002CAA
S31508000F3006D1304816F062FC0400E4B2002CFFD05B
S31508000F4010BD70B50400250008200600F6B2012E73
S31508000F500FD32948407C002809D1F6B2701910F839
S31508000F60012C26492648264BD3F8B0319847761ED9
S31508000F70ECE770BD70B50400200080B206F0E0FC16
S31508000F8006000120B04020490988084214D01D48AF
S31508000F90392141801D4803781A4A210089B2002068
S31508000FA007F0DCF9184800880121B1404FF6FF72B6
S31508000FB051400840144908800120B0401249098868
S31508000FC0084206D1200080B206F0E9FC0500EDB221
S31508000FD0002D70BD38B504000D00EDB2002D03D00C
S31508000FE0200080B2FFF7C6FF31BD0000A014002024
S31508000FF0A1140020A20D0020900D00208481010874
S31508001000C40A0020780C0020841400208C0A0020D2
S3150800101070B584B004000D00EDB2012D14D100AAFC
S3150800102001A92000C0B206F0B2FA0600F6B2002EF8
S315080010300AD19DF80000062806D12000C0B206F0A5
S3150800104098FA80B206F09CFC7FBD704780B501F027
S315080010503CFA06F0CBFF524948735248007850498B
S31508001060497B88423AD04E48407B002806D0012862
S315080010700FD0022818D0042821D02BE04A48407CFB
S31508001080002827D149494A48494AD2F8B021904709
S3150800109020E04548407C00281CD146494448444A3B
S315080010A0D2F8B021904715E03F48407C002811D17E
S315080010B041493F483E4AD2F8B02190470AE03A48AB
S315080010C0407C002806D13D493948394AD2F8B02132
S315080010D09047FFE73248407B324908703048407BEA
S315080010E0002802D0022803D00CE001F0E0F809E05D
S315080010F02B480078012804D129480021017007F0FF
S3150800110037FCFFE72E48808840F2D171884205D225
S31508001110202101202A4A526B90470BE02021032008
S31508001120274A526B9047002804D020210220244ADF
S31508001130526B90472248006B8047002807D020480A
S31508001140006B80471849898880B281420CD24021B9
S3150800115003201B4A526B9047002805D140210120E5
S31508001160174A526B904718E01548006B80470128CC
S3150800117013D31348006B80470B49898880B2814294
S315080011800BD3402103200E4A526B9047002804D007
S31508001190402101200A4A526B904701BD0000000019
S315080011A0E80D00208D0A0020900D00208C81010892
S315080011B0C40A0020A8810108C8810108E88101083D
S315080011C0A01000202DE9FC4704000D001600F6B219
S315080011D0DFF804060068305C070007F083FD8046E8
S315080011E000213000C0B204F0D3F98146DFF8EC05DF
S315080011F090F83A00DFF8E81508706888DFF8E01517
S315080012004870DFF8DC05FF2181706888132800F034
S31508001210C082512800F02D82522800F07F82532880
S3150800122000F0DB80542800F0AA80552800F094824C
S31508001230562800F09E81572800F05881582800F05B
S315080012407281592800F0C4815A2800F021815B2850
S3150800125000F0EE815C284FD05D2800F036825E28CB
S3150800126000F0E980E72840F0958299F80000DFF859
S315080012706C1591F83A10884207D099F80300DFF800
S315080012805C1591F83A10884229D1DFF85005407C60
S3150800129000280CD199F8023099F80020DFF8441597
S315080012A0DFF84405DFF840C5DCF8B0C1E04702F0D6
S315080012B052F900280BD0DFF8340599F8021041726C
S315080012C0DFF81C05DFF82415497A817007E002F07B
S315080012D052F9002803D0DFF8080500218170DFF8ED
S315080012E000050190032000905F2300220221DFF809
S315080012F0000505F04FFE6DE299F80000DFF8DC14F2
S3150800130091F83A1088422DD1DFF8D004407C0028A5
S315080013100CD199F8013099F80020DFF8D814DFF8D5
S31508001320C804DFF8C4C4DCF8B0C1E047DFF8B0048D
S3150800133099F801104170FFB2B81E4008DFF8A014F2
S31508001340887019F10202DFF898048178DFF89004B2
S31508001350407802F089FBDFF8881488706888DFF81F
S3150800136080144870DFF878040190032000905F230A
S3150800137000220221DFF8780405F00CFE2AE299F82B
S315080013800000DFF8581491F83A10884218D1DFF8AF
S315080013904C04407C00280AD199F80020DFF858143C
S315080013A0DFF84404DFF84034D3F8B03198474846AC
S315080013B0DFF84814896A8847DFF824040021817019
S315080013C0DFF81C040190032000905F23002202210D
S315080013D0DFF81C0405F0DEFDFCE199F80000DFF8F3
S315080013E0FC1391F83A10884218D1DFF8F003407CD4
S315080013F000280AD199F80020DFF80414DFF8E8037A
S31508001400DFF8E433D3F8B03198474846DFF8EC13F1
S31508001410C96A8847DFF8C80300218170DFF8C0036E
S315080014200190032000905F2300220221DFF8C00309
S3150800143005F0B0FDCEE199F80000DFF8A01391F8A9
S315080014403A10884217D1DFF89403407C00280AD165
S3150800145099F80120DFF8AC13DFF88C03DFF888333E
S31508001460D3F8B031984799F8010005F085FBDFF805
S31508001470700300218170DFF8680301900320009053
S315080014805F2300220221DFF8680305F083FDA1E14E
S3150800149099F80000DFF8441391F83A1088421AD1F7
S315080014A0DFF83803407C00280AD199F80020DFF8D5
S315080014B05813DFF83403DFF83033D3F8B0319847E0
S315080014C0DFF82803D0F8DC00804702F01FF9DFF8C0
S315080014D0100300218170C2480190032000905F2309
S315080014E000220221C24805F055FD73E1FFB20E2F16
S315080014F00ED10E224946DFF8140305F035FA002806
S3150800150006D00E224946C14805F0EAF905F010FB57
S31508001510BE4801900E200090572300220221B448AD
S3150800152005F038FD56E1FFB2202F17D1AB48407CB5
S31508001530002805D1B649AC48AB4AD2F8B021904745
S3150800154020224946B34805F00FFA002806D0202283
S315080015504946B04805F0C4F905F0EAFAAD480190E5
S3150800156020200090582300220221A14805F012FDF0
S3150800157030E1FFB2142F20D19848407C002805D1CD
S31508001580A5499948984AD2F8B02190471422494665
S31508001590A24805F0E9F900280FD0142249469F48C9
S315080015A005F09EF98D4890F84E00102805D28B4814
S315080015B04FF6FF71416405F0BBFA98480190142074
S315080015C00090562300220221894805F0E3FC01E138
S315080015D0CA469AF8080001281FD39AF808007F49D6
S315080015E0898880B2884218D2FFB20A2F15D17B4863
S315080015F0407C002805D18A497B487B4AD2F8B0212D
S31508001600904776489AF8081080F83A1073489AF87E
S31508001610091080F83B1005F08BFA824801900A20E1
S315080016200090592300220221714805F0B3FCD1E04D
S3150800163099F80000694991F83A1088420ED167482E
S31508001640407C002805D178496748674AD2F8B02116
S31508001650904701F063F86248002181706048019064
S31508001660032000905F2300220221614805F092FCC6
S31508001670B0E099F80000594991F83A10884219D112
S315080016805648407C002805D168495748564AD2F83A
S31508001690B02190475248002181705148019003209B
S315080016A000905F2300220221514805F073FC00F0E8
S315080016B066FA8FE04A480190032000905F230022D3
S315080016C002214B4805F066FC84E0FFB23A0092B26C
S315080016D049464648D0F8AC0005F002F940480021D2
S315080016E0817000210800C0B2FFB2B8420BD23C4953
S315080016F08978C0B23D4AD2F8AC20825C5118384A83
S315080017009170401CEFE736480190032000905F2354
S3150800171000220221364805F03DFC5BE001F02BFF74
S31508001720002806D03548808A50F010003349888250
S3150800173050E001F010FF00284CD029482B49497A7F
S31508001740817027480190032000905F230022022120
S31508001750274805F01FFC3DE0484605F070FC2021AF
S315080017600320264A526B9047002804D020210220E5
S31508001770224A526B90471A480021817018480190F6
S31508001780032000905F2300220221194805F002FC7D
S3150800179020E01FE0688813281CD01048407C0028E9
S315080017A00AD11FFA88F843466A8821490E48DFF8A5
S315080017B038C0DCF8B0C1E0470948FE218170084806
S315080017C00190032000906B88DBB2002202210848B2
S315080017D005F0E0FBBDE8F38718090020900D00200E
S315080017E0840C002008820108C40A0020580E002034
S315080017F0EC0C00204482010870820108A010002029
S3150800180094820108B8820108E0820108940D00203C
S3150800181000830108A20D002030830108D40D0020A2
S3150800182064830108C20D002098830108D483010847
S315080018301484010810B518220021624805F093F8AF
S3150800184061486249B1F84810A0F860105E485F49DF
S3150800185091F94C1080F862105B485C4991F84D107C
S3150800186080F8631008225A49564805F039F807F0F7
S31508001870B7FA0400E4B2002C05D007B52B21554869
S3150800188003F00EFAFFE710BD00B583B04E48807C22
S3150800189001280DD14C48C07C002809D14E4801903A
S315080018A00C2000905523002201214C4805F072FBBC
S315080018B007BD80B54448C06C002802D04248C06CB9
S315080018C0804701BD80B54048806C80473E48806BA4
S315080018D0804701BD80B503F06DFC414815F0CBFF8C
S315080018E001BD80B53848006A80473748406A804756
S315080018F03548806A80473448406B002802D0324811
S31508001900406B804701BD80B5012300220F210120CD
S3150800191005F0F0FA002805D001230022082101204D
S3150800192005F0E8FA01BD704780B508222D492E4812
S3150800193004F0D6FF2548407C00280CD12248807C3C
S31508001940012801D1294A00E0294A2A492A482A4B6E
S31508001950D3F8B031984701BD80B5284808210170F1
S315080019601948006B8047FFF7DFFF01BD70477047D6
S3150800197080B500F0B4F8FFF7C6FFFFF7D4FFFEF70F
S315080019802FFD00F0ABF807F0B7F900F0E7FE00F01E
S3150800199053F900F05FFAFFF7E9FFFFF7E8FFFFF7F3
S315080019A049FFFFF7D9FF08484068401C06494860C8
S315080019B000F034F80448C06A8047FFF792FFFFF743
S315080019C089FFF0E7400E0020E80D0020900D00206A
S315080019D0DF0D002040840108A4100020EC0C002034
S315080019E07C840108E4100020C20D002058840108F8
S315080019F06884010850840108C40A0020B314002032
S31508001A00DFF8C40101210160DFF8C0014EF6BE21EE
S31508001A100160DFF8BC01012101607047DFF8A80109
S31508001A2001210160704730B48308DFF8A84154F8F3
S31508001A3023301B681A000F2310F00304E4B2A40035
S31508001A40A3409A4310F00303DBB29B0011FA03F399
S31508001A50134384085F4D55F82440236030BC704713
S31508001A6080B502F00CFF40F68C21884206D25A480F
S31508001A70006850F008005849086004E056480168B4
S31508001A8021F00801016001BDC0B2082190FBF1F107
S31508001A9003290DDAC0B2082190FBF1F14FF48062F8
S31508001AA04E4B02FB0131012210F007039A400A60EF
S31508001AB07047C0B2082190FBF1F103290DDAC0B2D4
S31508001AC0082190FBF1F14FF48062454B02FB01318E
S31508001AD0012210F007039A400A607047704780B5E4
S31508001AE002237F223F4801883F4807F091FB3E4882
S31508001AF000884FF6FF71884201D107F021FC0020CB
S31508001B0007F088FC3448006850F00800324908603D
S31508001B1007F03EFC07F000FCFFF772FF00F03AF80A
S31508001B20FFF79EFF3148C9210160314879210160DC
S31508001B303048E7210160304849F6D95101602F48FD
S31508001B4048F6111101602E4849F2994101602D4865
S31508001B5040F2191101602C4844F6991101602B488E
S31508001B6049F6941101601C48016821F010010160D2
S31508001B70FEF751FB07F060FD02F08EFB01BD80B554
S31508001B8040F2016007F080FC01BD80B5042007F033
S31508001B90B6FB01BD80B51E48102101601D48022113
S31508001BA001601D484FF40061016007F0B1FC1B4855
S31508001BB0072101601A48002101601A4810210160B6
S31508001BC0002002BD000000000860004004600040DC
S31508001BD0006000409484010800BC004010B000403A
S31508001BE014B000404E9501087E0A00200CB0004053
S31508001BF00CB400400CB8004000B0004004B00040EF
S31508001C0000B4004004B4004000B8004004B80040E6
S31508001C1080E100E0080000400C60004014A000408D
S31508001C2054A0004000E100E0DFF808000021016050
S31508001C3070470000E80C002080B570220021724829
S31508001C4004F091FE7048012101736F480021417329
S31508001C506D48002181736C480021C1736A480021D0
S31508001C600181694800214174674801210175664868
S31508001C700021017464486549016263486449416208
S31508001C806148644901656048634941655E480221C7
S31508001C9081745D480221C1745B486049C1625A4833
S31508001CA05F49016358485F49C16357485E49016403
S31508001CB055485E49416454485D49816352485D49C7
S31508001CC0816251485C4981644F485C49C1644E4809
S31508001CD00021416305F085F905F0D6F904F0F1FF16
S31508001CE0574808F093FA01BD564AB2F84A200A80C6
S31508001CF0C0B24880444A127B0A71434A127B4A7131
S31508001D004FF4A072CA8070474E4AB2F84A200A8039
S31508001D10C0B248803C4A127B0A713B4A127B4A7120
S31508001D200022CA8041F211120A8170472DE9FF414B
S31508001D3004000D0016001F00002F02D0F6B2002E78
S31508001D4003D10120060000A807003100C9B23800F7
S31508001D5003F031FB80465FFA88F8B8F1FF0F01D12E
S31508001D60FF2014E001A92000C0B2FFF7BDFF4346DB
S31508001D70DBB201AA290089B2002006F0EFFA8DF835
S31508001D8000004046C0B203F096FA9DF8000004B081
S31508001D90BDE8F081F0B585B004000D001600002EF0
S31508001DA002D0EDB2002D03D10120050000A80600DF
S31508001DB02900C9B2300003F0FEFA0700FFB2FF2F70
S31508001DC001D1FF2013E001A92000C0B2FFF79CFF54
S31508001DD03B00DBB20822002101A806F00BFB8DF8B8
S31508001DE000003800C0B203F066FA9DF8000005B09E
S31508001DF0F0BD15490968080041F211110180024930
S31508001E00097B817070470000E80D00205D8E000890
S31508001E10419C00082D1D0008951D00083526000860
S31508001E20CD250008C5110008691F00083B200008D9
S31508001E304D100008493C0008F53E0008B93D000869
S31508001E40C40A0020900D00204409002080B5FFF741
S31508001E50E5FD01BD10B5384800210160374801216C
S31508001E600160374801210160364800210160354884
S31508001E706021016009210620FFF7D5FD00F03AF838
S31508001E8000F042F800F04AF800F027F82E484FF420
S31508001E907A7101602D480A2101602D4800210160F0
S31508001EA002F0ECF904002B484FF4807101602A48CF
S31508001EB0006850F00100284908602000C0B202F00E
S31508001EC0D9F910BD4FF47A71081A002804D4B0F570
S31508001ED07A7F01DC1D49086070472048006850F089
S31508001EE040001E4908601D48006850F080001B49E4
S31508001EF00860704780B501211720FFF794FD01217E
S31508001F001620FFF790FD01BD80B501210820FFF7D7
S31508001F108AFD01210720FFF786FD01BD10480068EC
S31508001F2050F001000E4908600E48006850F0800025
S31508001F300C4908607047000050E0004028E0004067
S31508001F4014E000401CE000402CE000403CE000406B
S31508001F5024E0004020E0004000E0004010B80040C7
S31508001F6010B4004010B000402DE9F04182B00500E1
S31508001F700E0017009846089C7888DFF81C178968B1
S31508001F80497889B2884256D1E4B2002C40D0DFF8AD
S31508001F900C07407C00280DD1388800907B88E4B275
S31508001FA02200DFF8FC16DFF8FC06DFF8F8C6DCF8D6
S31508001FB0B0C1E047DFF8F006818A21F0020181828C
S31508001FC0DFF8E406407C401CDFF8DC164874C0B233
S31508001FD0032830D3DFF8C406407C00280BD1DFF88D
S31508001FE0C806427CDFF8C416DFF8B806DFF8B43650
S31508001FF0D3F8B0319847DFF8B00600214174DFF80E
S31508002000900601210170DFF888060021817312E02D
S31508002010DFF88806407C002809D13A88DFF8901650
S31508002020DFF88006DFF87C36D3F8B0319847DFF85A
S31508002030780600214174BDE8F38130B589B0040003
S31508002040E4B22000902809D0912800F0EB8094286B
S3150800205000F0FF80AB2800F00B8126E1DFF83C0694
S31508002060407C002808D1DFF84C16DFF83806DFF880
S315080020703426D2F8B021904702A805F0C9FF0028F7
S315080020802ED1DFF81806407C002808D1DFF828167C
S31508002090DFF81006DFF80C26D2F8B0219047DFF8F3
S315080020A0FC05407C00280CD1BDF810309DF81320A3
S315080020B0DFF80816DFF8EC05DFF8E855D5F8B05173
S315080020C0A847DFF8D805407C002809D102AADFF81E
S315080020D0F015DFF8D005DFF8CC35D3F8B0319847DE
S315080020E0DFF8AC0590F863001A280FD1DFF8AC05C5
S315080020F0407C002840F09380DFF8C815DFF8A40577
S31508002100DFF8A025D2F8B021904788E0DFF88005EF
S31508002110B0F86000BDF81010884207D1DFF87005E6
S3150800212090F863009DF8131088422CD0DFF86C05F0
S31508002130407C002810D1DFF85805B0F86030DFF889
S31508002140500590F86320DFF88015DFF85805DFF8AA
S315080021505455D5F8B051A847DFF84005407C00280B
S315080021600CD1BDF810309DF81320DFF86015DFF8A4
S315080021703405DFF83055D5F8B051A847DFF8100513
S31508002180012101704BE0DFF81405B0F84800DFF8CC
S315080021900015B1F86010884209D1DFF8000590F8FB
S315080021A04D00DFF8EC1491F8631088421FD0DFF871
S315080021B0EC04407C002808D1DFF81415DFF8E404A5
S315080021C0DFF8E024D2F8B0219047DFF8D004DFF832
S315080021D0C014B1F86010A0F84810DFF8C004DFF8A2
S315080021E0B01491F8631080F84D1004F0A1FCDFF8E4
S315080021F0E40401210170DFF8980402218173DFF8F5
S3150800220090040021C173DFF8D00401900C200090DF
S31508002210522300220221DFF8800404F0BBFEFFF7F8
S31508002220E8FD42E0DFF8680400214173DFF8600446
S3150800223000218173DFF86404407C002835D1DFF87B
S315080022409C14DFF86004DFF85C24D2F8B0219047CC
S315080022502BE0DFF84804407C002826D1DFF88014FC
S31508002260DFF84004DFF83C24D2F8B02190471CE0A0
S31508002270DFF82804407C002808D1DFF86814DFF866
S315080022802404DFF82024D2F8B0219047DFF8180498
S31508002290407C401CDFF810144874C0B2032804D3ED
S315080022A0DFF8040400214174FFE709B030BDF8B532
S315080022B05FF0FF30040000200500DFF818040078FE
S315080022C001283DD1DFF80C0400210170DFF8D8039E
S315080022D005210170DFF8D00301214170DFF80804F9
S315080022E000210170DFF8040464218170182200219E
S315080022F0DFF8A00304F037FB0822DFF8F413DFF851
S31508002300940304F0EDFADFF88803DFF89013B1F8C8
S315080023104810A0F86010DFF87803DFF8801391F909
S315080023204C1080F86210DFF86803DFF8701391F834
S315080023304D1080F86310DFF85803002180F8641008
S31508002340DFF86403007801281FD3DFF8500390F8FC
S315080023504D000B2814D3DFF8440390F84D001B28D2
S315080023600ED2DFF844030078401EDFF83C130870ED
S31508002370DFF81C03002180F864100120050096E0B0
S31508002380DFF824030021017091E0DFF81C03407890
S31508002390012807D1DFF8100300214170DFF8540344
S315080023A00121017007F0ACFA002800F080800020B7
S315080023B00700DFF844030078FFB2874201D27F1C8A
S315080023C0F7E7DFF834030078002805D1DFF824039F
S315080023D001210170012077E0DFF80C03007801285D
S315080023E00BD3C1480078401EBF490870A848002191
S315080023F080F864100120050059E000200400002040
S315080024000700BD480078FFB2874210D2FFB2062007
S31508002410B64900FB0710807864B20621B34A01FB6F
S3150800242004218978884200D23C007F1CE9E764B21F
S315080024300620AE4900FB04108078642832D064B2C6
S315080024400620AA4900FB041064218170A6480321CE
S315080024500170182200218F4804F085FA0822A44941
S315080024608C4804F03DFA64B20620A04900FB04102B
S3150800247080888749A1F860008548884991F94C10F9
S3150800248080F8621064B20620984900FB0410C078F0
S315080024907F4981F863007E48002180F86410012096
S315080024A0050004E093480121017000200CE0EDB21C
S315080024B0012D08D100200500FEF735FD75490220DB
S315080024C003F094FA06000120F2BD80B58948007829
S315080024D0012804D107F090FA86480021017007F018
S315080024E094FA07F003FA002803D08149834807F0D5
S315080024F08FFA01BD694890F83A0080B2704767487C
S31508002500C07A022803D1654890F83B0000E0102005
S31508002510704710B40200D2B2012A1AD15F48C07AB5
S31508002520022807D16048007F08435F4B18775E484A
S31508002530007F3DE05C485C4B1B7FDBB251EA5303EE
S31508002540047F63F3470404775748007FC0B2400806
S315080025502EE0D2B2022A1CD15048C07A022807D1EE
S315080025605148007F8843504B18774F48007F1FE03B
S315080025704D484D4B1B7FDBB2C9B2CC4314EA53031B
S31508002580047F63F3470404774748007FC0B24008D6
S315080025900EE04248C07A022804D14348007F08402A
S315080025A0C0B205E04048007FC0B211EA5000C0B290
S315080025B010BC70473948C07A022802D13A48407F91
S315080025C003E03948007F10F00100704780B53348B2
S315080025D0C07A022802D100F077FE1CE03248818AD0
S315080025E021F01001818230482C4991F83A10418334
S315080025F02A48007B800707D52B4864214177404845
S315080026002949896A884706E02748002141773C48D6
S315080026102549C96A884724483A49016322483A49FC
S3150800262081632148394941631F483949C163FFF726
S31508002630FBFA01BD10B592B036483649C96C8847D1
S31508002640002816D133483349896C88470400324834
S31508002650002101802100C9B21248124AD2F89821F5
S31508002660904710480078002803D12000C0B2FEF732
S3150800267019F800A90B480B4AD2F89421904700286C
S3150800268002D000A8FEF7D6F812B010BD0000000070
S31508002690E80D0020400E0020EC0C0020900D0020D4
S315080026A0AC840108C40A0020A0100020DC840108BC
S315080026B01C850108348501086085010880850108A4
S315080026C0A8850108C8850108E0850108088601086B
S315080026D0288601088F0A0020BA100020648601089F
S315080026E090860108BC860108A31400200411002066
S315080026F0E8860108A21400208409002000F8FF07D4
S31508002700BD100020F5240008FF2400081325000842
S31508002710B5250008940C0020580E0020F8B50220B4
S31508002720040000200600E4B2022C02D12020050095
S3150800273007E0E4B2032C02D11020050001E01020C6
S3150800274005004FF6FF7007003B003200D2B22900A1
S31508002750C9B22000C0B204F07DF9F1BD80B5DFF83A
S31508002760F8265821002007F0B3FDDFF8EC060088AC
S3150800277045F2AA51884204D1DFF8DC064088582879
S3150800278002D0FFF7CBFF23E0DFF8CC0690F84D0028
S315080027900B280BD3DFF8C00690F84D001B2805D28E
S315080027A0DFF8B40690F84E00112802D3FFF7B6FFFB
S315080027B00EE0DFF8A40690F83B00012808D0DFF801
S315080027C0980690F83B00102802D2FFF7A7FFFFE70C
S315080027D001BD80B5DFF88006407C002805D0DFF80B
S315080027E078060021417404F0A3F9DFF86C06407CF2
S315080027F0002801D0002000E00120DFF860160870EC
S3150800280001BD000030B58BB072A00400DFF84806A1
S31508002810407C002808D1DFF84C16DFF84406DFF8BC
S315080028204026D2F8B0219047DFF82C06407C0028D5
S315080028300BD1DFF82406C288DFF82C16DFF820064D
S31508002840DFF81C36D3F8B0319847DFF80C06407C21
S3150800285000280BD1DFF800068288DFF81016DFF8AB
S315080028600006DFF8FC35D3F8B0319847DFF8E805FD
S31508002870407C00280CD1DFF8E00590F83B20DFF813
S31508002880F015DFF8DC05DFF8D835D3F8B03198470E
S31508002890DFF8C40590F83B00012809D3DFF8B8052E
S315080028A090F83B00102803D2DFF8C80504004EE074
S315080028B0DFF8A40590F83B00102809D3DFF898053F
S315080028C090F83B00202803D2DFF8AC0504003EE070
S315080028D0DFF8840590F83B00202809D3DFF878054F
S315080028E090F83B00402803D2DFF8900504002EE05C
S315080028F0DFF8640590F83B00502809D3DFF858053F
S3150800290090F83B00602803D2DFF8740504001EE047
S31508002910DFF8440590F83B00102809D3DFF838059E
S3150800292090F83B00202803D2DFF8580504000EE093
S31508002930DFF8240590F83B00102808D3DFF81805BF
S3150800294090F83B00302802D2DFF83C050400DFF897
S315080029500805407C002808D12200BFA1DFF8000541
S31508002960DFF8FC34D3F8B0319847DFF8EC04407C44
S3150800297000280BD1DFF8E004027BDFF81015DFF83A
S31508002980E004DFF8DC34D3F8B0319847DFF8000507
S31508002990807C022811D1DFF8C004407C00280CD1C5
S315080029A0DFF8B40490F83A20DFF8E814DFF8B0044A
S315080029B0DFF8AC34D3F8B0319847DFF89C04407C94
S315080029C0002814D1DFF89004407C002804D0DFF8F2
S315080029D0C82403E000000000DFF8C024DFF8C014B4
S315080029E0DFF87C04DFF87834D3F8B0319847DFF89D
S315080029F06804407C00280BD1DFF85C04827BDFF892
S31508002A00A414DFF85C04DFF85834D3F8B0319847DB
S31508002A10DFF84404407C00280BD1DFF83C04C27B75
S31508002A20DFF88414DFF83804DFF83434D3F8B0312B
S31508002A309847DFF82404407C00280BD1DFF81804F7
S31508002A40027CDFF86814DFF81804DFF81434D3F8CA
S31508002A50B0319847DFF80004407C002808D1DFF839
S31508002A605014DFF8FC03DFF8F823D2F8B0219047BA
S31508002A70DFF84004FEF765FADFF8DC03407C00283F
S31508002A800BD1DFF8D403827ADFF82C14DFF8D003F1
S31508002A90DFF8CC33D3F8B0319847DFF8BC03407C75
S31508002AA000280BD1DFF8B003427BDFF81014DFF8FB
S31508002AB0B003DFF8AC33D3F8B0319847DFF89803A2
S31508002AC0407C00280BD1DFF89003426CDFF8F01346
S31508002AD0DFF88C03DFF88833D3F8B0319847DFF88E
S31508002AE07803407C00280CD1DFF86C0390F84E2060
S31508002AF0DFF8D013DFF86803DFF86433D3F8B031B2
S31508002B009847DFF85403407C002812D1DFF84803C1
S31508002B10007AC3B2DFF84003008980B2020A92B293
S31508002B20DFF8A413DFF83803DFF83453D5F8B051CB
S31508002B30A84704A805F06CFA002820D1DFF8180386
S31508002B40407C00280AD1BDF81820DFF88013DFF88A
S31508002B501003DFF80C33D3F8B0319847DFF8F802E2
S31508002B60407C00282FD19DF81B20DFF86413DFF87E
S31508002B70F002DFF8EC32D3F8B031984723E0DFF8FB
S31508002B80D802407C00280CD1DFF8CC02B0F84820E7
S31508002B90DFF83813DFF8C802DFF8C432D3F8B031EB
S31508002BA09847DFF8B402407C00280CD1DFF8A80269
S31508002BB090F84D20DFF81813DFF8A402DFF8A032EA
S31508002BC0D3F8B0319847DFF89002407C00280CD142
S31508002BD0DFF8840290F84C20DFF8F812DFF880025C
S31508002BE0DFF87C32D3F8B0319847DFF86C02407CC6
S31508002BF000280CD1DFF86002B0F84A20DFF8D812B6
S31508002C00DFF85C02DFF85832D3F8B0319847DFF8BE
S31508002C104802407C00281CD1DFF8C002807A039065
S31508002C20DFF8B802407A0290DFF8B002007A019025
S31508002C30DFF8A802C0790090DFF8A0028379DFF8F0
S31508002C409C028288DFF898128548854DD5F8B051E0
S31508002C50A8470BB030BD00002573000030B589B019
S31508002C600400002C00F0F4807B48C07A012840F06C
S31508002C70C5807948407C002807D12288DFF864128D
S31508002C807748774BD3F8B03198477348407C00288B
S31508002C900AD1A078C0B24208D2B2DFF84C12704806
S31508002CA06F4BD3F8B03198476B48407C00280ED15B
S31508002CB0A078C00702D5DFF8342201E0DFF8302219
S31508002CC0DFF830126648664BD3F8B0319847624849
S31508002CD0407C00280BD12079C00701D55DA200E011
S31508002CE0854A86495E485E4BD3F8B03198475A48BC
S31508002CF0407C002809D12079C0B24208D2B2804966
S31508002D005748574BD3F8B03198475348407C00286A
S31508002D1006D162797B495248514BD3F8B03198476E
S31508002D204D48407C002806D1627A77494C484C4B7E
S31508002D30D3F8B03198474848407C002808D1A07A93
S31508002D4010F00F0271494648454BD3F8B031984701
S31508002D504148407C002809D1A07AC0B20209D2B203
S31508002D606B493F483E4BD3F8B03198473A48407CC8
S31508002D70002806D1E27A67493948394BD3F8B03189
S31508002D8098473548407C002806D1E278624934489D
S31508002D90334BD3F8B03198472F48407C002808D1E8
S31508002DA0207A10F00F025D492D482D4BD3F8B0312B
S31508002DB098472948407C002809D1207AC0B20209E0
S31508002DC0D2B257492648264BD3F8B03198472248FD
S31508002DD0407C002806D1A27952492148204BD3F8D5
S31508002DE0B03198471C48407C002831D1E2794E49D9
S31508002DF01B481B4BD3F8B031984729E01648C07AD0
S31508002E00022825D11448407C002805D14749144892
S31508002E10134AD2F8B02190470F48407C002817D1B2
S31508002E2020890790E0790690A0790590608904903A
S31508002E306079039020790290A0780190E07800905C
S31508002E40237862783A490648054DD5F8B051A8471F
S31508002E5009B030BD4E6F0000900D0020940C002084
S31508002E60C40A0020F0860108188701082887010887
S31508002E703C87010850870108648701087C87010898
S31508002E8094870108AC870108C0870108D88701081C
S31508002E90E80D0020F0870108248801082C8801081D
S31508002EA00488010834880108608801088C880108AC
S31508002EB0C0880108C20D0020E0880108F8880108CA
S31508002EC018890108308901084889010868890108B4
S31508002ED088890108A8890108C0890108A01000206E
S31508002EE0DC8901080C8A01081C8A0108448A010841
S31508002EF04C8A0108308A0108788A0108548A010830
S31508002F00808A0108988A0108AC8A0108C88A0108DB
S31508002F10E88A0108088B01081C8B0108348B010814
S31508002F20488B01085C8B0108708B0108848B0108AB
S31508002F30C48B010880B501210220FEF774FD02202A
S31508002F40FEF7B7FD01BD37B50400DFF8E40C0078DD
S31508002F500621DFF8DC2C01FB00207E218170DFF8DA
S31508002F60D00C00780621DFF8C82C01FB0020C470BD
S31508002F70022201A9DFF8B80C00780623DFF8B05C56
S31508002F8003FB0050001D03F0ABFC022202A9DFF888
S31508002F90A00C00780623DFF8985C03FB0050801D20
S31508002FA003F09EFCDFF8880C0078401CDFF8801CD4
S31508002FB00870DFF87C0C0078202803D3DFF8700C43
S31508002FC00021017037BD00210800DFF8641C49782C
S31508002FD0DFF85C2C1278914219D0DFF8541C497836
S31508002FE00622DFF84C3C02FB0131891C0800DFF899
S31508002FF0401C4978491CDFF8382C5170DFF8301C22
S315080030004978202903D3DFF8281C00224A70704724
S3150800301080B5DFF8480A407C002808D1DFF8401A56
S31508003020DFF8100CDFF80C2CD2F8B02190470120FD
S31508003030FEF73FFD01BD80B5DFF8200A407C002879
S3150800304008D1DFF8201ADFF8EC0BDFF8E82BD2F806
S31508003050B02190470120FEF717FDDFF8DC0B807CD6
S31508003060400707D5DFF8D00B807C10F0FB00DFF8AF
S31508003070C81B8874DFF8C00B0321417201BD80B5F7
S31508003080DFF81C0D0068800703D50120FEF711FD47
S3150800309002E00120FEF7F8FC01BD38B50400DFF8B0
S315080030A0980B807B002849D1DFF8B009407C0028BE
S315080030B008D1DFF8881BDFF87C0BDFF8782BD2F80D
S315080030C0B021904700200500EDB2082D09D2002254
S315080030D000215420DFF8603BD3F8D03098476D1CA8
S315080030E0F2E7DFF8540B54210172DFF8540B808A9B
S315080030F050F02000DFF8481B8882DFF83C0B807C04
S31508003100002803D0DFF8300B00218174DFF8280B84
S31508003110C07CDFF8241B097A884205D0DFF8180B33
S31508003120DFF8141B097AC174DFF8780CDFF8081B7E
S31508003130097A0171DFF86C0C00F060FF31BD38B513
S315080031400400DFF81809407C002808D1DFF8F41AD3
S31508003150DFF8E00ADFF8DC2AD2F8B0219047002031
S315080031600500EDB2082D09D2002200215320DFF810
S31508003170C83AD3F8D03098476D1CF2E7DFF8B80A9A
S3150800318053210172DFF8B80A808A50F02000DFF870
S31508003190B01A8882DFF8A00AC07CDFF89C1A097A80
S315080031A0884205D0DFF8900ADFF88C1A097AC174CC
S315080031B0DFF8F00BDFF8801A097A0171DFF8E40B03
S315080031C000F01CFF31BD70B504002500002C60D04E
S315080031D0287850280ED1DFF88408407C002829D1A9
S315080031E0DFF8C41BDFF84C0ADFF8482AD2F8B0210A
S315080031F090471FE0287851280ED1DFF86008407CF8
S31508003200002817D1DFF8A41BDFF8280ADFF8242ADC
S31508003210D2F8B02190470DE0DFF84008407C00283E
S3150800322008D1DFF88C1BDFF80C0ADFF8082AD2F879
S31508003230B021904700200600F6B2082E09D2AA88C7
S3150800324069882878DFF8F039D3F8D0309847761CA3
S31508003250F2E7DFF8E40929780172DFF8E409808AE1
S3150800326050F02000DFF8D8198882DFF8CC09C07C36
S31508003270DFF8C419097A884205D0DFF8BC09DFF8F7
S31508003280B819097AC174DFF81C0BDFF8AC19097A8A
S31508003290017170BD30B402000800002529002B001A
S315080032A02C00C9B2082909D2D50700D55B1CD5055B
S315080032B000D5641C491C92B25208F2E71D1B057022
S315080032C0E518457030BC704738B5E8220021DFF8AC
S315080032D0680903F048FBC2220021DFF8540903F00D
S315080032E042FB0C220021DFF8CC0A03F03CFB0C223F
S315080032F00021DFF8D40B03F036FB20220021DFF88B
S31508003300CC0B03F030FBDFF83809DFF8501791F8DB
S315080033103A108176DFF82809DFF8401791F83B1054
S31508003320C176DFF81C09DFF8A81B8162DFF81009EF
S31508003330DFF8A01BC162DFF80809DFF89C1B0164EF
S31508003340DFF8F408DFF8141791F83A100174DFF87B
S31508003350E808DFF8081791F83B104174DFF8D80839
S315080033605321C174DFF8D00808214180DFF8C80866
S31508003370DFF8581BC0F8AC10DFF8BC08DFF85C1B98
S31508003380C0F8D010DFF8B008DFF8541BC0F8D41026
S31508003390DFF8A408DFF84C1BC0F8D810DFF8980847
S315080033A0DFF8441BC0F8DC10DFF88C08DFF83C1B9C
S315080033B0C0F8E010DFF88008DFF8341BC0F8E41026
S315080033C0DFF87408DFF8E01BC0F8A810DFF88C06F1
S315080033D090F83A00DFF8F01A0870DFF8EC0ADFF820
S315080033E07C1691F83B104170FFF7A4FDFFF7F1F941
S315080033F0DFF844084FF4FC61418344220021DFF8DA
S31508003400A40903F0B0FADFF8A40B0400DFF8940966
S315080034100A214170DFF88C0960210170DFF8840900
S31508003420DFF81C18098B4180DFF80C08C07C207077
S31508003430DFF80408C07AA070DFF8FC07408BA0808C
S3150800344000F089F8002815D001210120FEF7EBFAD3
S315080034500120FEF719FB08210020FEF7E4FA0821EF
S315080034600420FEF7E0FA0020FEF70EFB0420FEF724
S315080034700BFB6FE000F07FF800286BD00A220021D2
S31508003480DFF8700B03F06FFADFF8682B0A214FF4A8
S31508003490805006F01DFFDFF8600B03F00AFD0020E0
S315080034A00500EDB2052D33D2EDB2DFF88C0710EB2F
S315080034B04500007F002807D0EDB2DFF87C0710EB47
S315080034C04500407F002800D122E0EDB2DFF868070A
S315080034D010EB4500007FFF2807D0EDB2DFF858074C
S315080034E010EB4500407FFF2800D111E0EDB2DFF870
S315080034F0480710EB4500427FEDB2DFF83C0710EBBA
S315080035004500017FDFF8A40B03F0D3FC6D1CC8E768
S31508003510DFF82407C573DFF82007C07B0500EDB286
S31508003520052D0FD2EDB2DFF8100710EB450000218C
S315080035300177EDB2DFF8000710EB4500002141776F
S315080035406D1CECE7DFF8AC2ADFF8EC06C17B00203F
S3150800355000F08AFA31BDDFF8040590F83B00102820
S3150800356007D3DFF8F80490F83B00202801D20120A1
S3150800357000E000207047DFF8E40490F83B002028BC
S3150800358007D3DFF8D80490F83B00402801D2012081
S3150800359000E000207047010000221000DFF8102B21
S315080035A092F82620C0B290420DD2C0B2DFF8002BA6
S315080035B012EB400292F82820C9B28A4201D1C0B261
S315080035C002E0401CEAE7FF20704700B583B0DFF849
S315080035D0E40A807B022840F09880FFF7BCFF0028A9
S315080035E029D0DFF85C06007D400640F18E80DFF8C2
S315080035F06C04407C00280BD1DFF83C06C27CDFF85F
S31508003600B81ADFF83006DFF82C36D3F8B031984709
S31508003610DFF8A80A01900C2000905223002202210C
S31508003620DFF89C0A03F0B6FCDFF81406818A21F05D
S315080036304001818269E0DFF80806007DC00664D58E
S315080036400C22DFF8781ADFF86C0703F08DF90028EA
S3150800365021D00C22DFF8641ADFF8580703F040F986
S31508003660DFF8F803407C002808D1DFF8581ADFF89D
S31508003670C405DFF8C025D2F8B0219047DFF8340733
S3150800368001900C200090522300220221DFF8300A14
S3150800369003F080FC33E0DFF8A805807ADFF8BC1376
S315080036A0897A90FBF1F201FB1200002827D1DFF896
S315080036B09005C07CDFF88815897A88421FD0DFF824
S315080036C08005DFF87C15897AC174DFF89003407CA1
S315080036D0002808D1DFF8F019DFF85805DFF8542577
S315080036E0D2F8B0219047DFF8CC0601900C20009064
S315080036F0522300220221DFF8C80903F04BFCDFF849
S315080037004005818A21F01001818207BD80B5D34822
S31508003710407C002808D1DFF8B419DFF81805DFF86F
S315080037201425D2F8B021904782220021DFF8A0099B
S3150800373003F019F9DFF8000500210173DFF888079F
S3150800374000218170DFF8F00400218174DFF8F004AD
S3150800375000210177DFF8E004DFF8DC1491F8261081
S31508003760C175DFF8DC04808A50F01000DFF8D01449
S31508003770888201BD30B583B0DFF85809007D800620
S3150800378040F16B81FFF7E7FE00280ED0DFF8440909
S31508003790818A21F020018182DFF83809808A50F079
S315080037A01000DFF83019888257E1DFF88C04407D75
S315080037B0002800F02281DFF88004407DDFF87814C5
S315080037C0C97A884200F01981DFF86C04C088DFF8EE
S315080037D00419497A3C22DFF8FC389B7A02FB01314E
S315080037E0884206D1DFF8EC08818A21F0200181821F
S315080037F033E1DFF84404DFF84014497DC172DFF88D
S31508003800D408407A3C21DFF8CC28927A01FB0020C4
S31508003810DFF82414C880DFF82004C07AFFF7BBFE5F
S315080038200400DFF8140490F82600E4B2A04225D27A
S31508003830DFF8040490F82600002801D0012000E0F3
S315080038401020DFF8F413897C0843DFF8EC1388743A
S315080038508248407C002840F0C780DFF8DC0390F8F7
S315080038602630DFF8D403C27ADFF86C18DFF8C40311
S31508003870DFF8C053D5F8B051A847B5E0DFF8B8036C
S3150800388090F82700E4B284420BD0DFF8AC0380F846
S315080038902740DFF8A403807C50F00200DFF8981375
S315080038A08874DFF8940390F82700DFF88C1311EB7F
S315080038B0400090F82900DFF880130873DFF87803D2
S315080038C0D0F8A800DFF87013097B0170DFF86803E9
S315080038D0D0F8A8000078502802D140F6AC500AE08B
S315080038E0DFF85403D0F8A8000078512802D140F632
S315080038F0A66000E00020D049D1F8A8104880CE483C
S31508003900D0F8A8000078502802D140F6A66009E051
S31508003910C948D0F8A8000078512802D140F6AC5022
S3150800392000E00020C449D1F8A8108880C248D0F821
S31508003930A800DFF8A017096C8847BF48007B532802
S3150800394005D14648807A14214843BB4988734348C1
S31508003950407C002816D1B84890F827000090B64851
S31508003960D0F8A8000378B44890F82700B24911EBBC
S31508003970400090F82820DFF86417AE48AD4DD5F81A
S31508003980B051A847AC48AC4991F827108175AA48A8
S3150800399090F82700401CA84981F82700A64890F807
S315080039A02700A54991F8261088421DD3A24890F809
S315080039B02600002818D00020DFF81817C96A88479B
S315080039C0FFF7A4FE9C48807C50F004009A4988744E
S315080039D0DFF8E00301900C2000905A230022022110
S315080039E0DFF8DC0603F0D6FADFF8E806808A50F03E
S315080039F01000DFF8E016888229E08F48007B5328FC
S31508003A0014D18D48C07C532810D00020DFF8C41686
S31508003A10C96A8847884800218174DFF8B806808A11
S31508003A2050F01000DFF8AC16888210E00C22DFF8A0
S31508003A308C16DFF8800302F097FF002807D0DFF81E
S31508003A409406808A50F01000DFF888168882DFF81E
S31508003A508406818A21F02001818237BD900D0020DD
S31508003A60FC8B01080C8C01082DE9F84304000D00B5
S31508003A70160000208046E4B2EDB2281980B240282C
S31508003A8002D34046C0B2D1E06B48007A532804D02E
S31508003A900020DFF84016C96A884755EA0400C0B214
S31508003AA0002804D1FFF732FE4046C0B2BEE0EDB2B0
S31508003AB02A00E4B22100DFF8280603F0FAF9270005
S31508003AC0FFB2EDB2E4B2601987421DDAFFB25A4876
S31508003AD010EB4700317880F82810FFB2564810EBF3
S31508003AE04700717880F8291030787178081810EB3B
S31508003AF0080873783278FFB23900DFF8E80503F072
S31508003B00D8F97F1CB61CDBE74B4890F82600EDB2C7
S31508003B10E4B26119884203DA2819474981F8260070
S31508003B204548454991F82610C175434890F826003E
S31508003B30052871D2E4B2002C6ED100200700814618
S31508003B403D4890F82600FFB287420BD2FFB23A48AA
S31508003B5010EB470090F82900532801D119F1010903
S31508003B607F1CEDE75FFA89F9B9F1010F54D13248A4
S31508003B70314991F82610C1732F4890F8260080B273
S31508003B80420092B2DFF86C14DFF85C0502F0ECFE36
S31508003B90002841D0284890F82610DFF8500503F091
S31508003BA088F90A220021DFF84C0402F0DCFE002026
S31508003BB00700214890F82600FFB2874225D2FFB2B7
S31508003BC01D4810EB4700FFB21B4911EB470191F85E
S31508003BD028100177FFB2184810EB4700FFB21649C4
S31508003BE011EB470191F829104177FFB2124810EB03
S31508003BF04700427FFFB2104810EB4700017FDFF80D
S31508003C00F00403F056F97F1CD3E70A22DFF8E41321
S31508003C104FF4805006F026FBDFF8B804808A50F08F
S31508003C201000DFF8B01488824046C0B2BDE8F283BF
S31508003C30400F0020C40A0020580E00201C8C0108E2
S31508003C40A0100020308C010880B5DFF86804807B5E
S31508003C50022817D1DFF85C04007C002810D1DFF8B1
S31508003C6054040121017406F03FFBDFF86814088349
S31508003C70DFF86004808A50F00200DFF85814888262
S31508003C80FFF7A3FCFFF776FDFFF765FC00285DD07C
S31508003C90DFF860040078DFF81814497A884231D0D2
S31508003CA0DFF80C04407ADFF84C140870DFF8440497
S31508003CB00078032810D1DFF84004407C002808D19A
S31508003CC0DFF83814DFF83804DFF83424D2F8B021E6
S31508003CD090470120FDF7D8FEDFF81804007802287F
S31508003CE010D1DFF81404407C002808D1DFF814143A
S31508003CF0DFF80C04DFF80824D2F8B0219047012039
S31508003D00FDF7D7FEDFF8EC03007801281ED1DFF8AF
S31508003D10F8030088401CDFF8F0130880DFF8E80392
S31508003D20008841F28831884202D10120FDF7C1FEA0
S31508003D30DFF8D403008842F21071884206D3DFF810
S31508003D40C803002101800120FDF79EFE01BDDFF8B2
S31508003D508403C07E10280DD1DFF8B0030068C007C1
S31508003D6001D420201AE0DFF8A4030068C00614D4A2
S31508003D70212013E0DFF85C03C07E11280DD1DFF89F
S31508003D808C030068C00701D4222007E0DFF87C0313
S31508003D900068C00601D4232000E000207047000018
S31508003DA00CB0004030100020408C0108588C0108E7
S31508003DB0708C0108BA10002038B5BD480088401C30
S31508003DC0BB490880BB48807B022821D1DFF8400325
S31508003DD00068401CDFF838130860B94803F0BAF8E1
S31508003DE0002815D1DFF8280300684FF44871B0FBA6
S31508003DF0F1F201FB120000280AD1B14803F0B4F829
S31508003E000400A31DA27800216078AA4D2D6DA8474D
S31508003E10FFF7A1FB002832D0A54800884FF480712F
S31508003E2088424FD3FFF793FF0400A148807AE4B293
S31508003E3084421ED1E4B2002C1BD09D48C474AE48FF
S31508003E40407C002807D19A48C27CB249AC48AC4BA2
S31508003E50D3F8B03198479F48808A50F040009D4972
S31508003E6088829348D0F8D80080479148002181720B
S31508003E7001E08F4884728E480021018022E0FFF716
S31508003E807AFB00281ED08A480088894949888842D2
S31508003E9007D38748D0F8D400804704008448002117
S31508003EA001808C48C0683221B0FBF1F201FB120098
S31508003EB0002807D13D48040006F04CFAA080964831
S31508003EC000F09CF831BD00000410002010100020FE
S31508003ED09B3000083F310008C7310008472F00080B
S31508003EE0C72F000811300008373000087F30000857
S31508003EF09532000880B57748407A7F49897A90FBE1
S31508003F00F1F201FB1200002838D17248807C714911
S31508003F10497A884232D06F486E49497A8174654831
S31508003F20807B02282AD1FFF726FB002826D069487D
S31508003F30007DC00605D46748808A50F010006549A0
S31508003F4088825B4890F82600002817D05848007ADF
S31508003F50532813D015490800554991F82710544A93
S31508003F6012EB410191F829100170514991F8271077
S31508003F704F4A12EB410191F8281081704C48007B9A
S31508003F80532809D14A48807B002805D04848807BB9
S31508003F90401E4749887306E04548807B002802D0C2
S31508003FA043480021817301BD74100020341000209D
S31508003FB00278CA7042780A710A79002A05D08A7886
S31508003FC052F008028A70D2B204E08A7812F0F70238
S31508003FD08A70D2B282784A71C279037A52EA032287
S31508003FE04A81334A92F827208A71314A92F8262064
S31508003FF0CA717047740E0020808C010810B5040041
S31508004000FFF7B9FA002808D06078052805D3A07903
S31508004010002802D02079002800D146E0244880886C
S31508004020401C234988806079002809D13B4840799B
S31508004030A179884204D13948C078217988421ED0AE
S315080040403649201DFFF7B4FF0C2234491B4802F0FD
S3150800405047FC3248C07854280AD100201D49896A8D
S3150800406088471348007B532802D11148542101730D
S315080040701848808A50F020001649888215E00C48B6
S315080040808088802811D32549201DFFF791FF0C222F
S3150800409022490A4802F024FC0E48808A50F0100093
S315080040A00C49888202480021818010BD988C01083D
S315080040B0580E0020E80D0020B08C0108680E00207C
S315080040C0EC0C0020D88C0108EC8C0108108D010836
S315080040D07E0E0020A0100020388D0108688D01088A
S315080040E08C8D0108AC8D0108800E0020D48D010846
S315080040F0FC8D0108A4140020900D00200C8C0108EA
S31508004100C40A0020FC8B01088614002008B0004071
S315080041107C100020088E01083010002004100020B2
S3150800412038B5344C40F20730206072B63248016820
S31508004130490849000160314811210160606980061B
S3150800414020D46069C00601D52D4805E02D4803E056
S315080041504FF0CD3140F8041B2B498842F8D32B4841
S315080041602B492C4A00F07EF82B482C49002200F0F7
S3150800417073F82B482B4900F06FF82B482B492C4A2B
S3150800418000F070F82B4D2C4868604FF07840686155
S315080041902A48A8612A48E8612A482B4901604FF055
S315080041A0803141608160C160E02101612748A860D3
S315080041B0102028614FF4E020286206F0DBF86069D9
S315080041C0800608D5224800210170286840F08050F2
S315080041D0286006F00BF905F0FDF900F04FF862B615
S315080041E0FDF7C6FB07B5D4211A48BDE8344000F0F0
S315080041F057BD00BF18000040FCED00E000800040FD
S315080042009400002000000020580700206895010847
S3150800421058070020BC0A0020BC0A0020CD14002044
S31508004220D0140020C41E002000000000000000007A
S315080042300000000004ED00E000010008F8F8F8802E
S3150800424080F8408000E400E0808040800004FA05A1
S315080042503C110020288E010801E040F8042B884212
S31508004260FBD3704703E050F8043B41F8043B914206
S31508004270F9D3704780F3118870470000EFF3118077
S31508004280602181F311887047EFF311806028D4BF4D
S315080042900120002070470000002181F31188704733
S315080042A010B500F015F81040C84010BD10B500F064
S315080042B00FF8D44320401140084380B2D86002204A
S315080042C018600020186058680028FCD110BD00004E
S315080042D0064B5C68002CFCD1986001201860002011
S315080042E0186058680028FCD118697047E810004023
S315080042F02B490A68920992010A600A681043086005
S31508004300DFF8C4034FF40041016000210160642016
S3150800431005F03AB92DE9F0478046DFF8A456286833
S315080043201FFA80FA286840F4004028601C4E30685E
S3150800433020F480503060DFF84C98DFF858486078F1
S3150800434060B1E078A17809EB810111F82A1C401ABE
S3150800435009EB880111F82A1C081804E02027012017
S31508004360607001E0781C87B23846FFF7C1FF306BF2
S31508004370042804D0306B4007F4D4781EF3E7F06ABB
S3150800438030B184F80280E770C5F800A0BDE8F08770
S3150800439007B540F2F31109F1400000F081FCE6E7A9
S315080043A0D010004010B504464FF47872610189B206
S315080043B01020FFF77BFF1F2221461020BDE8104082
S315080043C074E700002DE9F04F85B083469BF800009E
S315080043D04FF67F7202EA0004012202FA01F1ADF8F3
S315080043E00010000603D400F06BF808425CD0314D8B
S315080043F0286880B20490686880B20390DFF8B880B5
S31508004400D8F8000080B202902C4F386880B201902C
S3150800441048F2800028600220686048F2D000C8F898
S31508004420000002203860002405260120711E8840FD
S315080044301FFA80F949EA0404A0B2FFF7B3FF00F0B7
S31508004440A3FB78681FFA80FABAF1C00F02DB24EAE8
S315080044500904A4B2701E86B2012EE6DA1F2C12DAFF
S31508004460661CB0B2FFF79EFF00F08EFB7868C03876
S315080044704EF6FF710840AAF1C0014EF6FF721140D0
S31508004480884200D2B4B204982860039868600298FB
S31508004490C8F80000019838608BF8004000F010F862
S315080044A08843DFF8F016C880A0B205B0BDE8F04F23
S315080044B078E700BF0C11004044100040104000404F
S315080044C0DFF8D006C088BDF8001070473F224100CB
S315080044D089B22020EAE62DE9F34F97B0DFF89C571A
S315080044E0DFF8B0060079002814BF686A286980B228
S315080044F00390179800784FF67F7101EA000418991F
S315080045000978039B5B1C8B4203DB039B5B1E99426A
S3150800451001DA012100E00021012303FA02F2ADF8D5
S315080045200A20000609D4DFF86C060089BDF80A20BF
S31508004530104202D1002900F0BE80E86C80B20690D5
S31508004540286880B20590604EF06A80B204904FF6F3
S31508004550FF7200211120FFF7A3FE83464FF6FF7274
S315080045600021A020FFF79CFE82464FF400402860F9
S3150800457000203061706148F2020000F0B9F84CF68C
S315080045808C30E86448F2F000F0624FF4805211462D
S315080045901120FFF78BFE4FF6FF72002100F012FA8A
S315080045A000F0ABF802A900F09BF900F0ADF800F0B6
S315080045B095F94CF69C30E8640020FFF787FF002049
S315080045C0009006231A46C02106F0E4F80024A0B29B
S315080045D0FFF77CFF00F091F807A800EB440100F014
S315080045E07FF9641C202CF2DB01A900F079F9102070
S315080045F0FFF76CFF00F088F801A900F071F9BDF823
S315080046000400BDF80610401ABDF83C10BDF8082095
S315080046108C1A404304FB04084FF01009112700F0D8
S3150800462055F800F071F801A900F05AF900F056F8AB
S3150800463004DB8046B9467F1C202FF0DB1FFA89F978
S31508004640B9F1100F10D10F2700F040F800F05CF810
S3150800465001A900F045F900F041F805DB8046B946A6
S315080046607F1E3FB2002FEFD54FEA4904A4B2069841
S31508004670E864059828600498F0624FF6FF72594678
S315080046801120FFF713FE4FF6FF72514600F09AF914
S3150800469001203061002000F02BF817980470189854
S315080046A003990170DFF8EC040089BDF80A10884305
S315080046B0DFF8E01408813F2221462020FFF7F6FDA7
S315080046C019B0BDE8F08F00001810004007A830F8B0
S315080046D01700BDF80810441AB8B2F7E6BDF804008A
S315080046E0BDF80610401A404304FB040040457047D5
S315080046F0306040F24C4004F047BF0020009006238B
S315080047000622C02106F046B800200090062307229C
S31508004710C02106F03FB800000C48DFF87C158A78FF
S315080047200AB149780FE089566FF00802914201DA1A
S31508004730302108E0C16D39B140F24A31C26DB1FB92
S31508004740F2F189B2C91E0160704700BF64100040CB
S3150800475000B587B00A237F224148018803A804F0E0
S3150800476057FDBDF812104FF6FF72914273D1DFF86C
S315080047702805808900F0D6F84FF47C624FF4007162
S31508004780C020FFF793FD0323892200F074F801A9DE
S3150800479000F06CF800F06DF80DF1020100F066F813
S315080047A0BDF8020000F05EF8ADF802000323B92256
S315080047B000F061F802A900F059F8BDF8080000F009
S315080047C051F8ADF808004FF47C624FF46061C020E0
S315080047D0FFF76CFD00F04DF800A900F047F8BDF8AA
S315080047E0000000F03FF8ADF800000323B92200F0FE
S315080047F042F80DF1060100F039F8BDF8060000F0A0
S3150800480031F8ADF80600BDF80600BDF800104908F5
S3150800481001EB0040BDF80010B0FBF1F080B2BDF826
S315080048200810BDF80220520802EB0141BDF802202B
S31508004830B1FBF2F1411A89B24FF47C62A0F540400F
S3150800484001EBD1735B1003EB0010B0FBF1F00838F5
S3150800485000F03F008101C020FFF728FD07B000BD2A
S3150800486046950108BDF80410401A70470020FBF76A
S31508004870A3BD0323A922C0210020FBF70ABD7CB5EE
S3150800488000F046F80020009002230322002105F0DC
S3150800489081FF00F023F8BDF80640002000900223AF
S315080048A00122014605F076FF00F018F8BDF806501B
S315080048B00020009002230246014605F06BFF00F037
S315080048C00DF8BDF8066005F08FFF00F019F80EBF69
S315080048D04FF4E1600A2190FBF1F004E00DF10601C6
S315080048E0002005F071BFADF80400301B0004291B39
S315080048F0B0FBF1F0BDF8041048434000000C76BD4B
S31508004900BDF804004FF6FF718842704700000000AA
S3150800491002237F220248018801A804F079BC00BF5F
S315080049204A9501082DE9F04182B00546DFF868434B
S31508004930B5F5004F0FD102237F221F4800F0A0F9DA
S31508004940BDF80000000AFF2800D000B918206070E2
S31508004950BDF80000C54305F0010805F00200470848
S3150800496008EB4800154946184FF4F852B07801028A
S31508004970E020FFF79BFC1248016841F40041016002
S315080049804FF440527078010389B22020FFF78EFC5D
S31508004990404605F093FF4022B90100F013F817B915
S315080049A015F0040000D00120A070FFF7B5FEA58120
S315080049B00020BDE8F68100BF4C950108A48E0108C9
S315080049C01C100040A02071E4B3488089704710B5D8
S315080049D0704800786A490A880123A0F10B04A340AD
S315080049E01A430A80BDE8104000E000002DE9F04FA8
S315080049F083B08046A8F10B04A4B206F00DFB8246EC
S31508004A00B8F10B0F02D3B8F11B0F02D38A20BDE809
S31508004A10FE8F564EB068000702D43068C00701D52D
S31508004A208C20F4E75B4D85F80080514F38680C28D8
S31508004A3001D10020EBE7287938B9786A40F40050AC
S31508004A407862786A20F4805078624A4800780128AB
S31508004A5001D106F0A9FA4848D0F8009047484FF423
S31508004A60E0610160306A20F0020030620423E2B29D
S31508004A70002100A804F0CCFB9DF800008DF8070083
S31508004A809DF801008DF806009DF802008DF80500D6
S31508004A909DF803008DF804003A4830F82400F861C0
S31508004AA048F2607B2879B8B1C7F824B0306A400864
S31508004AB040003062012004F067FD306A40F00100D2
S31508004AC0306200F061F8786A20F480507862786A7B
S31508004AD040F40050786202E04046FFF71BFC21468E
S31508004AE00DF1010006F0AAF821460DF10200FFF7C4
S31508004AF069FC224600A90DF10300FFF7ECFC9DF8BE
S31508004B0000009DF80710884211D19DF801009DF814
S31508004B10061088420BD19DF802009DF805108842C0
S31508004B2005D19DF803009DF80410884205D004239A
S31508004B3000AAE1B2002004F0BDFB09F4E0600E49CA
S31508004B40086005F05BFC306A40F0020030622879A4
S31508004B5018B1C7F824B000F017F805F045FEBAF109
S31508004B60010F01D106F0F0F963E700BF60200040AD
S31508004B70AC100040B00A002000E100E080E100E04F
S31508004B808E140020388E0108642004F0FDBC01480C
S31508004B9000787047680A00202DE9F04186B006467D
S31508004BA06FF02A00864201DA8B205DE014237F220B
S31508004BB02F4800F065F8BDF810004FF6FF718842DF
S31508004BC004D00E21084201D0012506E03F2200212B
S31508004BD0F020FFF765FB0446002528482E49042ED9
S31508004BE00FDA0022234B01E0521CD2B2D756B74245
S31508004BF0FADB02600F700020002607464FF0030814
S31508004C000EE0092ED0DA725C02600E7014237F2241
S31508004C10194800F035F80320012601274FF0280827
S31508004C2025B14FF6BF72BDF8101018E04FF4605268
S31508004C30C10200F029F84FF4E062310200F024F8CE
S31508004C408022F90100F020F884F0200008EB000427
S31508004C50A4B2402C00DB3F243F2284F02001FFF75A
S31508004C60B1FEFFF759FD002006B0BDE8F08100BF90
S31508004C7042950108848E010844950108C010004039
S31508004C80018800A804F0C4BA89B2A020FFF70EBBB9
S31508004C90014890F9000070479808002042DE7047E6
S31508004CA038B504460D46FCF7B9FEFFF7E7FA2A467B
S31508004CB02146DFF8E40102F0FCF829462046BDE863
S31508004CC03440EBE72DE9F8434FF42068DFF8CC11C0
S31508004CD00868DFF8CC61371D38650A6A7A65DFF837
S31508004CE0C4211268BA654A6AFA658A6A3A66CA6A5D
S31508004CF07A660A6BBA66896BF96697F834104907BB
S31508004D004CBFFD6BBD6B40F2FF14DFF89C91DFF8DA
S31508004D109C21954227D3A94525D305F2180555F8B0
S31508004D20041B396455F8041B7964204006281DD1F4
S31508004D30386C00884DF64261884217D106F2880021
S31508004D40716841607968816055F8040B706055F8A0
S31508004D50040B786055F8040BB86055F8040B7863B3
S31508004D6040F2017802E000203864786400F082F8A6
S31508004D70B8640020F864002206EB80014A67401CEC
S31508004D800628F9DB386C00283DD00020DFF8202102
S31508004D90DFF8203103E006EB800CCCF87410A94547
S31508004DA02CD359F8041D9942F9D39142F7D25FEAF8
S31508004DB0C17CF4D54FF0000C06EB8C0EDEF874E0DF
S31508004DC08E4504D00CF1010CBCF1060FF4DBBCF1E6
S31508004DD0060FE4D100281ABF401EC0B20520DAE744
S31508004DE0396F4FF0000C06EB8C02936F53670CF18A
S31508004DF0010CBCF1050FF6DBC6F888100146481E03
S31508004E00C0B20029ECD1386D204002280AD0032808
S31508004E1016D0042817D0052818D0062819D00C282B
S31508004E201DD01FE0DFF890000168890748BF40F6EB
S31508004E3002181CD40068C00719D540F2025816E0BB
S31508004E4040F6012813E040F6022810E040F6032851
S31508004E500DE0B8F5206F0AD140F6042807E040F6C1
S31508004E60052804E018B1212838BF40F6072840462F
S31508004E70BDE8F28311480068C00654BF0B481048C5
S31508004E8000E0001D084A904203D20368B3F1CD3F03
S31508004E90F7D0101A70470000AC8E010804ED00E048
S31508004EA00000002000E300E0580700200000002072
S31508004EB0827D0108840100081CA000402C000040E7
S31508004EC094000020F8B50C461646C088000422D582
S31508004ED00027BC4D781901798C4219D1AEB9FF214A
S31508004EE00171204600F0E7F9E878401EE870C0B284
S31508004EF0002808D1A878B24909780818A87000F0DF
S31508004F000CF800F044F80120F2BD304600F03FF8F6
S31508004F107F1C0A2FDEDB0020F2BD70B5A94CA678EF
S31508004F20A74D04E0E078401CE070761CF6B2A07845
S31508004F30301A29788842BCBF607886420FDA06F0B4
S31508004F40FF0101EB002020833019037904F11002D8
S31508004F50A18B207803F002FA0028E3D070BDE07830
S31508004F60002804D1FF2020700020FBF7B4FA0020A7
S31508004F7070BD38B504460025285DFF2803D0FF21FB
S31508004F80295500F098F96D1C0A2DF5DB31BD38B5A9
S31508004F9004000BD08B4D2878FF2807D0281DFFF773
S31508004FA0E8FFFF2028702046FBF795FA31BD10B5BB
S31508004FB0834800780146844A137994780419A342F1
S31508004FC0BCBF93FBF0F100FB113101208840401E65
S31508004FD0C043D07010BD2DE9F84F07468A46F888B9
S31508004FE0000402D40020BDE8F28F97F80890032544
S31508004FF0764C754E308B4FF6FF71884217D1704844
S315080050000078814513DA03F06DFE3083B87A707044
S315080050100020B0707071FF203071FFF7C8FF0A22B8
S31508005020FF2106F1080001F0F7FC00F0ACF803F0E8
S3150800503059FE318B884203D1B87A7178884201D0FB
S315080050400120D0E7F078FF280BD1B0785C490978C1
S315080050500A18914505DB0818B070FFF7A8FF00F09D
S3150800506092F8574800780146B2788A189145E7DAE7
S315080050704FF0010899FBF1F201FB129108FA01F1D0
S31508005080CCB2F17821404D1EAD41ED0F31780C427E
S3150800509004BF44EA01003070D2D0B9F1000F0AD13A
S315080050A03989090A31718B46834538BFFFF77FFF77
S315080050B0BBF10B0F64D2F0782043F07009EB0604BD
S315080050C03DB17079401C707184F808A0504600F014
S315080050D0E5F8F0783179491E89450BD038490978C1
S315080050E099FBF1F201FB129108FA01F1491E0143FD
S315080050F0FF2909D1B17801EB002080B203F062FBE9
S31508005100FF21788803F087FB70793179884297D137
S31508005110504600F072FA4FF00009FF2830D020728E
S31508005120504600F0C8F80021504600F014FA4F46E1
S315080051301FE007EB060898F8084020480068255C39
S3150800514005EB090B5FFA8BF1504600F004FAB8B983
S315080051500095002322464946504600F0ECFA5FFACD
S315080051608BF9204600F0A7F8FF2088F808007F1C76
S31508005170FFB230798742DCDB4FF6FF70308331E7C8
S3150800518000F009F85CE7208805FB00F189B206F112
S31508005190140012F051BB38B50B4C002020754FF6A1
S315080051A0FF75208BA84204D004F10800FFF7E1FE42
S315080051B0258331BD064812F05EBB000018090020A1
S315080051C09C0A0020C4080020A8080020720A0020B3
S315080051D0C08E01080249096801EB4010704700BFFC
S315080051E014090020DFF8542412688154704700001F
S315080051F02DE9F041040001D1FF204BE0FFF73EF80E
S31508005200DFF88813FF22454DDFF8D0341E78FE2ECE
S315080052101CD100261E70204E37782F700027DFF825
S3150800522014C609E007F1010E07F808E0DCF800806B
S3150800523007F808205FFA8EF796F800E0D1F80080A4
S315080052407745EFDB0EEB080606F8012C2E78A6420A
S3150800525002D2FFF70FF8CFE7361B2E701D78454EA2
S315080052601F78D6F800C04FF0010E07F80CE0D1F809
S3150800527000C017F80CE083F800E0641EE4B2002CC6
S31508005280EED107F80C2000F0D2F800226A54FEF797
S31508005290F1FF2846BDE8F081910A002010B50446C2
S315080052A0FEF7ECFF33490968625C521C6254BDE89C
S315080052B01040FEF7DFBF2DE9F041054600F030F853
S315080052C08046FEF7DBFFDFF81414144AAF4B294E6D
S315080052D000E06546FF2D1DD03768EC5D641EEC5571
S315080052E0376815F807C07F241CEA040F12D11C681A
S315080052F015F804C00024EC5517787F1C17701F6832
S315080053000C78EC550D70BCF1FF0FE2D145464FF015
S31508005310FF08DFE7BDE8F041FEF7ACBF920A0020C0
S3150800532080B514490968415C090603D5FFF752FFA1
S31508005330007802BDFF2002BDB0B505460C46FFF752
S31508005340EFFFFF2801D0FFF7B6FF0A4FFF2C04D165
S315080053503868295C01F07F0106E02046FFF79EFFCA
S315080053603868295C41F0800129542846FFF732FF46
S315080053700470B0BD1C0900200EB430B504460120E7
S31508005380FFF736FF0546FFF725FFFF2D01D1FF2062
S315080053900EE000F04CF86C5403A9002205E051F821
S315080053A0043B00F8013B521CD2B2A242F7DB284666
S315080053B030BC5DF810FB70B582B005460C4604F1AA
S315080053C01F000004400DC0B2FFF712FF0646FF2E6D
S315080053D00CD09A48006834543DB101200090234609
S315080053E000223146284600F002F8304676BDF2B56E
S315080053F082B0074614461D46089E084600F017F870
S31508005400405C2919884204DA07B540F24D1100F0CC
S31508005410D7F85DB1214602A800F0D8F800962B46C9
S3150800542002469DF80810384600F004F8F7BD83498F
S31508005430096870472DE9F8430646884617461C460C
S31508005440089DDFF848910BE08A5D0A54491CB94269
S31508005450FADBE41BBE19D9F8000018F8008000270B
S31508005460E4B2CCB14046FFF7B5FE3818391989B20F
S31508005470202932BF2746C7F12007FFB22DB93A4681
S315080054800146304601F085FAE3E7012D02D13A4696
S315080054903146F7E70021DAE7BDE8F1832DE9F04167
S315080054A082B00646884614001F4664480068355C84
S315080054B00ED06119C9B2304600F04DF808B118206F
S315080054C007E0009723462A4631464046FFF78FFFF6
S315080054D00020BDE8F6810123E0E70A4600E0521CF9
S315080054E01378002BFBD10223521AD2B2D6E7F8B5AD
S315080054F0044601F11F004611F6B202F11F00C0046E
S31508005500000E06B9012600B90120864221D01F4D9A
S3150800551010DA801BC0B2FFF76BFE0746FF2F01D1DA
S315080055200020F2BD711EC9B2204600F025F8296890
