S00E000076656869636C652E73333706
S3150800000058070020FD420008294D01082B4D01081C
S31508000010A70B0000000000000000FFFF3C000008DE
S3150800002004070300000000000000000000000000B4
S315080000300000000000000000000000005807002033
S31508000040FD420008294D01082B4D0108A70A0401A5
S31508000050000100080407039C32400000000000006D
S315080000600000000000000000000000000000000082
S315080000700000000000000000000000000000000072
S3150800008000000000FFFFFFFFFFFFFFFFFFFFFFFF6E
S3150800009000E00108FFFFFFFFFFFFFFFFFFFFFFFF75
S315080000A0FFFFFFFFFFFFFFFFFFFFFFFFFFFFFFFF52
S315080000B0FFFFFFFFFFFFFFFFFFFFFFFFE01F00201F
S315080000C000000000A01900208B140020580700200B
S30D080000D0CE9801089A7C01088C
S3150800010058070020FD420008294D01082B4D01081B
S315080001102F4D01082D4D0108314D0108783C010885
S31508000120783C0108783C0108783C0108783C0108CD
S31508000130334D0108783C010889A50008783C010878
S31508000140783C0108783C0108B5960008783C010817
S315080001501D390108BB990008783C0108783C01085C
S315080001602932010869AF0008B1A80008850100080E
S31508000170783C0108783C01088B980008E998000843
S31508000180D5330108DFF87C024FF6FF71016070472E
S3150800019038B504F061F90500DFF86C02007800282C
S315080001A030D0DFF868020068C0072BD400200400AE
S315080001B0E4B2022C28D20120A040DFF84C120978BC
S315080001C008421DD0DFF848020470DFF83C020078C8
S315080001D00121A1404840DFF830120870E4B2DFF888
S315080001E0340230F81400DFF824120860DFF814022D
S315080001F04FF6FF710160DFF820024FF400610160DD
S31508000200641CD5E7022004002800C0B204F020F9D7
S315080002102000C0B232BD80B5DFF8EC0100210170C4
S31508000220DFF8EC0102210170DFF8F001002101700E
S31508000230DFF8CC0105210180DFF8E4010021017017
S31508000240DFF8C80100210160DFF8D801002101604C
S31508000250DFF8D4014FF400410160DFF8D001102126
S315080002600160DFF8CC01DFF8CC110160DFF8C801C6
S3150800027001210160DFF8B4010321016061484FF6EE
S31508000280FF710160DFF8B4010021016004F04EFB44
S3150800029001BD2DE9F04104000D0016001F00EDB266
S315080002A0C02D01D0012030E0FFB2F6B2F00050EACE
S315080002B04730534909880843E4B2564921F81400DF
S315080002C0514800780121A140084201D082201CE053
S315080002D004F0C2F880464C4800780121A140084342
S315080002E0494908704E4800780121A14088434C4985
S315080002F008704046C0B204F0ABF8FFF749FFE4B215
S31508000300A04201D1812000E08220BDE8F0812DE9DC
S31508000310F04104000D0004F0A5F800280BD13E4872
S315080003200068000507D545480068400701D401273D
S3150800033000E0002700E0012704F08EF88046FFB2AF
S31508000340002F09D034480068000505D53B480068E9
S31508000350400701D5FFF716FF0120A040304909786C
S3150800036008420ED0E4B2364830F8140028802C48EB
S3150800037000780121A14048402949087080200600DC
S3150800038012E0214800780121A140084202D08220CB
S31508000390060009E01E480078E4B2A04202D1812096
S315080003A0060001E0842006004046C0B204F050F87A
S315080003B03000C0B2BDE8F08170B504000D0001F050
S315080003C0C5FB29002000C0B2FFF7A1FF0600F6B260
S315080003D0842E02D0F6B2802EF1D13000C0B270BDA4
S315080003E080B5FFF718FF00210D2001F0B4FB0021AE
S315080003F00E2001F0B0FB00210F2001F0ACFB01BD7F
S315080004004614002010A800405E14002004D00040C6
S315080004105F140020C00A002000E100E061140020FB
S315080004206014002008D000400CD0004010D00040D6
S3150800043018D00040441400201CD0004050A80040AA
S31508000440BC0A00202DE9F04104000D00160068885A
S315080004503B2811D100213000C0B205F087F907000A
S315080004603100C9B2280004F0A4FE80465FFA88F875
S31508000470B8F1000F08D107E03200D2B229002000F7
S31508000480C0B21A4BDB6B9847BDE8F0812DE9F04105
S3150800049082B005000E0017009846089C78883B280D
S315080004A009D12200D2B24146C9B2380004F0F8FD9B
S315080004B000280ED10DE0E4B200944346DBB23A00C0
S315080004C0310089B22800C0B2DFF820C0DCF840C08D
S315080004D0E047BDE8F3817047704710B50400200077
S315080004E0C0B20249496C884710BD7047E80D002024
S315080004F070477047C0B2002829D0022829D027D3D0
S31508000500042828D026D3062827D025D3082826D07D
S3150800051024D30A2825D023D30C2824D022D30E2866
S3150800052023D021D3102822D020D3122821D01FD39C
S31508000530142820D01ED316281FD01DD318281ED045
S315080005401CD31A281DD01BD31B281BD01AE019E070
S3150800055018E017E016E015E014E013E012E011E0E9
S3150800056010E00FE00EE00DE00CE00BE00AE009E019
S3150800057008E007E006E005E004E003E002E001E049
S3150800058000E0FFE77047000080B5DFF87804407C9C
S31508000590002808D1DFF87419DFF86009DFF85C294C
S315080005A0D2F8B0219047DFF85C04407C002808D1D7
S315080005B0DFF85C19DFF84409DFF84029D2F8B021E2
S315080005C09047DFF84004407C002808D1DFF844193A
S315080005D0DFF82809DFF82429D2F8B0219047DFF898
S315080005E02404407C002808D1DFF82C19DFF80C0910
S315080005F0DFF80829D2F8B0219047DFF80804407CD4
S31508000600002808D1DFF81419DFF8F008DFF8EC281D
S31508000610D2F8B0219047DFF8EC03407C002808D1D7
S31508000620DFF8FC18DFF8D408DFF8D028D2F8B021B4
S315080006309047DFF8D003407C002808D1DFF8E4189B
S31508000640DFF8B808DFF8B428D2F8B0219047DFF809
S31508000650B403407C002808D1DFF8CC18DFF89C08E2
S31508000660DFF89828D2F8B0219047DFF89803407C45
S31508000670002808D1DFF8B418DFF88008DFF87C28EE
S31508000680D2F8B0219047DFF87C03407C002808D1D7
S31508000690DFF89C18DFF86408DFF86028D2F8B02184
S315080006A09047DFF86003407C002808D1DFF88418FB
S315080006B0DFF84808DFF84428D2F8B0219047D14837
S315080006C0407C002808D1DFF87018DFF83008DFF81A
S315080006D02C28D2F8B021904701BD38B50400DFF8C0
S315080006E02808407A00283ED1DFF81C08012141720B
S315080006F0DFF81408007A002809D0DFF80C08002172
S31508000700017260220021DFF8340806F00AFADFF8E1
S31508000710F807007ADFF8F017401880F8D040DFF8BD
S31508000720E807007A401CDFF8E0170872E4B20A2CE2
S3150800073002D0E4B20D2C03D1DFF8CC0700214172B8
S31508000740B048407C002840F08980E4B22300DFF8F6
S31508000750F027DFF8F017DFF8A407DFF8A057D5F879
S31508000760B051A8477AE0DFF8A007407A012875D18A
S31508000770E4B20A2C02D0E4B20D2C29D1DFF888079E
S31508000780007A002812D09F48407C002807D19BA1F8
S31508000790DFF86807DFF86427D2F8B0219047DFF85A
S315080007A06807017ADFF8940706F0CFFB9548407C86
S315080007B0002808D1DFF89017DFF84007DFF83C2754
S315080007C0D2F8B0219047DFF840070021417245E092
S315080007D08C48407C002809D1E4B2220088A1DFF8C1
S315080007E01C07DFF81837D3F8B0319847DFF8180731
S315080007F0007ADFF81417401880F8D040DFF80807A9
S31508000800007A401CDFF800170872DFF8FC06007A49
S31508000810602823D37B48407C002807D177A1DFF8DE
S31508000820DC06DFF8D826D2F8B0219047DFF8D806DC
S31508000830017ADFF8080706F088FB7248407C002832
S3150800084008D1DFF80417DFF8B406DFF8B026D2F8C7
S31508000850B0219047DFF8B0060021417231BD38B5A6
S3150800086004002078532836D054280ED0562870D045
S31508000870572800F0A280592852D05A2818D05E2846
S315080008803CD0ED2800F0B680B7E05E48407C0028F2
S3150800089008D1DFF8B816DFF86406DFF86026D2F864
S315080008A0B02190470020DFF8A816896A8847A4E097
S315080008B05448407C002808D1DFF89816DFF83C0633
S315080008C0DFF83826D2F8B0219047DFF88C06D0F842
S315080008D0E000804791E04B48407C002808D1DFF8CB
S315080008E07C16DFF81806DFF81426D2F8B0219047F0
S315080008F00020DFF85C16C96A88477EE04148407CDC
S31508000900002809D16279DFF85816DFF8F005DFF814
S31508000910EC35D3F8B0319847607906F00BFA6CE0FD
S31508000920201D0500287A012812D3287A3549898896
S3150800093080B288420CD260780A2809D13148297ACF
S3150800094080F83A102F48697A80F83B1006F0CEF9FD
S3150800095053E0201D0500A87A2A4991F84E108842CE
S3150800096004D128682749496C884225D0A87A2549A0
S3150800097091F84E10884207D0A87A112804D201208F
S3150800098095F90A10884028602B68AA7A1D4890F8BD
S315080009903B101C48C07A06F03BF91A48407C0028F0
S315080009A008D1DFF8C015DFF85405DFF85025D2F86E
S315080009B0B021904701F07BF91FE0201D050028882B
S315080009C0FA2816D2A879012813D3A879512810D263
S315080009D0E87901280DD3E87904280AD260780E2828
S315080009E007D10E222900DFF8800506F057F806F031
S315080009F07DF902E0200003F0F5FB31BD0A0D000089
S31508000A0025630000900D0020F0B595B004000D0098
S31508000A10022C02DA01F07CFF6CE2686800783F2855
S31508000A2004D1022C02D1FFF7AFFD63E2DFF83C25C3
S31508000A302900200006F05AFA06005FF0FF3140B29E
S31508000A40884200F0578276B2002EEFD0DFF8B8045D
S31508000A50C0680028EAD076B23000612800F08A80A3
S31508000A60622800F00E82632800F063816A285ED04F
S31508000A706B2800F085816C2800F0F5806E280BD075
S31508000A80702800F07481722800F0BC8074282AD07F
S31508000A90782800F093802AE202AAB8A1DFF8680451
S31508000AA0C06814F05FFA0298DFF8C414898888428F
S31508000AB0BCDADFF8BC04029980F83A1059208DF8A0
S31508000AC00C00DFF8AC04C088ADF80E000A208DF8DB
S31508000AD00D000A22DFF89C1404A805F0DFFF03A81E
S31508000AE0FFF7BDFEA2E702AAA4A1DFF81C04C068AE
S31508000AF014F038FA0298102898DBDFF87404029983
S31508000B0080F83B1059208DF80C00DFF86404C08883
S31508000B10ADF80E000A208DF80D000A22DFF85414ED
S31508000B2004A805F0BBFF03A8FFF799FE7EE702AA13
S31508000B3092A1DFF8D403C06814F014FA02981028BA
S31508000B40BFF674AF5E208DF80C00DFF82404C08869
S31508000B50ADF80E0001208DF80D00DFF8140490F8AA
S31508000B603A008DF8100002988DF8110003A8FFF7D7
S31508000B7076FE5BE702AA81A1DFF88C03C06814F051
S31508000B80F1F902980428BFF651AFDFF8E403029999
S31508000B90C17257208DF80C00DFF8D403C088ADF871
S31508000BA00E000E208DF80D000E22DFF8BC1304A8E7
S31508000BB005F074FF03A8FFF752FE37E702AA6FA1F4
S31508000BC0DFF84403C06814F0CDF90298FB28BFF695
S31508000BD02DAFDFF89C030299818057208DF80C0011
S31508000BE0DFF88C03C088ADF80E000E208DF80D00D6
S31508000BF00E22DFF8741304A805F050FF03A8FFF7C8
S31508000C002EFE13E702AA5DA1DFF8FC02C06814F005
S31508000C10A9F9DFF864030078002803D0DFF85C033D
S31508000C2006F025FADFF84803407C002801D00020AA
S31508000C3000E00120DFF838134874DFF83403407CFD
S31508000C40002801D0002000E00120DFF82C130870EE
S31508000C50DFF82403007800283FF4E8AEDFF8200325
S31508000C6006F005FAE2E602AA44A1A748C06814F00D
S31508000C7079F9DFF8E40290F82A0000280DD1DFF8A8
S31508000C80F002407C00287FF4D1AEDFF8F8129B48CA
S31508000C909A4AD2F8B0219047C8E6B548407C002861
S31508000CA008D1AD4890F82A20B7499448934BD3F811
S31508000CB0B031984700200700A74890F82A00FFB2ED
S31508000CC0874211D2AA48407C00280BD1FFB2A2481D
S31508000CD010EB470090F82C20AC498848874BD3F88E
S31508000CE0B03198477F1CE7E7A148407C002805D12A
S31508000CF083A18248814AD2F8B02190470020070094
S31508000D00954890F82A00FFB28742BFF48FAE9848FC
S31508000D10407C00280BD1FFB28F4810EB470090F8B3
S31508000D202D209A497548754BD3F8B03198477F1CE2
S31508000D30E6E7974802F01AF802F02AFD00283FF481
S31508000D4075AE8548407A00283FF470AE8848407CE6
S31508000D5000287FF46BAE8048437A854890F83A209D
S31508000D608C496648654FD7F8B071B8475EE678484B
S31508000D70808A50F010007649888257E6256400007C
S31508000D8002AA60A16048C06814F0ECF802F0F0FC12
S31508000D90002827D07648407C002809D140200090BA
S31508000DA02023029A7C495548544FD7F8B071B84762
S31508000DB002982028FFF63AAE02984028BFF636AECB
S31508000DC065480069029981716148808A50F040003F
S31508000DD05F498882604800690021C1716C4801F04A
S31508000DE0C5FF23E65C4890F82A0000283DD06048F5
S31508000DF0407C002819D1584890F82B000090564896
S31508000E0090F82B00544911EB400090F82D305248C9
S31508000E1090F82B00504911EB400090F82C205F49C0
S31508000E203648364FD7F8B071B8474B4890F82B007C
S31508000E30494911EB400090F82C0047494876464846
S31508000E4090F82B00401C444981F82B00424890F842
S31508000E502B00414991F82A108842FFF4E7AD822217
S31508000E6000214F4805F05DFEE0E54148407C00283A
S31508000E707FF4DCAD4B492148204AD2F8B02190478F
S31508000E80D4E502AA1FA12048C06814F06BF802989E
S31508000E90002802D004280FD028E03548407C0028D6
S31508000EA005D141491548154AD2F8B021904701F0B5
S31508000EB0BBFC00F0FCFE19E02D48407C002805D15B
S31508000EC03A490E480D4AD2F8B02190472248807D0B
S31508000ED050F0040020498875354801900C20009090
S31508000EE05A2300220221044806F032F99EE5FFF74C
S31508000EF04BFBFFE715B0F0BDEC0C0020C40A002040
S31508000F000D0A00002564000058070020187D010816
S31508000F10447D0108687D01088C7D0108B07D0108C3
S31508000F20E07D01080C7E0108447E0108647E010804
S31508000F30887E0108B47E0108F47E0108280800208E
S31508000F402C7F0108247F0108347F01083C7F0108B3
S31508000F50A4100020487F0108580E0020547F01087D
S31508000F60647F0108847F0108940D0020048101082C
S31508000F70900D0020C20D0020940C0020AC7F0108C3
S31508000F80C47F0108D87F0108F07F01080C8001089A
S31508000F90BE100020148001083C8001085880010812
S31508000FA0820E00208C800108A0800108EC800108D0
S31508000FB06C0E0020C0B2072805D1C9B2012902D19A
S31508000FC0374A01231370C0B2002805D1C9B20129D6
S31508000FD002D1344A01231370704710B5002004006B
S31508000FE0E4B2002C06D1304816F094FB0400E4B2B3
S31508000FF0002CFFD010BD70B504002500082006009F
S31508001000F6B2012E0FD32948407C002809D1F6B242
S31508001010701910F8012C26492648264BD3F8B0310A
S315080010209847761EECE770BD70B50400200080B2C4
S3150800103006F066FD06000120B040204909880842EE
S3150800104014D01D48392141801D4803781A4A2100C9
S3150800105089B2002007F062FA184800880121B140D9
S315080010604FF6FF7251400840144908800120B040ED
S3150800107012490988084206D1200080B206F06FFDA1
S315080010800500EDB2002D70BD38B504000D00EDB2B7
S31508001090002D03D0200080B2FFF7C6FF31BD000047
S315080010A06214002063140020A20D0020900D002079
S315080010B028810108C40A0020780C00204814002062
S315080010C0900A002070B584B004000D00EDB2012D21
S315080010D014D100AA01A92000C0B206F038FB060008
S315080010E0F6B2002E0AD19DF80000062806D1200087
S315080010F0C0B206F01EFB80B206F022FD7FBD704727
S3150800110080B501F06CFA07F051F852494873524815
S3150800111000785049497B88423AD04E48407B00289F
S3150800112006D001280FD0022818D0042821D02BE099
S315080011304A48407C002827D149494A48494AD2F8B2
S31508001140B021904720E04548407C00281CD14649FC
S315080011504448444AD2F8B021904715E03F48407CBD
S31508001160002811D141493F483E4AD2F8B02190475C
S315080011700AE03A48407C002806D13D493948394AB0
S31508001180D2F8B0219047FFE73248407B32490870D1
S315080011903048407B002802D0022803D00CE001F03A
S315080011A011F909E02B480078012804D129480021C3
S315080011B0017007F0BDFCFFE72E48808840F2D17128
S315080011C0884205D2202101202A4A526B90470BE01B
S315080011D020210320274A526B9047002804D020215B
S315080011E00220244A526B90472248006B8047002809
S315080011F007D02048006B80471849898880B2814209
S315080012000CD2402103201B4A526B9047002805D177
S3150800121040210120174A526B904718E01548006B89
S315080012208047012813D31348006B80470B498988E8
S3150800123080B281420BD3402103200E4A526B90475D
S31508001240002804D0402101200A4A526B904701BD6C
S3150800125000000000E80D0020910A0020900D0020F3
S3150800126030810108C40A00204C8101086C810108FC
S315080012708C810108A41000202DE9FC4704000D000C
S315080012801600F6B2DFF880060068305C070007F043
S3150800129009FE804600213000C0B204F067FA814694
S315080012A0DFF8680690F83A00DFF864160870688870
S315080012B0DFF85C164870DFF85806FF2181706888E9
S315080012C0132800F0FD8250282AD0512800F06B829E
S315080012D0522800F0BD82532800F01A81542800F0E5
S315080012E0E980552800F0CF82562800F0DC8157287F
S315080012F000F09781582800F0B081592800F0028242
S315080013005A2800F060815B2800F02C825C2800F0E7
S3150800131089805D2800F073825E2800F02781D0E27C
S3150800132099F80000DFF8E41591F83A10884207D0DA
S3150800133099F80300DFF8D41591F83A10884264D179
S31508001340DFF8C805407C00280FD199F80300009003
S3150800135099F8023099F80020DFF8B815DFF8B805D3
S31508001360DFF8B4C5DCF8B0C1E04702F001FA00289E
S3150800137035D0DFF8A80500690021C171DFF89C05A2
S315080013800069C07899F80210884205D0DFF88C0504
S31508001390006999F80210C170DFF880050069807944
S315080013A0002804D0DFF8740500690021817199F8D6
S315080013B00200022806D1DFF86405006999F80310CF
S315080013C0417104E0DFF85405006900214171DFF836
S315080013D04C050069C078DFF83815887015E002F00A
S315080013E0D7F9002811D099F80200022805D1DFF8AC
S315080013F02C0599F80010417203E0DFF8200500215A
S315080014004172DFF80C0500218170DFF804050190B0
S31508001410032000905F2300220221DFF8040505F06F
S3150800142097FE6EE299F80000DFF8E01491F83A109A
S31508001430884232D1DFF8D404407C00280CD199F8D0
S31508001440013099F80020DFF8DC14DFF8CC04DFF867
S31508001450C8C4DCF8B0C1E047DFF8B40499F8011055
S315080014604170FFB2B81E4008DFF8A414887019F15D
S315080014700202DFF89C048178DFF89404407802F0D1
S31508001480E7FBDFF88C1488706888DFF884144870E6
S31508001490DFF87C0499F80110C170DFF87404019034
S315080014A0042000905F2300220221DFF8740405F06F
S315080014B04FFE26E299F80000DFF8501491F83A102A
S315080014C0884218D1DFF84404407C00280AD199F8EC
S315080014D00020DFF85414DFF84004DFF83C34D3F872
S315080014E0B03198474846DFF84414896A8847DFF8D8
S315080014F0200400218170DFF8180401900320009071
S315080015005F2300220221DFF8180405F021FEF8E126
S3150800151099F80000DFF8F41391F83A10884218D1C8
S31508001520DFF8E803407C00280AD199F80020DFF8A4
S315080015300014DFF8E403DFF8E033D3F8B031984756
S315080015404846DFF8E813C96A8847DFF8C40300216C
S315080015508170DFF8BC030190032000905F2300220E
S315080015600221DFF8BC0305F0F3FDCAE199F8000093
S31508001570DFF8981391F83A10884217D1DFF88C03F0
S31508001580407C00280AD199F80120DFF8A813DFF873
S315080015908803DFF88433D3F8B031984799F8010007
S315080015A005F0C8FBDFF8680300218170DFF86003E7
S315080015B00190032000905F2300220221DFF86003D8
S315080015C005F0C6FD9DE199F80000DFF8401391F893
S315080015D03A1088421AD1DFF83403407C00280AD131
S315080015E099F80020DFF85013DFF82C03DFF82833CA
S315080015F0D3F8B0319847DFF82403D0F8E0008047E5
S3150800160002F093F9DFF8080300218170C0480190C1
S31508001610032000905F2300220221C14805F098FDAF
S315080016206FE1FFB20E2F0DD10E224946C34805F0D1
S3150800163079FA002806D00E224946C04805F02EFA47
S3150800164005F054FBBD4801900E2000905723002258
S315080016500221B34805F07CFD53E1FFB2202F17D1D4
S31508001660AA48407C002805D1B549AB48AA4AD2F811
S31508001670B021904720224946B24805F053FA00287F
S3150800168006D020224946AF4805F008FA05F02EFB99
S31508001690AC48019020200090582300220221A0483F
S315080016A005F056FD2DE1FFB2142F20D19748407C56
S315080016B0002805D1A4499848974AD2F8B0219047FE
S315080016C014224946A14805F02DFA00280FD0142205
S315080016D049469E4805F0E2F98C4890F84E001028D5
S315080016E005D28A484FF6FF71416405F0FFFA97481C
S315080016F0019014200090562300220221884805F004
S3150800170027FDFEE0CA469AF8080001281FD39AF872
S3150800171008007E49898880B2884218D2FFB20A2F0B
S3150800172015D17A48407C002805D189497A487A4AF1
S31508001730D2F8B021904775489AF8081080F83A1000
S3150800174072489AF8091080F83B1005F0CFFA8148DC
S3150800175001900A200090592300220221704805F0C2
S31508001760F7FCCEE099F80000684991F83A108842EB
S315080017700ED16648407C002805D177496648664AF6
S31508001780D2F8B021904701F04FF8614800218170E6
S315080017905F480190032000905F23002202216048E1
S315080017A005F0D6FCADE099F80000584991F83A10D2
S315080017B0884219D15548407C002805D167495648C2
S315080017C0554AD2F8B02190475148002181705048B7
S315080017D00190032000905F2300220221504805F063
S315080017E0B7FC00F064FA8CE04948019003200090A9
S315080017F05F23002202214A4805F0AAFC81E0FFB2D5
S315080018003A0092B249464548D0F8B00005F046F984
S315080018103F480021817000210800C0B2FFB2B842DB
S315080018200BD23B498978C0B23C4AD2F8B020825CD8
S315080018305118374A9170401CEFE73548019003204C
S3150800184000905F2300220221354805F081FC58E00C
S3150800185001F09EFF002806D03448808A50F0100018
S31508001860324988824DE001F083FF002849D02B4891
S315080018700069C079002844D02C48808A50F040007E
S315080018802A4988823DE0484605F0B7FC2021032016
S31508001890264A526B9047002804D020210220234A6A
S315080018A0526B90471A48002181701948019003200D
S315080018B000905F2300220221194805F049FC20E028
S315080018C01FE0688813281CD01048407C00280AD1DD
S315080018D01FFA88F843466A8821490F48DFF838C056
S315080018E0DCF8B0C1E0470A48FE218170084801903B
S315080018F0032000906B88DBB200220221084805F01D
S3150800190027FCBDE8F38700BF18090020900D0020CA
S31508001910840C0020AC810108C40A0020580E00205F
S31508001920EC0C0020E881010814820108A4100020AC
S31508001930388201085C82010884820108940D00201F
S31508001940A4820108A20D0020D4820108D40D00202B
S3150800195008830108C20D00203C830108788301082A
S31508001960B883010810B518220021624805F0D9F895
S3150800197061486249B1F84810A0F860105E485F49AE
S3150800198091F94C1080F862105B485C4991F84D104B
S3150800199080F8631008225A49564805F07FF807F080
S315080019A009FB0400E4B2002C05D007B52B215548E5
S315080019B003F064FAFFE710BD00B583B04E48807C9B
S315080019C001280DD14C48C07C002809D14E48019009
S315080019D00C2000905523002201214C4805F0B8FB45
S315080019E007BD80B54448C06C002802D04248C06C88
S315080019F0804701BD80B54048806C80473E48806B73
S31508001A00804701BD80B503F0C3FC414815F0BFFE11
S31508001A1001BD80B53848006A80473748406A804724
S31508001A203548806A80473448406B002802D03248DF
S31508001A30406B804701BD80B5012300220F2101209C
S31508001A4005F036FB002805D00123002208210120D5
S31508001A5005F02EFB01BD704780B508222D492E489A
S31508001A6005F01CF82548407C00280CD12248807CCB
S31508001A70012801D1294A00E0294A2A492A482A4B3D
S31508001A80D3F8B031984701BD80B5284808210170C0
S31508001A901948006B8047FFF7DFFF01BD70477047A5
S31508001AA080B500F0B4F8FFF7C6FFFFF7D4FFFEF7DE
S31508001AB097FC00F0ABF807F0FFF900F0D5FE00F050
S31508001AC053F900F05FFAFFF7E9FFFFF7E8FFFFF7C2
S31508001AD049FFFFF7D9FF08484068401C0649486097
S31508001AE000F034F80448C06A8047FFF792FFFFF712
S31508001AF089FFF0E7400E0020E80D0020900D002039
S31508001B00DF0D0020E4830108A8100020EC0C00205B
S31508001B1020840108E8100020C20D0020FC8301087B
S31508001B200C840108F4830108C40A002074140020F8
S31508001B30DFF8C40101210160DFF8C0014EF6BE21BD
S31508001B400160DFF8BC01012101607047DFF8A801D8
S31508001B5001210160704730B48308DFF8A84154F8C2
S31508001B6023301B681A000F2310F00304E4B2A40004
S31508001B70A3409A4310F00303DBB29B0011FA03F368
S31508001B80134384085F4D55F82440236030BC7047E2
S31508001B9080B502F062FF40F68C21884206D25A4888
S31508001BA0006850F008005849086004E05648016883
S31508001BB021F00801016001BDC0B2082190FBF1F1D6
S31508001BC003290DDAC0B2082190FBF1F14FF48062C7
S31508001BD04E4B02FB0131012210F007039A400A60BE
S31508001BE07047C0B2082190FBF1F103290DDAC0B2A3
S31508001BF0082190FBF1F14FF48062454B02FB01315D
S31508001C00012210F007039A400A607047704780B5B2
S31508001C1002237F223F4801883F4807F0E3FB3E48FE
S31508001C2000884FF6FF71884201D107F073FC002047
S31508001C3007F0DAFC3448006850F0080032490860BA
S31508001C4007F090FC07F052FCFFF772FF00F03AF835
S31508001C50FFF79EFF3148C9210160314879210160AB
S31508001C603048E7210160304849F6D95101602F48CC
S31508001C7048F6111101602E4849F2994101602D4834
S31508001C8040F2191101602C4844F6991101602B485D
S31508001C9049F6941101601C48016821F010010160A1
S31508001CA0FEF7B9FA07F0B2FD02F0E4FB01BD80B514
S31508001CB040F2016007F0D2FC01BD80B5042007F0B0
S31508001CC008FC01BD80B51E48102101601D4802218F
S31508001CD001601D484FF40061016007F003FD1B48D1
S31508001CE0072101601A48002101601A481021016085
S31508001CF0002002BD000000000860004004600040AB
S31508001D00006000403884010800BC004010B0004064
S31508001D1014B0004052950108820A00200CB0004019
S31508001D200CB400400CB8004000B0004004B00040BD
S31508001D3000B4004004B4004000B8004004B80040B5
S31508001D4080E100E0080000400C60004014A000405C
S31508001D5054A0004000E100E0DFF80800002101601F
S31508001D6070470000E80C002080B5702200217248F8
S31508001D7004F0D7FE7048012101736F4800214173B2
S31508001D806D48002181736C480021C1736A4800219F
S31508001D900181694800214174674801210175664837
S31508001DA000210174644865490162634864494162D7
S31508001DB06148644901656048634941655E48022196
S31508001DC081745D480221C1745B486049C1625A4802
S31508001DD05F49016358485F49C16357485E490164D2
S31508001DE055485E49416454485D49816352485D4996
S31508001DF0816251485C4981644F485C49C1644E48D8
S31508001E000021416305F0CBF905F01CFA05F037F817
S31508001E10574808F0E5FA01BD564AB2F84A200A8042
S31508001E20C0B24880444A127B0A71434A127B4A71FF
S31508001E304FF4A072CA8070474E4AB2F84A200A8008
S31508001E40C0B248803C4A127B0A713B4A127B4A71EF
S31508001E500022CA8041F211120A8170472DE9FF411A
S31508001E6004000D0016001F00002F02D0F6B2002E47
S31508001E7003D10120060000A807003100C9B23800C6
S31508001E8003F087FB80465FFA88F8B8F1FF0F01D1A7
S31508001E90FF2014E001A92000C0B2FFF7BDFF4346AA
S31508001EA0DBB201AA290089B2002006F037FB8DF8BB
S31508001EB000004046C0B203F0ECFA9DF8000004B0FA
S31508001EC0BDE8F081F0B585B004000D001600002EBF
S31508001ED002D0EDB2002D03D10120050000A80600AE
S31508001EE02900C9B2300003F054FB0700FFB2FF2FE8
S31508001EF001D1FF2013E001A92000C0B2FFF79CFF23
S31508001F003B00DBB20822002101A806F053FB8DF83E
S31508001F1000003800C0B203F0BCFA9DF8000005B016
S31508001F20F0BD15490968080041F2111101800249FE
S31508001F30097B817070470000E80D00203190000889
S31508001F40159E00085D1E0008C51E000849270008E2
S31508001F50E126000879120008992000085121000896
S31508001F6001110008613E0008E5400008993F000895
S31508001F70C40A0020900D00204409002080B5FFF710
S31508001F80E5FD01BD10B5384800210160374801213B
S31508001F900160374801210160364800210160354853
S31508001FA06021016009210620FFF7D5FD00F03AF807
S31508001FB000F042F800F04AF800F027F82E484FF4EF
S31508001FC07A7101602D480A2101602D4800210160BF
S31508001FD002F042FA04002B484FF4807101602A4847
S31508001FE0006850F00100284908602000C0B202F0DD
S31508001FF02FFA10BD4FF47A71081A002804D4B0F5E8
S315080020007A7F01DC1D49086070472048006850F057
S3150800201040001E4908601D48006850F080001B49B2
S315080020200860704780B501211720FFF794FD01214C
S315080020301620FFF790FD01BD80B501210820FFF7A6
S315080020408AFD01210720FFF786FD01BD10480068BB
S3150800205050F001000E4908600E48006850F08000F4
S315080020600C4908607047000050E0004028E0004036
S3150800207014E000401CE000402CE000403CE000403A
S3150800208024E0004020E0004000E0004010B8004096
S3150800209010B4004010B000402DE9FC4105000E00C8
S315080020A017009846089C7888DFF8001789684978E9
S315080020B089B288424AD1E4B2002C3ED0DFF8EC0659
S315080020C08068801D0190DFF8E406806880780090BB
S315080020D0DFF8D80680684378DFF8D00680688288FB
S315080020E00221DFF8C80605F033F8DFF8C406407C9D
S315080020F0401CDFF8BC164874C0B2022826D3DFF8A5
S31508002100B406407C00280BD1DFF8A406427CDFF831
S31508002110A816DFF8A806DFF8A436D3F8B031984732
S31508002120DFF88C0600214174DFF87806012101707A
S31508002130DFF870060021817308E0DFF87406407C3A
S31508002140002803D0DFF8680600214174BDE8F38152
S3150800215030B589B00400E4B22000902809D091284F
S3150800216000F0EB80942800F0FF80AB2800F00B818C
S3150800217026E1DFF84006407C002808D1DFF8401643
S31508002180DFF83806DFF83426D2F8B021904702A8DF
S3150800219006F01EF800282ED1DFF81806407C002825
S315080021A008D1DFF82016DFF81406DFF81026D2F873
S315080021B0B0219047DFF8FC05407C00280CD1BDF81B
S315080021C010309DF81320DFF80016DFF8F005DFF869
S315080021D0EC55D5F8B051A847DFF8D805407C00285B
S315080021E009D102AADFF8E415DFF8D005DFF8CC3507
S315080021F0D3F8B0319847DFF8AC0590F863001A2891
S315080022000FD1DFF8B005407C002840F09380DFF856
S31508002210C015DFF8A805DFF8A425D2F8B021904745
S3150800222088E0DFF88005B0F86000BDF81010884235
S3150800223007D1DFF8700590F863009DF813108842FF
S315080022402CD0DFF87005407C002810D1DFF8540543
S31508002250B0F86030DFF84C0590F86320DFF87415A5
S31508002260DFF85805DFF85455D5F8B051A847DFF818
S315080022704405407C00280CD1BDF810309DF8132089
S31508002280DFF85415DFF83405DFF83055D5F8B051C6
S31508002290A847DFF81005012101704BE0DFF81405A7
S315080022A0B0F84800DFF8FC14B1F86010884209D18C
S315080022B0DFF8000590F84D00DFF8E81491F8631090
S315080022C088421FD0DFF8EC04407C002808D1DFF8EC
S315080022D00C15DFF8E804DFF8E424D2F8B0219047BB
S315080022E0DFF8D004DFF8BC14B1F86010A0F8481085
S315080022F0DFF8C004DFF8AC1491F8631080F84D10CD
S3150800230004F0F4FCDFF8D80401210170DFF8940426
S3150800231002218173DFF88C040021C173DFF8C4043D
S3150800232001900C200090522300220221DFF87C0441
S3150800233004F00EFFFFF7F5FD42E0DFF86804002120
S315080023404173DFF8600400218173DFF86804407C7C
S31508002350002835D1DFF89014DFF86004DFF85C2434
S31508002360D2F8B02190472BE0DFF84804407C0028DB
S3150800237026D1DFF87814DFF84404DFF84024D2F8D1
S31508002380B02190471CE0DFF82C04407C002808D1D7
S31508002390DFF85C14DFF82404DFF82024D2F8B02133
S315080023A09047DFF80C04407C401CDFF8041448749E
S315080023B0C0B2032804D3DFF8F80300214174FFE70D
S315080023C009B030BDF8B55FF0FF3004000020050005
S315080023D0DFF80C04007801283DD1DFF80404002159
S315080023E00170DFF8CC0305210170DFF8C403012171
S315080023F04170DFF8000400210170DFF8FC03642156
S31508002400817018220021DFF8A00304F08AFB082255
S31508002410DFF8E813DFF8900304F040FBDFF88403E5
S31508002420DFF89013B1F84810A0F86010DFF87403CD
S31508002430DFF8801391F94C1080F86210DFF8640316
S31508002440DFF8701391F84D1080F86310DFF8540325
S31508002450002180F86410DFF85803007801281FD39C
S31508002460DFF8500390F84D000B2814D3DFF8440327
S3150800247090F84D001B280ED2DFF834030078401E72
S31508002480DFF82C130870DFF81C03002180F86410AD
S315080024900120050095E0DFF818030021017090E09F
S315080024A0DFF80C034078012807D1DFF80403002180
S315080024B04170DFF84C030121017007F00BFB00287F
S315080024C000F07F8000200700DFF838030078FFB2AD
S315080024D0874201D27F1CF7E7DFF828030078002837
S315080024E005D1DFF81C0301210170012076E0C148FF
S315080024F0007801280BD3BF480078401EBD490870F4
S31508002500A848002180F864100120050059E0002041
S31508002510040000200700BB480078FFB2874210D2AB
S31508002520FFB20620B44900FB0710807864B2062182
S31508002530B14A01FB04218978884200D23C007F1CFD
S31508002540E9E764B20620AC4900FB041080786428E9
S3150800255032D064B20620A84900FB041064218170B9
S31508002560A44803210170182200218F4804F0D9FAE3
S315080025700822A2498C4804F091FA64B206209E49C2
S3150800258000FB041080888749A1F8600085488949BE
S3150800259091F94C1080F8621064B20620964900FB47
S315080025A00410C0787F4981F863007E48002180F8CE
S315080025B064100120050004E0914801210170002003
S315080025C00CE0EDB2012D08D100200500FEF705FD4F
S315080025D07549022003F0E8FA06000120F2BD80B52D
S315080025E087480078012804D107F0F0FA84480021CA
S315080025F0017007F0F4FA07F063FA002803D07F4960
S31508002600814807F0EFFA01BD6A4890F83A0080B2AF
S3150800261070476848C07A022803D1664890F83B009C
S3150800262000E01020704710B40200D2B2012A1AD175
S315080026306048C07A022807D15D48007F08435C4B92
S3150800264018775B48007F3DE05948594B1B7FDBB242
S3150800265051EA5303047F63F3470404775448007F21
S31508002660C0B240082EE0D2B2022A1CD15148C07A24
S31508002670022807D14E48007F88434D4B18774C48AF
S31508002680007F1FE04A484A4B1B7FDBB2C9B2CC43E6
S3150800269014EA5303047F63F3470404774448007F2E
S315080026A0C0B240080EE04348C07A022804D1404828
S315080026B0007F0840C0B205E03D48007FC0B211EA7D
S315080026C05000C0B210BC70473A48C07A022802D1FE
S315080026D03748407F03E03648007F10F00100704716
S315080026E080B53448C07A022802D100F0B0FE1CE05A
S315080026F02F48818A21F0100181822D482D4991F8B1
S315080027003A1041832B48007B800707D52848642167
S3150800271041773E482649896A884706E024480021C9
S3150800272041773A482249C96A8847214838490163A6
S315080027301F48384981631E48374941631C48374951
S31508002740C163FFF709FB01BD10B592B0344834499F
S31508002750C96C8847002816D131483149896C8847A1
S3150800276004003048002101802100C9B21348134AE9
S31508002770D2F89821904711480078002803D1200004
S31508002780C0B2FDF7AAFF00A90C480C4AD2F894215A
S315080027909047002802D000A8FEF761F812B010BDD5
S315080027A000000000E80D0020400E0020EC0C002080
S315080027B0A4100020900D002050840108C40A0020AF
S315080027C090840108BC840108DC840108048501089A
S315080027D0248501083C85010864850108848501086B
S315080027E0930A0020BE100020C0850108EC85010868
S315080027F01886010865140020041100204486010883
S31508002800641400208C09002000F8FF07C11000207E
S31508002810092600081326000827260008C9260008E6
S31508002820940C0020580E0020F8B502200400002061
S315080028300600E4B2022C02D12020050007E0E4B22B
S31508002840032C02D11020050001E0102005004FF6E8
S31508002850FF7007003B003200D2B22900C9B220003F
S31508002860C0B204F0D5F9F1BD80B5DFF8702758215C
S31508002870002007F017FEDFF86407008845F2AA5122
S31508002880884204D1DFF854074088582802D0FFF759
S31508002890CBFF23E0DFF8440790F84D000B280BD355
S315080028A0DFF8380790F84D001B2805D2DFF82C070B
S315080028B090F84E00112802D3FFF7B6FF0EE0DFF8B6
S315080028C01C0790F83B00012808D0DFF8100790F89D
S315080028D03B00102802D2FFF7A7FFFFE701BD80B52E
S315080028E0DFF8F806407C002805D0DFF8F00600215E
S315080028F0417404F0FBF9DFF8E406407C002801D0B7
S31508002900002000E00120DFF8D816087001BD00009D
S3150800291030B58BB072A00400DFF8C006407C0028F2
S3150800292008D1DFF8C416DFF8BC06DFF8B826D2F8F7
S31508002930B0219047DFF8A406407C00280BD1DFF8C9
S315080029409C06C288DFF8A416DFF89806DFF89436E6
S31508002950D3F8B0319847DFF88406407C00280BD1BD
S31508002960DFF878068288DFF88816DFF87806DFF859
S315080029707436D3F8B0319847DFF86006407C0028F3
S315080029800CD1DFF8580690F83B20DFF86816DFF818
S315080029905406DFF85036D3F8B0319847DFF83C06CE
S315080029A090F83B00012809D3DFF8300690F83B0081
S315080029B0102803D2DFF8400604004EE0DFF81C06B4
S315080029C090F83B00102809D3DFF8100690F83B0072
S315080029D0202803D2DFF8240604003EE0DFF8FC05D1
S315080029E090F83B00202809D3DFF8F00590F83B0063
S315080029F0402803D2DFF8080604002EE0DFF8DC05DD
S31508002A0090F83B00502809D3DFF8D00590F83B0032
S31508002A10602803D2DFF8EC0504001EE0DFF8BC05E9
S31508002A2090F83B00102809D3DFF8B00590F83B0072
S31508002A30202803D2DFF8D00504000EE0DFF89C0555
S31508002A4090F83B00102808D3DFF8900590F83B0073
S31508002A50302802D2DFF8B4050400DFF88005407C90
S31508002A60002808D12200C0A1DFF87805DFF8743500
S31508002A70D3F8B0319847DFF86405407C00280BD1BD
S31508002A80DFF85805027BDFF88815DFF85805DFF808
S31508002A905435D3F8B0319847DFF87805807C02289A
S31508002AA011D1DFF83805407C00280CD1DFF82C0559
S31508002AB090F83A20DFF86015DFF82805DFF82435A6
S31508002AC0D3F8B0319847DFF81405407C002814D1B4
S31508002AD0DFF80805407C002804D0DFF8402503E02D
S31508002AE000000000DFF83825DFF83815DFF8F404B1
S31508002AF0DFF8F034D3F8B0319847DFF8E004407CCB
S31508002B0000280BD1DFF8D404827BDFF81C15DFF828
S31508002B10D404DFF8D034D3F8B0319847DFF8BC04D2
S31508002B20407C00280BD1DFF8B404C27BDFF8FC1424
S31508002B30DFF8B004DFF8AC34D3F8B0319847DFF8E3
S31508002B409C04407C00280BD1DFF89004027CDFF857
S31508002B50E014DFF89004DFF88C34D3F8B0319847E6
S31508002B60DFF87804407C002808D1DFF8C814DFF8BD
S31508002B707404DFF87024D2F8B0219047DFF8B8045F
S31508002B80FEF739FADFF85404407C00280BD1DFF849
S31508002B904C04827ADFF8A414DFF84804DFF84434DA
S31508002BA0D3F8B0319847DFF83404407C00280BD1BD
S31508002BB0DFF82804427BDFF88814DFF82804DFF8FA
S31508002BC02434D3F8B0319847DFF81004407C002845
S31508002BD00BD1DFF80804426CDFF86814DFF8040448
S31508002BE0DFF80034D3F8B0319847DFF8F003407CBB
S31508002BF000280CD1DFF8E40390F84E20DFF84814DB
S31508002C00DFF8E003DFF8DC33D3F8B0319847DFF8B4
S31508002C10CC03407C002812D1DFF8C003007AC3B287
S31508002C20DFF8B803008980B2020A92B2DFF81C14F2
S31508002C30DFF8B003DFF8AC53D5F8B051A84704A8BD
S31508002C4005F0C6FA002820D1DFF89003407C00285A
S31508002C500AD1BDF81820DFF8F813DFF88803DFF883
S31508002C608433D3F8B0319847DFF87003407C0028E6
S31508002C702FD19DF81B20DFF8DC13DFF86803DFF897
S31508002C806433D3F8B031984723E0DFF85003407C2B
S31508002C9000280CD1DFF84403B0F84820DFF8B01359
S31508002CA0DFF84003DFF83C33D3F8B0319847DFF854
S31508002CB02C03407C00280CD1DFF8200390F84D2027
S31508002CC0DFF89013DFF81C03DFF81833D3F8B031B8
S31508002CD09847DFF80803407C00280CD1DFF8FC028F
S31508002CE090F84C20DFF87013DFF8F802DFF8F432BA
S31508002CF0D3F8B0319847DFF8E402407C00280CD1BD
S31508002D00DFF8D802B0F84A20DFF85013DFF8D4020B
S31508002D10DFF8D032D3F8B0319847DFF8C002407CEC
S31508002D2000281ED1DFF83803807A0390DFF83003D5
S31508002D30407A0290DFF82803007A0190DFF8200332
S31508002D40C0790090DFF818038379DFF814038288C6
S31508002D50DFF81013DFF88C02DFF88852D5F8B05187
S31508002D60A8470BB030BD00002573000070B588B0C9
S31508002D700400002C00F02E81DFF86002C07A0128DA
S31508002D8040F0CE80DFF85402407C002809D1228822
S31508002D90DFF8D412DFF84C02DFF84832D3F8B03146
S31508002DA09847DFF83802407C00280AD1A078C0B2DC
S31508002DB04208D2B2DFF8B4128A488A4BD3F8B03147
S31508002DC098478648407C00280ED1A078C00702D5CF
S31508002DD0DFF89C2201E0DFF89C22DFF89C1281488C
S31508002DE0804BD3F8B03198477C48407C00280DD1F9
S31508002DF02079C00701D578A201E0DFF88022DFF844
S31508002E0080127848774BD3F8B03198477348407C9E
S31508002E1000280AD12079C0B24208D2B2DFF864127B
S31508002E207048704BD3F8B03198476C48407C0028FE
S31508002E3007D16279DFF850126A486A4BD3F8B03185
S31508002E4098476648407C002807D1627ADFF83C122A
S31508002E506448644BD3F8B03198476048407C0028F2
S31508002E6008D1A07A10F00F0289495E485D4BD3F865
S31508002E70B03198475948407C002809D1A07AC0B299
S31508002E800209D2B283495748564BD3F8B03198470E
S31508002E905248407C002806D1E27A7F495148514B76
S31508002EA0D3F8B03198474D48407C002806D1E278DF
S31508002EB07A494C484B4BD3F8B03198474748407C41
S31508002EC0002808D1207A10F00F0275494548454B6D
S31508002ED0D3F8B03198474148407C002809D1207A78
S31508002EE0C0B20209D2B26F493E483E4BD3F8B03160
S31508002EF098473A48407C002806D1A2796A49394859
S31508002F00384BD3F8B03198473448407C002861D113
S31508002F10E27966493348334BD3F8B031984759E0DC
S31508002F202E48C07A022855D100F032FC002826D057
S31508002F302A48407C002805D15D492A48294AD2F802
S31508002F40B02190472548407C002843D12089079026
S31508002F50E0790690A07905906089049060790390DD
S31508002F6020790290A0780190E07800902378627822
S31508002F7050491C481B4DD5F8B051A8472AE000F027
S31508002F80F7FB002826D025001448407C002805D1E8
S31508002F9049491448134AD2F8B02190470F48407C53
S31508002FA0002817D168890790E8790690287905904E
S31508002FB028890490A8780390A879029068790190E6
S31508002FC0E87800902B786A783C490648054ED6F88A
S31508002FD0B061B04708B070BD4E6F0000900D00207C
S31508002FE0940C0020C40A00204C8601087486010847
S31508002FF08486010898860108AC860108C0860108FF
S31508003000D8860108F0860108088701081C87010888
S3150800301034870108E80D00204C87010880870108DD
S31508003020888701086087010890870108BC8701081E
S31508003030E88701081C880108C20D00203C880108A1
S3150800304054880108748801088C880108A488010836
S31508003050C4880108E4880108048901081C89010854
S31508003060A4100020388901086889010878890108B0
S31508003070A0890108A88901088C890108D489010852
S31508003080B0890108DC890108F4890108088A010861
S31508003090248A0108448A0108648A0108788A010892
S315080030A0908A0108A48A0108B88A0108CC8A01080E
S315080030B0E08A0108208B0108588B0108948B0108C7
S315080030C080B501210220FEF746FD0220FEF789FDA4
S315080030D001BD37B50400DFF8780D00780621DFF862
S315080030E0702D01FB00207E218170DFF8640D0078C9
S315080030F00621DFF85C2D01FB0020C470022201A91D
S31508003100DFF84C0D00780623DFF8445D03FB00501A
S31508003110001D03F0C3FC022202A9DFF8340D007873
S315080031200623DFF82C5D03FB0050801D03F0B6FC78
S31508003130DFF81C0D0078401CDFF8141D0870DFF856
S31508003140100D0078202803D3DFF8040D0021017044
S3150800315037BD00210800DFF8F81C4978DFF8F02CA5
S315080031601278914219D0DFF8E81C49780622DFF870
S31508003170E03C02FB0131891C0800DFF8D41C4978C1
S31508003180491CDFF8CC2C5170DFF8C41C497820297B
S3150800319003D3DFF8BC1C00224A70704780B5DFF8FD
S315080031A0980A407C002808D1DFF8901ADFF8900AC0
S315080031B0DFF88C2AD2F8B02190470120FEF711FDDE
S315080031C001BD80B5DFF8700A407C002808D1DFF819
S315080031D0741ADFF86C0ADFF8682AD2F8B02190472B
S315080031E00120FEF7E9FC01BD80B5DFF84C0A407CFA
S315080031F0002808D1DFF8501ADFF8440ADFF8402A19
S31508003200D2F8B0219047DFF87C0D0068800703D517
S315080032100120FEF7E6FC02E00120FEF7CDFC01BD29
S3150800322038B50400DFF8240A407B002849D1DFF8C6
S31508003230080A407C002808D1DFF8181CDFF8000AC5
S31508003240DFF8FC29D2F8B021904700200500EDB23E
S31508003250082D09D2002200215420DFF8F039D3F8CE
S31508003260D43098476D1CF2E7DFF8E0095421017263
S31508003270DFF8E40B808A50F02000DFF8DC1B888238
S31508003280DFF8C809807D002803D0DFF8C0090021CF
S315080032908175DFF8B809C07DDFF8B019097A884268
S315080032A005D0DFF8A809DFF8A419097AC175DFF88F
S315080032B0D80CDFF89819097A0171DFF8CC0C00F000
S315080032C091FF31BD38B50400DFF86C09407C002851
S315080032D008D1DFF8881BDFF86809DFF86429D2F817
S315080032E0B021904700200500EDB2082D09D2002232
S315080032F000215320DFF85439D3F8D43098476D1C91
S31508003300F2E7DFF8480953210172DFF84C0B808A8F
S3150800331050F02000DFF8401B8882DFF83009C07DB6
S31508003320DFF82819097A884205D0DFF82009DFF87E
S315080033301C19097AC175DFF8500CDFF81019097ADB
S315080033400171DFF8440C00F04DFF31BD70B5040083
S315080033502500002C60D0287850280ED1DFF8D80830
S31508003360407C002829D1DFF8241CDFF8D408DFF8D0
S31508003370D028D2F8B02190471FE0287851280ED1DE
S31508003380DFF8B408407C002817D1DFF8041CDFF802
S31508003390B008DFF8AC28D2F8B02190470DE0DFF886
S315080033A09808407C002808D1DFF8E81BDFF8900869
S315080033B0DFF88C28D2F8B021904700200600F6B234
S315080033C0082E09D2AA8869882878DFF88038D3F8C1
S315080033D0D4309847761CF2E7DFF87008297801722E
S315080033E0DFF8740A808A50F02000DFF86C1A8882A9
S315080033F0DFF85808C07DDFF85418097A884205D0E6
S31508003400DFF84808DFF84418097AC175DFF8780B41
S31508003410DFF83818097A017170BD30B40200080067
S31508003420002529002B002C00C9B2082909D2D50786
S3150800343000D55B1CD50500D5641C491C92B2520800
S31508003440F2E71D1B0570E518457030BC704738B5A6
S31508003450EC220021DFF8F40703F063FBC222002107
S31508003460DFF8EC0903F05DFB0C220021DFF8400CC5
S3150800347003F057FB0C220021DFF8380C03F051FB50
S3150800348020220021DFF8300C03F04BFBDFF8C809D7
S31508003490DFF8A41791F83A108176DFF8BC09DFF84F
S315080034A0981791F83B10C176DFF8AC09DFF80C1CC9
S315080034B08162DFF8A409DFF8081CC162DFF8980901
S315080034C0DFF8001C0164DFF88407DFF86C1791F851
S315080034D03A100175DFF87407DFF85C1791F83B10AE
S315080034E04175DFF868075321C175DFF860070821C1
S315080034F04180DFF85807DFF8C01BC0F8B010DFF8C6
S315080035004C07DFF8C41BC0F8D410DFF84007DFF813
S31508003510BC1BC0F8D810DFF83407DFF8B41BC0F8B6
S31508003520DC10DFF82807DFF8AC1BC0F8E010DFF87E
S315080035301C07DFF8A41BC0F8E410DFF81007DFF853
S315080035409C1BC0F8E810DFF80407DFF8941BC0F8E6
S31508003550AC10DFF8E40690F83A00DFF8581B08705C
S31508003560DFF8500BDFF8D01691F83B104170FFF7E3
S31508003570A7FDFFF7B4F9DFF8D4064FF4FC61C18361
S3150800358044220021DFF8000A03F0CBFADFF8080C22
S315080035900400DFF8F4090A214170DFF8EC0960211C
S315080035A00170DFF8E409DFF8B018098B4180DFF80D
S315080035B09C06C07D2070DFF89406807AA070DFF83C
S315080035C08C06C08BA08000F0D3F8002853D00121C8
S315080035D00120FEF7C0FA0120FEF7EEFA08210020C6
S315080035E0FEF7B9FA08210420FEF7B5FA0020FEF71F
S315080035F0E3FA0420FEF7E0FADFF85006DFF8B01A1F
S315080036000161DFF848060069DFF82C1691F83A10D0
S315080036100170DFF838060069DFF81C1691F83B10D0
S315080036204170DFF8280600690021C171DFF81C0621
S31508003630006900218171DFF8140600690021C17054
S31508003640DFF80806006900214171DFF80006006905
S3150800365000218170DFF8F405006900210171DFF8A7
S31508003660EC05006900214181DFF8E005006942F2B6
S31508003670486101817BE000F08BF8002877D00A22A8
S315080036800021DFF8100C03F04CFADFF8082C0A21A9
S315080036904FF4805006F006FFDFF8440B03F0E7FC12
S315080036A000200500EDB2052D39D2EDB2DFF89C05F4
S315080036B010EB450090F82000002808D0EDB2DFF89E
S315080036C08C0510EB450090F82100002800D126E073
S315080036D0EDB2DFF8780510EB450090F82000FF28DA
S315080036E008D0EDB2DFF8640510EB450090F821002C
S315080036F0FF2800D113E0EDB2DFF8500510EB4500C6
S3150800370090F82120EDB2DFF8440510EB450090F85B
S315080037102010DFF8840B03F0AAFC6D1CC2E7DFF863
S315080037202C058573DFF82405807B0500EDB2052D91
S3150800373011D2EDB2DFF8140510EB4500002180F830
S315080037402010EDB2DFF8040510EB4500002180F8E3
S3150800375021106D1CEAE7DFF83C2BDFF8F004817BCB
S31508003760002000F075FADFF8E4040021016131BD9C
S31508003770DFF8C40490F83B00102807D3DFF8B80434
S3150800378090F83B00202801D2012000E00020704775
S31508003790DFF8A40490F83B00202807D3DFF8980444
S315080037A090F83B00402801D2012000E00020704735
S315080037B0010000221000DFF8942492F82A20C0B2F3
S315080037C090420DD2C0B2DFF8842412EB400292F880
S315080037D02C20C9B28A4201D1C0B202E0401CEAE7F5
S315080037E0FF20704700B583B0DFF8B00A807B022857
S315080037F040F09A80FFF7BCFF00282BD0DFF8580668
S31508003800007D400640F19080DFF82C04407C0028BB
S315080038100CD1DFF8380400698279DFF8841ADFF8FA
S315080038202004DFF81C34D3F8B0319847DFF81C04BD
S31508003830006901900C200090522300220221DFF833
S31508003840640A03F085FCDFF81006818A21F040013E
S31508003850818269E0DFF80006007DC00664D50C2287
S31508003860DFF8441ADFF8480803F05CF9002821D08D
S315080038700C22DFF8341ADFF8380803F00FF9DFF8FE
S31508003880B803407C002808D1DFF8201ADFF8B00317
S31508003890DFF8AC23D2F8B0219047DFF8140801907E
S315080038A00C200090522300220221DFF8F80903F0C9
S315080038B04FFC33E0DFF8A005807ADFF87C13897ABD
S315080038C090FBF1F201FB1200002827D1DFF88805EA
S315080038D0C07CDFF88415897A88421FD0DFF878051E
S315080038E0DFF87415897AC174DFF84C03407C002828
S315080038F008D1DFF8BC19DFF84803DFF84423D2F80B
S31508003900B0219047DFF8A80701900C2000905223B9
S3150800391000220221DFF88C0903F01AFCDFF83805CB
S31508003920818A21F01001818207BD80B5C248407C9A
S31508003930002806D1DFF87C19C148C14AD2F8B0215F
S31508003940904782220021DFF8700903F0EAF8BF48A1
S315080039500021C172DFF85C0700218170BB48002195
S315080039608175DFF8F40400210177B848B74991F862
S315080039702A10C176DFF8E004808A50F01000DFF8DC
S31508003980D814888201BD30B583B0DFF83009007DD0
S31508003990800640F15081FFF7EBFE00280ED0DFF8D5
S315080039A01C09818A21F020018182DFF81009808AAA
S315080039B050F01000DFF8041988823CE1A348407EE5
S315080039C0002800F00881A148407EA049897A8842EB
S315080039D000F001819D48C088DFF8E018497A3C224A
S315080039E0DFF8D8389B7A02FB0131884206D1DFF826
S315080039F0CC08818A21F0200181821CE193489349F1
S31508003A00497E8172DFF8B408407A3C21DFF8AC2899
S31508003A10927A01FB00208D49C8808C48807AFFF78E
S31508003A20C7FE0400894890F82A00E4B2A0421ED2D4
S31508003A30864890F82A00002801D0012000E01020CE
S31508003A408249897D0843814988757B48407C0028DE
S31508003A5040F0B8807D4890F82A307C48827ADFF8B2
S31508003A6060187748764DD5F8B051A847AAE0774848
S31508003A7090F82B00E4B2844208D0744880F82B40B2
S31508003A807248807D50F00200704988756F4890F83A
S31508003A902B006E4911EB400090F82D006B49C87257
S31508003AA06A48D0F8AC006949C97A01706748D0F805
S31508003AB0AC000078502802D140F6AC5009E06348C3
S31508003AC0D0F8AC000078512802D140F6A66000E094
S31508003AD000205E49D1F8AC1048805C48D0F8AC00AC
S31508003AE00078502802D140F6A66009E05748D0F879
S31508003AF0AC000078512802D140F6AC5000E0002016
S31508003B005249D1F8AC1088805048D0F8AC00DFF89C
S31508003B10AC17096C88474D48C07A532805D14648E2
S31508003B20807A14214843494948734348407C002811
S31508003B3016D1464890F82B0000904448D0F8AC00BF
S31508003B400378424890F82B00404911EB400090F862
S31508003B502C20DFF870173A48394DD5F8B051A847E8
S31508003B603A483A4991F82B108176384890F82B0054
S31508003B70401C364981F82B00344890F82B0033490D
S31508003B8091F82A1088421DD3304890F82A00002858
S31508003B9018D00020DFF82417C96A8847FFF7C5FE42
S31508003BA02A48807D50F0040028498875DFF800050A
S31508003BB001900C2000905A2300220221DFF8E40627
S31508003BC003F0C6FADFF8F406808A50F01000DFF832
S31508003BD0EC16888229E01D48C07A532814D11B4860
S31508003BE0C07D532810D00020DFF8D016C96A884750
S31508003BF0164800218175DFF8C406808A50F0100047
S31508003C00DFF8B816888210E00C22DFF89C16DFF879
S31508003C10A00402F087FF002807D0DFF8A006808AF4
S31508003C2050F01000DFF894168882DFF89006818A33
S31508003C3021F02001818237BD900D0020C88B010834
S31508003C40C40A0020D88B0108E88B0108580E00200A
S31508003C502DE9F84304000D00160000208046E4B262
S31508003C60EDB2281980B2402802D34046C0B2ECE033
S31508003C70DFF85406007A532804D00020DFF83C16F3
S31508003C80C96A884755EA0400C0B2002804D1FFF77C
S31508003C904CFE4046C0B2D8E0EDB22A00E4B221009C
S31508003CA0DFF8280603F0E3F92700FFB2EDB2E4B225
S31508003CB0601987421FDAFFB2DFF80C0610EB4700DF
S31508003CC0317880F82C10FFB2DFF8FC0510EB4700BE
S31508003CD0717880F82D1030787178081810EB08087C
S31508003CE073783278FFB23900DFF8E40503F0BFF9DC
S31508003CF07F1CB61CD9E7DFF8D00590F82A00EDB28C
S31508003D00E4B26119884204DA2819DFF8BC1581F88B
S31508003D102A00DFF8B405DFF8B01591F82A10C17645
S31508003D20DFF8A40590F82A00052880F08480E4B21C
S31508003D30002C40F08080002007008146DFF88805C7
S31508003D4090F82A00FFB287420CD2FFB2DFF8780556
S31508003D5010EB470090F82D00532801D119F10109FD
S31508003D607F1CEBE75FFA89F9B9F1010F63D1DFF838
S31508003D705805DFF8541591F82A108173DFF84805BD
S31508003D8090F82A0080B2420092B2DFF80815DFF8F0
S31508003D90440502F0C7FE00284DD0DFF82C0590F840
S31508003DA02A10DFF8340503F062F90A220021DFF849
S31508003DB0E40402F0B6FE00200700DFF80C0590F8D0
S31508003DC02A00FFB287422FD2FFB2DFF8FC0410EBBD
S31508003DD04700FFB2DFF8F01411EB470191F82C10F9
S31508003DE080F82010FFB2DFF8E00410EB4700FFB2BE
S31508003DF0DFF8D41411EB470191F82D1080F8211043
S31508003E00FFB2DFF8C40410EB470090F82120FFB298
S31508003E10DFF8B40410EB470090F82010DFF8BC0474
S31508003E2003F025F97F1CC8E70A22DFF868144FF467
S31508003E30805006F001FBDFF88404808A50F01000F9
S31508003E40DFF8781488824046C0B2BDE8F2830000E5
S31508003E50440F0020FC8B0108A4100020108C0108D8
S31508003E6080B5DFF83804807B022817D1DFF82C04E8
S31508003E70007C002810D1DFF824040121017406F023
S31508003E801DFBDFF838140883DFF83004808A50F009
S31508003E900200DFF828148882FFF7A4FCFFF773FDF9
S31508003EA0FFF766FC00284BD0DFF81C040069007990
S31508003EB0DFF814140969C97888421ED0DFF80804A7
S31508003EC00069DFF804140969C9780171DFF8F80395
S31508003ED00069C078032805D1DFF8EC03D0F8E000C4
S31508003EE080470AE0DFF8E0030069C078022804D1B9
S31508003EF0DFF8D403D0F8DC008047DFF8CC0300698C
S31508003F00C07801281CD1DFF8C00300694089401C2D
S31508003F10DFF8B41309694881DFF8AC030069408902
S31508003F20DFF8A41309690989884209D3DFF89803D9
S31508003F30D0F8E4008047DFF890030069002141814A
S31508003F4001BD80B5FFF714FC002819D0DFF89003EF
S31508003F500068C00707D4DFF88C0390F83B00C0B2AE
S31508003F604000C0B20DE0DFF878030068C00607D449
S31508003F70DFF8700390F83B004000401CC0B200E038
S31508003F80002002BD0CB0004034100020208C01082F
S31508003F90388C0108508C010838B5DFF82C030088E6
S31508003FA0401CDFF824130880BC48807B022821D1F6
S31508003FB0DFF834030068401CDFF82C130860B948A2
S31508003FC003F0A6F8002815D1DFF81C0300684FF4A3
S31508003FD04871B0FBF1F201FB120000280AD1B14882
S31508003FE003F0A0F80400A31DA27800216078AB4D69
S31508003FF02D6DA847FFF7BCFB002834D0B2480088CF
S315080040004FF48071884251D3FFF79BFF0400AE48F6
S31508004010407AE4B2844220D1E4B2002C1DD0AA48EA
S3150800402000698471A84800690121C171AD48407CC6
S31508004030002808D1A44800698279AC49AC48AC4B41
S31508004040D3F8B03198479D48808A50F040009B4984
S3150800405088829D480021417201E09B4844729A4833
S315080040600021018022E0FFF793FB00281ED0964826
S31508004070008895494988884207D39348D0F8D800DC
S31508004080804704009048002101808C48C06832218E
S31508004090B0FBF1F201FB1200002807D13E480400EC
S315080040A006F042FAA080934800F09CF831BD000063
S315080040B0BE1000200810002014100020213200082D
S315080040C0C53200084D330008D330000853310008C4
S315080040D09D310008C3310008E93100081B34000887
S315080040E07810002080B57548407A7E49897A90FB19
S315080040F0F1F201FB1200002838D17048807C6F4924
S31508004100497A884232D06D486C49497A8174634845
S31508004110807B02282AD1FFF73BFB002826D0674878
S31508004120007DC00605D46548808A50F010006349B2
S315080041308882654890F82A00002817D06248007AD5
S31508004140532813D0144908005F4991F82B105E4A8A
S3150800415012EB410191F82D1001705B4991F82B1073
S31508004160594A12EB410191F82C1081705648C07AD1
S31508004170532809D15448407B002805D05248407B33
S31508004180401E5149487306E04F48407B002802D03C
S315080041904D480021417301BD381000200278CA70CD
S315080041A042780A710A79002A05D08A7852F00802FC
S315080041B08A70D2B204E08A7812F0F7028A70D2B214
S315080041C082784A71C279037A52EA03224A813E4AC0
S315080041D092F82B208A713C4A92F82A20CA717047B5
S315080041E0608C010810B50400FFF7D2FA002808D041
S315080041F06078052805D3A079002802D02079002800
S3150800420000D146E030488088401C2F498880607974
S31508004210002809D138484079A179884204D136481E
S31508004220C078217988421ED03349201DFFF7B6FF92
S315080042300C2231491C4802F031FC2F48C07854281A
S315080042400AD100201D49896A88471F48C07A532821
S3150800425002D11D485421C1721848808A50F02000A6
S315080042601649888215E018488088802811D3224983
S31508004270201DFFF793FF0C221F490B4802F00EFC86
S315080042800E48808A50F010000C4988820E4800219A
S31508004290818010BD780E0020788C0108E80D00207A
S315080042A0908C0108EC0C00206C0E0020CC8C0108C8
S315080042B0E08C0108048D0108820E0020A41000205D
S315080042C02C8D01085C8D0108580E0020808D010890
S315080042D0A08D0108840E0020C88D0108F08D010804
S315080042E008B00040900D002080100020FC8D0108C9
S315080042F0C40A0020341000200810002038B5344CB9
S3150800430040F20730206072B6324801684908490011
S3150800431001603148112101606069800620D4606916
S31508004320C00601D52D4805E02D4803E04FF0CD31F4
S3150800433040F8041B2B498842F8D32B482B492C4AB2
S3150800434000F07EF82B482C49002200F073F82B4821
S315080043502B4900F06FF82B482B492C4A00F070F8CF
S315080043602B4D2C4868604FF0784068612A48A86150
S315080043702A48E8612A482B4901604FF0803141609C
S315080043808160C160E02101612748A860102028618A
S315080043904FF4E020286206F0D7F86069800608D551
S315080043A0224800210170286840F08050286006F0F5
S315080043B007F905F0F9F900F04FF862B6FDF770FB5A
S315080043C007B5D4211A48BDE8344000F057BD00BFF0
S315080043D018000040FCED00E000800040940000203A
S315080043E000000020580700206C9501085807002097
S315080043F0BC0A0020BC0A00208B1400208C14002064
S31508004400A0190020000000000000000000000000C5
S3150800441004ED00E000010008F8F8F88080F8408014
S3150800442000E400E0808040800004FA053C1100208A
S315080044302C8E010801E040F8042B8842FBD3704714
S3150800444003E050F8043B41F8043B9142F9D3704726
S3150800445080F3118870470000EFF31180602181F323
S3150800446011887047EFF311806028D4BF012000201F
S3150800447070470000002181F31188704710B500F0DD
S3150800448015F81040C84010BD10B500F00FF8D44319
S3150800449020401140084380B2D860022018600020EE
S315080044A0186058680028FCD110BD0000064B5C68EF
S315080044B0002CFCD19860012018600020186058680C
S315080044C00028FCD118697047E81000402B490A6893
S315080044D0920992010A600A6810430860DFF8C4036B
S315080044E04FF40041016000210160642005F036B9EF
S315080044F02DE9F0478046DFF8A45628681FFA80FAA7
S31508004500286840F4004028601C4E306820F480502B
S315080045103060DFF84C98DFF85848607860B1E0788A
S31508004520A17809EB810111F82A1C401A09EB8801C8
S3150800453011F82A1C081804E020270120607001E001
S31508004540781C87B23846FFF7C1FF306B042804D0C1
S31508004550306B4007F4D4781EF3E7F06A30B184F87C
S315080045600280E770C5F800A0BDE8F08707B540F2FD
S31508004570F31109F1400000F081FCE6E7D010004095
S3150800458010B504464FF47872610189B21020FFF71E
S315080045907BFF1F2221461020BDE8104074E700006B
S315080045A02DE9F04F85B083469BF800004FF67F72E1
S315080045B002EA0004012202FA01F1ADF80010000631
S315080045C003D400F06BF808425CD0314D286880B2FD
S315080045D00490686880B20390DFF8B880D8F80000C5
S315080045E080B202902C4F386880B2019048F2800061
S315080045F028600220686048F2D000C8F8000002204F
S315080046003860002405260120711E88401FFA80F9AB
S3150800461049EA0404A0B2FFF7B3FF00F0A3FB7868E9
S315080046201FFA80FABAF1C00F02DB24EA0904A4B221
S31508004630701E86B2012EE6DA1F2C12DA661CB0B29C
S31508004640FFF79EFF00F08EFB7868C0384EF6FF71C4
S315080046500840AAF1C0014EF6FF721140884200D206
S31508004660B4B204982860039868600298C8F80000F5
S31508004670019838608BF8004000F010F88843DFF89E
S31508004680F016C880A0B205B0BDE8F04F78E700BFC5
S315080046900C1100404410004010400040DFF8D006DE
S315080046A0C088BDF8001070473F22410089B220201B
S315080046B0EAE62DE9F34F97B0DFF89C57DFF8B00626
S315080046C00079002814BF686A286980B20390179891
S315080046D000784FF67F7101EA000418990978039B60
S315080046E05B1C8B4203DB039B5B1E994201DA0121AB
S315080046F000E00021012303FA02F2ADF80A200006C1
S3150800470009D4DFF86C060089BDF80A20104202D1E8
S31508004710002900F0BE80E86C80B20690286880B256
S315080047200590604EF06A80B204904FF6FF72002141
S315080047301120FFF7A3FE83464FF6FF720021A02043
S31508004740FFF79CFE82464FF4004028600020306147
S31508004750706148F2020000F0B9F84CF68C30E86453
S3150800476048F2F000F0624FF4805211461120FFF72C
S315080047708BFE4FF6FF72002100F012FA00F0ABF83C
S3150800478002A900F09BF900F0ADF800F095F94CF697
S315080047909C30E8640020FFF787FF0020009006237E
S315080047A01A46C02106F0E0F80024A0B2FFF77CFF05
S315080047B000F091F807A800EB440100F07FF9641CAB
S315080047C0202CF2DB01A900F079F91020FFF76CFF25
S315080047D000F088F801A900F071F9BDF80400BDF8E9
S315080047E00610401ABDF83C10BDF808208C1A404344
S315080047F004FB04084FF01009112700F055F800F0E3
S3150800480071F801A900F05AF900F056F804DB804661
S31508004810B9467F1C202FF0DB1FFA89F9B9F1100F72
S3150800482010D10F2700F040F800F05CF801A900F05D
S3150800483045F900F041F805DB8046B9467F1E3FB2D0
S31508004840002FEFD54FEA4904A4B20698E864059804
S3150800485028600498F0624FF6FF7259461120FFF758
S3150800486013FE4FF6FF72514600F09AF901203061A7
S31508004870002000F02BF81798047018980399017017
S31508004880DFF8EC040089BDF80A108843DFF8E01465
S3150800489008813F2221462020FFF7F6FD19B0BDE822
S315080048A0F08F00001810004007A830F81700BDF870
S315080048B00810441AB8B2F7E6BDF80400BDF80610A9
S315080048C0401A404304FB040040457047306040F2FC
S315080048D04C4004F043BF0020009006230622C02166
S315080048E006F042B80020009006230722C02106F0F1
S315080048F03BB800000C48DFF87C158A780AB149787D
S315080049000FE089566FF00802914201DA302108E07B
S31508004910C16D39B140F24A31C26DB1FBF2F189B2CB
S31508004920C91E0160704700BF6410004000B587B01B
S315080049300A237F224148018803A804F053FDBDF8E5
S3150800494012104FF6FF72914273D1DFF8280580895D
S3150800495000F0D6F84FF47C624FF40071C020FFF7E0
S3150800496093FD0323892200F074F801A900F06CF87E
S3150800497000F06DF80DF1020100F066F8BDF80200CE
S3150800498000F05EF8ADF802000323B92200F061F8E2
S3150800499002A900F059F8BDF8080000F051F8ADF882
S315080049A008004FF47C624FF46061C020FFF76CFD8D
S315080049B000F04DF800A900F047F8BDF8000000F037
S315080049C03FF8ADF800000323B92200F042F80DF1D4
S315080049D0060100F039F8BDF8060000F031F8ADF828
S315080049E00600BDF80600BDF80010490801EB0040B6
S315080049F0BDF80010B0FBF1F080B2BDF80810BDF8A4
S31508004A000220520802EB0141BDF80220B1FBF2F187
S31508004A10411A89B24FF47C62A0F5404001EBD1738C
S31508004A205B1003EB0010B0FBF1F0083800F03F0014
S31508004A308101C020FFF728FD07B000BD4A9501088F
S31508004A40BDF80410401A70470020FBF7B5BC0323D5
S31508004A50A922C0210020FBF71CBC7CB500F046F853
S31508004A600020009002230322002105F07DFF00F0BC
S31508004A7023F8BDF8064000200090022301220146D3
S31508004A8005F072FF00F018F8BDF8065000200090F7
S31508004A9002230246014605F067FF00F00DF8BDF84F
S31508004AA0066005F08BFF00F019F80EBF4FF4E160C1
S31508004AB00A2190FBF1F004E00DF10601002005F053
S31508004AC06DBFADF80400301B0004291BB0FBF1F0E4
S31508004AD0BDF8041048434000000C76BDBDF804003C
S31508004AE04FF6FF71884270470000000002237F22BC
S31508004AF00248018801A804F075BC00BF4E9501085C
S31508004B002DE9F04182B00546DFF86843B5F5004F58
S31508004B100FD102237F221F4800F0A0F9BDF800003C
S31508004B20000AFF2800D000B918206070BDF8000000
S31508004B30C54305F0010805F00200470808EB4800E0
S31508004B40154946184FF4F852B0780102E020FFF7ED
S31508004B509BFC1248016841F4004101604FF4405241
S31508004B607078010389B22020FFF78EFC404605F0D5
S31508004B708FFF4022B90100F013F817B915F00400A9
S31508004B8000D00120A070FFF7B5FEA5810020BDE882
S31508004B90F68100BF50950108A88E01081C10004038
S31508004BA0A02071E4B3488089704710B57048007832
S31508004BB06A490A880123A0F10B04A3401A430A8014
S31508004BC0BDE8104000E000002DE9F04F83B08046B4
S31508004BD0A8F10B04A4B206F009FB8246B8F10B0F44
S31508004BE002D3B8F11B0F02D38A20BDE8FE8F564EBA
S31508004BF0B068000702D43068C00701D58C20F4E7F6
S31508004C005B4D85F80080514F38680C2801D100208B
S31508004C10EBE7287938B9786A40F400507862786A00
S31508004C2020F4805078624A480078012801D106F0BD
S31508004C30A5FA4848D0F8009047484FF4E06101606B
S31508004C40306A20F0020030620423E2B2002100A894
S31508004C5004F0C8FB9DF800008DF807009DF80100D8
S31508004C608DF806009DF802008DF805009DF80300F2
S31508004C708DF804003A4830F82400F86148F2607B61
S31508004C802879B8B1C7F824B0306A400840003062C5
S31508004C90012004F063FD306A40F00100306200F044
S31508004CA061F8786A20F480507862786A40F4005097
S31508004CB0786202E04046FFF71BFC21460DF1010031
S31508004CC006F0A6F821460DF10200FFF769FC224618
S31508004CD000A90DF10300FFF7ECFC9DF800009DF814
S31508004CE00710884211D19DF801009DF806108842E8
S31508004CF00BD19DF802009DF80510884205D19DF854
S31508004D0003009DF80410884205D0042300AAE1B2E6
S31508004D10002004F0B9FB09F4E0600E49086005F0CC
S31508004D2057FC306A40F002003062287918B1C7F89B
S31508004D3024B000F017F805F041FEBAF1010F01D1D1
S31508004D4006F0ECF963E700BF60200040AC100040B5
S31508004D50B40A002000E100E080E100E050140020E1
S31508004D603C8E0108642004F0F9BC014800787047BD
S31508004D706C0A00202DE9F04186B006466FF02A003D
S31508004D80864201DA8B205DE014237F222F4800F04B
S31508004D9065F8BDF810004FF6FF71884204D00E2161
S31508004DA0084201D0012506E03F220021F020FFF746
S31508004DB065FB0446002528482E49042E0FDA0022F2
S31508004DC0234B01E0521CD2B2D756B742FADB026037
S31508004DD00F700020002607464FF003080EE0092E44
S31508004DE0D0DA725C02600E7014237F22194800F034
S31508004DF035F80320012601274FF0280825B14FF67C
S31508004E00BF72BDF8101018E04FF46052C10200F0EE
S31508004E1029F84FF4E062310200F024F88022F90103
S31508004E2000F020F884F0200008EB0004A4B2402C1F
S31508004E3000DB3F243F2284F02001FFF7B1FEFFF795
S31508004E4059FD002006B0BDE8F08100BF469501086F
S31508004E50888E010848950108C0100040018800A8FE
S31508004E6004F0C0BA89B2A020FFF70EBB014890F93A
S31508004E70000070479808002042DE704738B504469F
S31508004E800D46FCF763FEFFF7E7FA2A462146DFF8E8
S31508004E90E40102F0ECF829462046BDE83440EBE789
S31508004EA02DE9F8434FF42068DFF8CC110868DFF8DD
S31508004EB0CC61371D38650A6A7A65DFF8C42112683D
S31508004EC0BA654A6AFA658A6A3A66CA6A7A660A6B85
S31508004ED0BA66896BF96697F8341049074CBFFD6BBB
S31508004EE0BD6B40F2FF14DFF89C91DFF89C219542D8
S31508004EF027D3A94525D305F2180555F8041B3964A7
S31508004F0055F8041B7964204006281DD1386C0088A2
S31508004F104DF64261884217D106F2880071684160F1
S31508004F207968816055F8040B706055F8040B786051
S31508004F3055F8040BB86055F8040B786340F201780D
S31508004F4002E000203864786400F082F8B864002033
S31508004F50F864002206EB80014A67401C0628F9DB44
S31508004F60386C00283DD00020DFF82021DFF82031FA
S31508004F7003E006EB800CCCF87410A9452CD359F83D
S31508004F80041D9942F9D39142F7D25FEAC17CF4D560
S31508004F904FF0000C06EB8C0EDEF874E08E4504D05C
S31508004FA00CF1010CBCF1060FF4DBBCF1060FE4D1E1
S31508004FB000281ABF401EC0B20520DAE7396F4FF045
S31508004FC0000C06EB8C02936F53670CF1010CBCF1D5
S31508004FD0050FF6DBC6F888100146481EC0B2002940
S31508004FE0ECD1386D204002280AD0032816D00428B0
S31508004FF017D0052818D0062819D00C281DD01FE070
S31508005000DFF890000168890748BF40F602181CD4EB
S315080050100068C00719D540F2025816E040F6012884
S3150800502013E040F6022810E040F603280DE0B8F534
S31508005030206F0AD140F6042807E040F6052804E068
S3150800504018B1212838BF40F607284046BDE8F28344
S3150800505011480068C00654BF0B48104800E0001D00
S31508005060084A904203D20368B3F1CD3FF7D0101A2D
S3150800507070470000B08E010804ED00E00000002033
S3150800508000E300E058070020000000209A7C010891
S31508005090840100081CA000402C0000409400002059
S315080050A0F8B50C461646C088000422D50027BC4D24
S315080050B0781901798C4219D1AEB9FF2101712046C0
S315080050C000F0E7F9E878401EE870C0B2002808D179
S315080050D0A878B24909780818A87000F00CF800F00A
S315080050E044F80120F2BD304600F03FF87F1C0A2F35
S315080050F0DEDB0020F2BD70B5A94CA678A74D04E00A
S31508005100E078401CE070761CF6B2A078301A297850
S315080051108842BCBF607886420FDA06F0FF0101EBD1
S31508005120002020833019037904F11002A18B20781E
S3150800513003F0F4F90028E3D070BDE078002804D124
S31508005140FF2020700020FBF7C6F9002070BD38B597
S3150800515004460025285DFF2803D0FF21295500F0C5
S3150800516098F96D1C0A2DF5DB31BD38B504000BD056
S315080051708B4D2878FF2807D0281DFFF7E8FFFF206A
S3150800518028702046FBF7A7F931BD10B5834800788B
S315080051900146844A137994780419A342BCBF93FB49
S315080051A0F0F100FB113101208840401EC043D07049
S315080051B010BD2DE9F84F07468A46F888000402D440
S315080051C00020BDE8F28F97F808900325764C754EB7
S315080051D0308B4FF6FF71884217D1704800788145A9
S315080051E013DA03F05FFE3083B87A70700020B0706F
S315080051F07071FF203071FFF7C8FF0A22FF2106F100
S31508005200080001F0E7FC00F0ACF803F04BFE318B28
S31508005210884203D1B87A7178884201D00120D0E754
S31508005220F078FF280BD1B0785C4909780A189145BF
S3150800523005DB0818B070FFF7A8FF00F092F857488A
S3150800524000780146B2788A189145E7DA4FF00108E6
S3150800525099FBF1F201FB129108FA01F1CCB2F1784F
S3150800526021404D1EAD41ED0F31780C4204BF44EA92
S3150800527001003070D2D0B9F1000F0AD13989090A74
S3150800528031718B46834538BFFFF77FFFBBF10B0FA4
S3150800529064D2F0782043F07009EB06043DB17079CA
S315080052A0401C707184F808A0504600F0E5F8F078C4
S315080052B03179491E89450BD03849097899FBF1F2AD
S315080052C001FB129108FA01F1491E0143FF2909D190
S315080052D0B17801EB002080B203F054FBFF217888F7
S315080052E003F079FB70793179884297D1504600F0FE
S315080052F072FA4FF00009FF2830D02072504600F0AD
S31508005300C8F80021504600F014FA4F461FE007EB94
S31508005310060898F8084020480068255C05EB090B44
S315080053205FFA8BF1504600F004FAB8B900950023ED
S3150800533022464946504600F0DCFA5FFA8BF92046C9
S3150800534000F0A7F8FF2088F808007F1CFFB2307924
S315080053508742DCDB4FF6FF70308331E700F009F84F
S315080053605CE7208805FB00F189B206F1140012F00B
S31508005370EFB938B50B4C002020754FF6FF75208B1A
S31508005380A84204D004F10800FFF7E1FE258331BDE9
S31508005390064812F0FCB9000018090020A00A0020EF
S315080053A0C4080020A8080020760A0020C48E010838
S315080053B00249096801EB4010704700BF1409002034
S315080053C0DFF8542412688154704700002DE9F04133
S315080053D0040001D1FF204BE0FFF73EF8DFF8881301
S315080053E0FF22454DDFF8D0341E78FE2E1CD100264C
S315080053F01E70204E37782F700027DFF8F4C509E0B5
S3150800540007F1010E07F808E0DCF8008007F8082025
S315080054105FFA8EF796F800E0D1F800807745EFDB63
S315080054200EEB080606F8012C2E78A64202D2FFF7E4
S315080054300FF8CFE7361B2E701D78454E1F78D6F825
S3150800544000C04FF0010E07F80CE0D1F800C017F8BD
S315080054500CE083F800E0641EE4B2002CEED107F8F5
S315080054600C2000F0D2F800226A54FEF7F1FF284615
S31508005470BDE8F081950A002010B50446FEF7ECFF5A
S3150800548033490968625C521C6254BDE81040FEF755
S31508005490DFBF2DE9F041054600F030F88046FEF7FB
S315080054A0DBFFDFF81414144AAF4B294E00E06546BB
S315080054B0FF2D1DD03768EC5D641EEC55376815F86E
S315080054C007C07F241CEA040F12D11C6815F804C013
S315080054D00024EC5517787F1C17701F680C78EC555C
S315080054E00D70BCF1FF0FE2D145464FF0FF08DFE72C
S315080054F0BDE8F041FEF7ACBF960A002080B5144916
S315080055000968415C090603D5FFF752FF007802BD1A
S31508005510FF2002BDB0B505460C46FFF7EFFFFF2892
S3150800552001D0FFF7B6FF0A4FFF2C04D13868295C73
