S00E000076656869636C652E73333706
S3150800000058070020FD420008254D0108274D010824
S31508000010A70B0000000000000000FFFF3C000008DE
S3150800002004070300000000000000000000000000B4
S315080000300000000000000000000000005807002033
S31508000040FD420008254D0108274D0108A70A0401AD
S31508000050000100080407039C32400000000000006D
S315080000600000000000000000000000000000000082
S315080000700000000000000000000000000000000072
S3150800008000000000FFFFFFFFFFFFFFFFFFFFFFFF6E
S3150800009000E00108FFFFFFFFFFFFFFFFFFFFFFFF75
S315080000A0FFFFFFFFFFFFFFFFFFFFFFFFFFFFFFFF52
S315080000B0FFFFFFFFFFFFFFFFFFFFFFFFE01F00201F
S315080000C000000000A01900208B140020580700200B
S30D080000D0DE980108967C010880
S3150800010058070020FD420008254D0108274D010823
S315080001102B4D0108294D01082D4D0108743C010895
S31508000120743C0108743C0108743C0108743C0108DD
S315080001302F4D0108743C010885A50008743C010888
S31508000140743C0108743C0108B1960008743C010827
S3150800015019390108B7990008743C0108743C01086C
S315080001602532010865AF0008ADA80008850100081A
S31508000170743C0108743C010887980008E598000853
S31508000180D1330108DFF87C024FF6FF710160704732
S3150800019038B504F061F90500DFF86C02007800282C
S315080001A030D0DFF868020068C0072BD400200400AE
S315080001B0E4B2022C28D20120A040DFF84C120978BC
S315080001C008421DD0DFF848020470DFF83C020078C8
S315080001D00121A1404840DFF830120870E4B2DFF888
S315080001E0340230F81400DFF824120860DFF814022D
S315080001F04FF6FF710160DFF820024FF400610160DD
S31508000200641CD5E7022004002800C0B204F020F9D7
S315080002102000C0B232BD80B5DFF8EC0100210170C4
S31508000220DFF8EC0102210170DFF8F001002101700E
S31508000230DFF8CC0105210180DFF8E4010021017017
S31508000240DFF8C80100210160DFF8D801002101604C
S31508000250DFF8D4014FF400410160DFF8D001102126
S315080002600160DFF8CC01DFF8CC110160DFF8C801C6
S3150800027001210160DFF8B4010321016061484FF6EE
S31508000280FF710160DFF8B4010021016004F04EFB44
S3150800029001BD2DE9F04104000D0016001F00EDB266
S315080002A0C02D01D0012030E0FFB2F6B2F00050EACE
S315080002B04730534909880843E4B2564921F81400DF
S315080002C0514800780121A140084201D082201CE053
S315080002D004F0C2F880464C4800780121A140084342
S315080002E0494908704E4800780121A14088434C4985
S315080002F008704046C0B204F0ABF8FFF749FFE4B215
S31508000300A04201D1812000E08220BDE8F0812DE9DC
S31508000310F04104000D0004F0A5F800280BD13E4872
S315080003200068000507D545480068400701D401273D
S3150800033000E0002700E0012704F08EF88046FFB2AF
S31508000340002F09D034480068000505D53B480068E9
S31508000350400701D5FFF716FF0120A040304909786C
S3150800036008420ED0E4B2364830F8140028802C48EB
S3150800037000780121A14048402949087080200600DC
S3150800038012E0214800780121A140084202D08220CB
S31508000390060009E01E480078E4B2A04202D1812096
S315080003A0060001E0842006004046C0B204F050F87A
S315080003B03000C0B2BDE8F08170B504000D0001F050
S315080003C0B3FB29002000C0B2FFF7A1FF0600F6B272
S315080003D0842E02D0F6B2802EF1D13000C0B270BDA4
S315080003E080B5FFF718FF00210D2001F0A2FB0021C0
S315080003F00E2001F09EFB00210F2001F09AFB01BDA3
S315080004004614002010A800405E14002004D00040C6
S315080004105F140020C00A002000E100E061140020FB
S315080004206014002008D000400CD0004010D00040D6
S3150800043018D00040441400201CD0004050A80040AA
S31508000440BC0A00202DE9F04104000D00160068885A
S315080004503B2811D100213000C0B205F087F907000A
S315080004603100C9B2280004F0A4FE80465FFA88F875
S31508000470B8F1000F08D107E03200D2B229002000F7
S31508000480C0B21A4BDB6B9847BDE8F0812DE9F04105
S3150800049082B005000E0017009846089C78883B280D
S315080004A009D12200D2B24146C9B2380004F0F8FD9B
S315080004B000280ED10DE0E4B200944346DBB23A00C0
S315080004C0310089B22800C0B2DFF820C0DCF840C08D
S315080004D0E047BDE8F3817047704710B50400200077
S315080004E0C0B20249496C884710BD7047E80D002024
S315080004F070477047C0B2002829D0022829D027D3D0
S31508000500042828D026D3062827D025D3082826D07D
S3150800051024D30A2825D023D30C2824D022D30E2866
S3150800052023D021D3102822D020D3122821D01FD39C
S31508000530142820D01ED316281FD01DD318281ED045
S315080005401CD31A281DD01BD31B281BD01AE019E070
S3150800055018E017E016E015E014E013E012E011E0E9
S3150800056010E00FE00EE00DE00CE00BE00AE009E019
S3150800057008E007E006E005E004E003E002E001E049
S3150800058000E0FFE77047000080B5DFF85C09407CB3
S31508000590002808D1DFF86019DFF85009DFF84C2980
S315080005A0D2F8B0219047DFF84009407C002808D1EE
S315080005B0DFF84C19DFF83409DFF83029D2F8B02112
S315080005C09047DFF82409407C002808D1DFF8341961
S315080005D0DFF81809DFF81429D2F8B0219047DFF8B8
S315080005E00809407C002808D1DFF81C19DFF8FC0848
S315080005F0DFF8F828D2F8B0219047DFF8EC08407CFD
S31508000600002808D1DFF80419DFF8E008DFF8DC284D
S31508000610D2F8B0219047DFF8D008407C002808D1EE
S31508000620DFF8EC18DFF8C408DFF8C028D2F8B021E4
S315080006309047DFF8B408407C002808D1DFF8D418C2
S31508000640DFF8A808DFF8A428D2F8B0219047DFF829
S315080006509808407C002808D1DFF8BC18DFF88C0819
S31508000660DFF88828D2F8B0219047DFF87C08407C6C
S31508000670002808D1DFF8A418DFF87008DFF86C281E
S31508000680D2F8B0219047DFF86008407C002808D1EE
S31508000690DFF88C18DFF85408DFF85028D2F8B021B4
S315080006A09047DFF84408407C002808D1DFF8741822
S315080006B0DFF83808DFF83428D2F8B021904701BDB2
S315080006C038B50400DFF82C08407A00283FD1DFF857
S315080006D0240801214172DFF81C08007A002809D095
S315080006E0DFF810080021017260220021DFF83808BF
S315080006F006F017FADFF8FC07007ADFF8F817401853
S3150800070080F8D040DFF8EC07007A401CDFF8E417E1
S315080007100872E4B20A2C02D0E4B20D2C03D1DFF839
S31508000720D40700214172DFF8C007407C002840F05A
S315080007308E80E4B22300DFF8F427DFF8F417DFF839
S31508000740AC07DFF8A857D5F8B051A8477FE0DFF81F
S31508000750A407407A01287AD1E4B20A2C02D0E4B27E
S315080007600D2C2BD1DFF88C07007A002813D0DFF880
S315080007707807407C002807D1A3A1DFF87007DFF8C7
S315080007806C27D2F8B0219047DFF86807017ADFF8BE
S31508000790980706F0DAFBDFF85007407C002808D1F6
S315080007A0DFF89017DFF84407DFF84027D2F8B021C2
S315080007B09047DFF840070021417248E0DFF8280734
S315080007C0407C002809D1E4B2220090A1DFF81C077A
S315080007D0DFF81837D3F8B0319847DFF81807007AEA
S315080007E0DFF81017401880F8D040DFF80807007ABD
S315080007F0401CDFF800170872DFF8F806007A602850
S3150800080025D3DFF8E406407C002807D17EA1DFF86F
S31508000810DC06DFF8D826D2F8B0219047DFF8D406F0
S31508000820017ADFF8040706F090FBDFF8BC06407C87
S31508000830002808D1DFF8FC16DFF8B006DFF8AC268A
S31508000840D2F8B0219047DFF8AC060021417231BDDD
S3150800085038B504002078532838D054280ED05628A6
S3150800086077D0572800F0AF80592856D05A2819D083
S315080008705E283FD0ED2800F0C380C4E0DFF86806A4
S31508000880407C002808D1DFF8B016DFF86006DFF8EC
S315080008905C26D2F8B02190470020DFF8A016896AB6
S315080008A08847B0E0DFF84006407C002808D1DFF82A
S315080008B09016DFF83806DFF83426D2F8B0219047CC
S315080008C0DFF88006D0F8E00080479CE0DFF81806DD
S315080008D0407C002808D1DFF87016DFF81006DFF82C
S315080008E00C26D2F8B02190470020DFF85016C96AC6
S315080008F0884788E0DFF8F005407C002809D162794E
S31508000900DFF84816DFF8E405DFF8E035D3F8B0314C
S315080009109847607906F00EFA75E0201D0500287ADA
S31508000920012815D3287ADFF8C015898880B288424D
S315080009300ED260780A280BD1DFF8AC05297A80F840
S315080009403A10DFF8A405697A80F83B1006F0CEF96C
S3150800095059E0201D0500A87ADFF88C1591F84E108D
S31508000960884205D12868DFF88015496C884229D065
S31508000970A87ADFF8741591F84E10884207D0A87A3D
S31508000980112804D2012095F90A10884028602B689E
S31508000990AA7ADFF8540590F83B10DFF84C05C07AC0
S315080009A006F036F9DFF84005407C002808D1DFF864
S315080009B0A015DFF83805DFF83425D2F8B0219047BE
S315080009C001F063F91FE0201D05002888FA2816D2D1
S315080009D0A879012813D3A879512810D2E8790128D3
S315080009E00DD3E87904280AD260780E2807D10E229A
S315080009F02900DFF8600506F051F806F077F902E0FD
S31508000A00200003F0EFFB31BD0A0D0000256300004E
S31508000A10F0B595B004000D00022C02DA01F078FF5B
S31508000A205EE2686800783F2804D1022C02D1FFF7FD
S31508000A30ABFD55E2DFF820252900200006F056FA1E
S31508000A4006005FF0FF3140B2884200F0498276B274
S31508000A50002EEFD0DFF89C04C0680028EAD076B2F2
S31508000A603000612800F08780622800F00082632841
S31508000A7000F05B816A285BD06B2800F074816C28D3
S31508000A8000F0EF806E2808D0722800F0BC80742829
S31508000A902AD0782800F093801FE202AACBA1DFF8BB
S31508000AA05404C06814F05CFA0298DFF83C1489888C
S31508000AB08842BFDADFF83004029980F83A105920E4
S31508000AC08DF80C00DFF82004C088ADF80E000A2067
S31508000AD08DF80D000A22DFF8841404A805F0DEFF5D
S31508000AE003A8FFF7B5FEA5E702AAB8A1DFF8040434
S31508000AF0C06814F035FA029810289BDBDFF8E80383
S31508000B00029980F83B1059208DF80C00DFF8D803BD
S31508000B10C088ADF80E000A208DF80D000A22DFF80D
S31508000B203C1404A805F0BAFF03A8FFF791FE81E775
S31508000B3002AAA6A1DFF8BC03C06814F011FA02984D
S31508000B401028BFF677AF5E208DF80C00DFF8980303
S31508000B50C088ADF80E0001208DF80D00DFF8880377
S31508000B6090F83A008DF8100002988DF8110003A845
S31508000B70FFF76EFE5EE702AA94A1DFF87803C06865
S31508000B8014F0EEF902980428BFF654AFDFF85803BC
S31508000B900299C17257208DF80C00DFF84C03C08803
S31508000BA0ADF80E000E208DF80D000E22DFF8A41306
S31508000BB004A805F073FF03A8FFF74AFE3AE702AA5E
S31508000BC082A1DFF83003C06814F0CAF90298FB283E
S31508000BD0BFF630AFDFF810030299818057208DF8F1
S31508000BE00C00DFF80403C088ADF80E000E208DF85F
S31508000BF00D000E22DFF85C1304A805F04FFF03A8CA
S31508000C00FFF726FE16E702AA70A1DFF8E802C06819
S31508000C1014F0A6F9DFF848030078002803D0DFF8B7
S31508000C20440306F024FAB048407C002801D000208E
S31508000C3000E00120AC494874AB48407C002801D04C
S31508000C40002000E00120DFF818130870DFF8100311
S31508000C50007800283FF4EEAEDFF80C0306F007FA3A
S31508000C60E8E602AA59A1A348C06814F079F9B5487C
S31508000C7090F82A0000280CD19B48407C00287FF475
S31508000C80D9AEDFF8E8129948984AD2F8B0219047C9
S31508000C90D0E69548407C002808D1AA4890F82A2032
S31508000CA0B3499248914BD3F8B031984700200700D2
S31508000CB0A44890F82A00FFB2874211D28A48407C9D
S31508000CC000280BD1FFB29F4810EB470090F82C2064
S31508000CD0A8498648854BD3F8B03198477F1CE7E783
S31508000CE08148407C002805D181A180487F4AD2F8F6
S31508000CF0B021904700200700924890F82A00FFB2DA
S31508000D008742BFF497AE7848407C00280BD1FFB2E3
S31508000D108C4810EB470090F82D2096497348734B82
S31508000D20D3F8B03198477F1CE6E7934802F01EF8DF
S31508000D3002F02EFD00283FF47DAE8248407A002856
S31508000D403FF478AE6848407C00287FF473AE7D484F
S31508000D50437A654890F83A2088496448634FD7F83B
S31508000D60B071B84766E602AA18A16248C06814F0CE
S31508000D70F7F802F0FDFC00282AD05B48407C0028E2
S31508000D8009D1402000902023029A7D495748574FA1
S31508000D90D7F8B071B84702982028FFF64BAE0298EC
S31508000DA04028BFF647AE67480069029981716348D3
S31508000DB0808A50F0400061498882624800690021B3
S31508000DC0C1716D4801F0D2FF34E600BF256400000A
S31508000DD05C4890F82A0000283DD04348407C00280B
S31508000DE019D1584890F82B000090564890F82B00D7
S31508000DF0544911EB400090F82D30524890F82B00DA
S31508000E00504911EB400090F82C205E493748374F7F
S31508000E10D7F8B071B8474B4890F82B00494911EB01
S31508000E20400090F82C0047494876464890F82B0031
S31508000E30401C444981F82B00424890F82B00414950
S31508000E4091F82A108842FFF4F5AD822200214E4817
S31508000E5005F067FEEEE52448407C00287FF4EAADFD
S31508000E604A492248214AD2F8B0219047E2E502AA27
S31508000E7022A12048C06814F073F80298002802D00E
S31508000E8004280FD028E01848407C002805D140499E
S31508000E901648164AD2F8B021904701F0C5FC00F072
S31508000EA0F4FE19E01048407C002805D139490F485E
S31508000EB00E4AD2F8B02190472248807D50F00400AF
S31508000EC020498875344801900C2000905A23002246
S31508000ED00221044806F03CF9ACE5FFF755FBFFE7AD
S31508000EE015B0F0BDEC0C0020900D0020C40A0020BF
S31508000EF00D0A000058070020107D0108256400002F
S31508000F003C7D0108607D0108847D0108A87D0108F3
S31508000F10D87D0108047E01083C7E01085C7E010834
S31508000F20807E0108AC7E010828080020F47E0108AE
S31508000F30EC7E0108FC7E0108047F0108A41000204D
S31508000F40107F0108580E00201C7F01082C7F01081D
S31508000F504C7F0108940D0020CC800108C20D0020AA
S31508000F60940C0020747F01088C7F0108A07F01087B
S31508000F70B87F0108D47F0108BE100020DC7F010875
S31508000F800480010820800108820E00205480010890
S31508000F9068800108B48001086C0E0020C0B20728DA
S31508000FA005D1C9B2012902D1374A01231370C0B24B
S31508000FB0002805D1C9B2012902D1344A0123137088
S31508000FC0704710B500200400E4B2002C06D1304862
S31508000FD016F09EFB0400E4B2002CFFD010BD70B5DD
S31508000FE00400250008200600F6B2012E0FD3294872
S31508000FF0407C002809D1F6B2701910F8012C264950
S315080010002648264BD3F8B0319847761EECE770BDD4
S3150800101070B50400200080B206F072FD06000120BB
S31508001020B04020490988084214D01D48392141801A
S315080010301D4803781A4A210089B2002007F06EFA83
S31508001040184800880121B1404FF6FF725140084008
S31508001050144908800120B04012490988084206D17F
S31508001060200080B206F07BFD0500EDB2002D70BDB4
S3150800107038B504000D00EDB2002D03D0200080B273
S31508001080FFF7C6FF31BD000062140020631400207C
S31508001090A20D0020900D0020F0800108C40A00204F
S315080010A0780C002048140020900A002070B584B0FF
S315080010B004000D00EDB2012D14D100AA01A92000EB
S315080010C0C0B206F044FB0600F6B2002E0AD19DF81F
S315080010D00000062806D12000C0B206F02AFB80B21E
S315080010E006F02EFD7FBD704780B501F074FA07F053
S315080010F05DF852494873524800785049497B8842FE
S315080011003AD04E48407B002806D001280FD0022846
S3150800111018D0042821D02BE04A48407C002827D143
S3150800112049494A48494AD2F8B021904720E04548FB
S31508001130407C00281CD146494448444AD2F8B0218C
S31508001140904715E03F48407C002811D141493F4867
S315080011503E4AD2F8B02190470AE03A48407C002837
S3150800116006D13D493948394AD2F8B0219047FFE7B8
S315080011703248407B324908703048407B002802D00C
S31508001180022803D00CE001F018F909E02B48007892
S31508001190012804D129480021017007F0C9FCFFE79E
S315080011A02E48808840F2D171884205D2202101203C
S315080011B02A4A526B90470BE020210320274A526B9C
S315080011C09047002804D020210220244A526B9047D9
S315080011D02248006B8047002807D02048006B8047CC
S315080011E01849898880B281420CD2402103201B4AC3
S315080011F0526B9047002805D140210120174A526BAF
S31508001200904718E01548006B8047012813D3134808
S31508001210006B80470B49898880B281420BD34021F5
S3150800122003200E4A526B9047002804D04021012023
S315080012300A4A526B904701BD00000000E80D0020E5
S31508001240910A0020900D0020F8800108C40A0020A9
S31508001250148101083481010854810108A410002072
S315080012602DE9FC4704000D001600F6B2DFF87406F7
S315080012700068305C070007F015FE80460021300044
S31508001280C0B204F073FA8146DFF85C0690F83A00BB
S31508001290DFF8581608706888DFF850164870DFF8C7
S315080012A04C06FF2181706888132800F0F8825028C0
S315080012B02AD0512800F06682522800F0B8825328B6
S315080012C000F01581542800F0E480552800F0CA8201
S315080012D0562800F0D781572800F09281582800F048
S315080012E0AB81592800F0FD815A2800F05B815B2804
S315080012F000F027825C2800F089805D2800F06E8265
S315080013005E2800F02281CBE299F80000DFF8D815B4
S3150800131091F83A10884207D099F80300DFF8C81503
S3150800132091F83A10884264D1DFF8BC05407C002861
S315080013300FD199F80300009099F8023099F8002027
S31508001340DFF8AC15DFF8AC05DFF8A8C5DCF8B0C1E6
S31508001350E04702F00DFA002835D0DFF89C05006951
S315080013600021C171DFF890050069C07899F802106C
S31508001370884205D0DFF88005006999F80210C17027
S31508001380DFF8740500698079002804D0DFF868055D
S3150800139000690021817199F80200022806D1DFF858
S315080013A05805006999F80310417104E0DFF848050B
S315080013B0006900214171DFF840050069C078DFF84F
S315080013C02C15887015E002F0E3F9002811D099F879
S315080013D00200022805D1DFF8200599F800104172AD
S315080013E003E0DFF8140500214172DFF8000500214B
S315080013F08170DFF8F8040190032000905F23002233
S315080014000221DFF8F80405F0A3FE69E299F8000066
S31508001410DFF8D41491F83A1088422DD1DFF8C804C1
S31508001420407C00280CD199F8013099F80020DFF8A3
S31508001430D014DFF8C004DFF8BCC4DCF8B0C1E0475C
S31508001440DFF8A80499F801104170FFB2B81E4008E9
S31508001450DFF89814887019F10202DFF89004817891
S31508001460DFF88804407802F0F3FBDFF88014887010
S315080014706888DFF878144870DFF870040190032054
S3150800148000905F2300220221DFF8700405F060FE59
S3150800149026E299F80000DFF8501491F83A108842CD
S315080014A018D1DFF84404407C00280AD199F80020B6
S315080014B0DFF85014DFF83C04DFF83834D3F8B031DD
S315080014C098474846DFF84014896A8847DFF81C04BD
S315080014D000218170DFF814040190032000905F2337
S315080014E000220221DFF8140405F032FEF8E199F82B
S315080014F00000DFF8F41391F83A10884218D1DFF8A3
S31508001500E803407C00280AD199F80020DFF8FC138C
S31508001510DFF8E003DFF8DC33D3F8B0319847484604
S31508001520DFF8E413C96A8847DFF8C0030021817031
S31508001530DFF8B8030190032000905F230022022100
S31508001540DFF8B80305F004FECAE199F80000DFF8F1
S31508001550981391F83A10884217D1DFF88C03407C2B
S3150800156000280AD199F80120DFF8A413DFF88403CC
S31508001570DFF88033D3F8B031984799F8010005F0C1
S31508001580D9FBDFF8680300218170DFF8600301905A
S31508001590032000905F2300220221DFF8600305F094
S315080015A0D7FD9DE199F80000DFF83C1391F83A1051
S315080015B088421AD1DFF83003407C00280AD199F80E
S315080015C00020DFF85013DFF82C03DFF82833D3F8B0
S315080015D0B0319847DFF82003D0F8E000804702F0E2
S315080015E0A4F9DFF8080300218170C04801900320A0
S315080015F000905F2300220221C04805F0A9FD6FE193
S31508001600FFB20E2F0DD10E224946C34805F08AFABD
S31508001610002806D00E224946BF4805F03FFA05F0D5
S3150800162065FBBD4801900E20009057230022022139
S31508001630B24805F08DFD53E1FFB2202F17D1AA4815
S31508001640407C002805D1B549AA48AA4AD2F8B02153
S31508001650904720224946B24805F064FA002806D089
S3150800166020224946AE4805F019FA05F03FFBAC487A
S315080016700190202000905823002202219F4805F05F
S3150800168067FD2DE1FFB2142F20D19748407C002832
S3150800169005D1A4499748974AD2F8B0219047142211
S315080016A04946A14805F03EFA00280FD014224946BB
S315080016B09D4805F0F3F98C4890F84E00102805D29D
S315080016C089484FF6FF71416405F010FB9648019072
S315080016D014200090562300220221884805F038FD80
S315080016E0FEE0CA469AF8080001281FD39AF80800AF
S315080016F07D49898880B2884218D2FFB20A2F15D14F
S315080017007948407C002805D188497A48794AD2F830
S31508001710B021904774489AF8081080F83A10724831
S315080017209AF8091080F83B1005F0E0FA8048019015
S315080017300A200090592300220221704805F008FD6E
S31508001740CEE099F80000684991F83A1088420ED11F
S315080017506548407C002805D176496648654AD2F82E
S31508001760B021904701F060F86048002181705F4819
S315080017700190032000905F23002202215F4805F0B4
S31508001780E7FCADE099F80000574991F83A1088420D
S3150800179019D15548407C002805D167495548554A0E
S315080017A0D2F8B02190475148002181704F480190E6
S315080017B0032000905F2300220221504805F0C8FC50
S315080017C000F063FA8CE049480190032000905F23FB
S315080017D000220221494805F0BBFC81E0FFB23A002D
S315080017E092B249464448D0F8B00005F057F93F4848
S315080017F00021817000210800C0B2FFB2B8420BD2A6
S315080018003A498978C0B23C4AD2F8B020825C51186D
S31508001810364A9170401CEFE7344801900320009047
S315080018205F2300220221354805F092FC58E001F0BA
S31508001830AFFF002806D03448808A50F0100032499D
S3150800184088824DE001F094FF002849D02A480069B3
S31508001850C079002844D02C48808A50F040002A4994
S3150800186088823DE0484605F0C8FC20210320264A28
S31508001870526B9047002804D020210220224A526B3E
S3150800188090471A480021817018480190032000905B
S315080018905F2300220221194805F05AFC20E01FE0C8
S315080018A0688813281CD01048407C00280AD11FFAE3
S315080018B088F843466A8821490E48DFF838C0DCF8BC
S315080018C0B0C1E0470948FE2181700848019003200D
S315080018D000906B88DBB200220221084805F038FC2C
S315080018E0BDE8F38718090020900D0020840C00201D
S315080018F074810108C40A0020580E0020EC0C002050
S31508001900B0810108DC810108A410002000820108CA
S31508001910248201084C820108940D00206C8201087B
S31508001920A20D00209C820108D40D0020D082010857
S31508001930C20D002004830108408301088083010842
S3150800194010B518220021624805F0EBF86148624993
S31508001950B1F84810A0F860105E485F4991F94C103C
S3150800196080F862105B485C4991F84D1080F8631066
S3150800197008225A49564805F091F807F019FB040061
S31508001980E4B2002C05D007B52B21554803F076FAAA
S31508001990FFE710BD00B583B04E48807C01280DD105
S315080019A04C48C07C002809D14E4801900C20009074
S315080019B05523002201214C4805F0CAFB07BD80B516
S315080019C04448C06C002802D04248C06C804701BD1C
S315080019D080B54048806C80473E48806B804701BD93
S315080019E080B503F0D5FC414815F0CFFE01BD80B5A2
S315080019F03848006A80473748406A80473548806AD1
S31508001A0080473448406B002802D03248406B8047F4
S31508001A1001BD80B5012300220F21012005F048FBF6
S31508001A20002805D0012300220821012005F040FBEB
S31508001A3001BD704780B508222D492E4805F02EF8BD
S31508001A402548407C00280CD12248807C012801D1F9
S31508001A50294A00E0294A2A492A482A4BD3F8B031AC
S31508001A60984701BD80B52848082101701948006BC0
S31508001A708047FFF7DFFF01BD7047704780B500F06C
S31508001A80B4F8FFF7C6FFFFF7D4FFFEF7A9FC00F08E
S31508001A90ABF807F011FA00F0E7FE00F053F900F092
S31508001AA05FFAFFF7E9FFFFF7E8FFFFF749FFFFF7E0
S31508001AB0D9FF08484068401C0649486000F034F8D9
S31508001AC00448C06A8047FFF792FFFFF789FFF0E7EF
S31508001AD0400E0020E80D0020900D0020DF0D0020AC
S31508001AE0AC830108A8100020EC0C0020E88301084C
S31508001AF0E8100020C20D0020C4830108D483010821
S31508001B00BC830108C40A002074140020DFF8C4014D
S31508001B1001210160DFF8C0014EF6BE210160DFF841
S31508001B20BC01012101607047DFF8A80101210160AD
S31508001B30704730B48308DFF8A84154F823301B688F
S31508001B401A000F2310F00304E4B2A400A3409A433A
S31508001B5010F00303DBB29B0011FA03F31343840866
S31508001B605F4D55F82440236030BC704780B502F0BD
S31508001B7074FF40F68C21884206D25A48006850F015
S31508001B8008005849086004E05648016821F0080131
S31508001B90016001BDC0B2082190FBF1F103290DDAFD
S31508001BA0C0B2082190FBF1F14FF480624E4B02FB64
S31508001BB00131012210F007039A400A607047C0B24B
S31508001BC0082190FBF1F103290DDAC0B2082190FB38
S31508001BD0F1F14FF48062454B02FB0131012210F00E
S31508001BE007039A400A607047704780B502237F2230
S31508001BF03F4801883F4807F0F3FB3E4800884FF608
S31508001C00FF71884201D107F083FC002007F0EAFC47
S31508001C103448006850F008003249086007F0A0FC14
S31508001C2007F062FCFFF772FF00F03AF8FFF79EFF35
S31508001C303148C92101603148792101603048E721DE
S31508001C400160304849F6D95101602F4848F611110C
S31508001C5001602E4849F2994101602D4840F2191158
S31508001C6001602C4844F6991101602B4849F69411F5
S31508001C7001601C48016821F010010160FEF7CBFAEB
S31508001C8007F0C2FD02F0F6FB01BD80B540F2016027
S31508001C9007F0E2FC01BD80B5042007F018FC01BD81
S31508001CA080B51E48102101601D48022101601D48AB
S31508001CB04FF40061016007F013FD1B48072101601E
S31508001CC01A48002101601A4810210160002002BD4F
S31508001CD0000000000860004004600040006000400A
S31508001CE00084010800BC004010B0004014B0004059
S31508001CF062950108820A00200CB000400CB400402E
S31508001D000CB8004000B0004004B0004000B40040E9
S31508001D1004B4004000B8004004B8004080E100E088
S31508001D20080000400C60004014A0004054A0004089
S31508001D3000E100E0DFF808000021016070470000BC
S31508001D40E80C002080B570220021724804F0E9FEF4
S31508001D507048012101736F48002141736D480021C5
S31508001D6081736C480021C1736A4800210181694862
S31508001D7000214174674801210175664800210174F4
S31508001D806448654901626348644941626148644937
S31508001D9001656048634941655E48022181745D4872
S31508001DA00221C1745B486049C1625A485F490163B0
S31508001DB058485F49C16357485E49016455485E49BA
S31508001DC0416454485D49816352485D49816251487E
S31508001DD05C4981644F485C49C1644E4800214163AF
S31508001DE005F0DDF905F02EFA05F049F8574808F030
S31508001DF0F5FA01BD564AB2F84A200A80C0B24880B0
S31508001E00444A127B0A71434A127B4A714FF4A07204
S31508001E10CA8070474E4AB2F84A200A80C0B2488043
S31508001E203C4A127B0A713B4A127B4A710022CA80DD
S31508001E3041F211120A8170472DE9FF4104000D0095
S31508001E4016001F00002F02D0F6B2002E03D1012083
S31508001E50060000A807003100C9B2380003F099FB54
S31508001E6080465FFA88F8B8F1FF0F01D1FF2014E029
S31508001E7001A92000C0B2FFF7BDFF4346DBB201AAA5
S31508001E80290089B2002006F049FB8DF8000040467B
S31508001E90C0B203F0FEFA9DF8000004B0BDE8F08178
S31508001EA0F0B585B004000D001600002E02D0EDB284
S31508001EB0002D03D10120050000A806002900C9B29B
S31508001EC0300003F066FB0700FFB2FF2F01D1FF20A9
S31508001ED013E001A92000C0B2FFF79CFF3B00DBB26C
S31508001EE00822002101A806F065FB8DF800003800DD
S31508001EF0C0B203F0CEFA9DF8000005B0F0BD154952
S31508001F000968080041F2111101800249097B8170B4
S31508001F1070470000E80D00202D900008119E00086B
S31508001F20391E0008A11E000841270008D926000806
S31508001F30611200087520000847210008E91000080A
S31508001F40613E0008E5400008993F0008C40A0020E1
S31508001F50900D00204409002080B5FFF7E5FD01BD7E
S31508001F6010B538480021016037480121016037481B
S31508001F700121016036480021016035486021016071
S31508001F8009210620FFF7D5FD00F03AF800F042F8DF
S31508001F9000F04AF800F027F82E484FF47A710160ED
S31508001FA02D480A2101602D480021016002F054FAEB
S31508001FB004002B484FF4807101602A48006850F0ED
S31508001FC00100284908602000C0B202F041FA10BD9D
S31508001FD04FF47A71081A002804D4B0F57A7F01DC28
S31508001FE01D49086070472048006850F040001E49A7
S31508001FF008601D48006850F080001B49086070475B
S3150800200080B501211720FFF794FD01211620FFF75F
S3150800201090FD01BD80B501210820FFF78AFD012149
S315080020200720FFF786FD01BD1048006850F0010043
S315080020300E4908600E48006850F080000C49086098
S315080020407047000050E0004028E0004014E00040DF
S315080020501CE000402CE000403CE0004024E000404A
S3150800206020E0004000E0004010B8004010B40040F6
S3150800207010B000402DE9F04182B005000E001700AF
S315080020809846089C7888DFF81C178968497889B2C9
S31508002090884256D1E4B2002C40D0DFF80C07407CC9
S315080020A000280DD1388800907B88E4B22200DFF83A
S315080020B0FC16DFF8FC06DFF8F8C6DCF8B0C1E04726
S315080020C0DFF8F006818A21F002018182DFF8E40652
S315080020D0407C401CDFF8DC164874C0B2032830D3B5
S315080020E0DFF8C406407C00280BD1DFF8C806427C1E
S315080020F0DFF8C416DFF8B806DFF8B436D3F8B0311F
S315080021009847DFF8B00600214174DFF890060121F0
S315080021100170DFF888060021817312E0DFF888066F
S31508002120407C002809D13A88DFF89016DFF8800647
S31508002130DFF87C36D3F8B0319847DFF87806002107
S315080021404174BDE8F38130B589B00400E4B22000DB
S31508002150902809D0912800F0EB80942800F0FF80A1
S31508002160AB2800F00B8126E1DFF83C06407C00280E
S3150800217008D1DFF84C16DFF83806DFF83426D2F82F
S31508002180B021904702A806F023F800282ED1DFF8E0
S315080021901806407C002808D1DFF82816DFF8100654
S315080021A0DFF80C26D2F8B0219047DFF8FC05407C12
S315080021B000280CD1BDF810309DF81320DFF808165A
S315080021C0DFF8EC05DFF8E855D5F8B051A847DFF891
S315080021D0D805407C002809D102AADFF8F015DFF8F7
S315080021E0D005DFF8CC35D3F8B0319847DFF8AC0521
S315080021F090F863001A280FD1DFF8AC05407C002858
S3150800220040F09380DFF8C815DFF8A405DFF8A025AD
S31508002210D2F8B021904788E0DFF88005B0F8600072
S31508002220BDF81010884207D1DFF8700590F86300F2
S315080022309DF8131088422CD0DFF86C05407C0028E6
S3150800224010D1DFF85805B0F86030DFF8500590F87F
S315080022506320DFF88015DFF85805DFF85455D5F800
S31508002260B051A847DFF84005407C00280CD1BDF8DE
S3150800227010309DF81320DFF86015DFF83405DFF815
S315080022803055D5F8B051A847DFF81005012101707F
S315080022904BE0DFF81405B0F84800DFF80015B1F890
S315080022A06010884209D1DFF8000590F84D00DFF884
S315080022B0EC1491F8631088421FD0DFF8EC04407CD8
S315080022C0002808D1DFF81415DFF8E404DFF8E02465
S315080022D0D2F8B0219047DFF8D004DFF8C014B1F87F
S315080022E06010A0F84810DFF8C004DFF8B01491F8C1
S315080022F0631080F84D1004F0F9FCDFF8E4040121BE
S315080023000170DFF8980402218173DFF89004002138
S31508002310C173DFF8D00401900C20009052230022EC
S315080023200221DFF8800404F013FFFFF7E8FD42E01E
S31508002330DFF8680400214173DFF860040021817327
S31508002340DFF86404407C002835D1DFF89C14DFF8F8
S315080023506004DFF85C24D2F8B02190472BE0DFF860
S315080023604804407C002826D1DFF88014DFF84004B2
S31508002370DFF83C24D2F8B02190471CE0DFF82804A7
S31508002380407C002808D1DFF86814DFF82404DFF859
S315080023902024D2F8B0219047DFF81804407C401C6E
S315080023A0DFF810144874C0B2032804D3DFF8040415
S315080023B000214174FFE709B030BDF8B55FF0FF3082
S315080023C0040000200500DFF81804007801283DD134
S315080023D0DFF80C0400210170DFF8D803052101702D
S315080023E0DFF8D00301214170DFF8080400210170ED
S315080023F0DFF804046421817018220021DFF8A003A5
S3150800240004F08FFB0822DFF8F413DFF8940304F0D6
S3150800241045FBDFF88803DFF89013B1F84810A0F8F9
S315080024206010DFF87803DFF8801391F94C1080F814
S315080024306210DFF86803DFF8701391F84D1080F822
S315080024406310DFF85803002180F86410DFF864038E
S31508002450007801281FD3DFF8500390F84D000B28A9
S3150800246014D3DFF8440390F84D001B280ED2DFF88A
S3150800247044030078401EDFF83C130870DFF81C039D
S31508002480002180F864100120050096E0DFF8240397
S315080024900021017091E0DFF81C034078012807D17C
S315080024A0DFF8100300214170DFF8540301210170A1
S315080024B007F00EFB002800F0808000200700DFF8F8
S315080024C044030078FFB2874201D27F1CF7E7DFF8A2
S315080024D034030078002805D1DFF8240301210170B0
S315080024E0012077E0DFF80C03007801280BD3C148F8
S315080024F00078401EBF490870A848002180F864107B
S315080025000120050059E00020040000200700BD480E
S315080025100078FFB2874210D2FFB20620B64900FB08
S315080025200710807864B20621B34A01FB0421897832
S31508002530884200D23C007F1CE9E764B20620AE4917
S3150800254000FB04108078642832D064B20620AA49B9
S3150800255000FB041064218170A6480321017018222B
S3150800256000218F4804F0DDFA0822A4498C4804F0BB
S3150800257095FA64B20620A04900FB041080888749B2
S31508002580A1F860008548884991F94C1080F86210D6
S3150800259064B20620984900FB0410C0787F4981F888
S315080025A063007E48002180F864100120050004E0DD
S315080025B093480121017000200CE0EDB2012D08D1ED
S315080025C000200500FEF7FDFC7549022003F0ECFA31
S315080025D006000120F2BD80B589480078012804D19B
S315080025E007F0F2FA86480021017007F0F6FA07F0BC
S315080025F065FA002803D08149834807F0F1FA01BD3E
S31508002600694890F83A0080B270476748C07A02284D
S3150800261003D1654890F83B0000E01020704710B4DD
S315080026200200D2B2012A1AD15F48C07A022807D11D
S315080026306048007F08435F4B18775E48007F3DE09F
S315080026405C485C4B1B7FDBB251EA5303047F63F3A0
S31508002650470404775748007FC0B240082EE0D2B23C
S31508002660022A1CD15048C07A022807D15148007F57
S315080026708843504B18774F48007F1FE04D484D4B15
S315080026801B7FDBB2C9B2CC4314EA5303047F63F35E
S31508002690470404774748007FC0B240080EE0424826
S315080026A0C07A022804D14348007F0840C0B205E03A
S315080026B04048007FC0B211EA5000C0B210BC704753
S315080026C03948C07A022802D13A48407F03E039489F
S315080026D0007F10F00100704780B53348C07A0228A1
S315080026E002D100F0B4FE1CE03248818A21F01001C4
S315080026F0818230482C4991F83A1041832A48007B58
S31508002700800707D52B486421417740482949896ABB
S31508002710884706E02748002141773C482549C96A89
S31508002720884724483A49016322483A49816321483F
S31508002730394941631F483949C163FFF7FBFA01BDAF
S3150800274010B592B036483649C96C8847002816D164
S3150800275033483349896C8847040032480021018090
S315080027602100C9B21248124AD2F898219047104857
S315080027700078002803D12000C0B2FDF7A1FF00A908
S315080027800B480B4AD2F894219047002802D000A89B
S31508002790FEF75EF812B010BD00000000E80D00203C
S315080027A0400E0020EC0C0020900D00201884010833
S315080027B0C40A0020A410002048840108888401085F
S315080027C0A0840108CC840108EC840108148501085A
S315080027D0348501084C85010874850108948501082B
S315080027E0930A0020BE100020D0850108FC85010848
S315080027F02886010865140020041100205486010863
S31508002800641400208C09002000F8FF07C11000207E
S31508002810012600080B2600081F260008C126000806
S31508002820940C0020580E0020F8B502200400002061
S315080028300600E4B2022C02D12020050007E0E4B22B
S31508002840032C02D11020050001E0102005004FF6E8
S31508002850FF7007003B003200D2B22900C9B220003F
S31508002860C0B204F0D5F9F1BD80B5DFF8702758215C
S31508002870002007F015FEDFF86407008845F2AA5124
S31508002880884204D1DFF854074088582802D0FFF759
S31508002890CBFF23E0DFF8440790F84D000B280BD355
S315080028A0DFF8380790F84D001B2805D2DFF82C070B
S315080028B090F84E00112802D3FFF7B6FF0EE0DFF8B6
S315080028C01C0790F83B00012808D0DFF8100790F89D
S315080028D03B00102802D2FFF7A7FFFFE701BD80B52E
S315080028E0DFF8F806407C002805D0DFF8F00600215E
S315080028F0417404F0FBF9DFF8E406407C002801D0B7
S31508002900002000E00120DFF8D816087001BD00009D
S3150800291030B58BB072A00400DFF8C006407C0028F2
S3150800292008D1DFF8C416DFF8BC06DFF8B826D2F8F7
S31508002930B0219047DFF8A406407C00280BD1DFF8C9
S315080029409C06C288DFF8A416DFF89806DFF89436E6
S31508002950D3F8B0319847DFF88406407C00280BD1BD
S31508002960DFF878068288DFF88816DFF87806DFF859
S315080029707436D3F8B0319847DFF86006407C0028F3
S315080029800CD1DFF8580690F83B20DFF86816DFF818
S315080029905406DFF85036D3F8B0319847DFF83C06CE
S315080029A090F83B00012809D3DFF8300690F83B0081
S315080029B0102803D2DFF8400604004EE0DFF81C06B4
S315080029C090F83B00102809D3DFF8100690F83B0072
S315080029D0202803D2DFF8240604003EE0DFF8FC05D1
S315080029E090F83B00202809D3DFF8F00590F83B0063
S315080029F0402803D2DFF8080604002EE0DFF8DC05DD
S31508002A0090F83B00502809D3DFF8D00590F83B0032
S31508002A10602803D2DFF8EC0504001EE0DFF8BC05E9
S31508002A2090F83B00102809D3DFF8B00590F83B0072
S31508002A30202803D2DFF8D00504000EE0DFF89C0555
S31508002A4090F83B00102808D3DFF8900590F83B0073
S31508002A50302802D2DFF8B4050400DFF88005407C90
S31508002A60002808D12200C0A1DFF87805DFF8743500
S31508002A70D3F8B0319847DFF86405407C00280BD1BD
S31508002A80DFF85805027BDFF88815DFF85805DFF808
S31508002A905435D3F8B0319847DFF87805807C02289A
S31508002AA011D1DFF83805407C00280CD1DFF82C0559
S31508002AB090F83A20DFF86015DFF82805DFF82435A6
S31508002AC0D3F8B0319847DFF81405407C002814D1B4
S31508002AD0DFF80805407C002804D0DFF8402503E02D
S31508002AE000000000DFF83825DFF83815DFF8F404B1
S31508002AF0DFF8F034D3F8B0319847DFF8E004407CCB
S31508002B0000280BD1DFF8D404827BDFF81C15DFF828
S31508002B10D404DFF8D034D3F8B0319847DFF8BC04D2
S31508002B20407C00280BD1DFF8B404C27BDFF8FC1424
S31508002B30DFF8B004DFF8AC34D3F8B0319847DFF8E3
S31508002B409C04407C00280BD1DFF89004027CDFF857
S31508002B50E014DFF89004DFF88C34D3F8B0319847E6
S31508002B60DFF87804407C002808D1DFF8C814DFF8BD
S31508002B707404DFF87024D2F8B0219047DFF8B8045F
S31508002B80FEF72DFADFF85404407C00280BD1DFF855
S31508002B904C04827ADFF8A414DFF84804DFF84434DA
S31508002BA0D3F8B0319847DFF83404407C00280BD1BD
S31508002BB0DFF82804427BDFF88814DFF82804DFF8FA
S31508002BC02434D3F8B0319847DFF81004407C002845
S31508002BD00BD1DFF80804426CDFF86814DFF8040448
S31508002BE0DFF80034D3F8B0319847DFF8F003407CBB
S31508002BF000280CD1DFF8E40390F84E20DFF84814DB
S31508002C00DFF8E003DFF8DC33D3F8B0319847DFF8B4
S31508002C10CC03407C002812D1DFF8C003007AC3B287
S31508002C20DFF8B803008980B2020A92B2DFF81C14F2
S31508002C30DFF8B003DFF8AC53D5F8B051A84704A8BD
S31508002C4005F0C6FA002820D1DFF89003407C00285A
S31508002C500AD1BDF81820DFF8F813DFF88803DFF883
S31508002C608433D3F8B0319847DFF87003407C0028E6
S31508002C702FD19DF81B20DFF8DC13DFF86803DFF897
S31508002C806433D3F8B031984723E0DFF85003407C2B
S31508002C9000280CD1DFF84403B0F84820DFF8B01359
S31508002CA0DFF84003DFF83C33D3F8B0319847DFF854
S31508002CB02C03407C00280CD1DFF8200390F84D2027
S31508002CC0DFF89013DFF81C03DFF81833D3F8B031B8
S31508002CD09847DFF80803407C00280CD1DFF8FC028F
S31508002CE090F84C20DFF87013DFF8F802DFF8F432BA
S31508002CF0D3F8B0319847DFF8E402407C00280CD1BD
S31508002D00DFF8D802B0F84A20DFF85013DFF8D4020B
S31508002D10DFF8D032D3F8B0319847DFF8C002407CEC
S31508002D2000281ED1DFF83803807A0390DFF83003D5
S31508002D30407A0290DFF82803007A0190DFF8200332
S31508002D40C0790090DFF818038379DFF814038288C6
S31508002D50DFF81013DFF88C02DFF88852D5F8B05187
S31508002D60A8470BB030BD00002573000070B588B0C9
S31508002D700400002C00F02E81DFF86002C07A0128DA
S31508002D8040F0CE80DFF85402407C002809D1228822
S31508002D90DFF8D412DFF84C02DFF84832D3F8B03146
S31508002DA09847DFF83802407C00280AD1A078C0B2DC
S31508002DB04208D2B2DFF8B4128A488A4BD3F8B03147
S31508002DC098478648407C00280ED1A078C00702D5CF
S31508002DD0DFF89C2201E0DFF89C22DFF89C1281488C
S31508002DE0804BD3F8B03198477C48407C00280DD1F9
S31508002DF02079C00701D578A201E0DFF88022DFF844
S31508002E0080127848774BD3F8B03198477348407C9E
S31508002E1000280AD12079C0B24208D2B2DFF864127B
S31508002E207048704BD3F8B03198476C48407C0028FE
S31508002E3007D16279DFF850126A486A4BD3F8B03185
S31508002E4098476648407C002807D1627ADFF83C122A
S31508002E506448644BD3F8B03198476048407C0028F2
S31508002E6008D1A07A10F00F0289495E485D4BD3F865
S31508002E70B03198475948407C002809D1A07AC0B299
S31508002E800209D2B283495748564BD3F8B03198470E
S31508002E905248407C002806D1E27A7F495148514B76
S31508002EA0D3F8B03198474D48407C002806D1E278DF
S31508002EB07A494C484B4BD3F8B03198474748407C41
S31508002EC0002808D1207A10F00F0275494548454B6D
S31508002ED0D3F8B03198474148407C002809D1207A78
S31508002EE0C0B20209D2B26F493E483E4BD3F8B03160
S31508002EF098473A48407C002806D1A2796A49394859
S31508002F00384BD3F8B03198473448407C002861D113
S31508002F10E27966493348334BD3F8B031984759E0DC
S31508002F202E48C07A022855D100F032FC002826D057
S31508002F302A48407C002805D15D492A48294AD2F802
S31508002F40B02190472548407C002843D12089079026
S31508002F50E0790690A07905906089049060790390DD
S31508002F6020790290A0780190E07800902378627822
S31508002F7050491C481B4DD5F8B051A8472AE000F027
S31508002F80F7FB002826D025001448407C002805D1E8
S31508002F9049491448134AD2F8B02190470F48407C53
S31508002FA0002817D168890790E8790690287905904E
S31508002FB028890490A8780390A879029068790190E6
S31508002FC0E87800902B786A783C490648054ED6F88A
S31508002FD0B061B04708B070BD4E6F0000900D00207C
S31508002FE0940C0020C40A00205C8601088486010827
S31508002FF094860108A8860108BC860108D0860108BF
S31508003000E886010800870108188701082C87010847
S3150800301044870108E80D00205C87010890870108AD
S315080030209887010870870108A0870108CC870108DE
S31508003030F88701082C880108C20D00204C88010871
S3150800304064880108848801089C880108B4880108F6
S31508003050D4880108F4880108148901082C89010814
S31508003060A410002048890108788901088889010880
S31508003070B0890108B88901089C890108E489010812
S31508003080C0890108EC890108048A0108188A010820
S31508003090348A0108548A0108748A0108888A010852
S315080030A0A08A0108B48A0108C88A0108DC8A0108CE
S315080030B0F08A0108308B0108688B0108A48B010887
S315080030C080B501210220FEF734FD0220FEF777FDC8
S315080030D001BD37B50400DFF8780D00780621DFF862
S315080030E0702D01FB00207E218170DFF8640D0078C9
S315080030F00621DFF85C2D01FB0020C470022201A91D
S31508003100DFF84C0D00780623DFF8445D03FB00501A
S31508003110001D03F0C3FC022202A9DFF8340D007873
S315080031200623DFF82C5D03FB0050801D03F0B6FC78
S31508003130DFF81C0D0078401CDFF8141D0870DFF856
S31508003140100D0078202803D3DFF8040D0021017044
S3150800315037BD00210800DFF8F81C4978DFF8F02CA5
S315080031601278914219D0DFF8E81C49780622DFF870
S31508003170E03C02FB0131891C0800DFF8D41C4978C1
S31508003180491CDFF8CC2C5170DFF8C41C497820297B
S3150800319003D3DFF8BC1C00224A70704780B5DFF8FD
S315080031A0980A407C002808D1DFF8901ADFF8900AC0
S315080031B0DFF88C2AD2F8B02190470120FEF7FFFCF1
S315080031C001BD80B5DFF8700A407C002808D1DFF819
S315080031D0741ADFF86C0ADFF8682AD2F8B02190472B
S315080031E00120FEF7D7FC01BD80B5DFF84C0A407C0C
S315080031F0002808D1DFF8501ADFF8440ADFF8402A19
S31508003200D2F8B0219047DFF87C0D0068800703D517
S315080032100120FEF7D4FC02E00120FEF7BBFC01BD4D
S3150800322038B50400DFF8240A407B002849D1DFF8C6
S31508003230080A407C002808D1DFF8181CDFF8000AC5
S31508003240DFF8FC29D2F8B021904700200500EDB23E
S31508003250082D09D2002200215420DFF8F039D3F8CE
S31508003260D43098476D1CF2E7DFF8E0095421017263
S31508003270DFF8E40B808A50F02000DFF8DC1B888238
S31508003280DFF8C809807D002803D0DFF8C0090021CF
S315080032908175DFF8B809C07DDFF8B019097A884268
S315080032A005D0DFF8A809DFF8A419097AC175DFF88F
S315080032B0D80CDFF89819097A0171DFF8CC0C00F000
S315080032C091FF31BD38B50400DFF86C09407C002851
S315080032D008D1DFF8881BDFF86809DFF86429D2F817
S315080032E0B021904700200500EDB2082D09D2002232
S315080032F000215320DFF85439D3F8D43098476D1C91
S31508003300F2E7DFF8480953210172DFF84C0B808A8F
S3150800331050F02000DFF8401B8882DFF83009C07DB6
S31508003320DFF82819097A884205D0DFF82009DFF87E
S315080033301C19097AC175DFF8500CDFF81019097ADB
S315080033400171DFF8440C00F04DFF31BD70B5040083
S315080033502500002C60D0287850280ED1DFF8D80830
S31508003360407C002829D1DFF8241CDFF8D408DFF8D0
S31508003370D028D2F8B02190471FE0287851280ED1DE
S31508003380DFF8B408407C002817D1DFF8041CDFF802
S31508003390B008DFF8AC28D2F8B02190470DE0DFF886
S315080033A09808407C002808D1DFF8E81BDFF8900869
S315080033B0DFF88C28D2F8B021904700200600F6B234
S315080033C0082E09D2AA8869882878DFF88038D3F8C1
S315080033D0D4309847761CF2E7DFF87008297801722E
S315080033E0DFF8740A808A50F02000DFF86C1A8882A9
S315080033F0DFF85808C07DDFF85418097A884205D0E6
S31508003400DFF84808DFF84418097AC175DFF8780B41
S31508003410DFF83818097A017170BD30B40200080067
S31508003420002529002B002C00C9B2082909D2D50786
S3150800343000D55B1CD50500D5641C491C92B2520800
S31508003440F2E71D1B0570E518457030BC704738B5A6
S31508003450EC220021DFF8F40703F063FBC222002107
S31508003460DFF8EC0903F05DFB0C220021DFF8400CC5
S3150800347003F057FB0C220021DFF8380C03F051FB50
S3150800348020220021DFF8300C03F04BFBDFF8C809D7
S31508003490DFF8A41791F83A108176DFF8BC09DFF84F
S315080034A0981791F83B10C176DFF8AC09DFF80C1CC9
S315080034B08162DFF8A409DFF8081CC162DFF8980901
S315080034C0DFF8001C0164DFF88407DFF86C1791F851
S315080034D03A100175DFF87407DFF85C1791F83B10AE
S315080034E04175DFF868075321C175DFF860070821C1
S315080034F04180DFF85807DFF8C01BC0F8B010DFF8C6
S315080035004C07DFF8C41BC0F8D410DFF84007DFF813
S31508003510BC1BC0F8D810DFF83407DFF8B41BC0F8B6
S31508003520DC10DFF82807DFF8AC1BC0F8E010DFF87E
S315080035301C07DFF8A41BC0F8E410DFF81007DFF853
S315080035409C1BC0F8E810DFF80407DFF8941BC0F8E6
S31508003550AC10DFF8E40690F83A00DFF8581B08705C
S31508003560DFF8500BDFF8D01691F83B104170FFF7E3
S31508003570A7FDFFF7B4F9DFF8D4064FF4FC61C18361
S3150800358044220021DFF8000A03F0CBFADFF8080C22
S315080035900400DFF8F4090A214170DFF8EC0960211C
S315080035A00170DFF8E409DFF8B018098B4180DFF80D
S315080035B09C06C07D2070DFF89406807AA070DFF83C
S315080035C08C06C08BA08000F0D3F8002853D00121C8
S315080035D00120FEF7AEFA0120FEF7DCFA08210020EA
S315080035E0FEF7A7FA08210420FEF7A3FA0020FEF743
S315080035F0D1FA0420FEF7CEFADFF85006DFF8B01A43
S315080036000161DFF848060069DFF82C1691F83A10D0
S315080036100170DFF838060069DFF81C1691F83B10D0
S315080036204170DFF8280600690021C171DFF81C0621
S31508003630006900218171DFF8140600690021C17054
S31508003640DFF80806006900214171DFF80006006905
S3150800365000218170DFF8F405006900210171DFF8A7
S31508003660EC05006900214181DFF8E005006941F2B7
S31508003670883101817BE000F08BF8002877D00A2298
S315080036800021DFF8100C03F04CFADFF8082C0A21A9
S315080036904FF4805006F004FFDFF8440B03F0E7FC14
S315080036A000200500EDB2052D39D2EDB2DFF89C05F4
S315080036B010EB450090F82000002808D0EDB2DFF89E
S315080036C08C0510EB450090F82100002800D126E073
S315080036D0EDB2DFF8780510EB450090F82000FF28DA
S315080036E008D0EDB2DFF8640510EB450090F821002C
S315080036F0FF2800D113E0EDB2DFF8500510EB4500C6
S3150800370090F82120EDB2DFF8440510EB450090F85B
S315080037102010DFF8840B03F0AAFC6D1CC2E7DFF863
S315080037202C058573DFF82405807B0500EDB2052D91
S3150800373011D2EDB2DFF8140510EB4500002180F830
S315080037402010EDB2DFF8040510EB4500002180F8E3
S3150800375021106D1CEAE7DFF83C2BDFF8F004817BCB
S31508003760002000F075FADFF8E4040021016131BD9C
S31508003770DFF8C40490F83B00102807D3DFF8B80434
S3150800378090F83B00202801D2012000E00020704775
S31508003790DFF8A40490F83B00202807D3DFF8980444
S315080037A090F83B00402801D2012000E00020704735
S315080037B0010000221000DFF8942492F82A20C0B2F3
S315080037C090420DD2C0B2DFF8842412EB400292F880
S315080037D02C20C9B28A4201D1C0B202E0401CEAE7F5
S315080037E0FF20704700B583B0DFF8B00A807B022857
S315080037F040F09A80FFF7BCFF00282BD0DFF8580668
S31508003800007D400640F19080DFF82C04407C0028BB
S315080038100CD1DFF8380400698279DFF8841ADFF8FA
S315080038202004DFF81C34D3F8B0319847DFF81C04BD
S31508003830006901900C200090522300220221DFF833
S31508003840640A03F085FCDFF81006818A21F040013E
S31508003850818269E0DFF80006007DC00664D50C2287
S31508003860DFF8441ADFF8480803F05CF9002821D08D
S315080038700C22DFF8341ADFF8380803F00FF9DFF8FE
S31508003880B803407C002808D1DFF8201ADFF8B00317
S31508003890DFF8AC23D2F8B0219047DFF8140801907E
S315080038A00C200090522300220221DFF8F80903F0C9
S315080038B04FFC33E0DFF8A005807ADFF87C13897ABD
S315080038C090FBF1F201FB1200002827D1DFF88805EA
S315080038D0C07CDFF88415897A88421FD0DFF878051E
S315080038E0DFF87415897AC174DFF84C03407C002828
S315080038F008D1DFF8BC19DFF84803DFF84423D2F80B
S31508003900B0219047DFF8A80701900C2000905223B9
S3150800391000220221DFF88C0903F01AFCDFF83805CB
S31508003920818A21F01001818207BD80B5C248407C9A
S31508003930002806D1DFF87C19C148C14AD2F8B0215F
S31508003940904782220021DFF8700903F0EAF8BF48A1
S315080039500021C172DFF85C0700218170BB48002195
S315080039608175DFF8F40400210177B848B74991F862
S315080039702A10C176DFF8E004808A50F01000DFF8DC
S31508003980D814888201BD30B583B0DFF83009007DD0
S31508003990800640F15081FFF7EBFE00280ED0DFF8D5
S315080039A01C09818A21F020018182DFF81009808AAA
S315080039B050F01000DFF8041988823CE1A348407EE5
S315080039C0002800F00881A148407EA049897A8842EB
S315080039D000F001819D48C088DFF8E018497A3C224A
S315080039E0DFF8D8389B7A02FB0131884206D1DFF826
S315080039F0CC08818A21F0200181821CE193489349F1
S31508003A00497E8172DFF8B408407A3C21DFF8AC2899
S31508003A10927A01FB00208D49C8808C48807AFFF78E
S31508003A20C7FE0400894890F82A00E4B2A0421ED2D4
S31508003A30864890F82A00002801D0012000E01020CE
S31508003A408249897D0843814988757B48407C0028DE
S31508003A5040F0B8807D4890F82A307C48827ADFF8B2
S31508003A6060187748764DD5F8B051A847AAE0774848
S31508003A7090F82B00E4B2844208D0744880F82B40B2
S31508003A807248807D50F00200704988756F4890F83A
S31508003A902B006E4911EB400090F82D006B49C87257
S31508003AA06A48D0F8AC006949C97A01706748D0F805
S31508003AB0AC000078502802D140F6AC5009E06348C3
S31508003AC0D0F8AC000078512802D140F6A66000E094
S31508003AD000205E49D1F8AC1048805C48D0F8AC00AC
S31508003AE00078502802D140F6A66009E05748D0F879
S31508003AF0AC000078512802D140F6AC5000E0002016
S31508003B005249D1F8AC1088805048D0F8AC00DFF89C
S31508003B10AC17096C88474D48C07A532805D14648E2
S31508003B20807A14214843494948734348407C002811
S31508003B3016D1464890F82B0000904448D0F8AC00BF
S31508003B400378424890F82B00404911EB400090F862
S31508003B502C20DFF870173A48394DD5F8B051A847E8
S31508003B603A483A4991F82B108176384890F82B0054
S31508003B70401C364981F82B00344890F82B0033490D
S31508003B8091F82A1088421DD3304890F82A00002858
S31508003B9018D00020DFF82417C96A8847FFF7C5FE42
S31508003BA02A48807D50F0040028498875DFF800050A
S31508003BB001900C2000905A2300220221DFF8E40627
S31508003BC003F0C6FADFF8F406808A50F01000DFF832
S31508003BD0EC16888229E01D48C07A532814D11B4860
S31508003BE0C07D532810D00020DFF8D016C96A884750
S31508003BF0164800218175DFF8C406808A50F0100047
S31508003C00DFF8B816888210E00C22DFF89C16DFF879
S31508003C10A00402F087FF002807D0DFF8A006808AF4
S31508003C2050F01000DFF894168882DFF89006818A33
S31508003C3021F02001818237BD900D0020D88B010824
S31508003C40C40A0020E88B0108F88B0108580E0020EA
S31508003C502DE9F84304000D00160000208046E4B262
S31508003C60EDB2281980B2402802D34046C0B2ECE033
S31508003C70DFF85406007A532804D00020DFF83C16F3
S31508003C80C96A884755EA0400C0B2002804D1FFF77C
S31508003C904CFE4046C0B2D8E0EDB22A00E4B221009C
S31508003CA0DFF8280603F0E3F92700FFB2EDB2E4B225
S31508003CB0601987421FDAFFB2DFF80C0610EB4700DF
S31508003CC0317880F82C10FFB2DFF8FC0510EB4700BE
S31508003CD0717880F82D1030787178081810EB08087C
S31508003CE073783278FFB23900DFF8E40503F0BFF9DC
S31508003CF07F1CB61CD9E7DFF8D00590F82A00EDB28C
S31508003D00E4B26119884204DA2819DFF8BC1581F88B
S31508003D102A00DFF8B405DFF8B01591F82A10C17645
S31508003D20DFF8A40590F82A00052880F08480E4B21C
S31508003D30002C40F08080002007008146DFF88805C7
S31508003D4090F82A00FFB287420CD2FFB2DFF8780556
S31508003D5010EB470090F82D00532801D119F10109FD
S31508003D607F1CEBE75FFA89F9B9F1010F63D1DFF838
S31508003D705805DFF8541591F82A108173DFF84805BD
S31508003D8090F82A0080B2420092B2DFF80815DFF8F0
S31508003D90440502F0C7FE00284DD0DFF82C0590F840
S31508003DA02A10DFF8340503F062F90A220021DFF849
S31508003DB0E40402F0B6FE00200700DFF80C0590F8D0
S31508003DC02A00FFB287422FD2FFB2DFF8FC0410EBBD
S31508003DD04700FFB2DFF8F01411EB470191F82C10F9
S31508003DE080F82010FFB2DFF8E00410EB4700FFB2BE
S31508003DF0DFF8D41411EB470191F82D1080F8211043
S31508003E00FFB2DFF8C40410EB470090F82120FFB298
S31508003E10DFF8B40410EB470090F82010DFF8BC0474
S31508003E2003F025F97F1CC8E70A22DFF868144FF467
S31508003E30805006F0FFFADFF88404808A50F01000FC
S31508003E40DFF8781488824046C0B2BDE8F2830000E5
S31508003E50440F00200C8C0108A4100020208C0108B7
S31508003E6080B5DFF83804807B022817D1DFF82C04E8
S31508003E70007C002810D1DFF824040121017406F023
S31508003E801BFBDFF838140883DFF83004808A50F00B
S31508003E900200DFF828148882FFF7A4FCFFF773FDF9
S31508003EA0FFF766FC00284BD0DFF81C040069007990
S31508003EB0DFF814140969C97888421ED0DFF80804A7
S31508003EC00069DFF804140969C9780171DFF8F80395
S31508003ED00069C078032805D1DFF8EC03D0F8E000C4
S31508003EE080470AE0DFF8E0030069C078022804D1B9
S31508003EF0DFF8D403D0F8DC008047DFF8CC0300698C
S31508003F00C07801281CD1DFF8C00300694089401C2D
S31508003F10DFF8B41309694881DFF8AC030069408902
S31508003F20DFF8A41309690989884209D3DFF89803D9
S31508003F30D0F8E4008047DFF890030069002141814A
S31508003F4001BD80B5FFF714FC002819D0DFF89003EF
S31508003F500068C00707D4DFF88C0390F83B00C0B2AE
S31508003F604000C0B20DE0DFF878030068C00607D449
S31508003F70DFF8700390F83B004000401CC0B200E038
S31508003F80002002BD0CB0004034100020308C01081F
S31508003F90488C0108608C010838B5DFF82C030088C6
S31508003FA0401CDFF824130880BC48807B022821D1F6
S31508003FB0DFF834030068401CDFF82C130860B948A2
S31508003FC003F0A6F8002815D1DFF81C0300684FF4A3
S31508003FD04871B0FBF1F201FB120000280AD1B14882
S31508003FE003F0A0F80400A31DA27800216078AB4D69
S31508003FF02D6DA847FFF7BCFB002834D0B2480088CF
S315080040004FF48071884251D3FFF79BFF0400AE48F6
S31508004010407AE4B2844220D1E4B2002C1DD0AA48EA
S3150800402000698471A84800690121C171AD48407CC6
S31508004030002808D1A44800698279AC49AC48AC4B41
S31508004040D3F8B03198479D48808A50F040009B4984
S3150800405088829D480021417201E09B4844729A4833
S315080040600021018022E0FFF793FB00281ED0964826
S31508004070008895494988884207D39348D0F8D800DC
S31508004080804704009048002101808C48C06832218E
S31508004090B0FBF1F201FB1200002807D13E480400EC
S315080040A006F040FAA080934800F09CF831BD000065
S315080040B0BE1000200810002014100020213200082D
S315080040C0C53200084D330008D330000853310008C4
S315080040D09D310008C3310008E93100081B34000887
S315080040E07810002080B57548407A7E49897A90FB19
S315080040F0F1F201FB1200002838D17048807C6F4924
S31508004100497A884232D06D486C49497A8174634845
S31508004110807B02282AD1FFF73BFB002826D0674878
S31508004120007DC00605D46548808A50F010006349B2
S315080041308882654890F82A00002817D06248007AD5
S31508004140532813D0144908005F4991F82B105E4A8A
S3150800415012EB410191F82D1001705B4991F82B1073
S31508004160594A12EB410191F82C1081705648C07AD1
S31508004170532809D15448407B002805D05248407B33
S31508004180401E5149487306E04F48407B002802D03C
S315080041904D480021417301BD381000200278CA70CD
S315080041A042780A710A79002A05D08A7852F00802FC
S315080041B08A70D2B204E08A7812F0F7028A70D2B214
S315080041C082784A71C279037A52EA03224A813E4AC0
S315080041D092F82B208A713C4A92F82A20CA717047B5
S315080041E0708C010810B50400FFF7D2FA002808D031
S315080041F06078052805D3A079002802D02079002800
S3150800420000D146E030488088401C2F498880607974
S31508004210002809D138484079A179884204D136481E
S31508004220C078217988421ED03349201DFFF7B6FF92
S315080042300C2231491C4802F031FC2F48C07854281A
S315080042400AD100201D49896A88471F48C07A532821
S3150800425002D11D485421C1721848808A50F02000A6
S315080042601649888215E018488088802811D3224983
S31508004270201DFFF793FF0C221F490B4802F00EFC86
S315080042800E48808A50F010000C4988820E4800219A
S31508004290818010BD780E0020888C0108E80D00206A
S315080042A0A08C0108EC0C00206C0E0020DC8C0108A8
S315080042B0F08C0108148D0108820E0020A41000203D
S315080042C03C8D01086C8D0108580E0020908D010860
S315080042D0B08D0108840E0020D88D0108008E0108D3
S315080042E008B00040900D0020801000200C8E0108B8
S315080042F0C40A0020341000200810002038B5344CB9
S3150800430040F20730206072B6324801684908490011
S3150800431001603148112101606069800620D4606916
S31508004320C00601D52D4805E02D4803E04FF0CD31F4
S3150800433040F8041B2B498842F8D32B482B492C4AB2
S3150800434000F07EF82B482C49002200F073F82B4821
S315080043502B4900F06FF82B482B492C4A00F070F8CF
S315080043602B4D2C4868604FF0784068612A48A86150
S315080043702A48E8612A482B4901604FF0803141609C
S315080043808160C160E02101612748A860102028618A
S315080043904FF4E020286206F0D5F86069800608D553
S315080043A0224800210170286840F08050286006F0F5
S315080043B005F905F0F7F900F04FF862B6FDF75EFB70
S315080043C007B5D4211A48BDE8344000F057BD00BFF0
S315080043D018000040FCED00E000800040940000203A
S315080043E000000020580700207C9501085807002087
S315080043F0BC0A0020BC0A00208B1400208C14002064
S31508004400A0190020000000000000000000000000C5
S3150800441004ED00E000010008F8F8F88080F8408014
S3150800442000E400E0808040800004FA053C1100208A
S315080044303C8E010801E040F8042B8842FBD3704704
S3150800444003E050F8043B41F8043B9142F9D3704726
S3150800445080F3118870470000EFF31180602181F323
S3150800446011887047EFF311806028D4BF012000201F
S3150800447070470000002181F31188704710B500F0DD
S3150800448015F81040C84010BD10B500F00FF8D44319
S3150800449020401140084380B2D860022018600020EE
S315080044A0186058680028FCD110BD0000064B5C68EF
S315080044B0002CFCD19860012018600020186058680C
S315080044C00028FCD118697047E81000402B490A6893
S315080044D0920992010A600A6810430860DFF8C4036B
S315080044E04FF40041016000210160642005F034B9F1
S315080044F02DE9F0478046DFF8A45628681FFA80FAA7
S31508004500286840F4004028601C4E306820F480502B
S315080045103060DFF84C98DFF85848607860B1E0788A
S31508004520A17809EB810111F82A1C401A09EB8801C8
S3150800453011F82A1C081804E020270120607001E001
S31508004540781C87B23846FFF7C1FF306B042804D0C1
S31508004550306B4007F4D4781EF3E7F06A30B184F87C
S315080045600280E770C5F800A0BDE8F08707B540F2FD
S31508004570F31109F1400000F081FCE6E7D010004095
S3150800458010B504464FF47872610189B21020FFF71E
S315080045907BFF1F2221461020BDE8104074E700006B
S315080045A02DE9F04F85B083469BF800004FF67F72E1
S315080045B002EA0004012202FA01F1ADF80010000631
S315080045C003D400F06BF808425CD0314D286880B2FD
S315080045D00490686880B20390DFF8B880D8F80000C5
S315080045E080B202902C4F386880B2019048F2800061
S315080045F028600220686048F2D000C8F8000002204F
S315080046003860002405260120711E88401FFA80F9AB
S3150800461049EA0404A0B2FFF7B3FF00F0A3FB7868E9
S315080046201FFA80FABAF1C00F02DB24EA0904A4B221
S31508004630701E86B2012EE6DA1F2C12DA661CB0B29C
S31508004640FFF79EFF00F08EFB7868C0384EF6FF71C4
S315080046500840AAF1C0014EF6FF721140884200D206
S31508004660B4B204982860039868600298C8F80000F5
S31508004670019838608BF8004000F010F88843DFF89E
S31508004680F016C880A0B205B0BDE8F04F78E700BFC5
S315080046900C1100404410004010400040DFF8D006DE
S315080046A0C088BDF8001070473F22410089B220201B
S315080046B0EAE62DE9F34F97B0DFF89C57DFF8B00626
S315080046C00079002814BF686A286980B20390179891
S315080046D000784FF67F7101EA000418990978039B60
S315080046E05B1C8B4203DB039B5B1E994201DA0121AB
S315080046F000E00021012303FA02F2ADF80A200006C1
S3150800470009D4DFF86C060089BDF80A20104202D1E8
S31508004710002900F0BE80E86C80B20690286880B256
S315080047200590604EF06A80B204904FF6FF72002141
S315080047301120FFF7A3FE83464FF6FF720021A02043
S31508004740FFF79CFE82464FF4004028600020306147
S31508004750706148F2020000F0B9F84CF68C30E86453
S3150800476048F2F000F0624FF4805211461120FFF72C
S315080047708BFE4FF6FF72002100F012FA00F0ABF83C
S3150800478002A900F09BF900F0ADF800F095F94CF697
S315080047909C30E8640020FFF787FF0020009006237E
S315080047A01A46C02106F0DEF80024A0B2FFF77CFF07
S315080047B000F091F807A800EB440100F07FF9641CAB
S315080047C0202CF2DB01A900F079F91020FFF76CFF25
S315080047D000F088F801A900F071F9BDF80400BDF8E9
S315080047E00610401ABDF83C10BDF808208C1A404344
S315080047F004FB04084FF01009112700F055F800F0E3
S3150800480071F801A900F05AF900F056F804DB804661
S31508004810B9467F1C202FF0DB1FFA89F9B9F1100F72
S3150800482010D10F2700F040F800F05CF801A900F05D
S3150800483045F900F041F805DB8046B9467F1E3FB2D0
S31508004840002FEFD54FEA4904A4B20698E864059804
S3150800485028600498F0624FF6FF7259461120FFF758
S3150800486013FE4FF6FF72514600F09AF901203061A7
S31508004870002000F02BF81798047018980399017017
S31508004880DFF8EC040089BDF80A108843DFF8E01465
S3150800489008813F2221462020FFF7F6FD19B0BDE822
S315080048A0F08F00001810004007A830F81700BDF870
S315080048B00810441AB8B2F7E6BDF80400BDF80610A9
S315080048C0401A404304FB040040457047306040F2FC
S315080048D04C4004F041BF0020009006230622C02168
S315080048E006F040B80020009006230722C02106F0F3
S315080048F039B800000C48DFF87C158A780AB149787F
S315080049000FE089566FF00802914201DA302108E07B
S31508004910C16D39B140F24A31C26DB1FBF2F189B2CB
S31508004920C91E0160704700BF6410004000B587B01B
S315080049300A237F224148018803A804F051FDBDF8E7
S3150800494012104FF6FF72914273D1DFF8280580895D
S3150800495000F0D6F84FF47C624FF40071C020FFF7E0
S3150800496093FD0323892200F074F801A900F06CF87E
S3150800497000F06DF80DF1020100F066F8BDF80200CE
S3150800498000F05EF8ADF802000323B92200F061F8E2
S3150800499002A900F059F8BDF8080000F051F8ADF882
S315080049A008004FF47C624FF46061C020FFF76CFD8D
S315080049B000F04DF800A900F047F8BDF8000000F037
S315080049C03FF8ADF800000323B92200F042F80DF1D4
S315080049D0060100F039F8BDF8060000F031F8ADF828
S315080049E00600BDF80600BDF80010490801EB0040B6
S315080049F0BDF80010B0FBF1F080B2BDF80810BDF8A4
S31508004A000220520802EB0141BDF80220B1FBF2F187
S31508004A10411A89B24FF47C62A0F5404001EBD1738C
S31508004A205B1003EB0010B0FBF1F0083800F03F0014
S31508004A308101C020FFF728FD07B000BD5A9501087F
S31508004A40BDF80410401A70470020FBF7B5BC0323D5
S31508004A50A922C0210020FBF71CBC7CB500F046F853
S31508004A600020009002230322002105F07BFF00F0BE
S31508004A7023F8BDF8064000200090022301220146D3
S31508004A8005F070FF00F018F8BDF8065000200090F9
S31508004A9002230246014605F065FF00F00DF8BDF851
S31508004AA0066005F089FF00F019F80EBF4FF4E160C3
S31508004AB00A2190FBF1F004E00DF10601002005F053
S31508004AC06BBFADF80400301B0004291BB0FBF1F0E6
S31508004AD0BDF8041048434000000C76BDBDF804003C
S31508004AE04FF6FF71884270470000000002237F22BC
S31508004AF00248018801A804F073BC00BF5E9501084E
S31508004B002DE9F04182B00546DFF86843B5F5004F58
S31508004B100FD102237F221F4800F0A0F9BDF800003C
S31508004B20000AFF2800D000B918206070BDF8000000
S31508004B30C54305F0010805F00200470808EB4800E0
S31508004B40154946184FF4F852B0780102E020FFF7ED
S31508004B509BFC1248016841F4004101604FF4405241
S31508004B607078010389B22020FFF78EFC404605F0D5
S31508004B708DFF4022B90100F013F817B915F00400AB
S31508004B8000D00120A070FFF7B5FEA5810020BDE882
S31508004B90F68100BF60950108B88E01081C10004018
S31508004BA0A02071E4B3488089704710B57048007832
S31508004BB06A490A880123A0F10B04A3401A430A8014
S31508004BC0BDE8104000E000002DE9F04F83B08046B4
S31508004BD0A8F10B04A4B206F007FB8246B8F10B0F46
S31508004BE002D3B8F11B0F02D38A20BDE8FE8F564EBA
S31508004BF0B068000702D43068C00701D58C20F4E7F6
S31508004C005B4D85F80080514F38680C2801D100208B
S31508004C10EBE7287938B9786A40F400507862786A00
S31508004C2020F4805078624A480078012801D106F0BD
S31508004C30A3FA4848D0F8009047484FF4E06101606D
S31508004C40306A20F0020030620423E2B2002100A894
S31508004C5004F0C6FB9DF800008DF807009DF80100DA
S31508004C608DF806009DF802008DF805009DF80300F2
S31508004C708DF804003A4830F82400F86148F2607B61
S31508004C802879B8B1C7F824B0306A400840003062C5
S31508004C90012004F061FD306A40F00100306200F046
S31508004CA061F8786A20F480507862786A40F4005097
S31508004CB0786202E04046FFF71BFC21460DF1010031
S31508004CC006F0A4F821460DF10200FFF769FC22461A
S31508004CD000A90DF10300FFF7ECFC9DF800009DF814
S31508004CE00710884211D19DF801009DF806108842E8
S31508004CF00BD19DF802009DF80510884205D19DF854
S31508004D0003009DF80410884205D0042300AAE1B2E6
S31508004D10002004F0B7FB09F4E0600E49086005F0CE
S31508004D2055FC306A40F002003062287918B1C7F89D
S31508004D3024B000F017F805F03FFEBAF1010F01D1D3
S31508004D4006F0EAF963E700BF60200040AC100040B7
S31508004D50B40A002000E100E080E100E050140020E1
S31508004D604C8E0108642004F0F7BC014800787047AF
S31508004D706C0A00202DE9F04186B006466FF02A003D
S31508004D80864201DA8B205DE014237F222F4800F04B
S31508004D9065F8BDF810004FF6FF71884204D00E2161
S31508004DA0084201D0012506E03F220021F020FFF746
S31508004DB065FB0446002528482E49042E0FDA0022F2
S31508004DC0234B01E0521CD2B2D756B742FADB026037
S31508004DD00F700020002607464FF003080EE0092E44
S31508004DE0D0DA725C02600E7014237F22194800F034
S31508004DF035F80320012601274FF0280825B14FF67C
S31508004E00BF72BDF8101018E04FF46052C10200F0EE
S31508004E1029F84FF4E062310200F024F88022F90103
S31508004E2000F020F884F0200008EB0004A4B2402C1F
S31508004E3000DB3F243F2284F02001FFF7B1FEFFF795
S31508004E4059FD002006B0BDE8F08100BF569501085F
S31508004E50988E010858950108C0100040018800A8DE
S31508004E6004F0BEBA89B2A020FFF70EBB014890F93C
S31508004E70000070479808002042DE704738B504469F
S31508004E800D46FCF751FEFFF7E7FA2A462146DFF8FA
S31508004E90E40102F0ECF829462046BDE83440EBE789
S31508004EA02DE9F8434FF42068DFF8CC110868DFF8DD
S31508004EB0CC61371D38650A6A7A65DFF8C42112683D
S31508004EC0BA654A6AFA658A6A3A66CA6A7A660A6B85
S31508004ED0BA66896BF96697F8341049074CBFFD6BBB
S31508004EE0BD6B40F2FF14DFF89C91DFF89C219542D8
S31508004EF027D3A94525D305F2180555F8041B3964A7
S31508004F0055F8041B7964204006281DD1386C0088A2
S31508004F104DF64261884217D106F2880071684160F1
S31508004F207968816055F8040B706055F8040B786051
S31508004F3055F8040BB86055F8040B786340F201780D
S31508004F4002E000203864786400F082F8B864002033
S31508004F50F864002206EB80014A67401C0628F9DB44
S31508004F60386C00283DD00020DFF82021DFF82031FA
S31508004F7003E006EB800CCCF87410A9452CD359F83D
S31508004F80041D9942F9D39142F7D25FEAC17CF4D560
S31508004F904FF0000C06EB8C0EDEF874E08E4504D05C
S31508004FA00CF1010CBCF1060FF4DBBCF1060FE4D1E1
S31508004FB000281ABF401EC0B20520DAE7396F4FF045
S31508004FC0000C06EB8C02936F53670CF1010CBCF1D5
S31508004FD0050FF6DBC6F888100146481EC0B2002940
S31508004FE0ECD1386D204002280AD0032816D00428B0
S31508004FF017D0052818D0062819D00C281DD01FE070
S31508005000DFF890000168890748BF40F602181CD4EB
S315080050100068C00719D540F2025816E040F6012884
S3150800502013E040F6022810E040F603280DE0B8F534
S31508005030206F0AD140F6042807E040F6052804E068
S3150800504018B1212838BF40F607284046BDE8F28344
S3150800505011480068C00654BF0B48104800E0001D00
S31508005060084A904203D20368B3F1CD3FF7D0101A2D
S3150800507070470000C08E010804ED00E00000002023
S3150800508000E300E05807002000000020967C010895
S31508005090840100081CA000402C0000409400002059
S315080050A0F8B50C461646C088000422D50027BC4D24
S315080050B0781901798C4219D1AEB9FF2101712046C0
S315080050C000F0E7F9E878401EE870C0B2002808D179
S315080050D0A878B24909780818A87000F00CF800F00A
S315080050E044F80120F2BD304600F03FF87F1C0A2F35
S315080050F0DEDB0020F2BD70B5A94CA678A74D04E00A
S31508005100E078401CE070761CF6B2A078301A297850
S315080051108842BCBF607886420FDA06F0FF0101EBD1
S31508005120002020833019037904F11002A18B20781E
S3150800513003F0F4F90028E3D070BDE078002804D124
S31508005140FF2020700020FBF7C6F9002070BD38B597
S3150800515004460025285DFF2803D0FF21295500F0C5
S3150800516098F96D1C0A2DF5DB31BD38B504000BD056
S315080051708B4D2878FF2807D0281DFFF7E8FFFF206A
S3150800518028702046FBF7A7F931BD10B5834800788B
S315080051900146844A137994780419A342BCBF93FB49
S315080051A0F0F100FB113101208840401EC043D07049
S315080051B010BD2DE9F84F07468A46F888000402D440
S315080051C00020BDE8F28F97F808900325764C754EB7
S315080051D0308B4FF6FF71884217D1704800788145A9
S315080051E013DA03F05FFE3083B87A70700020B0706F
S315080051F07071FF203071FFF7C8FF0A22FF2106F100
S31508005200080001F0E7FC00F0ACF803F04BFE318B28
S31508005210884203D1B87A7178884201D00120D0E754
S31508005220F078FF280BD1B0785C4909780A189145BF
S3150800523005DB0818B070FFF7A8FF00F092F857488A
S3150800524000780146B2788A189145E7DA4FF00108E6
S3150800525099FBF1F201FB129108FA01F1CCB2F1784F
S3150800526021404D1EAD41ED0F31780C4204BF44EA92
S3150800527001003070D2D0B9F1000F0AD13989090A74
S3150800528031718B46834538BFFFF77FFFBBF10B0FA4
S3150800529064D2F0782043F07009EB06043DB17079CA
S315080052A0401C707184F808A0504600F0E5F8F078C4
S315080052B03179491E89450BD03849097899FBF1F2AD
S315080052C001FB129108FA01F1491E0143FF2909D190
S315080052D0B17801EB002080B203F054FBFF217888F7
S315080052E003F079FB70793179884297D1504600F0FE
S315080052F072FA4FF00009FF2830D02072504600F0AD
S31508005300C8F80021504600F014FA4F461FE007EB94
S31508005310060898F8084020480068255C05EB090B44
S315080053205FFA8BF1504600F004FAB8B900950023ED
S3150800533022464946504600F0DCFA5FFA8BF92046C9
S3150800534000F0A7F8FF2088F808007F1CFFB2307924
S315080053508742DCDB4FF6FF70308331E700F009F84F
S315080053605CE7208805FB00F189B206F1140012F00B
S31508005370EDB938B50B4C002020754FF6FF75208B1C
S31508005380A84204D004F10800FFF7E1FE258331BDE9
S31508005390064812F0FAB9000018090020A00A0020F1
S315080053A0C4080020A8080020760A0020D48E010828
S315080053B00249096801EB4010704700BF1409002034
S315080053C0DFF8542412688154704700002DE9F04133
S315080053D0040001D1FF204BE0FFF73EF8DFF8881301
S315080053E0FF22454DDFF8D0341E78FE2E1CD100264C
S315080053F01E70204E37782F700027DFF8F4C509E0B5
S3150800540007F1010E07F808E0DCF8008007F8082025
S315080054105FFA8EF796F800E0D1F800807745EFDB63
S315080054200EEB080606F8012C2E78A64202D2FFF7E4
S315080054300FF8CFE7361B2E701D78454E1F78D6F825
S3150800544000C04FF0010E07F80CE0D1F800C017F8BD
S315080054500CE083F800E0641EE4B2002CEED107F8F5
S315080054600C2000F0D2F800226A54FEF7F1FF284615
S31508005470BDE8F081950A002010B50446FEF7ECFF5A
S3150800548033490968625C521C6254BDE81040FEF755
S31508005490DFBF2DE9F041054600F030F88046FEF7FB
S315080054A0DBFFDFF81414144AAF4B294E00E06546BB
S315080054B0FF2D1DD03768EC5D641EEC55376815F86E
S315080054C007C07F241CEA040F12D11C6815F804C013
S315080054D00024EC5517787F1C17701F680C78EC555C
S315080054E00D70BCF1FF0FE2D145464FF0FF08DFE72C
S315080054F0BDE8F041FEF7ACBF960A002080B5144916
S315080055000968415C090603D5FFF752FF007802BD1A
S31508005510FF2002BDB0B505460C46FFF7EFFFFF2892
S3150800552001D0FFF7B6FF0A4FFF2C04D13868295C73
