S00E000076656869636C652E73333706
S315080000005807002049270008252F0108272F01082F
S31508000010A70B0000000000000000FFFF3C000008DE
S3150800002004070300000000000000000000000000B4
S315080000300000000000000000000000005807002033
S3150800004049270008252F0108272F0108A70A0401B8
S31508000050000100080407039C32400000000000006D
S315080000600000000000000000000000000000000082
S315080000700000000000000000000000000000000072
S3150800008000000000FFFFFFFFFFFFFFFFFFFFFFFF6E
S3150800009000E00108FFFFFFFFFFFFFFFFFFFFFFFF75
S315080000A0FFFFFFFFFFFFFFFFFFFFFFFFFFFFFFFF52
S315080000B0FFFFFFFFFFFFFFFFFFFFFFFFE01F00201F
S315080000C0000000008819002071140020580700203D
S30D080000D0687201085C5E010874
S315080001005807002049270008252F0108272F01082E
S315080001102B2F0108292F01082D2F0108CC1B0108B8
S31508000120CC1B0108CC1B0108CC1B0108CC1B010801
S315080001302F2F0108CC1B010895840008CC1B010849
S31508000140CC1B0108CC1B010839710008CC1B01081F
S31508000150B91401080B7D0008CC1B0108CC1B01084B
S31508000160C50D010885D3000865000108CC1B0108E8
S31508000170CC1B0108CC1B0108DB7B0008397C000876
S31508000180710F01082DE9F04104000D00160068887A
S315080001903B2811D100213000C0B203F005FF07004B
S315080001A03100C9B2280003F022FC80465FFA88F8BD
S315080001B0B8F1000F08D107E03200D2B229002000BA
S315080001C0C0B2244BDB6B9847BDE8F0812DE9F041BE
S315080001D082B005000E0017009846089C78883B28D0
S315080001E009D12200D2B24146C9B2380003F076FBE3
S315080001F000280ED10DE0E4B200944346DBB23A0083
S31508000200310089B22800C0B2DFF848C0DCF840C027
S31508000210E047BDE8F3817047704710B50400200039
S31508000220C0B20C49496C884710BD30B587B0040088
S315080002300D000822084900A804F05BF8ADF808404C
S3150800024005208DF80A008DF80B5000A802F0C7FBB0
S3150800025007B030BDD00D0020C70D0020704770478D
S31508000260C0B2002829D0022829D027D3042828D0AC
S3150800027026D3062827D025D3082826D024D30A280B
S3150800028025D023D30C2824D022D30E2823D021D33B
S31508000290102822D020D3122821D01FD3142820D0EA
S315080002A01ED316281FD01DD318281ED01CD31A28D3
S315080002B01DD01BD31B281BD01AE019E018E017E045
S315080002C016E015E014E013E012E011E010E00FE08C
S315080002D00EE00DE00CE00BE00AE009E008E007E0BC
S315080002E006E005E004E003E002E001E000E0FFE7E5
S315080002F070470000F0B583B004000D001600DFF863
S315080003001008407C002811D08DF804408DF805505F
S315080003108DF8066001A80090032300225F21DFF80C
S31508000320F407DFF8F077D7F89C71B847F7BDF0B552
S3150800033083B00400002005002078502800F0F282DF
S31508000340C0F03083522800F00D81C0F0D2805428C6
S315080003506DD0C0F09D80562800F06C82C0F0CA822D
S31508000360582800F09F82C0F03C825A2800F0158178
S31508000370C0F0C4815C2832D0C0F040815E2800F00D
S315080003806E8180F00F83DFF85C0C007B6178884211
S31508000390C0F01A83DFF87807407C002809D1627814
S315080003A0DFF87417DFF86C07DFF86837D3F8B03171
S315080003B09847627892B2211DDFF8280C006903F08D
S315080003C03FFFDFF8200C00690190607800905D23FC
S315080003D000220121DFF8100C04F08CFAF4E26078B0
S315080003E021281ED26078C0071BD4207980B2DFF896
S315080003F0F41B496A88476080608800280BD0201D56
S315080004000190607800905C2362880221DFF8D80B9F
S3150800041004F070FAD8E2FF225C212079FFF76AFF20
S31508000420D2E2FF225C212079FFF764FFCCE2207933
S3150800043080B2DFF8B01B496A884760806088002868
S3150800044020D0DFF8CC06407C00280FD16088DFF882
S31508000450941B096A884780B20200DFF8901BDFF810
S31508000460B406DFF8B036D3F8B0319847201D0190AE
S3150800047060780090542362880221DFF86C0B04F040
S3150800048039FAA1E2FF2254212079FFF733FF9BE2D4
S31508000490207980B2DFF84C1B496A884760806088FB
S315080004A0002820D0DFF86806407C00280FD1608835
S315080004B0DFF8301B096A8847020092B2DFF8301B62
S315080004C0DFF85006DFF84C36D3F8B0319847201DD0
S315080004D0019060780090532362880221DFF8080BA8
S315080004E004F008FA70E2FF2253212079FFF702FF91
S315080004F06AE26088002801D0608805E0207980B229
S31508000500DFF8E01A496A88470600B6B2002E21D0FD
S31508000510DFF8FC05407C00280FD16088DFF8C41A94
S31508000520096A884780B20200DFF8C81ADFF8E405CE
S31508000530DFF8E035D3F8B0319847201D0190607890
S3150800054000905123320092B20221DFF89C0A04F08F
S31508000550D1F939E2002251212079FFF7CBFE01F0CB
S315080005602FFA31E2608800280BD000200190002085
S315080005700090522362880221DFF86C0A04F0BAF967
S3150800058022E200200190002000905223002201213F
S31508000590DFF8540A04F0AEF916E2207980B2DFF8E3
S315080005A0441A496A884760806088002820D0DFF8A6
S315080005B06005407C00280FD16088DFF8281A096A90
S315080005C0884780B20200DFF8641BDFF84805DFF8C9
S315080005D04435D3F8B0319847201D019060780090D3
S315080005E05A2362880221DFF8000A04F083F9EBE156
S315080005F0FF225A212079FFF77DFEE5E1207980B2B6
S31508000600DFF8E019496A884760806088002820D0AA
S31508000610DFF8FC04407C00280FD16088DFF8C41995
S31508000620096A884780B20200DFF8081BDFF8E4048D
S31508000630DFF8E034D3F8B0319847201D0190607890
S3150800064000905B2362880221DFF89C0904F052F9C6
S31508000650BAE1FF225B212079FFF74CFEB4E120794D
S3150800066080B2DFF88019496A884760806088002868
S3150800067021D0DFF89C04407C002810D16088DFF880
S315080006806419096A8847637980B20200DFF8A81AF4
S31508000690DFF88004DFF87C74D7F8B071B847201DFE
S315080006A00190607800905E2362880221DFF838099D
S315080006B004F020F988E12079002819D1DFF85004E0
S315080006C0407C002809D16279DFF8701ADFF8440403
S315080006D0DFF84034D3F8B0319847607903F0FCFE70
S315080006E000225E212079FFF705FE01F069F96BE12A
S315080006F0FF225C212079FFF7FDFD65E1608800286F
S315080007004ED060780A284BD16088DFF8D818096A75
S31508000710884707000A22211DDFF8240A03F090FD06
S31508000720DFF8200A407FBFB280B2874232D0DFF8B6
S31508000730E003407C00280DD1DFF8080A437FBFB2EA
S315080007403A00DFF8041ADFF8CC03DFF8C8C3DCF890
S31508000750B0C1E047DFF8E80901900A200090592364
S3150800076062880221DFF8800804F0C4F8DFF8A003E5
S31508000770407C002800F02881DFF8C40900900A238D
S3150800078062882178DFF88C03DFF888C3DCF89CC11F
S31508000790E04719E1FF225C212079FFF7ABFD13E161
S315080007A0608800280BD10020019000200090592372
S315080007B000220121DFF8300804F09CF804E1D4484F
S315080007C0407C002800F00081DFF8880900900A23A1
S315080007D0CF48C2882178CF48CE4FD7F89C71B84702
S315080007E0F2E060780E2813D10E22211DDFF8680981
S315080007F003F026FDDFF8600901900E2000905723CC
S3150800080000220121DFF8E00704F074F80120050052
S31508000810BF48407C002800F0D780DFF83C090090EC
S315080008200E23BB48C2882178BA48BA4FD7F89C71BC
S31508000830B847C9E06078142822D1201D0700B87A85
S31508000840B34991F84E10884204D13868B049496CCA
S31508000850884215D03B68BA7AAD4890F83B10AC4848
S31508000860C07A03F0A7FDAA48407C002806D1DFF825
S31508000870EC18A848A74AD2F8B021904701F0A0F88A
S31508000880A348407C002800F09F80DFF8D408009039
S3150800089014239F48C28821789E489E4FD7F89C719A
S315080008A0B84791E06078202813D12022211DDFF86F
S315080008B0B40803F0C5FCDFF8AC08019020200090CE
S315080008C0582300220121DFF8200704F013F801203D
S315080008D005008F48407C002876D0DFF8880800900D
S315080008E020238B48C28821788A488A4FD7F89C717A
S315080008F0B84769E00822211DDFF86C0803F0A0FC60
S31508000900DFF8640801900C2000905523002201218D
S31508000910DFF8D40603F0EEFF002255212079FFF711
S31508000920E9FC51E0608800280BD0201D0190607812
S315080009300090502362880221DFF8AC0603F0DAFF44
S315080009401AE0207980B2DFF89C16496A88476080E9
S31508000950608800280BD0201D0190607800905023F5
S3150800096062880221DFF8800603F0C4FF04E0FF2254
S3150800097050212079FFF7BEFCE07980B2DFF86416D3
S31508000980496A88476080608800280AD0201D01903F
S3150800099060780090502362880221DFF84C0603F045
S315080009A0A9FF11E0FF2221782079FFF7A3FC584818
S315080009B0407C002808D163882278DFF8B0175548AC
S315080009C0544FD7F8B071B847EDB2002D01D003F0F7
S315080009D05FFDF7BD80B54E48407C002808D1DFF89A
S315080009E09017DFF89007DFF88C27D2F8B0219047E8
S315080009F04748407C002808D1DFF87C17DFF87407E1
S31508000A00DFF87027D2F8B02190474148407C00288B
S31508000A1008D1DFF86817DFF85C07DFF85827D2F83F
S31508000A20B02190473A48407C002808D1DFF8501793
S31508000A30DFF84007DFF83C27D2F8B0219047344862
S31508000A40407C002808D1DFF83C17DFF82807DFF8D4
S31508000A502427D2F8B02190472D48407C002808D199
S31508000A60DFF82417DFF80C07DFF80827D2F8B021DB
S31508000A7090472748407C002808D1DFF81017DFF890
S31508000A80F406DFF8F026D2F8B02190472048407CDB
S31508000A90002808D1DFF8F816DFF8D806DFF8D426DC
S31508000AA0D2F8B02190471A48407C002808D1DFF8D0
S31508000AB0E416DFF8C006DFF8BC26D2F8B021904766
S31508000AC01348407C002808D1DFF8CC16DFF8A406C6
S31508000AD0DFF8A026D2F8B02190470D48407C0028C0
S31508000AE008D1DFF8B816DFF88C06DFF88826D2F8C2
S31508000AF0B02190470648407C002808D1DFF8A016A8
S31508000B00DFF87006DFF86C26D2F8B021904701BDF1
S31508000B10780D0020B80A0020D85E0108F0B593B019
S31508000B2004000D00022C02DA01F026FB57E2686881
S31508000B3000783F2804D1022C02D1FFF74BFF4EE282
S31508000B40DFF860262900200003F0A2FD06005FF00A
S31508000B50FF3140B2884200F0428276B2002EEFD0D2
S31508000B60DFF84406C0680028EAD076B2300061286B
S31508000B7000F07D81622800F0C58163283ED0642894
S31508000B8000F096816A2800F084806E2800F0A9801B
S31508000B906F280ED0702800F0F781712800F0D481F4
S31508000BA0722800F0F08074284DD0782800F02C8147
S31508000BB012E200AAD2A1DFF8F005C06812F0D0FA56
S31508000BC000980128BCDBDFF8E40580880099884294
S31508000BD0B6DB54208DF80400009880B2DFF80414C0
S31508000BE0496A8847ADF8060001208DF80500009887
S31508000BF08DF8080001A8FFF79AFBA1E700AAC0A193
S31508000C00DFF8A405C06812F0ABFA0098012897DB54
S31508000C10DFF8980580880099884291DB53208DF883
S31508000C200400009880B2DFF8BC13496A8847ADF81B
S31508000C30060001208DF8050000988DF8080001A827
S31508000C40FFF775FB7CE700AAADA1DFF85C05C06875
S31508000C5012F086FA00980128FFF672AFDFF84C0505
S31508000C60808800998842FFF66BAF51208DF8040002
S31508000C70009880B2DB49496A8847ADF8060001202A
S31508000C808DF8050000988DF8080001A8FFF74FFBBE
S31508000C9056E700AA9AA1DFF81005C06812F060FAB4
S31508000CA0DFF80805808800998842FFF649AF009862
S31508000CB08DF8080000AA92A1E86812F051FA009887
S31508000CC08DF809005E208DF80400DFF8E004C0887E
S31508000CD0ADF8060002208DF8050001A8FFF727FBEE
S31508000CE02EE700AA86A1DFF8C004C06812F038FA19
S31508000CF0009880B2BB49496A884700283FF420AF6C
S31508000D00009880B2B749496A8847070000AA7CA1BB
S31508000D10E86812F025FADFF82C040099417700AA52
S31508000D2077A1286912F01CFADFF818040099817770
S31508000D30DFF81004407F012808D3DFF80804407F55
S31508000D40DFF86814898880B288420AD3DFF8F4038A
S31508000D50407F80B2A349496A8847BFB287423FF4B9
S31508000D60EFAE59208DF804000A208DF80500ADF87D
S31508000D7006700A22DFF8C81302A803F061FA01A870
S31508000D80FFF7D5FADCE600AA5DA1DFF81C04C06807
S31508000D9012F0E6F90098C0B29249496A8847ADF858
S31508000DA0060080B200283FF4CBAE2000C0073FF50E
S31508000DB0C7AE00988DF8080000AA51A1E86812F09D
S31508000DC0CFF900988DF8090000200700FFB2201F10
S31508000DD087420EDA00AA4AA1FFB215EB870000691E
S31508000DE012F0BEF9FFB201A83818009981717F1C6C
S31508000DF0ECE75C208DF804002000801E8DF80500C5
S31508000E0001A8FFF794FA9BE600AA3DA1DFF898032C
S31508000E10C06812F0A5F90098FB28BFF691AEDFF876
S31508000E208C030099818000AA35A1E86812F098F928
S31508000E300098DFF8781389888842BFF681AEDFF814
S31508000E406C030099417357208DF80400DFF85C03A2
S31508000E50C088ADF806000E208DF805000E22BE49A2
S31508000E6002A803F0EDF901A8FFF761FA68E600AAFF
S31508000E7023A1DFF83403C06812F072F90098042839
S31508000E80BFF65EAE57208DF80400C848C088ADF896
S31508000E9006000E208DF80500C4480099C1720E227E
S31508000EA0AD4902A803F0CCF901A8FFF740FA47E6D6
S31508000EB000AA13A1BC48C06812F052F9BC480078D1
S31508000EC0002802D0BB4803F0A4FCB848407C0028A0
S31508000ED001D0002000E00120B4494874B348407CA2
S31508000EE0002801D0002000E00120B1490870B04870
S31508000EF0007800283FF424AEAF4803F08AFC1FE6CA
S31508000F002564000000AA8AA1A748C06812F028F93B
S31508000F100098002804D101F0C9F800F051FD0FE649
S31508000F205B208DF80400009880B22E49496A8847EC
S31508000F30ADF8060001208DF8050000988DF8080028
S31508000F4001A8FFF7F4F9FBE500AA79A19648C0685D
S31508000F5012F006F9009800283FF4F2AD57208DF8F4
S31508000F6004009248C088ADF806000E208DF80500EA
S31508000F708E480099C1800E22774902A803F060F9CD
S31508000F8001A8FFF7D4F9DBE500AA69A18648C0687D
S31508000F9012F0E6F8009800283FF4D2AD834800998D
S31508000FA0817200AA62A1E86812F0DAF87F4800990F
S31508000FB0017357208DF804007C48C088ADF80600F8
S31508000FC00E208DF805000E22634902A803F038F9B1
S31508000FD001A8FFF7ACF9B3E5FFF7FCFCFFE713B090
S31508000FE0F0BD000048100020D40C0020F45E010873
S31508000FF0105F0108285F010838B504006A48407A7E
S31508001000002830D16848012141726748007A0028D3
S3150800101007D065480021017260220021674803F065
S3150800102052F96148007A6049401880F8D0405E4815
S31508001030007A401C5C490872E4B20A2C02D0E4B279
S315080010400D2C02D15848002141725848407C00288E
S315080010506BD1E4B223005A4A5A494648454DD5F859
S31508001060B051A84761E05048407A01285DD1E4B202
S315080010700A2C02D0E4B20D2C20D14B48007A002865
S315080010800ED04A48407C002805D130A13948394A53
S31508001090D2F8B02190474448017A484803F027FB24
S315080010A04248407C002805D147493248314AD2F89F
S315080010B0B02190473C480021417236E03B48407CCD
S315080010C0002807D1E4B2220021A12A48294BD3F8E7
S315080010D0B03198473448007A3349401880F8D040F0
S315080010E03148007A401C304908722F48007A602837
S315080010F01BD32E48407C002805D114A11D481D4A43
S31508001100D2F8B02190472848017A2C4803F0EFFA24
S315080011102648407C002805D12B491648154AD2F89E
S31508001120B021904720480021417231BD445F010833
S3150800113025640000685F0108885F0108B85F010838
S31508001140E50D0020D00D0020E85F01080A0D00001B
S3150800115025630000AA0D00207C0D00200860010808
S31508001160BC0D00208A0D0020941000203460010870
S3150800117064600108B80A002090600108B46001089C
S31508001180D860010800610108406101088061010812
S31508001190CC610108FC610108346201087462010827
S315080011A0A46201081063010858070020780D002082
S315080011B0800C0020E4620108FC620108280800206F
S315080011C0246301081C6301082C630108C0B20728C0
S315080011D005D1C9B2012902D1374A01231370C0B219
S315080011E0002805D1C9B2012902D1344A0123137056
S315080011F0704710B500200400E4B2002C06D130492F
S31508001200304805F06BF90400E4B2002C10BD70B547
S315080012100400250008200600F6B2012E0FD32A483E
S31508001220407C002809D1F6B2701910F8012C27491C
S315080012302748274BD3F8B0319847761EECE770BDA0
S3150800124070B50400200080B204F01CF806000120E6
S31508001250B04021490988084214D01E4839214180E6
S315080012601E4803781B4A210089B2002004F018FDA5
S31508001270194800880121B1404FF6FF7251400840D5
S31508001280154908800120B04013490988084206D14B
S31508001290200080B204F025F80500EDB2002D70BDDF
S315080012A038B504000D00EDB2002D03D0200080B241
S315080012B0FFF7C6FF31BD0000461400204714002082
S315080012C09A0D00208A0D0020780D00204C63010835
S315080012D0B80A00206C0C002030140020900A002068
S315080012E070B584B004000D00EDB2012D14D100AA2A
S315080012F001A92000C0B203F0ECFD0600F6B2002EEC
S315080013000AD19DF80000062806D12000C0B203F0D5
S31508001310D2FD80B203F0D6FF7FBD704780B504F0DA
S3150800132007FB0B4948730A48407B002806D001286A
S3150800133007D0022806D0042808D007E000F0ACFD44
S3150800134004E003E0024802218173FFE701BD0000C3
S31508001350D00D00202DE9F04385B004000D001600DD
S3150800136005F0CCFA0700F6B2B1480068305C804652
S3150800137000213000C0B202F017FE8146BFB2002F2E
S3150800138000F053816888132800F01381522800F072
S31508001390E780562860D0572808D0582831D05928D1
S315080013A000F085805F2800F0B6802CE1A148407CDB
S315080013B000280DD0CDF800904346DBB23A0092B231
S315080013C057219D48DFF870C2DCF89CC1E0472CE144
S315080013D09848407C002840F02881380080B2974918
S315080013E0096A88475FFA88F8CDF800806B8880B26A
S315080013F0020093499048DFF840C2DCF8B0C1E047E4
S3150800140013E18C48407C00280DD0CDF80090434667
S31508001410DBB23A0092B258218748DFF81CC2DCF8E2
S315080014209CC1E04701E18348407C002840F0FD80EC
S31508001430380080B28149096A884702005FFA88F84D
S31508001440CDF800806B8892B27D497B48DFF8E8C109
S31508001450DCF8B0C1E047E8E07648407C00280DD0CB
S31508001460CDF800904346DBB23A0092B25621724854
S31508001470DFF8C4C1DCF89CC1E047D6E06D48407C83
S31508001480002840F0D280380080B26C49096A884743
S315080014905FFA88F8CDF800806B8880B20200684948
S315080014A06548DFF894C1DCF8B0C1E047BDE05FFAF3
S315080014B088F8B8F10A0F40F0B8800A22494602A80F
S315080014C002F0BEFE390089B29DF81000401E80B2B7
S315080014D05A4AD26990475748407C00280CD002A83F
S315080014E000900A233A0092B259215348DFF848C1BE
S315080014F0DCF89CC1E04798E04E48407C002840F064
S3150800150094805FFA88F842464E494B484A4BD3F8CE
S31508001510B031984789E04748407C00280DD0CDF87F
S3150800152000904346DBB23A0092B25F214248DFF8A8
S3150800153008C1DCF89CC1E04777E03E48407C0028BB
S3150800154073D199F80200009099F8003099F80120B3
S315080015503D493948DFF8E0C0DCF8B0C1E04764E04F
S31508001560390089B2484600F046FC3248407C0028DB
S315080015700DD0CDF800904346DBB23A0092B2522124
S315080015802D48DFF8B4C0DCF89CC1E0474DE0294897
S31508001590407C002849D1380080B22849096A884722
S315080015A080B2020029492448234BD3F8B031984722
S315080015B03BE02048407C00280DD019F1010000903E
S315080015C00A233A0092B213211B48DFF86CC0DCF8F4
S315080015D09CC1E0470BE01748407C002807D1BFB202
S315080015E03A001B491448144BD3F8B03198470020E9
S315080015F001900020009059233A0092B20221154822
S3150800160003F078F911E00B48407C00280DD0CDF89E
S3150800161000904346DBB23A0092B26988C9B20648DE
S31508001620DFF814C0DCF89CC1E04705B0BDE8F083DC
S3150800163008090020780D0020B80A0020481000206C
S315080016405463010888630108B0630108E863010868
S3150800165008640108D40C002010B51822002165483A
S3150800166002F031FE64486549B1F84810A0F86010E8
S315080016706148624991F94C1080F862105E485F49EA
S3150800168091F84D1080F8631008225D49594802F018
S31508001690D7FD05F0BBF90400E4B2002C05D007B568
S315080016A02B21584804F008FEFFE700F0F5FB10BDB3
S315080016B000B583B05048807C01280DD14E48C07CC7
S315080016C0002809D1504801900C200090552300228B
S315080016D001214E4803F00EF907BD80B54648C06C97
S315080016E0002802D04448C06C804701BD80B54248F6
S315080016F0806C80474048806B804701BD80B502F00A
S3150800170065FA434814F024F901BD80B53A48006AE1
S3150800171080473948406A80473748806A8047364854
S31508001720406B002802D03448406B804701BD80B525
S31508001730012300220F21012003F08CF8002805D090
S31508001740012300220821012003F084F801BD704717
S3150800175080B508222F49304802F072FD2748407CA0
S3150800176000280CD12448807C012801D12B4A00E0AE
S315080017702B4A2C492C482C4BD3F8B031984701BD3D
S3150800178080B52A48082101701B48006B8047FFF77F
S31508001790DFFF01BD80B50521642005F019FB01BDF9
S315080017A0704780B500F0BCF8FFF7C1FFFFF7CFFF21
S315080017B000F098F805F0ACF800F08BFC00F052F950
S315080017C000F05EFAFFF7E6FFFFF7EAFFFFF744FFD0
S315080017D0FFF7D6FF08484068401C0749486000F0F4
S315080017E035F80548C06A8047FFF78FFFFFF786FF81
S315080017F0F0E70000280E0020D00D0020780D00200C
S31508001800C70D00203864010894100020D40C00206D
S3150800181074640108D4100020AA0D00205064010841
S315080018206064010848640108B80A002057140020BB
S31508001830DFF8D40101210160DFF8D0014EF6BE21A0
S315080018400160DFF8CC01012101607047DFF8B801BB
S3150800185001210160704730B48308DFF8B84154F8B5
S3150800186023301B681A000F2310F00304E4B2A40007
S31508001870A3409A4310F00303DBB29B0011FA03F36B
S3150800188013438408DFF88C5155F82440236030BC94
S31508001890704780B505F022FF40F68C21884206D2B3
S315080018A05D48006850F008005B49086004E05A4843
S315080018B0016821F00801016001BDC0B2082190FB52
S315080018C0F1F103290DDAC0B2082190FBF1F14FF4CA
S315080018D08062524B02FB0131012210F007039A4045
S315080018E00A60704780B501210320FFF7B4FF032083
S315080018F0FFF7E3FF01210620FFF7ADFF0620FFF7FC
S31508001900DCFF09211520FFF7A6FF01210720FFF7B5
S31508001910A2FF0720FFF7D1FF022005F031FF01BD26
S3150800192080B502237F223E4801883E4805F08EFA9C
S315080019303C4800884FF6FF71884201D105F02CFB20
S31508001940002005F093FB3448006850F0080032493F
S31508001950086005F049FB05F00BFBFFF769FF00F08F
S315080019603AF8FFF796FF3048C92101602F487921D8
S3150800197001602F48E72101602E4849F6D9510160D8
S315080019802D4848F6111101602C4849F29941016029
S315080019902B4840F2191101602A4844F69911016052
S315080019A0294849F6941101601B48016821F0100185
S315080019B0016013F0ADFF06F0D1F805F0D5FA01BDC8
S315080019C080B540F2016005F08BFB01BD80B50420AF
S315080019D005F0B3FA01BD80B51C48102101601C480A
S315080019E0022101601B484FF40061016005F0BCFB51
S315080019F0194807210160194800210160184810217B
S31508001A000160002002BD000008600040046000403C
S31508001A10006000408C64010800BC004010B0004023
S31508001A20EE6E0108780A00200CB000400CB40040A5
S31508001A300CB8004000B0004004B0004000B40040BC
S31508001A4004B4004000B8004004B8004080E100E05B
S31508001A50080000400C60004014A0004054A000405C
S31508001A6000E100E080B570220021724802F02BFCEC
S31508001A707048012101736F48002141736D480021A8
S31508001A8081736C480021C1736A4800210181694845
S31508001A9000214174674801210175664800210174D7
S31508001AA0644865490162634864494162614864491A
S31508001AB001656048634941655E48012181745D4856
S31508001AC00021C1745B48604981625A485F49C16216
S31508001AD058485F49016357485E49C16355485E499E
S31508001AE0016454485D49416452485D4981635148DF
S31508001AF05C4981644F485C49C1644E480021416392
S31508001B0002F01FFF02F05FFF02F08BFD574806F058
S31508001B1025FC01BD564AB2F84A200A80C0B2488060
S31508001B20444A127B0A71434A127B4A714FF4A072E7
S31508001B30CA8070474E4AB2F84A200A80C0B2488026
S31508001B403C4A127B0A713B4A127B4A710022CA80C0
S31508001B5041F211120A8170472DE9FF4104000D0078
S31508001B6016001F00002F02D0F6B2002E03D1012066
S31508001B70060000A807003100C9B2380002F027F9AC
S31508001B8080465FFA88F8B8F1FF0F01D1FF2014E00C
S31508001B9001A92000C0B2FFF7BDFF4346DBB201AA88
S31508001BA0290089B2002004F07BF88DF80000404631
S31508001BB0C0B202F08CF89DF8000004B0BDE8F081D0
S31508001BC0F0B585B004000D001600002E02D0EDB267
S31508001BD0002D03D10120050000A806002900C9B27E
S31508001BE0300002F0F4F80700FFB2FF2F01D1FF2002
S31508001BF013E001A92000C0B2FFF79CFF3B00DBB24F
S31508001C000822002101A804F097F88DF80000380092
S31508001C10C0B202F05CF89DF8000005B0F0BD1549A9
S31508001C200968080041F2111101800249097B817097
S31508001C3070470000D00D0020896A0008917D0008D1
S31508001C40591B0008C11B0008FD260008E91F0008EB
S31508001C507F1F000855130008951D00084D1E000833
S31508001C601D13000861260008B9260008B80A0020D6
S31508001C70780D00203409002080B5FFF7E7FD01BD87
S31508001C8010B53848002101603748012101603748FE
S31508001C900121016036480021016035486021016054
S31508001CA009210620FFF7D7FD00F03AF800F042F8C0
S31508001CB000F04AF800F027F82E484FF47A710160D0
S31508001CC02D480A2101602D480021016005F046F9DA
S31508001CD004002B484FF4807101602A48006850F0D0
S31508001CE00100284908602000C0B205F033F910BD8C
S31508001CF04FF47A71081A002804D4B0F57A7F01DC0B
S31508001D001D49086070472048006850F040001E4989
S31508001D1008601D48006850F080001B49086070473D
S31508001D2080B501211720FFF796FD01211620FFF740
S31508001D3092FD01BD80B501210820FFF78CFD012128
S31508001D400720FFF788FD01BD1048006850F0010024
S31508001D500E4908600E48006850F080000C4908607B
S31508001D607047000050E0004028E0004014E00040C2
S31508001D701CE000402CE000403CE0004024E000402D
S31508001D8020E0004000E0004010B8004010B40040D9
S31508001D9010B000402DE9FC4105000E0017009846DA
S31508001DA0089C7888B0498968497889B2884220D1E0
S31508001DB0E4B2002C1AD0AD48407C401CAB494874AC
S31508001DC0C0B2032815D2A8488068801D0190A6488D
S31508001DD0806880780090A44880684378A248806824
S31508001DE082880121A04802F085FD02E09F48002173
S31508001DF04174BDE8F38170B504000D00002C01D1D3
S31508001E00002021E09A48C07A022802D120780600EC
S31508001E1001E02088060096488088B6B2B04202D310
S31508001E20B6B2002E01D100200EE0761E290089B236
S31508001E302000914A92699047290089B2300080B201
S31508001E408D4AD2699047012070BD704730B587B07A
S31508001E500400E4B22000902804D0912817D09428D2
S31508001E6016D016E000A803F075FD0500EDB2002DAA
S31508001E700AD18248007D012805D0022802D003280D
S31508001E8002D001E000E0FFE7FFF7C9FE01E000E04D
S31508001E90FFE707B030BD000010B5FFF7AAF977488D
S31508001EA001210175764800F09AFD0400E4B2002C81
S31508001EB005D007B540F22311724804F0FDF910BDAC
S31508001EC07CB504000D006A48C07A022802D1A078C1
S31508001ED0060003E0A078C0B240080600B00609D59F
S31508001EE0694801900C2000905523002201215E4884
S31508001EF002F000FD73BD010089B2002904D05C48D8
S31508001F00808889B2884201D2002006E089B25A4800
S31508001F10806810EB410030F8020C7047010089B266
S31508001F20002901D1002014E000221000504A9288AE
S31508001F3080B290420CD280B24F4A926832F8102092
S31508001F4089B28A4202D1401C80B202E0401CEDE709
S31508001F500020704738B504000D00A4B246488068D2
S31508001F6030F81400ADB2A84204D0A4B24248806842
S31508001F7020F81450280080B2FFF767FF31BD80B5FE
S31508001F80282200213C4802F09EF94FF4FA720021FB
S31508001F903E4802F098F9384835498988818036489C
S31508001FA03A4981603448112101733348027B92B261
S31508001FB00021374802F087F92F48354901612E4834
S31508001FC0012101702C48334941612B483249C161CE
S31508001FD0294832490162284831494162264831492F
S31508001FE0816100F0B1F801BD10B592B02E482E49B6
S31508001FF0C96C8847002813D12B482B49896C884718
S3150800200004002100C9B21B481A4AD2F89821904701
S3150800201018480078002803D12000C0B2FEF7ECFF6C
S3150800202000A91448134AD2F894219047002802D0F0
S3150800203000A8FEF77CF912B010BD002001000C487C
S31508002040808889B281420BD289B20B48806830F801
S315080020501100002802D1481C80B203E0491CEEE7B3
S315080020604FF6FF7070470000D40C00209010002037
S31508002070780D0020B80A002048100020D00D002056
S31508002080280E0020A464010894100020540E002095
S31508002090400E00203B200008551F00081D1F0008A1
S315080020A0F71E0008C11E0008800C0020F8B50220A3
S315080020B00400012005000F200700002006003B0051
S315080020C03200D2B22900C9B22000C0B202F072F9B9
S315080020D0F1BD80B5DFF8FC245821002006F0A0F9F0
S315080020E0DFF8F004008845F2AA51884204D1DFF8E7
S315080020F0E4044088582802D0FFF7D8FF23E0DFF829
S31508002100D40490F84D000B280BD3DFF8C80490F8D8
S315080021104D001B2805D2DFF8BC0490F84E001128A4
S3150800212002D3FFF7C3FF0EE0DFF8A80490F83B00E0
S31508002130012808D0DFF89C0490F83B00102802D24A
S31508002140FFF7B4FFFFE701BD80B5DFF88804407CE0
S31508002150002805D1DFF87C040121417402F098F9C2
S31508002160DFF87004407C002801D0002000E0012040
S31508002170DFF86414087001BD30B58BB072A0040096
S31508002180DFF85004407C002808D1DFF85414DFF843
S315080021904C04DFF84824D2F8B0219047DFF834041D
S315080021A0407C00280BD1DFF82C04C288DFF83414F1
S315080021B0DFF82804DFF82434D3F8B0319847DFF87D
S315080021C01404407C00280BD1DFF808048288DFF865
S315080021D01814DFF80804DFF80434D3F8B031984748
S315080021E0DFF8F003407C00280CD1DFF8E80390F80C
S315080021F03B20DFF8F813DFF8E403DFF8E033D3F821
S31508002200B0319847DFF8CC0390F83B00012809D392
S31508002210DFF8C00390F83B00102803D2DFF8D0039C
S3150800222004004EE0DFF8AC0390F83B00102809D311
S31508002230DFF8A00390F83B00202803D2DFF8B403A8
S3150800224004003EE0DFF88C0390F83B00202809D311
S31508002250DFF8800390F83B00402803D2DFF89803A4
S3150800226004002EE0DFF86C0390F83B00502809D3F1
S31508002270DFF8600390F83B00602803D2DFF87C03A0
S3150800228004001EE0DFF84C0390F83B00102809D341
S31508002290DFF8400390F83B00202803D2DFF86003FC
S315080022A004000EE0DFF82C0390F83B00102808D352
S315080022B0DFF8200390F83B00302802D2DFF8440309
S315080022C00400DFF81003407C002808D12200C0A1D2
S315080022D0DFF80803DFF80433D3F8B0319847DFF89E
S315080022E0F402407C00280BD1DFF8E802027BDFF815
S315080022F01813DFF8E802DFF8E432D3F8B03198476C
S31508002300DFF80803807C022811D1DFF8C802407C78
S3150800231000280CD1DFF8BC0290F83A20DFF8F0125A
S31508002320DFF8B802DFF8B432D3F8B0319847DFF8EF
S31508002330A402407C002814D1DFF89802407C0028CB
S3150800234004D0DFF8D02203E000000000DFF8C8223E
S31508002350DFF8C812DFF88402DFF88032D3F8B0312C
S315080023609847DFF87002407C00280BD1DFF864023A
S31508002370827BDFF8AC12DFF86402DFF86032D3F84C
S31508002380B0319847DFF84C02407C00280BD1DFF8C3
S315080023904402C27BDFF88C12DFF84002DFF83C32D9
S315080023A0D3F8B0319847DFF82C02407C00280BD1CF
S315080023B0DFF82002027CDFF87012DFF82002DFF86F
S315080023C01C32D3F8B0319847DFF80802407C002861
S315080023D008D1DFF85812DFF80402DFF80022D2F835
S315080023E0B0219047DFF84802FEF711FFDFF8E40155
S315080023F0407C00280BD1DFF8DC01827ADFF8341242
S31508002400DFF8D801DFF8D431D3F8B0319847DFF8D0
S31508002410C401407C00280BD1DFF8B801427BDFF805
S315080024201812DFF8B801DFF8B431D3F8B03198479D
S31508002430DFF8A001407C00280BD1DFF89801426C38
S31508002440DFF8F811DFF89401DFF89031D3F8B031EE
S315080024509847DFF88001407C00280CD1DFF874012A
S3150800246090F84E20DFF8D811DFF87001DFF86C31EC
S31508002470D3F8B0319847DFF85C01407C002812D1C8
S31508002480DFF85001007AC3B2DFF84801008980B24C
S31508002490020A92B2DFF8AC11DFF84001DFF83C51CE
S315080024A0D5F8B051A84704A803F054FA002820D15B
S315080024B0DFF82001407C00280AD1BDF81820DFF893
S315080024C08811DFF81801DFF81431D3F8B0319847CE
S315080024D0DFF80001407C00282FD19DF81B20DFF88B
S315080024E06C11DFF8F800DFF8F430D3F8B03198470C
S315080024F023E0DFF8E000407C00280CD1DFF8D400A8
S31508002500B0F84820DFF84011DFF8D000DFF8CC300B
S31508002510D3F8B0319847DFF8BC00407C00280CD1CE
S31508002520DFF8B00090F84D20DFF82011DFF8AC0096
S31508002530DFF8A830D3F8B0319847DFF89800407C28
S3150800254000280CD1DFF88C0090F84C20DFF8001139
S31508002550DFF88800DFF88430D3F8B0319847DFF821
S315080025607400407C00280CD1DFF86800B0F84A20D7
S31508002570DFF8E010DFF86400DFF86030D3F8B03138
S315080025809847DFF85000407C00281ED1DFF8C800C5
S31508002590807A0390DFF8C000407A0290DFF8B8002E
S315080025A0007A0190DFF8B000C0790090DFF8A80043
S315080025B08379DFF8A4008288DFF8A010DFF81C0012
S315080025C0DFF81850D5F8B051A8470BB030BD000059
S315080025D025730000780D0020800C0020B80A002022
S315080025E0B4640108DC640108EC64010800650108AC
S315080025F01465010828650108406501085865010841
S3150800260070650108846501089C650108D00D0020E5
S31508002610B4650108E8650108F0650108C8650108A0
S31508002620F8650108246601085066010884660108F1
S31508002630AA0D0020A4660108BC660108DC6601082C
S31508002640F46601080C6701082C6701084C67010845
S315080026506C6701088467010890100020A0670108CC
S3150800266080B534480078401C3249087031480078F3
S31508002670DD2808D32F4800210170F02000F0EAF980
S31508002680012003F063FF2C48807B022813D12B48D6
S31508002690407A2B49897A90FBF1F201FB1200002857
S315080026A009D12648807C2549497A884203D023489F
S315080026B02249497A817401BD38B51F48807B0228B2
S315080026C01BD1204802F0F6F8002816D11D4802F062
S315080026D0FBF80400002C10D0A088002807D0A31D02
S315080026E0A278A1886078144D2D6DA84705E0A21D33
S315080026F0A1786078104B5B6D984731BD80B503F0C3
S3150800270017F90D4948730C48407B022810D10A482E
S31508002710007C00280CD108480121017405F08CFEC4
S3150800272006490883F02000F095F9012003F00EFF12
S3150800273001BD000048140020D00D00209010002094
S31508002740780D0020D40C002038B5344C40F2073000
S31508002750206072B63248016849084900016031486C
S31508002760112101606069800620D46069C00601D520
S315080027702D4805E02D4803E04FF0CD3140F8041B05
S315080027802B498842F8D32B482B492C4A00F07EF86F
S315080027902B482C49002200F073F82B482B4900F0EF
S315080027A06FF82B482B492C4A00F070F82B4D2C4813
S315080027B068604FF0784068612A48A8612A48E8614D
S315080027C02A482B4901604FF0803141608160C16021
S315080027D0E02101612748A860102028614FF4E02015
S315080027E0286205F037FE6069800608D52248002170
S315080027F00170286840F08050286005F067FE05F0F3
S315080028007BF904F0ABFB62B6FEF7CBFF07B5D42124
S315080028101A48BDE8344003F04FBD00BF1800004019
S31508002820FCED00E00080004094000020000000203D
S3150800283058070020086F010858070020B80A00202A
S31508002840B80A00207114002074140020881900208A
S3150800285000000000000000000000000004ED00E099
S3150800286000010008F8F8F88080F8408000E400E0ED
S31508002870808040800004FA05F8100020D06701081F
S3150800288001E040F8042B8842FBD3704703E050F878
S31508002890043B41F8043B9142F9D37047084A127841
S315080028A082420BD0002903D0012A03D1022805D081
S315080028B000207047022AFBD10128F9D10120704770
S315080028C051140020DFF8C009407E012803D03128C2
S315080028D001D0332801D10120704700207047DFF866
S315080028E0A81908757047DFF8A009817E042903D363
S315080028F0C17C491DC17470474FF47A711C3013F0BE
S3150800290008B810B5DFF88049002060742078FF28E1
S3150800291003D001F0DCF9FF20207010BD10B506F0D9
S31508002920A7FCC8B1DFF86049207801F05FF90021FB
S3150800293021776179143000F0FBFEFFF7E2FF00F023
S315080029400FF806480068C00702D513F024F808B93E
S315080029500BF090F813F01EF810BD00BF58110020B8
S3150800296080B5022002F0C0FF08F000FABDE8014079
S3150800297000F078BC10B5DFF810492075FFF7C1FFE5
S3150800298000214FF6FF7000F099FF607E032815D0EE
S31508002990002813D0332801D043280BD1207DA17EEF
S315080029A0032902D30321617615E0FDF736FCBDE85D
S315080029B01040D5E72120607603F028FE10BD10B53B
S315080029C0DFF8C448002060764FF6FF714FF6FE70B8
S315080029D005F038FD207DBDE81040FDF71EBC10B59A
S315080029E00446DFF8A408407E002807D120894FF660
S315080029F0FF71884202D000F05DF801D0702010BD4A
S31508002A002146002000F04CFE002820D1012000F0CD
S31508002A1033FE0021012008F033FF002817D102F009
S31508002A2023FB00220821204602F0B3FF38B1082113
S31508002A30204602F0BCFF002801D1A52010BD0020C9
S31508002A402074E08102486061204600F038F810BD25
S31508002A5000F8FF0780B5DFF830184A7E02F00F024B
S31508002A60022A01D0702002BD114A0023137008B94A
S31508002A7008760BE0FF2801D10120F9E701230B7640
S31508002A808000411C89B2104612F04DFF00F0EAFBA7
S31508002A90002002BD064800210170DFF8EC07407EE1
S31508002AA0042801D0532801D103F0B0BD0020D1E796
S31508002AB070100020DFF8C00900780928704710B5A3
S31508002AC004460022082102F064FF002801D00120F4
S31508002AD010BD05F0B1FC00224FF6FF7100F004FEB0
S31508002AE0217C204600F024FE6269E189207C08F0FA
S31508002AF06EF9DFF89447A07E012801D109F04FFB53
S31508002B00A07E01280CBF00200120DFF8A01608705F
S31508002B10FFF726FF002010BD70B50546DFF86847A9
S31508002B20A07E01281ED0607E022801D0032819D174
S31508002B30E27E032009F0AAFE060014D1332002F033
S31508002B40D3FEFFF7DEFE05F07AFCE080002D14BF09
S31508002B5002200120207404F1080000F093FE0020F2
S31508002B60A07400E07026304670BD38B5044601F002
S31508002B703DF80546204608F0BCFB4419204601F0FE
S31508002B80BBFA4FF6FF5101402046BDE8344001F03C
S31508002B90B9BA3EB505F050FC0546DFF8EC460B2100
S31508002BA0207808F085FB002100F088FE607E012869
S31508002BB001D0312805D108F0B7FC0546A08C85421E
S31508002BC0F9D00921207808F073FB0146284605F05C
S31508002BD039FCA58CA07E052813D100F05FFE8DF880
S31508002BE00800207C00280CBF4FF4804244F2010202
S31508002BF00120009002AB4FF48061284603F020F8CC
S31508002C000BE006208DF8080000F048FE8DF8090054
S31508002C1000F0DCFA284607F001FF0546FF2D01D132
S31508002C2000203EBDA18C08F09BFB207C022802D028
S31508002C302846FFF79AFF00220021284608F088FA5E
S31508002C400446284601F043F820463EBD2DE9F041EA
S31508002C5086B0884616461F460C9D0D9C38B94046D8
S31508002C6002F010FB02AA03A902F033F903A8072110
S31508002C708DF808108DF80960310A8DF80A108DF85C
S31508002C800B50019001200090042302AA012140461E
S31508002C9007F0C4FE0646FF2E1AD0414608F060FB30
S31508002CA017B93046FFF761FF0CB9304610E04046C9
S31508002CB002F039F918B1304609F094FF04E0002211
S31508002CC00021304608F044FA304601F000F8FF20AB
S31508002CD006B0BDE8F08100002DE9F64F83B08246C4
S31508002CE01D460E9F00244FF6FF785DB10126284643
S31508002CF007F0D4FE8146687810F0020000D0012063
S31508002D00029005E00026104608F099FB81460294D9
S31508002D109DF81000DFF8B0140968405CB91C8842B9
S31508002D20C0F2A980DFF86005807E032880F0A380C2
S31508002D30791CC9B29DF8100001F060F9074607F042
S31508002D40020B9DF80C0018B9380601D447F0800725
S31508002D50DFF83405407E022805D1DFF82C05007E11
S31508002D6050EA0A0001D102241FE09DF80C0030B198
S31508002D70BAF1010868EB08084FEAD87800E0A046DF
S31508002D801EB1281D01F0B8F901E04FF6FF700121C8
S31508002D90009143463A460146484602F001F8804605
S31508002DA04FF6FF70804500D10124F5B1BAF1000F46
S31508002DB003D14FF6FF70804504D1281D01F09CF918
S31508002DC0014600E04146012001900094029BDBB2D7
S31508002DD042464846FFF73AFFBBF1000F0AD14FF6C5
S31508002DE0FF71484605F0FEFC04E022464146484687
S31508002DF009F02AFB002C3ED1BBF1000F19D0494639
S31508002E00404605F00FFD0E2101FB00F41B4E31680C
S31508002E1061184A7942F040024A7105F033FD30687C
S31508002E202018790641794CBF41F0800101F07F01F5
S31508002E30417105B3DFF844469DF81000207005F08F
S31508002E40FBFADFF83CC0790601D50CF1010C0299B2
S31508002E50C9B211B10CF1020C04E0BAF1000F01D1AC
S31508002E600CF1040C4B46424601469CF8000007F05C
S31508002E708FFAFF20207005B0BDE8F08F38090020D2
S31508002E80F06701082DE9FE4F044688461646404677
S31508002E9008F039FA8146DFF8F0532F7C07B101278D
S31508002EA0A87E05280CBF012000208DF8040000F03C
S31508002EB085F9311D884278DB44B1484607F0EEFDB6
S31508002EC08246484607F0DEFD834605E0404608F0A0
S31508002ED0B6FA8246DFF8D8B00020009004233246BE
S31508002EE0414602A800F08FFF0DF1090001F004F930
S31508002EF080469DF80B609CB108222D49584601F082
S31508002F0043FA002851D1687E022809D146B905F04E
S31508002F1096FA0146404605F095FA0AF0ABFD44E0FC
S31508002F20FFF7D0FC002840D09DF80400384301D0B4
S31508002F3014B93AE0002C38D11EB19420FFF71AFDD7
S31508002F4033E05146A88C05F06DFC05F09BFC524613
S31508002F50A98C404600F0C8FB687E012801D03128BC
S31508002F6001D1112000E04320687640F6B83100F020
S31508002F7031FB0AF05FF90020E874B048007810B910
S31508002F80042028770FE034B199F80100800702D5AC
S31508002F90FFF7C4FC07E0A87E042804D3052100F047
S31508002FA019FB0620E874AD202875BDE8F78F00BF29
S31508002FB0D41000202DE9F04784B0804608F0A3F924
S31508002FC0044608F0E3F906463519404608F091F933
S31508002FD03418E4B2404608F032FA064604F103090A
S31508002FE04FF6FF7AA84F287801280DD0022813D06B
S31508002FF0042800F0AD80062814D007285DD00828DC
S3150800300020D07C2874D0CBE00094002342460021CF
S315080030100846FFF761FEC3E0224641460020FFF757
S3150800302031FFBDE0304601F03AFF504503D0014676
S31508003030304609F0BDF9787E022802D1304601F003
S315080030407BFDADE0611C00F0B5F805465FFA89F135
S3150800305000F0B1F88146A11D00F0ACF804465445CD
S31508003060EFD00AF0E7F8787E132808D100F0B2FB13
S31508003070404608F0E4F90146484605F0D3FB787E59
S31508003080022801D0132812D12946204605F0DAF97C
S315080030900021002000F04CFB3146484600F00EFCAB
S315080030A0F8784249087000F0DDF8787E132877D161
S315080030B02320787609F04AFC72E0787E02286FD1E0
S315080030C097F8200000286BD10AF020FF012197F914
S315080030D01B209140C1EB011189B290FBF1F201FB73
S315080030E01200411C89B207F1200012F012FC57E0C9
S315080030F06878652854D1A8786D2851D15FFA89F483
S3150800310000F05CF884424BDA0822314601A801F047
S31508003110F0F800AB00222146404607F075FB002870
S315080031203ED19DF80000FF283AD01E4C01202070A1
S31508003130DFF8486386F800809DF8001001A801F0C2
S31508003140B6FCFF203070002020709DF8000025E0B6
S31508003150404608F092F9044615480078FE2809D337
S31508003160404608F0DAF8000B00F001012046FEF7A9
S3150800317097F815E002A80C490A88028000F026F89C
S31508003180204607F04BFC0546FF2D09D0214608F0DE
S31508003190E7F80021284604F007FE284600F097FDC8
S315080031A0BDE8FF87E4100020E06E010865140020E2
S315080031B052140020C9B2404600F0A8BF0248006871
S315080031C018F8000070470000080900200020019048
S315080031D00090022302AA0121704738B52A4C002024
S315080031E0207706F045F830B11448007818B9BDE8DC
S315080031F03140FFF793BB06F03BF810B9FFF762FBC7
S3150800320068B1E07C58B1C82104F11C0012F081FBBA
S31508003210E07C401EE074BDE8314004F0FABD657EEE
S31508003220132D06D0FFF74EFB18B9112D01D0432DEB
S3150800323002D1207DFFF79EFB31BD0000A10A0020C8
S3150800324011480021C174704780B50F48002180F8E5
S315080032502010417E022904D1807E032801D209F07C
S3150800326017F901BD0848417E022906D1817E032946
S3150800327003D2007E10B1012000E000200149087049
S31508003280704700BF66140020980800202DE9F14F0A
S315080032908AB07549096810F801A000F0A7FC044631
S315080032A0A01D00F029FF054604F1090000F024FFDF
S315080032B0804604F10D0000F01FFF814619F4004016
S315080032C000D00120C0B20290E07C00F078004FEAFE
S315080032D0D00BA07C00F00F00019004F214000090BF
S315080032E0BAF1200FACBFE77F0027604E707E022838
S315080032F011D105F0A4F880450DD107A800F0C2FA4F
S31508003300BAF11C0F05DB0822009907A801F03CF862
S3150800331008B107F08FFEB5F5004F39D129F44040C2
S3150800332040F6FF71884233D1BAF11C0F64DB0022E4
S315080033300821009802F02DFB002829D14E48007874
S31508003340012823D105219DF8280007F0CCFF8DF828
S315080033500C00ADF80E8002988DF8180001988DF8CB
S3150800336019008DF81A700822009904A800F0C1FF08
S31508003370707E424D012804D0332802D09DF82800DB
S31508003380287003A812F00DFBFF202870B07C0028D7
S3150800339067D1FFF797FA002863D0012070740022DE
S315080033A0082106F1080002F0F4FA10B1F088804509
S315080033B007D00822009906F1080000F0E5FF00286A
S315080033C04FD1029820B9707E312801D0332848D1D0
S315080033D001210198C0B2FFF761FA002841D0607C4C
S315080033E000283ED1A07C000902283AD1E07CB17EB3
S315080033F0022902D1400704D433E0000601D4052986
S315080034002FD11B4C1B4D3078FF2813D0707987427B
S315080034100AD172782B789A420CD305D196F90220F4
S3150800342094F900309A4205DB87421AD0381AC0B29E
S31508003430812816D2FFF765FA9DF8280030709DF8A6
S31508003440280000F037FC287870702078B070BBF13F
S315080034500F0FB4BF0BF101000F20F0700198307107
S3150800346077710BB0BDE8F08F080900209808002096
S315080034706114002060140020A8090020AB0A00206F
S31508003480F0B585B004460E461146504D0120A87485
S31508003490012C00D01CB9304612F095FA89E06F7EEF
S315080034A0232F03D1022002F01FFA82E00029FCD163
S315080034B0212F03D0042F01D0532F02D103F0A6F8F1
S315080034C077E0FFF7FFF9002858D02E78FF2E07D1AE
S315080034D0687C002814BF9420AB20FFF74BFA68E0FD
S315080034E0A87E03288941C943C90F2879FFF7D6F969
S315080034F008B99820F1E70AF04FF80521304607F099
S31508003500F2FE04F0A1F928B107B540F2F4413048BB
S3150800351002F0D2FE287CF0B9A87E05281BD000F060
S31508003520BDF904460921304607F0C2FE07460B21BD
S31508003530304607F0BDFE2246394608F06AFF70B1EC
S315080035409420CAE7A87E042812D3C82100F042F8BE
S315080035500320E8742DE0FFF71CFB0028F0D0942028
S315080035602875687E0128F0D03128EBD03328E9D0B9
S315080035704FF4167100F02EF80020EAE7132F13D146
S3150800358000F026F904F058FFBDF8001004F05AFFC1
S3150800359000F020F9A87E032803D333206876962006
S315080035A09BE7FFF7DDF904E0022C02D130460AF06A
S315080035B0D8FB4FF4006001F064FB10B907F0EDFD8D
S315080035C008B108F0B3FF05B0F0BD00BF98080020A9
S315080035D0E067010805F11C0012F09BB938B50546ED
S315080035E000F004FB04462021284600F0C0FC002811
S315080035F001D0002032BD60741948007840F02000E0
S31508003600A07404F1140000F03DF90322FF2104F12F
S315080036101C0000F0B1FE07F0C4FBE0771148007803
S31508003620FE2800D30020104909788842B4BF0A1A38
S3150800363000220E4B1B78DB0043F00403DBB20C4D73
S315080036402D78691AC9B2D2B251180A4A1278101AD4
S31508003650C0B2814201DA43F08003E374012032BD2F
S315080036605114002052140020720A0020651400200C
S31508003670700A0020A20A002038B50446074DAC7629
S3150800368000200AF011F814B1A87E042801D30120FD
S3150800369000E00020BDE8324008F07CBF9808002012
S315080036A038B504460D46E87A04F0CEF8002801D06D
S315080036B08A2032BD95F90A0004F09CF9002801D049
S315080036C08B2032BD4FF6FE7084420CBF4FF6FF7159
S315080036D02989204604F0B6FE02482989C1800020BF
S315080036E032BD00BF9808002070B506460D46144640
S315080036F004F0A5FE0146304604F0A4FE0A4EB07E4C
S31508003700012800D0002009F0CFFF07F0DFFE214690
S31508003710284600F0D3F83078FF2814BFF078002048
S315080037200249087070BD00BF980800206514002083
S3150800373030B585B004460D4600F04AF89CB11448E9
S3150800374000788DF804001348807E8DF8050008225D
S31508003750214602A800F0CDFD01F012FF0E4A002115
S31508003760284607F034FB04F040F98DF8030004F00E
S31508003770BDF98DF8020004F062FEADF8000004F011
S315080037805BFEADF8060000F01DF805B030BD00BFC1
S31508003790511400209808002000F8FF071FB50446BA
S315080037A000F016F81CB100208DF8050007E004F0BB
S315080037B043FEADF8060004F042FEADF8000000F046
S315080037C001F81FBD102300AA7F21082003F090BB33
S315080037D000A80EE000B585B001F0DCFEFFF7F8FFA3
S315080037E000224FF6FF71BDF80600FFF77DFF05B012
S315080037F000BD10237F22082103F028BB000000002B
S3150800380080B50848007804F01FF800210020FFF76B
S315080038108FFF9B20FCF701FD034800210180034828
S31508003820018001BD491400203614002038140020F8
S3150800383038B504460B2C01D31B2C01D38A2032BD84
S315080038400D48407E022803D0032801D0702032BDDF
S315080038500A4D00210A4804F023FB002803D0022859
S3150800386007D002D306E0A12032BD2C70FFF7C8FFAF
S3150800387000E02C70002032BD980800204914002072
S31508003880013800081FB5044600A8FFF7B2FF082252
S3150800389002A9204600F02DFD1FBD0000044800784F
S315080038A000B140200349897E034A895C0843704772
S315080038B0066F010898080020AC680108064B988432
S315080038C021B9082203F1280000F056BD082203F1A9
S315080038D0280000F00EBD00BF98080020F8B50C4679
S315080038E01646C088000422D50027BC4D78190179F0
S315080038F08C4219D1AEB9FF210171204600F0E7F9D3
S31508003900E878401EE870C0B2002808D1A878B24905
S3150800391009780818A87000F00CF800F044F801209F
S31508003920F2BD304600F03FF87F1C0A2FDEDB002090
S31508003930F2BD70B5A94CA678A74D04E0E078401C06
S31508003940E070761CF6B2A078301A29788842BCBF97
S31508003950607886420FDA06F0FF0101EB002020832B
S315080039603019037904F11002A18B207802F098F936
S315080039700028E3D070BDE078002804D1FF2020702D
S315080039800020FCF748FC002070BD38B50446002529
S31508003990285DFF2803D0FF21295500F098F96D1CF2
S315080039A00A2DF5DB31BD38B504000BD08B4D2878D0
S315080039B0FF2807D0281DFFF7E8FFFF2028702046BC
S315080039C0FCF729FC31BD10B5834800780146844AC6
S315080039D0137994780419A342BCBF93FBF0F100FB5A
S315080039E0113101208840401EC043D07010BD2DE91A
S315080039F0F84F07468A46F888000402D40020BDE836
S31508003A00F28F97F808900325764C754E308B4FF653
S31508003A10FF71884217D170480078814513DA02F0A1
S31508003A206DFF3083B87A70700020B0707071FF2017
S31508003A303071FFF7C8FF0A22FF2106F1080000F0DF
S31508003A409BFC00F0ACF802F059FF318B884203D199
S31508003A50B87A7178884201D00120D0E7F078FF283B
S31508003A600BD1B0785C4909780A18914505DB081826
S31508003A70B070FFF7A8FF00F092F8574800780146A3
S31508003A80B2788A189145E7DA4FF0010899FBF1F206
S31508003A9001FB129108FA01F1CCB2F17821404D1ED2
S31508003AA0AD41ED0F31780C4204BF44EA0100307095
S31508003AB0D2D0B9F1000F0AD13989090A31718B467A
S31508003AC0834538BFFFF77FFFBBF10B0F64D2F07851
S31508003AD02043F07009EB06043DB17079401C707103
S31508003AE084F808A0504600F0E5F8F0783179491EC8
S31508003AF089450BD03849097899FBF1F201FB1291F7
S31508003B0008FA01F1491E0143FF2909D1B17801EBF1
S31508003B10002080B202F0F8FAFF21788802F01DFB37
S31508003B2070793179884297D1504600F072FA4FF091
S31508003B300009FF2830D02072504600F0C8F800214E
S31508003B40504600F014FA4F461FE007EB060898F8AF
S31508003B50084020480068255C05EB090B5FFA8BF1E5
S31508003B60504600F004FAB8B90095002322464946A3
S31508003B70504600F0DCFA5FFA8BF9204600F0A7F809
S31508003B80FF2088F808007F1CFFB230798742DCDB0B
S31508003B904FF6FF70308331E700F009F85CE72088BC
S31508003BA005FB00F189B206F1140011F0B2BE38B572
S31508003BB00B4C002020754FF6FF75208BA84204D0C9
S31508003BC004F10800FFF7E1FE258331BD064811F030
S31508003BD0BFBE0000080900209E0A0020E408002055
S31508003BE0C80800206C0A0020F8670108024909681D
S31508003BF001EB4010704700BF04090020DFF8542489
S31508003C0012688154704700002DE9F041040001D183
S31508003C10FF204BE003F0A2F9DFF88813FF22454D99
S31508003C20DFF8D0341E78FE2E1CD100261E70204EDA
S31508003C3037782F700027DFF8F4C509E007F1010E81
S31508003C4007F808E0DCF8008007F808205FFA8EF726
S31508003C5096F800E0D1F800807745EFDB0EEB080612
S31508003C6006F8012C2E78A64202D203F073F9CFE7A4
S31508003C70361B2E701D78454E1F78D6F800C04FF0BB
S31508003C80010E07F80CE0D1F800C017F80CE083F82D
S31508003C9000E0641EE4B2002CEED107F80C2000F018
S31508003CA0D2F800226A5403F055F92846BDE8F08197
S31508003CB0930A002010B5044603F050F93349096801
S31508003CC0625C521C6254BDE8104003F043B92DE90A
S31508003CD0F041054600F030F8804603F03FF9DFF87A
S31508003CE01414144AAF4B294E00E06546FF2D1DD02B
S31508003CF03768EC5D641EEC55376815F807C07F24F5
S31508003D001CEA040F12D11C6815F804C00024EC55EF
S31508003D1017787F1C17701F680C78EC550D70BCF16E
S31508003D20FF0FE2D145464FF0FF08DFE7BDE8F04157
S31508003D3003F010B9940A002080B514490968415C5B
S31508003D40090603D5FFF752FF007802BDFF2002BD22
S31508003D50B0B505460C46FFF7EFFFFF2801D0FFF781
S31508003D60B6FF0A4FFF2C04D13868295C01F07F01A1
S31508003D7006E02046FFF79EFF3868295C41F080017F
S31508003D8029542846FFF732FF0470B0BD0C090020FD
S31508003D900EB430B504460120FFF736FF0546FFF797
S31508003DA025FFFF2D01D1FF200EE000F04CF86C54E2
S31508003DB003A9002205E051F8043B00F8013B521C18
S31508003DC0D2B2A242F7DB284630BC5DF810FB70B5CC
S31508003DD082B005460C4604F11F000004400DC0B22F
S31508003DE0FFF712FF0646FF2E0CD09A480068345497
S31508003DF03DB101200090234600223146284600F0B6
S31508003E0002F8304676BDF2B582B0074614461D461E
S31508003E10089E084600F017F8405C2919884204DA1B
S31508003E2007B540F24D1100F0D7F85DB1214602A85A
S31508003E3000F0D8F800962B4602469DF8081038463A
S31508003E4000F004F8F7BD8349096870472DE9F8437F
S31508003E500646884617461C46089DDFF848910BE03B
S31508003E608A5D0A54491CB942FADBE41BBE19D9F823
S31508003E70000018F800800027E4B2CCB14046FFF7EE
S31508003E80B5FE3818391989B2202932BF2746C7F135
S31508003E902007FFB22DB93A460146304600F029FA06
S31508003EA0E3E7012D02D13A463146F7E70021DAE782
S31508003EB0BDE8F1832DE9F04182B006468846140034
S31508003EC01F4664480068355C0ED06119C9B2304691
S31508003ED000F04DF808B1182007E0009723462A4657
S31508003EE031464046FFF78FFF0020BDE8F6810123E3
S31508003EF0E0E70A4600E0521C1378002BFBD10223A8
S31508003F00521AD2B2D6E7F8B5044601F11F00461197
S31508003F10F6B202F11F00C004000E06B9012600B968
S31508003F200120864221D01F4D10DA801BC0B2FFF750
S31508003F306BFE0746FF2F01D10020F2BD711EC9B2E4
S31508003F40204600F025F8296847540EE08A420CD22C
S31508003F50411EC9B2204600F01BF804462868205CBA
S31508003F60FFF7B5FE2868FF2121540120F2BD70B580
S31508003F7005460C46374E22463068295C2846FFF728
S31508003F80C2FF18B130682C54002070BD182070BDCF
S31508003F9003E0491E034A1268805CC9B20029F8D1B9
S31508003FA0704700001009002011B581B00C46FFF7D4
S31508003FB04AFF405C844204D307B54FF4EA7100F027
S31508003FC00BF8214601A800F00DF804469DF80400F8
S31508003FD0FFF70CFE201816BD014802F06DB900BFA8
S31508003FE00868010838B504460D466909C9B220783B
S31508003FF0FFF7CEFF207005F01F0032BD80B5FFF732
S31508004000D3FF007802BD10B51446FFF7CDFF047044
S3150800401010BDF8B504460F4E3068275CFF2C04D156
S3150800402007B54FF4FA71FFF7D7FF07F11F00C00471
S31508004030000EFFF7E9FD0546FF2D09D030682F541D
S315080040400097002322460021284600F070F82846EB
S31508004050F2BD000008090020F8B506460C461546CC
S315080040600120FFF7D1FD0746FFF7C0FDFF2F01D15D
S31508004070FF20F2BD2A462146301800F00EF8FFF759
S31508004080E2FE301878543846F2BD0CB480B502AA60
S31508004090FFF7E2FF02BC5DF80CFB2DE9F041044690
S315080040A00F469046264608E058F8040BC5B22A463D
S315080040B0304600F01EF9AE197F1C3878A8B13128B1
S315080040C001D0322809D158F8041B06F8011B3228FA
S315080040D0F2D1081206F8010BEEE758F8041B33284C
S315080040E0E2DB3A28E0DA3038E0E7301BC0B2BDE858
S315080040F0F0810000920A00204178007800EB012048
S3150800410080B270470170090A4170704770B504465D
S315080041100D46691CC9B2FFF747FF067829462046AF
S31508004120FFF742FF007800EB062080B270BD2DE94C
S31508004130F5411D46089CA4B244B3264689B200A898
S31508004140FFF750FF0746A9B201A8FFF74BFF054640
S31508004150AF4200D33846C0F12000C0B2B04200DA00
S3150800416006469DF80400FFF741FD80469DF80000CD
S31508004170FFF73CFDF2B205EB0801381800F0B9F874
S31508004180A41BF1197519A4B2002CD6D1BDE8F38188
S3150800419070B505460C4602F0E1FE244A12682B78F3
S315080041A0FF2B01D1A45403E09B181E78A6541C705B
S315080041B02C70BDE8704002F0CDBE38B5044602F05A
S315080041C0CDFE2178FF22FF2901D1FF2507E0174BF5
S315080041D01B68CD5C8D420EBF2270EA5CCA5402F0A1
S315080041E0B9FE284632BDF8B505460C46002602F04B
S315080041F0B5FE2978FF2914D00A4601260B4B1B6801
S3150800420001E03A46761CD75CA74208D1FF5CD75432
S31508004210A14206D18A4200D1FF222A7001E08F42CC
S31508004220EFD102F097FEF0B2F2BD000014090020AB
S315080042300078FF2801D10120704700207047000050
S31508004240814233D21018401E5118491E10E0121F21
S3150800425011F8013900F8013911F8013900F8013966
S3150800426011F8013900F8013911F8013900F8013956
S3150800427092B2042AEBD292B2002A1EBF11F8013973
S3150800428000F80139521EF6D17047121F11F8013B8A
S3150800429000F8013B11F8013B00F8013B11F8013B1E
S315080042A000F8013B11F8013B00F8013B92B2042AE1
S315080042B0EBD292B2002A1EBF11F8013B00F8013B6F
S315080042C0521EF6D1704757E010B502E0521E401C48
S315080042D0491C92B2002A0AD003780C78A342F5D07A
S315080042E090F9000091F90010401A40B210BD002064
S315080042F010BD814233D21018401E5118491E10E0D5
S31508004300121F11F8013900F8013911F8013900F8BE
S31508004310013911F8013900F8013911F8013900F8A5
S315080043200139D2B2042AEBD2D2B2002A1EBF11F842
S31508004330013900F80139521EF6D17047121F11F8DB
S31508004340013B00F8013B11F8013B00F8013B11F86D
S31508004350013B00F8013B11F8013B00F8013BD2B2E2
S31508004360042AEBD2D2B2002A1EBF11F8013B00F88C
S31508004370013B521EF6D1704702E000F8011B521E9F
S3150800438092B2002AF9D1704710B500E0521ED2B297
S31508004390002A03D000F004F8F8D007E0002010BD8A
S315080043A010F8013B11F8014BA3427047181B40B2A5
S315080043B010BD00002DE9F84306468846174699467B
S315080043C00525DFF8A442582200212046FFF77BFF87
S315080043D004F244008772C4F84490DFF89072817A38
S315080043E007EB810149888180817A17F8211041728B
S315080043F005724CF26621C180102207F1500104F1C2
S315080044001200FFF71DFF102207F1600104F12200D8
S31508004410FFF716FF082207F1700104F14F00FFF7B6
S315080044200FFF45F2AA5020805820608084F83B8010
S31508004430FA20A0801920E0804FF481702081E6726E
S315080044400120A07202202073C82060733220A07356
S315080044503C20E0730420207400206074022E08D1EA
S31508004460A8F12000C0B220283CBFCD2084F83A002D
S3150800447001D384F83A502846451EC0B230B15822B6
S315080044802146002003F096FF0028F4D1BDE8F18309
S3150800449030B597B00524DFF8D8018069010018BF48
S315080044A0804700AA5821002003F0BAFF6E4D582213
S315080044B000A92846FFF708FF38B12046441EC0B2B7
S315080044C018B100F004F80028F7D117B030BD58220B
S315080044D02946002003F06EBF80B5634901F2440205
S315080044E0937A102B0FD29072012383404B645F4955
S315080044F001EB80035B88938011F820005072FFF768
S31508004500C7FFFDF7A9F801BD10B50022574B03EB0D
S3150800451082046488A14205D113F82240A04201D141
S31508004520D0B210BD521C102AF1DBFF2010BD10B509
S3150800453000244F490A88521C0A808B8892B29A42F4
S3150800454001D30B800EE0012804BF0A2000FB02F409
S3150800455002D0022801D19400A4B200F022F800F09B
S3150800456034F801D1002010BD18E010B500244049E8
S315080045700A88002A10D0521E0A80012803D10A2070
S3150800458000FB02F402E0022801D19400A4B200F074
S3150800459008F800F01AF801D1002010BD35480019B6
S315080045A010BD04F5805080B203F041BF80B5304895
S315080045B0002101804FF4805003F039FF00F005F820
S315080045C001D1002002BD2B4802BD4FF6FF7188427B
S315080045D0704710B5264800210160002425480019B7
S315080045E003F011FF002801D04B2010BD04F58064AC
S315080045F0B4F5805FF2DB10BD10B51E4A0021012814
S3150800460014BF04200A2005E0491C89B282181A4BF7
S315080046109A4204D213884FF6FF74A342F4D108468F
S3150800462010BD10B5124C1C2200212046FFF74BFE88
S315080046301248A0601248E060124820611248A06142
S3150800464012486061002020804FF48060064991F886
S315080046503B10491EC9B20F29A08034BF0120022091
S31508004660FFF7CAFF608010BD780D002018680108A2
S315080046707410002000D0010800E00108AD450008CC
S315080046802F4500086B450008D3450008F945000882
S315080046902DE9F041044688463B4E0020F060F07A4A
S315080046A0875CF7B1002500E06D1CA54214DA58F8BE
S315080046B0250000782D28F7D1394658F825000EF040
S315080046C07BFD0028F0D008EB85004068F060F07AA2
S315080046D0401CF07278B208E0F07A401CF0720020B4
S315080046E003E00020F0724FF0FF30BDE8F081F8B526
S315080046F005460026244CA6720EF042FD28B9A07A7B
S31508004700002840D02569002621E0284604E009292A
S3150800471004BF20210170401C01780029F7D105E06B
S31508004720202802D10020287000266D1C2878002831
S31508004730E5D0002EF4D12028F7D0A07A04EB80002B
S315080047400561A07A401CA0720126EEE7761C0C20B3
S3150800475000FB06F720683958A9B108460EF010FD87
S31508004760024629462068385811F0ECF90028EDD1A0
S31508004770002E08D420683A18906820B104F1100178
S31508004780A07A92689047F1BD58070020002801D109
S3150800479000207047817842789142F9D04A1C82708D
S315080047A00918C9788278402A01D3002282700846FF
S315080047B07047002801D101207047817840788142EE
S315080047C0F9D00020704748B14278531C437012183C
S315080047D0D1704178402924BF00214170704710B13B
S315080047E0002141708170704781B04FF440310091CB
S315080047F02949CA68520704D4009A531E0093002A0E
S31508004800F7D1009A002A1ABF08600120002001B0DB
S3150800481070470EB430B5044620480078B8B1204D2C
S315080048208021281D0EF0D4FC03AA2146281D0EF06F
S31508004830D3FC2C1D08E00A2804BF0D20FFF7D4FF7F
S3150800484014F8010BFFF7D0FF20780028F3D130BC0D
S315080048505DF810FB2DE9F04104460D4616469846CC
S31508004860022C28BF002013D20C4F542200213846B0
S31508004870FFF729FD0B48F8640B48B8640B487864C1
S315080048800B48386543463246E9B2204603F0FEF93E
S31508004890BDE8F081000000003CC80040800C002004
S315080048A0B80A0020B34700088D470008C747000824
S315080048B0DF470008002801D1012070478178407839
S315080048C08142F9D00020704798B100218160817833
S315080048D0427891420CD0262202FB010202F20C0217
S315080048E08260491C8170C9B2042924BF00218170E5
S315080048F080687047F8B505461046069A079CFDB1CC
S3150800490026266F7806FB07573973697806FB015127
S315080049100882687806FB00504373687806FB0050E7
S3150800492082732146687806FB00501230FFF788FC30
S315080049306878401C68706878042824BF002068706E
S31508004940F1BDA42200210148FFF7BDBCD40C00200C
S3150800495080B544490A7FD3070AD400280CBF6420CF
S315080049600078487742F001000877487F00F017F88A
S3150800497001BD80B53B490A7FD20709D500B1007849
S315080049804877087F00F0FE000877487F00F007F8B0
S3150800499001BD3449097FC90700D4D9E7E9E710B54D
S315080049A0642828BF642002D21F2838BF00202D4C57
S315080049B06077607F0A214843FDF79AF9A08A40F09C
S315080049C01000A08210BD10B5264C442200212046B6
S315080049D0FFF779FC2448817C012907D1C07C28B9D6
S315080049E00C222249201DFFF72BFC04E00C22002193
S315080049F0201DFFF768FC0620207001202083002078
S31508004A00A0821B48817AA174E1740021218204F1F5
S31508004A102001184A8A60184ACA60184A0A62A27FA0
S31508004A2042F00102A277642262771022E277A27F1F
S31508004A3002F0010242F01002A277C82284F8202070
S31508004A404A70CC228A703622CA708C220A713022A9
S31508004A504A71217F01F00101217790F83A006083BD
S31508004A6010BD000090100020D00D002090680108AD
S31508004A70780D002051490008734900089349000839
S31508004A8000B583B008237F220548018800A802F0F4
S31508004A90DDF9082200A90348FFF72BFC07BD00BF74
S31508004AA0F06E0108D41000207047704770477047B1
S31508004AB0704770476C2070476C2070477047704786
S31508004AC07047704700013949405C704710B5374A4E
S31508004AD0002301E05B1C1032354C2478A3420FDA20
S31508004AE014788442F6D1506802880A8042884A803F
S31508004AF002790A7142794A7180798871012010BD5C
S31508004B00002010BD30B5294B00240FE01D788542E2
S31508004B100AD10D0002D0012906D103E0986830F8C1
S31508004B20120030BDD868FAE7641C1033204D2D7882
S31508004B30AC42EBDB002030BD704770470020704761
S31508004B4002F073BE0000000038B50446432C2CD092
S31508004B50442C03D1BDE8314009F0EABE452C06D104
S31508004B6009F0E6FE09F0E4FE09F0E2FEF2E7462C5B
S31508004B7001D0472C13D10F4D2878002815D10120D4
S31508004B802870002010F023FF472C0CBF40F60100C8
S31508004B9040F6020002F0A4FA0020287031BD07B5DD
S31508004BA040F22521044801F087FB31BD8808002022
S31508004BB0910A0020541400209C680108FEB5DFF80D
S31508004BC0C006FF21417000218180817008F032FB08
S31508004BD0DFF8D44400F0D3FAFFF7CEFB0025DFF860
S31508004BE0586400AF18E00B232A460D2100A802F0EE
S31508004BF02DF9787A397A01EB002080B2316821F8EC
S31508004C00150038B14FF6FF71884203D0B97A2846A5
S31508004C1000F006F86D1CEDB220788542E3DBF7BD9F
S31508004C2009074CBF00210421DFF86025126841F20C
S31508004C300203194322F81010024909680022425457
S31508004C40704700BF2009002030B500220023DFF896
S31508004C503C45246803E0854324F813505B1CDFF8C1
S31508004C6048542D78AB420ADA34F813506D07F5D557
S31508004C700122002934F81350EDD00543ECE710461D
S31508004C8030BD002100E0491CDFF81C24127891424F
S31508004C9009DADFF8F824126832F811200240824255
S31508004CA0F1D101207047002070472DE9FE430D46DB
S31508004CB016460446DFF88093DFF8EC831CE0D9F843
S31508004CC0000030F8147000A9204600F061FA2DB9EA
S31508004CD087B99DF80A003070204612E057B14FF6A2
S31508004CE0FF70874206D0082200A92846FFF74CFB2A
S31508004CF00028EED0641CE4B298F800008442DEDB9B
S31508004D00FF20BDE8FE8380B500AAFFF7CEFF02BDEF
S31508004D10FEB505460E4611461C46082200A8FFF7B2
S31508004D20E8FA8DF80860300A8DF809008DF80A400F
S31508004D3021462846FFF774FF284609F047FE2F4606
S31508004D40200608D400F01EFA30F8171041F00801C2
S31508004D5020F8171004E0DFF894030078FE2806D33D
S31508004D6000A9284600F0C4F9002806D1FEBD0B2389
S31508004D7000AA29460D2002F0BBF800F059F920F8E0
S31508004D80176005480078381804490968002241F870
S31508004D9020200120FEBD00BF9A0A00203C09002001
S31508004DA02DE9F04B84B08146884614461E460C9D74
S31508004DB000AA49460020FFF778FF0746FF2F07D0CD
S31508004DC09DF80000A04203D0384600F037F9FF27C7
S31508004DD04FF6FF7BD84513D096B901A9404601F096
S31508004DE0C9FE98B90022082101A800F0D2FD68B9C9
S31508004DF0082201A94846FFF7C7FA38B1D84605E0A0
S31508004E00FF2F03D0384600F019F9FF27A00706D56B
S31508004E10D84501D040462DE006F086FB2AE0FF2F54
S31508004E2020D1DFF85C648F4800783178884201D158
S31508004E3058461FE0D84502D106F076FB8046002189
S31508004E400020FFF760FF0746FF2FF1D023464A46AA
S31508004E504146FFF75DFF0028EAD03078401C3070E5
S31508004E60FEF700FA2946384600F094F800F0E0F814
S31508004E7030F8170004B0BDE8F08B0020DFF80C13FB
S31508004E8009684EF6FF7305E031F810201A4021F83C
S31508004E901020401C844A12789042F5DB704780B592
S31508004EA001460020FFF72FFFFF2802D14FF6FF70BB
S31508004EB002BDBDE80240DFF8D412096831F81010C7
S31508004EC0890743BF5C49096831F810004FF6FF703F
S31508004ED0704770B584B00D46144662490978884211
S31508004EE005D2AA49096831F81010890701D4932018
S31508004EF017E000A900F04CF99DF80A60082200A9FD
S31508004F002846FFF7F6F9B00701D5022007E0300773
S31508004F1001D5032003E030064CBF0420052020708D
S31508004F20002004B070BD80B500F0ACF9FF2806D0AB
S31508004F3000F010F810F0040002D0012002BD002095
S31508004F4002BD80B500F09EF9FF2801D0012002BD00
S31508004F50002002BD8D49096831F810007047E0B598
S31508004F6000A900F015F99DF80A000EBD10B584B029
S31508004F700C4600F087F9FF2809D000A900F008F9C7
S31508004F80082200A92046FFF7B4F9012000E0002016
S31508004F9004B010BD3EB5044611F001050DD000AAB7
S31508004FA001A9FFF796FF40B900F0ECF830F81400B5
S31508004FB000F0040101A809F041FF29462046FCF744
S31508004FC08FF937BDFEB504460D4626461A4F386892
S31508004FD030F81600A8420FD000A9204600F0D8F8ED
S31508004FE08DF80850280A8DF8090000A9204600F017
S31508004FF0F4F8386820F81650F7BD38B50446254643
S3150800500000F016F830F8150088B19D480178491E59
S315080050100170FEF727F900212046FFF7D3FF00F0BD
S31508005020B1F8002120F815101120FBF719F931BD48
S3150800503001480068704700001809002010B50446AA
S315080050400848007884420BD2FFF7F2FF30F81400C4
S3150800505030B100212046FFF79DFF2046FFF7CDFF20
S3150800506010BD0000A20A002038B500250E4C05E048
S3150800507000212846FFF7A6FF6D1CEDB22078854271
S31508005080F6DB7F4D6878FF2805D0FEF720FEFF2067
S3150800509068700020A8800020287000F070F8BDE82D
S315080050A03840FFF769B90000960A002030B5014676
S315080050B000200E4A1278FE2A01D3022200E00822B6
S315080050C0324B1B6833F8114014420BD0002406E01B
S315080050D033F81450154201D00B3080B2641C8C4250
S315080050E0F6DB30BD4FF6FF7030BD000052140020CD
S315080050F0F0B583B004460D46FFF7D8FF0646604F65
S315080051007878FF2813D10B210020FEF760FE78700F
S315080051100021B980FF2812D100F034F830F81410B5
S315080051204FF6F772114020F814100020FEBDB9881A
S3150800513001F10B0292B2FEF7E6FE0028ECD0B98820
S3150800514008E0A1F10B040B220092A3B20246FEF777
S31508005150EEFFA1B278788E42F3DB8DF80400314673
S3150800516001A8FEF73FFF0246012000F02FF8B88895
S315080051700B30B880B878401CB8700120FEBD207886
S315080051804200002101480068704700001C09002001
S3150800519030B583B004460D46FFF788FF4FF6FF711A
S315080051A0884206D10B2322460D21284601F04EFEE1
S315080051B037BD334949788DF80410014601A8FEF732
S315080051C011FF0246002000F001F837BD00900B23BE
S315080051D09DF804102846FEF739BE7CB505460E46EE
S315080051E0FFF764FF01464FF6FF70814206D10B2395
S315080051F0324629460D2001F07BFE73BD204C6278AD
S31508005200707A337A03EB002080B250BBFFF7BAFFFF
S3150800521030F815304FF6F776334020F81530A07879
S31508005220012806D11046FEF752FDFF2060700025C2
S3150800523012E0A088A0F10B05ADB2681A80B230B1B1
S31508005240009001F10B039BB21046FEF770FF2A4649
S31508005250A1886078FEF757FEA580A078401EA0704A
S3150800526073BD8DF8042001A8FEF7BCFE012100914C
S315080052700B2302469DF804103046FEF7E7FD73BD82
S31508005280700A0020F8B504000C4D2E6814D001F001
S3150800529065FE0B4F39782A6822F8114036F8021B4A
S315080052A0A142FBD101F056FEB01E2968401AC0057E
S315080052B0000E3978884200D1FF20F2BD1809002077
S315080052C0960A002080B5FFF7DDFFFF2802D000F020
S315080052D01BF801D4932002BD31F8102042F01002C9
S315080052E00EE080B5FFF7CEFFFF2802D000F00CF8DD
S315080052F001D4932002BD31F810204FF6EF731A40FF
S3150800530021F81020002002BD7F49096831F81020D5
S315080053105207704738B5044601214FF48070FFF7ED
S3150800532093FC70B1774D2878FF2801D0FEF7CFFCA3
S315080053302C702046FEF7BEFC02480188281D10F096
S31508005340E8FA31BD6E0A002010B56E4C2078FF28A9
S3150800535009D000214FF48070FFF776FC2078FEF71D
S31508005360B6FCFF2020700020207110BD70B5002407
S31508005370654D154E01E0641CE4B23078844216DAB5
S31508005380286830F814100805F5D5204600F020F8EE
S31508005390FF28F0D0296831F814204FF2FF731A401D
S315080053A021F81420094909680022625470BD55483D
S315080053B00021018105F010FF0446FF2C01D0FEF7FD
S315080053C079FC204670BD00BF960A002020090020FF
S315080053D0F0B583B0FF270446294A126832F81450FC
S315080053E0484E8A050ED54FF6FF7229460E2009F05B
S315080053F07DFD0746FF2F02D0294605F0B1FF4FF481
S3150800540000752EE04A050DD506F08EF802460020F6
S315080054100190009001232946FDF718FC07464FF432
S3150800542080651EE03278FF2A0CD0CB050AD52946BE
S31508005430104605F095FF3078FEF73CFC37784FF4B8
S3150800544080750EE04A0605D5002109F0A3FB07463C
S31508005450402506E0090611D5012109F09BFB074600
S315080054608025FF2F0AD0384605F061FF358126488A
S31508005470006830F81410A94320F814103846FEBD09
S31508005480180900202DE9F04105460C461D4F3E89B6
S31508005490002038812EB1284605F098FFB0F5006F38
S315080054A002D00020BDE8F081284605F0B3FF80460B
S315080054B0FFF7E8FEFF28F4D034B11349096831F83C
S315080054C01020324321F81020B6F1400114D0B1F172
S315080054D0C000E6D1387885420CD14FF6FF71884571
S315080054E008D005F03DFF4FF48270FFF7CAFB08B9F4
S315080054F0FFF72AFF0120D5E7002CFBD1294609F042
S31508005500A9FAF7E7540900201C090020F0B587B06E
S3150800551006460F4615461C4600A800F068F83DB139
S3150800552047F04007082229460DF10200FEF7E1FE82
