S00E000076656869636C652E73333706
S3150800000058070020A5420008D14C0108D34C010826
S31508000010A70B0000000000000000FFFF3C000008DE
S3150800002004070300000000000000000000000000B4
S315080000300000000000000000000000005807002033
S31508000040A5420008D14C0108D34C0108A70A0401AF
S31508000050000100080407039C32400000000000006D
S315080000600000000000000000000000000000000082
S315080000700000000000000000000000000000000072
S3150800008000000000FFFFFFFFFFFFFFFFFFFFFFFF6E
S3150800009000E00108FFFFFFFFFFFFFFFFFFFFFFFF75
S315080000A0FFFFFFFFFFFFFFFFFFFFFFFFFFFFFFFF52
S315080000B0FFFFFFFFFFFFFFFFFFFFFFFFE01F00201F
S315080000C0000000005C190020471400205807002093
S30D080000D076980108427C01083C
S3150800010058070020A5420008D14C0108D34C010825
S31508000110D74C0108D54C0108D94C0108203C0108E8
S31508000120203C0108203C0108203C0108203C01082D
S31508000130DB4C0108203C0108E9A40008203C010822
S31508000140203C0108203C01085D960008203C010877
S31508000150C538010863990008203C0108203C0108BD
S31508000160D1310108C9AE000811A8000885010008A8
S31508000170203C0108203C01083398000891980008A3
S315080001807D330108DFF87C024FF6FF710160704786
S3150800019038B504F035F90500DFF86C020078002858
S315080001A030D0DFF868020068C0072BD400200400AE
S315080001B0E4B2022C28D20120A040DFF84C120978BC
S315080001C008421DD0DFF848020470DFF83C020078C8
S315080001D00121A1404840DFF830120870E4B2DFF888
S315080001E0340230F81400DFF824120860DFF814022D
S315080001F04FF6FF710160DFF820024FF400610160DD
S31508000200641CD5E7022004002800C0B204F0F4F804
S315080002102000C0B232BD80B5DFF8EC0100210170C4
S31508000220DFF8EC0102210170DFF8F001002101700E
S31508000230DFF8CC0105210180DFF8E4010021017017
S31508000240DFF8C80100210160DFF8D801002101604C
S31508000250DFF8D4014FF400410160DFF8D001102126
S315080002600160DFF8CC01DFF8CC110160DFF8C801C6
S3150800027001210160DFF8B4010321016061484FF6EE
S31508000280FF710160DFF8B4010021016004F022FB70
S3150800029001BD2DE9F04104000D0016001F00EDB266
S315080002A0C02D01D0012030E0FFB2F6B2F00050EACE
S315080002B04730534909880843E4B2564921F81400DF
S315080002C0514800780121A140084201D082201CE053
S315080002D004F096F880464C4800780121A14008436E
S315080002E0494908704E4800780121A14088434C4985
S315080002F008704046C0B204F07FF8FFF749FFE4B241
S31508000300A04201D1812000E08220BDE8F0812DE9DC
S31508000310F04104000D0004F079F800280BD13E489E
S315080003200068000507D545480068400701D401273D
S3150800033000E0002700E0012704F062F88046FFB2DB
S31508000340002F09D034480068000505D53B480068E9
S31508000350400701D5FFF716FF0120A040304909786C
S3150800036008420ED0E4B2364830F8140028802C48EB
S3150800037000780121A14048402949087080200600DC
S3150800038012E0214800780121A140084202D08220CB
S31508000390060009E01E480078E4B2A04202D1812096
S315080003A0060001E0842006004046C0B204F024F8A6
S315080003B03000C0B2BDE8F08170B504000D0001F050
S315080003C0C5FB29002000C0B2FFF7A1FF0600F6B260
S315080003D0842E02D0F6B2802EF1D13000C0B270BDA4
S315080003E080B5FFF718FF00210D2001F0B4FB0021AE
S315080003F00E2001F0B0FB00210F2001F0ACFB01BD7F
S315080004000214002010A800401A14002004D000404E
S315080004101B140020C00A002000E100E01D14002083
S315080004201C14002008D000400CD0004010D000401A
S3150800043018D00040001400201CD0004050A80040EE
S31508000440BC0A00202DE9F04104000D00160068885A
S315080004503B2811D100213000C0B205F05BF9070036
S315080004603100C9B2280004F078FE80465FFA88F8A1
S31508000470B8F1000F08D107E03200D2B229002000F7
S31508000480C0B21A4BDB6B9847BDE8F0812DE9F04105
S3150800049082B005000E0017009846089C78883B280D
S315080004A009D12200D2B24146C9B2380004F0CCFDC7
S315080004B000280ED10DE0E4B200944346DBB23A00C0
S315080004C0310089B22800C0B2DFF820C0DCF840C08D
S315080004D0E047BDE8F3817047704710B50400200077
S315080004E0C0B20249496C884710BD7047E80D002024
S315080004F070477047C0B2002829D0022829D027D3D0
S31508000500042828D026D3062827D025D3082826D07D
S3150800051024D30A2825D023D30C2824D022D30E2866
S3150800052023D021D3102822D020D3122821D01FD39C
S31508000530142820D01ED316281FD01DD318281ED045
S315080005401CD31A281DD01BD31B281BD01AE019E070
S3150800055018E017E016E015E014E013E012E011E0E9
S3150800056010E00FE00EE00DE00CE00BE00AE009E019
S3150800057008E007E006E005E004E003E002E001E049
S3150800058000E0FFE77047000080B5DFF87804407C9C
S31508000590002808D1DFF87419DFF86009DFF85C294C
S315080005A0D2F8B0219047DFF85C04407C002808D1D7
S315080005B0DFF85C19DFF84409DFF84029D2F8B021E2
S315080005C09047DFF84004407C002808D1DFF844193A
S315080005D0DFF82809DFF82429D2F8B0219047DFF898
S315080005E02404407C002808D1DFF82C19DFF80C0910
S315080005F0DFF80829D2F8B0219047DFF80804407CD4
S31508000600002808D1DFF81419DFF8F008DFF8EC281D
S31508000610D2F8B0219047DFF8EC03407C002808D1D7
S31508000620DFF8FC18DFF8D408DFF8D028D2F8B021B4
S315080006309047DFF8D003407C002808D1DFF8E4189B
S31508000640DFF8B808DFF8B428D2F8B0219047DFF809
S31508000650B403407C002808D1DFF8CC18DFF89C08E2
S31508000660DFF89828D2F8B0219047DFF89803407C45
S31508000670002808D1DFF8B418DFF88008DFF87C28EE
S31508000680D2F8B0219047DFF87C03407C002808D1D7
S31508000690DFF89C18DFF86408DFF86028D2F8B02184
S315080006A09047DFF86003407C002808D1DFF88418FB
S315080006B0DFF84808DFF84428D2F8B0219047D14837
S315080006C0407C002808D1DFF87018DFF83008DFF81A
S315080006D02C28D2F8B021904701BD38B50400DFF8C0
S315080006E02808407A00283ED1DFF81C08012141720B
S315080006F0DFF81408007A002809D0DFF80C08002172
S31508000700017260220021DFF8340806F0DEF9DFF80E
S31508000710F807007ADFF8F017401880F8D040DFF8BD
S31508000720E807007A401CDFF8E0170872E4B20A2CE2
S3150800073002D0E4B20D2C03D1DFF8CC0700214172B8
S31508000740B048407C002840F08980E4B22300DFF8F6
S31508000750F027DFF8F017DFF8A407DFF8A057D5F879
S31508000760B051A8477AE0DFF8A007407A012875D18A
S31508000770E4B20A2C02D0E4B20D2C29D1DFF888079E
S31508000780007A002812D09F48407C002807D19BA1F8
S31508000790DFF86807DFF86427D2F8B0219047DFF85A
S315080007A06807017ADFF8940706F0A3FB9548407CB2
S315080007B0002808D1DFF89017DFF84007DFF83C2754
S315080007C0D2F8B0219047DFF840070021417245E092
S315080007D08C48407C002809D1E4B2220088A1DFF8C1
S315080007E01C07DFF81837D3F8B0319847DFF8180731
S315080007F0007ADFF81417401880F8D040DFF80807A9
S31508000800007A401CDFF800170872DFF8FC06007A49
S31508000810602823D37B48407C002807D177A1DFF8DE
S31508000820DC06DFF8D826D2F8B0219047DFF8D806DC
S31508000830017ADFF8080706F05CFB7248407C00285E
S3150800084008D1DFF80417DFF8B406DFF8B026D2F8C7
S31508000850B0219047DFF8B0060021417231BD38B5A6
S3150800086004002078532836D054280ED0562870D045
S31508000870572800F0A280592852D05A2818D05E2846
S315080008803CD0ED2800F0B680B7E05E48407C0028F2
S3150800089008D1DFF8B816DFF86406DFF86026D2F864
S315080008A0B02190470020DFF8A816896A8847A4E097
S315080008B05448407C002808D1DFF89816DFF83C0633
S315080008C0DFF83826D2F8B0219047DFF88C06D0F842
S315080008D0E000804791E04B48407C002808D1DFF8CB
S315080008E07C16DFF81806DFF81426D2F8B0219047F0
S315080008F00020DFF85C16C96A88477EE04148407CDC
S31508000900002809D16279DFF85816DFF8F005DFF814
S31508000910EC35D3F8B0319847607906F0DFF96CE02A
S31508000920201D0500287A012812D3287A3549898896
S3150800093080B288420CD260780A2809D13148297ACF
S3150800094080F83A102F48697A80F83B1006F0A2F929
S3150800095053E0201D0500A87A2A4991F84E108842CE
S3150800096004D128682749496C884225D0A87A2549A0
S3150800097091F84E10884207D0A87A112804D201208F
S3150800098095F90A10884028602B68AA7A1D4890F8BD
S315080009903B101C48C07A06F00FF91A48407C00281C
S315080009A008D1DFF8C015DFF85405DFF85025D2F86E
S315080009B0B021904701F099F91FE0201D050028880D
S315080009C0FA2816D2A879012813D3A879512810D263
S315080009D0E87901280DD3E87904280AD260780E2828
S315080009E007D10E222900DFF8800506F02BF806F05D
S315080009F051F902E0200003F0C9FB31BD0A0D0000E1
S31508000A0025630000900D0020F0B595B004000D0098
S31508000A10022C02DA01F09AFF6CE2686800783F2837
S31508000A2004D1022C02D1FFF7AFFD63E2DFF83C25C3
S31508000A302900200006F02EFA06005FF0FF3140B2CA
S31508000A40884200F0578276B2002EEFD0DFF8B8045D
S31508000A50C0680028EAD076B23000612800F08A80A3
S31508000A60622800F00E82632800F063816A285ED04F
S31508000A706B2800F085816C2800F0F5806E280BD075
S31508000A80702800F07481722800F0BC8074282AD07F
S31508000A90782800F093802AE202AAB8A1DFF8680451
S31508000AA0C06814F033FA0298DFF8C41489888842BB
S31508000AB0BCDADFF8BC04029980F83A1059208DF8A0
S31508000AC00C00DFF8AC04C088ADF80E000A208DF8DB
S31508000AD00D000A22DFF89C1404A805F0B3FF03A84A
S31508000AE0FFF7BDFEA2E702AAA4A1DFF81C04C068AE
S31508000AF014F00CFA0298102898DBDFF874040299AF
S31508000B0080F83B1059208DF80C00DFF86404C08883
S31508000B10ADF80E000A208DF80D000A22DFF85414ED
S31508000B2004A805F08FFF03A8FFF799FE7EE702AA3F
S31508000B3092A1DFF8D403C06814F0E8F902981028E7
S31508000B40BFF674AF5E208DF80C00DFF82404C08869
S31508000B50ADF80E0001208DF80D00DFF8140490F8AA
S31508000B603A008DF8100002988DF8110003A8FFF7D7
S31508000B7076FE5BE702AA81A1DFF88C03C06814F051
S31508000B80C5F902980428BFF651AFDFF8E4030299C5
S31508000B90C17257208DF80C00DFF8D403C088ADF871
S31508000BA00E000E208DF80D000E22DFF8BC1304A8E7
S31508000BB005F048FF03A8FFF752FE37E702AA6FA120
S31508000BC0DFF84403C06814F0A1F90298FB28BFF6C1
S31508000BD02DAFDFF89C030299818057208DF80C0011
S31508000BE0DFF88C03C088ADF80E000E208DF80D00D6
S31508000BF00E22DFF8741304A805F024FF03A8FFF7F4
S31508000C002EFE13E702AA5DA1DFF8FC02C06814F005
S31508000C107DF9DFF864030078002803D0DFF85C0369
S31508000C2006F0F9F9DFF84803407C002801D00020D7
S31508000C3000E00120DFF838134874DFF83403407CFD
S31508000C40002801D0002000E00120DFF82C130870EE
S31508000C50DFF82403007800283FF4E8AEDFF8200325
S31508000C6006F0D9F9E2E602AA44A1A748C06814F03A
S31508000C704DF9DFF8E40290F82A0000280DD1DFF8D4
S31508000C80F002407C00287FF4D1AEDFF8F8129B48CA
S31508000C909A4AD2F8B0219047C8E6B548407C002861
S31508000CA008D1AD4890F82A20B7499448934BD3F811
S31508000CB0B031984700200700A74890F82A00FFB2ED
S31508000CC0874211D2AA48407C00280BD1FFB2A2481D
S31508000CD010EB470090F82C20AC498848874BD3F88E
S31508000CE0B03198477F1CE7E7A148407C002805D12A
S31508000CF083A18248814AD2F8B02190470020070094
S31508000D00954890F82A00FFB28742BFF48FAE9848FC
S31508000D10407C00280BD1FFB28F4810EB470090F8B3
S31508000D202D209A497548754BD3F8B03198477F1CE2
S31508000D30E6E7974802F038F802F023FD00283FF46A
S31508000D4075AE8548407A00283FF470AE8848407CE6
S31508000D5000287FF46BAE8048437A854890F83A209D
S31508000D608C496648654FD7F8B071B8475EE678484B
S31508000D70808A50F010007649888257E6256400007C
S31508000D8002AA60A16048C06814F0C0F802F0E9FC45
S31508000D90002827D07648407C002809D140200090BA
S31508000DA02023029A7C495548544FD7F8B071B84762
S31508000DB002982028FFF63AAE02984028BFF636AECB
S31508000DC065480069029981716148808A50F040003F
S31508000DD05F498882604800690021C1716C4801F04A
S31508000DE0E3FF23E65C4890F82A0000283DD06048D7
S31508000DF0407C002819D1584890F82B000090564896
S31508000E0090F82B00544911EB400090F82D305248C9
S31508000E1090F82B00504911EB400090F82C205F49C0
S31508000E203648364FD7F8B071B8474B4890F82B007C
S31508000E30494911EB400090F82C0047494876464846
S31508000E4090F82B00401C444981F82B00424890F842
S31508000E502B00414991F82A108842FFF4E7AD822217
S31508000E6000214F4805F031FEE0E54148407C002866
S31508000E707FF4DCAD4B492148204AD2F8B02190478F
S31508000E80D4E502AA1FA12048C06814F03FF80298CA
S31508000E90002802D004280FD028E03548407C0028D6
S31508000EA005D141491548154AD2F8B021904701F0B5
S31508000EB0D9FC00F01AFF19E02D48407C002805D11E
S31508000EC03A490E480D4AD2F8B02190472248807D0B
S31508000ED050F0040020498875354801900C20009090
S31508000EE05A2300220221044806F006F99EE5FFF778
S31508000EF04BFBFFE715B0F0BDEC0C0020C40A002040
S31508000F000D0A00002564000058070020C07C01086F
S31508000F10EC7C0108107D0108347D0108587D010824
S31508000F20887D0108B47D0108EC7D01080C7E010866
S31508000F30307E01085C7E01089C7E01082808002096
S31508000F40D47E0108CC7E0108DC7E0108E47E010817
S31508000F5060100020F07E0108580E0020FC7E010873
S31508000F600C7F01082C7F0108940D0020AC80010835
S31508000F70900D0020C20D0020940C0020547F01081B
S31508000F806C7F0108807F0108987F0108B47F0108FB
S31508000F907A100020BC7F0108E47F01080080010860
S31508000FA0820E0020348001084880010894800108D8
S31508000FB06C0E0020C0B2072805D1C9B2012902D19A
S31508000FC0374A01231370C0B2002805D1C9B20129D6
S31508000FD002D1344A01231370704710B5002004006B
S31508000FE0E4B2002C06D1304816F068FB0400E4B2DF
S31508000FF0002CFFD010BD70B504002500082006009F
S31508001000F6B2012E0FD32948407C002809D1F6B242
S31508001010701910F8012C26492648264BD3F8B0310A
S315080010209847761EECE770BD70B50400200080B2C4
S3150800103006F03AFD06000120B0402049098808421A
S3150800104014D01D48392141801D4803781A4A2100C9
S3150800105089B2002007F036FA184800880121B14005
S315080010604FF6FF7251400840144908800120B040ED
S3150800107012490988084206D1200080B206F043FDCD
S315080010800500EDB2002D70BD38B504000D00EDB2B7
S31508001090002D03D0200080B2FFF7C6FF31BD000047
S315080010A01E1400201F140020A20D0020900D002001
S315080010B0D0800108C40A0020780C002004140020FF
S315080010C0900A002070B584B004000D00EDB2012D21
S315080010D014D100AA01A92000C0B206F00CFB060034
S315080010E0F6B2002E0AD19DF80000062806D1200087
S315080010F0C0B206F0F2FA80B206F0F6FC7FBD704781
S3150800110080B501F08AFA07F025F852494873524823
S3150800111000785049497B88423AD04E48407B00289F
S3150800112006D001280FD0022818D0042821D02BE099
S315080011304A48407C002827D149494A48494AD2F8B2
S31508001140B021904720E04548407C00281CD14649FC
S315080011504448444AD2F8B021904715E03F48407CBD
S31508001160002811D141493F483E4AD2F8B02190475C
S315080011700AE03A48407C002806D13D493948394AB0
S31508001180D2F8B0219047FFE73248407B32490870D1
S315080011903048407B002802D0022803D00CE001F03A
S315080011A02FF909E02B480078012804D129480021A5
S315080011B0017007F091FCFFE72E48808840F2D17154
S315080011C0884205D2202101202A4A526B90470BE01B
S315080011D020210320274A526B9047002804D020215B
S315080011E00220244A526B90472248006B8047002809
S315080011F007D02048006B80471849898880B2814209
S315080012000CD2402103201B4A526B9047002805D177
S3150800121040210120174A526B904718E01548006B89
S315080012208047012813D31348006B80470B498988E8
S3150800123080B281420BD3402103200E4A526B90475D
S31508001240002804D0402101200A4A526B904701BD6C
S3150800125000000000E80D0020910A0020900D0020F3
S31508001260D8800108C40A0020F48001081481010806
S3150800127034810108601000202DE9FC4704000D00A8
S315080012801600F6B2DFF880060068305C070007F043
S31508001290DDFD804600213000C0B204F03BFA8146ED
S315080012A0DFF8680690F83A00DFF864160870688870
S315080012B0DFF85C164870DFF85806FF2181706888E9
S315080012C0132800F0FD8250282AD0512800F06B829E
S315080012D0522800F0BD82532800F01A81542800F0E5
S315080012E0E980552800F0CF82562800F0DC8157287F
S315080012F000F09781582800F0B081592800F0028242
S315080013005A2800F060815B2800F02C825C2800F0E7
S3150800131089805D2800F073825E2800F02781D0E27C
S3150800132099F80000DFF8E41591F83A10884207D0DA
S3150800133099F80300DFF8D41591F83A10884264D179
S31508001340DFF8C805407C00280FD199F80300009003
S3150800135099F8023099F80020DFF8B815DFF8B805D3
S31508001360DFF8B4C5DCF8B0C1E04702F0FAF90028A6
S3150800137035D0DFF8A80500690021C171DFF89C05A2
S315080013800069C07899F80210884205D0DFF88C0504
S31508001390006999F80210C170DFF880050069807944
S315080013A0002804D0DFF8740500690021817199F8D6
S315080013B00200022806D1DFF86405006999F80310CF
S315080013C0417104E0DFF85405006900214171DFF836
S315080013D04C050069C078DFF83815887015E002F00A
S315080013E0D0F9002811D099F80200022805D1DFF8B3
S315080013F02C0599F80010417203E0DFF8200500215A
S315080014004172DFF80C0500218170DFF804050190B0
S31508001410032000905F2300220221DFF8040505F06F
S315080014206BFE6EE299F80000DFF8E01491F83A10C6
S31508001430884232D1DFF8D404407C00280CD199F8D0
S31508001440013099F80020DFF8DC14DFF8CC04DFF867
S31508001450C8C4DCF8B0C1E047DFF8B40499F8011055
S315080014604170FFB2B81E4008DFF8A414887019F15D
S315080014700202DFF89C048178DFF89404407802F0D1
S315080014800CFCDFF88C1488706888DFF884144870C0
S31508001490DFF87C0499F80110C170DFF87404019034
S315080014A0042000905F2300220221DFF8740405F06F
S315080014B023FE26E299F80000DFF8501491F83A1056
S315080014C0884218D1DFF84404407C00280AD199F8EC
S315080014D00020DFF85414DFF84004DFF83C34D3F872
S315080014E0B03198474846DFF84414896A8847DFF8D8
S315080014F0200400218170DFF8180401900320009071
S315080015005F2300220221DFF8180405F0F5FDF8E153
S3150800151099F80000DFF8F41391F83A10884218D1C8
S31508001520DFF8E803407C00280AD199F80020DFF8A4
S315080015300014DFF8E403DFF8E033D3F8B031984756
S315080015404846DFF8E813C96A8847DFF8C40300216C
S315080015508170DFF8BC030190032000905F2300220E
S315080015600221DFF8BC0305F0C7FDCAE199F80000BF
S31508001570DFF8981391F83A10884217D1DFF88C03F0
S31508001580407C00280AD199F80120DFF8A813DFF873
S315080015908803DFF88433D3F8B031984799F8010007
S315080015A005F09CFBDFF8680300218170DFF8600313
S315080015B00190032000905F2300220221DFF86003D8
S315080015C005F09AFD9DE199F80000DFF8401391F8BF
S315080015D03A1088421AD1DFF83403407C00280AD131
S315080015E099F80020DFF85013DFF82C03DFF82833CA
S315080015F0D3F8B0319847DFF82403D0F8E0008047E5
S3150800160002F08CF9DFF8080300218170C0480190C8
S31508001610032000905F2300220221C14805F06CFDDB
S315080016206FE1FFB20E2F0DD10E224946C34805F0D1
S315080016304DFA002806D00E224946C04805F002FA9F
S3150800164005F028FBBD4801900E2000905723002284
S315080016500221B34805F050FD53E1FFB2202F17D100
S31508001660AA48407C002805D1B549AB48AA4AD2F811
S31508001670B021904720224946B24805F027FA0028AB
S3150800168006D020224946AF4805F0DCF905F002FBF2
S31508001690AC48019020200090582300220221A0483F
S315080016A005F02AFD2DE1FFB2142F20D19748407C82
S315080016B0002805D1A4499848974AD2F8B0219047FE
S315080016C014224946A14805F001FA00280FD0142231
S315080016D049469E4805F0B6F98C4890F84E00102801
S315080016E005D28A484FF6FF71416405F0D3FA974848
S315080016F0019014200090562300220221884805F004
S31508001700FBFCFEE0CA469AF8080001281FD39AF89F
S3150800171008007E49898880B2884218D2FFB20A2F0B
S3150800172015D17A48407C002805D189497A487A4AF1
S31508001730D2F8B021904775489AF8081080F83A1000
S3150800174072489AF8091080F83B1005F0A3FA814808
S3150800175001900A200090592300220221704805F0C2
S31508001760CBFCCEE099F80000684991F83A10884217
S315080017700ED16648407C002805D177496648664AF6
S31508001780D2F8B021904701F06DF8614800218170C8
S315080017905F480190032000905F23002202216048E1
S315080017A005F0AAFCADE099F80000584991F83A10FE
S315080017B0884219D15548407C002805D167495648C2
S315080017C0554AD2F8B02190475148002181705048B7
S315080017D00190032000905F2300220221504805F063
S315080017E08BFC00F082FA8CE04948019003200090B7
S315080017F05F23002202214A4805F07EFC81E0FFB201
S315080018003A0092B249464548D0F8B00005F01AF9B0
S315080018103F480021817000210800C0B2FFB2B842DB
S315080018200BD23B498978C0B23C4AD2F8B020825CD8
S315080018305118374A9170401CEFE73548019003204C
S3150800184000905F2300220221354805F055FC58E038
S3150800185001F097FF002806D03448808A50F010001F
S31508001860324988824DE001F07CFF002849D02B4898
S315080018700069C079002844D02C48808A50F040007E
S315080018802A4988823DE0484605F08BFC2021032042
S31508001890264A526B9047002804D020210220234A6A
S315080018A0526B90471A48002181701948019003200D
S315080018B000905F2300220221194805F01DFC20E054
S315080018C01FE0688813281CD01048407C00280AD1DD
S315080018D01FFA88F843466A8821490F48DFF838C056
S315080018E0DCF8B0C1E0470A48FE218170084801903B
S315080018F0032000906B88DBB200220221084805F01D
S31508001900FBFBBDE8F38700BF18090020900D0020F7
S31508001910840C002054810108C40A0020580E0020B7
S31508001920EC0C002090810108BC81010860100020A1
S31508001930E0810108048201082C820108940D002028
S315080019404C820108A20D00207C820108D40D0020DB
S31508001950B0820108C20D0020E48201082083010834
S315080019606083010810B518220021624805F0ADF819
S3150800197061486249B1F84810A0F860105E485F49AE
S3150800198091F94C1080F862105B485C4991F84D104B
S3150800199080F8631008225A49564805F053F807F0AC
S315080019A0DDFA0400E4B2002C05D007B52B21554812
S315080019B003F038FAFFE710BD00B583B04E48807CC7
S315080019C001280DD14C48C07C002809D14E48019009
S315080019D00C2000905523002201214C4805F08CFB71
S315080019E007BD80B54448C06C002802D04248C06C88
S315080019F0804701BD80B54048806C80473E48806B73
S31508001A00804701BD80B503F097FC414815F093FE69
S31508001A1001BD80B53848006A80473748406A804724
S31508001A203548806A80473448406B002802D03248DF
S31508001A30406B804701BD80B50123002208210120A3
S31508001A4005F00AFB002805D0012300220821012001
S31508001A5005F002FB01BD704780B508222D492E48C6
S31508001A6004F0F0FF2548407C00280CD12248807CF1
S31508001A70012801D1294A00E0294A2A492A482A4B3D
S31508001A80D3F8B031984701BD80B5284808210170C0
S31508001A901948006B8047FFF7DFFF01BD70477047A5
S31508001AA080B500F0D2F8FFF7C6FFFFF7D4FFFEF7C0
S31508001AB097FC00F0ACF807F0D3F900F0F3FE00F05D
S31508001AC071F900F07DFAFFF7E9FFFFF7E8FFFFF786
S31508001AD049FFFFF7D9FF08484068401C0649486097
S31508001AE000F034F80448C06A8047FFF792FFFFF712
S31508001AF089FFF0E7400E0020E80D0020900D002039
S31508001B00DF0D00208C83010864100020EC0C0020F7
S31508001B10C8830108A4100020C20D0020A483010870
S31508001B20B48301089C830108C40A002030140020ED
S31508001B30DFF8000201210160DFF8FC014EF6BE2144
S31508001B400160DFF8F801012101607047DFF8E40160
S31508001B5001210160704730B48308DFF8E44154F886
S31508001B6023301B681A000F2310F00304E4B2A40004
S31508001B70A3409A4310F00303DBB29B0011FA03F368
S31508001B8013438408DFF8B85155F82440236030BC65
S31508001B90704780B502F035FF40F68C21884206D2A0
S31508001BA06848006850F008006649086004E065481F
S31508001BB0016821F00801016001BDC0B2082190FB4F
S31508001BC0F1F103290DDAC0B2082190FBF1F14FF4C7
S31508001BD080625D4B02FB0131012210F007039A4037
S31508001BE00A607047C0B2082190FBF1F103290DDAAB
S31508001BF0C0B2082190FBF1F14FF48062534B02FB0F
S31508001C000131012210F007039A400A60704780B537
S31508001C1001210320FFF79FFF0320FFF7CEFF0121D5
S31508001C200620FFF798FF0620FFF7C7FF09211520B2
S31508001C30FFF791FF01210720FFF78DFF0720FFF728
S31508001C40BCFF022002F030FF01BD80B502237F22CF
S31508001C503F4801883F4807F099FB3E4800884FF601
S31508001C60FF71884201D107F029FC002007F090FC9B
S31508001C703448006850F008003249086007F046FC0E
S31508001C8007F008FCFFF754FF00F03AF8FFF781FF6A
S31508001C903148C92101603148792101603048E7217E
S31508001CA00160304849F6D95101602F4848F61111AC
S31508001CB001602E4849F2994101602D4840F21911F8
S31508001CC001602C4844F6991101602B4849F6941195
S31508001CD001601C48016821F010010160FEF79BFABB
S31508001CE007F068FD02F09AFB01BD80B540F201607D
S31508001CF007F088FC01BD80B5042007F0BEFB01BDD6
S31508001D0080B51E48102101601D48022101601D484A
S31508001D104FF40061016007F0B9FC1B480721016018
S31508001D201A48002101601A4810210160002002BDEE
S31508001D3000000000086000400460004000600040A9
S31508001D40E083010800BC004010B0004014B0004019
S31508001D50FA940108820A00200CB000400CB4004036
S31508001D600CB8004000B0004004B0004000B4004089
S31508001D7004B4004000B8004004B8004080E100E028
S31508001D80080000400C60004014A0004054A0004029
S31508001D9000E100E0DFF8080000210160704700005C
S31508001DA0E80C002080B570220021724804F08DFEF0
S31508001DB07048012101736F48002141736D48002165
S31508001DC081736C480021C1736A4800210181694802
S31508001DD00021417467480121017566480021017494
S31508001DE064486549016263486449416261486449D7
S31508001DF001656048634941655E48022181745D4812
S31508001E000221C1745B486049C1625A485F4901634F
S31508001E1058485F49C16357485E49016455485E4959
S31508001E20416454485D49816352485D49816251481D
S31508001E305C4981644F485C49C1644E48002141634E
S31508001E4005F081F905F0D2F904F0EDFF574808F0DE
S31508001E509BFA01BD564AB2F84A200A80C0B24880A9
S31508001E60444A127B0A71434A127B4A714FF4A072A4
S31508001E70CA8070474E4AB2F84A200A80C0B24880E3
S31508001E803C4A127B0A713B4A127B4A710022CA807D
S31508001E9041F211120A8170472DE9FF4104000D0035
S31508001EA016001F00002F02D0F6B2002E03D1012023
S31508001EB0060000A807003100C9B2380003F03DFB50
S31508001EC080465FFA88F8B8F1FF0F01D1FF2014E0C9
S31508001ED001A92000C0B2FFF7BDFF4346DBB201AA45
S31508001EE0290089B2002006F0EDFA8DF80000404678
S31508001EF0C0B203F0A2FA9DF8000004B0BDE8F08174
S31508001F00F0B585B004000D001600002E02D0EDB223
S31508001F10002D03D10120050000A806002900C9B23A
S31508001F20300003F00AFB0700FFB2FF2F01D1FF20A4
S31508001F3013E001A92000C0B2FFF79CFF3B00DBB20B
S31508001F400822002101A806F009FB8DF800003800D8
S31508001F50C0B203F072FA9DF8000005B0F0BD15494D
S31508001F600968080041F2111101800249097B817054
S31508001F7070470000E80D0020D98F0008BD9D0008B5
S31508001F80991E0008011F0008852700081D2700085C
S31508001F9079120008D52000088D21000801110008D3
S31508001FA0853E0008AD400008A53F0008C40A002089
S31508001FB0900D00204409002080B5FFF7C7FD01BD3C
S31508001FC010B53848002101603748012101603748BB
S31508001FD00121016036480021016035486021016011
S31508001FE009210620FFF7B7FD00F03AF800F042F89D
S31508001FF000F04AF800F027F82E484FF47A7101608D
S315080020002D480A2101602D480021016002F0F8F9E7
S3150800201004002B484FF4807101602A48006850F08C
S315080020200100284908602000C0B202F0E5F910BD99
S315080020304FF47A71081A002804D4B0F57A7F01DCC7
S315080020401D49086070472048006850F040001E4946
S3150800205008601D48006850F080001B4908607047FA
S3150800206080B501211720FFF776FD01211620FFF71D
S3150800207072FD01BD80B501210820FFF76CFD012125
S315080020800720FFF768FD01BD1048006850F0010001
S315080020900E4908600E48006850F080000C49086038
S315080020A07047000050E0004028E0004014E000407F
S315080020B01CE000402CE000403CE0004024E00040EA
S315080020C020E0004000E0004010B8004010B4004096
S315080020D010B000402DE9FC4105000E001700984697
S315080020E0089C7888DFF800178968497889B2884299
S315080020F04AD1E4B2002C3ED0DFF8EC068068801D99
S315080021000190DFF8E406806880780090DFF8D8064A
S3150800211080684378DFF8D006806882880221DFF875
S31508002120C80604F0E9FFDFF8C406407C401CDFF867
S31508002130BC164874C0B2022826D3DFF8B406407C21
S3150800214000280BD1DFF8A406427CDFF8A816DFF8D2
S31508002150A806DFF8A436D3F8B0319847DFF88C061E
S3150800216000214174DFF8780601210170DFF8700656
S315080021700021817308E0DFF87406407C002803D04C
S31508002180DFF8680600214174BDE8F38130B589B0EF
S315080021900400E4B22000902809D0912800F0EB80D2
S315080021A0942800F0FF80AB2800F00B8126E1DFF8C9
S315080021B04006407C002808D1DFF84016DFF83806CC
S315080021C0DFF83426D2F8B021904702A805F0D4FFEC
S315080021D000282ED1DFF81806407C002808D1DFF841
S315080021E02016DFF81406DFF81026D2F8B02190473B
S315080021F0DFF8FC05407C00280CD1BDF810309DF8AE
S315080022001320DFF80016DFF8F005DFF8EC55D5F8EF
S31508002210B051A847DFF8D805407C002809D102AAA2
S31508002220DFF8E415DFF8D005DFF8CC35D3F8B031A0
S315080022309847DFF8AC0590F863001A280FD1DFF845
S31508002240B005407C002840F09380DFF8C015DFF821
S31508002250A805DFF8A425D2F8B021904788E0DFF872
S315080022608005B0F86000BDF81010884207D1DFF885
S31508002270700590F863009DF8131088422CD0DFF89B
S315080022807005407C002810D1DFF85405B0F860309E
S31508002290DFF84C0590F86320DFF87415DFF8580569
S315080022A0DFF85455D5F8B051A847DFF84405407C07
S315080022B000280CD1BDF810309DF81320DFF854150E
S315080022C0DFF83405DFF83055D5F8B051A847DFF800
S315080022D01005012101704BE0DFF81405B0F848003D
S315080022E0DFF8FC14B1F86010884209D1DFF8000560
S315080022F090F84D00DFF8E81491F8631088421FD073
S31508002300DFF8EC04407C002808D1DFF80C15DFF86C
S31508002310E804DFF8E424D2F8B0219047DFF8D004C7
S31508002320DFF8BC14B1F86010A0F84810DFF8C00454
S31508002330DFF8AC1491F8631080F84D1004F0AAFC8D
S31508002340DFF8D80401210170DFF8940402218173B3
S31508002350DFF88C040021C173DFF8C40401900C2057
S315080023600090522300220221DFF87C0404F0C4FE08
S31508002370FFF7F5FD42E0DFF8680400214173DFF856
S31508002380600400218173DFF86804407C002835D199
S31508002390DFF89014DFF86004DFF85C24D2F8B02187
S315080023A090472BE0DFF84804407C002826D1DFF868
S315080023B07814DFF84404DFF84024D2F8B0219047B7
S315080023C01CE0DFF82C04407C002808D1DFF85C14F8
S315080023D0DFF82404DFF82024D2F8B0219047DFF88C
S315080023E00C04407C401CDFF804144874C0B203286F
S315080023F004D3DFF8F80300214174FFE709B030BDC4
S31508002400F8B55FF0FF30040000200500DFF80C0483
S31508002410007801283DD1DFF8040400210170DFF8B7
S31508002420CC0305210170DFF8C40301214170DFF8F0
S31508002430000400210170DFF8FC0364218170182272
S315080024400021DFF8A00304F040FB0822DFF8E813B8
S31508002450DFF8900304F0F6FADFF88403DFF8901348
S31508002460B1F84810A0F86010DFF87403DFF880139D
S3150800247091F94C1080F86210DFF86403DFF87013E6
S3150800248091F84D1080F86310DFF85403002180F8A6
S315080024906410DFF85803007801281FD3DFF85003CB
S315080024A090F84D000B2814D3DFF8440390F84D003C
S315080024B01B280ED2DFF834030078401EDFF82C13F1
S315080024C00870DFF81C03002180F86410012005005D
S315080024D095E0DFF818030021017090E0DFF80C039F
S315080024E04078012807D1DFF8040300214170DFF89E
S315080024F04C030121017007F0C1FA002800F07F8023
S3150800250000200700DFF838030078FFB2874201D2BF
S315080025107F1CF7E7DFF828030078002805D1DFF8E5
S315080025201C0301210170012076E0C14800780128CA
S315080025300BD3BF480078401EBD490870A848002143
S3150800254080F864100120050059E0002004000020EE
S315080025500700BB480078FFB2874210D2FFB20620B8
S31508002560B44900FB0710807864B20621B14A01FB22
S3150800257004218978884200D23C007F1CE9E764B2CE
S315080025800620AC4900FB04108078642832D064B277
S315080025900620A84900FB041064218170A448032181
S315080025A00170182200218F4804F08FFA0822A249E8
S315080025B08C4804F047FA64B206209E4900FB0410D2
S315080025C080888749A1F860008548894991F94C10A7
S315080025D080F8621064B20620964900FB0410C078A1
S315080025E07F4981F863007E48002180F86410012045
S315080025F0050004E091480121017000200CE0EDB2CD
S31508002600012D08D100200500FEF7E7FC75490220D8
S3150800261003F09EFA06000120F2BD80B587480078CF
S31508002620012804D107F0A6FA84480021017007F0B2
S31508002630AAFA07F019FA002803D07F49814807F05B
S31508002640A5FA01BD6A4890F83A0080B27047684812
S31508002650C07A022803D1664890F83B0000E01020B3
S31508002660704710B40200D2B2012A1AD16048C07A63
S31508002670022807D15D48007F08435C4B18775B4802
S31508002680007F3DE05948594B1B7FDBB251EA5303A3
S31508002690047F63F3470404775448007FC0B24008B8
S315080026A02EE0D2B2022A1CD15148C07A022807D19C
S315080026B04E48007F88434D4B18774C48007F1FE0F3
S315080026C04A484A4B1B7FDBB2C9B2CC4314EA5303D0
S315080026D0047F63F3470404774448007FC0B2400888
S315080026E00EE04348C07A022804D14048007F0840DB
S315080026F0C0B205E03D48007FC0B211EA5000C0B242
S3150800270010BC70473A48C07A022802D13748407F41
S3150800271003E03648007F10F00100704780B5344862
S31508002720C07A022802D100F0B3FE1CE02F48818A45
S3150800273021F0100181822D482D4991F83A104183E4
S315080027402B48007B800707D52848642141773E48F7
S315080027502649896A884706E02448002141773A488D
S315080027602249C96A88472148384901631F483849B8
S3150800277081631E48374941631C483749C163FFF7DF
S3150800278009FB01BD10B592B034483449C96C884775
S31508002790002816D131483149896C884704003048E9
S315080027A0002101802100C9B21348134AD2F89821A2
S315080027B0904711480078002803D12000C0B2FDF7E1
S315080027C08CFF00A90C480C4AD2F89421904700289F
S315080027D002D000A8FEF743F812B010BD00000000B2
S315080027E0E80D0020400E0020EC0C002060100020B0
S315080027F0900D0020F8830108C40A002038840108D7
S315080028006484010884840108AC840108CC84010826
S31508002810E48401080C8501082C850108930A002028
S315080028207A1000206885010894850108C08501088A
S3150800283021140020C0100020EC8501082014002077
S315080028408C09002000F8FF077D10002045260008A7
S315080028504F2600086326000805270008940C002068
S31508002860580E0020F8B50220040000200600E4B245
S31508002870022C02D12020050007E0E4B2032C02D185
S315080028801020050001E0102005004FF6FF70070034
S315080028903B003200D2B22900C9B22000C0B204F00F
S315080028A08BF9F1BD80B5DFF870275821002007F0B5
S315080028B0CDFDDFF86407008845F2AA51884204D1A5
S315080028C0DFF854074088582802D0FFF7CBFF23E0EB
S315080028D0DFF8440790F84D000B280BD3DFF83807CC
S315080028E090F84D001B2805D2DFF82C0790F84E000B
S315080028F0112802D3FFF7B6FF0EE0DFF81C0790F8A1
S315080029003B00012808D0DFF8100790F83B00102894
S3150800291002D2FFF7A7FFFFE701BD80B5DFF8F8068B
S31508002920407C002805D1DFF8F0060121417404F047
S31508002930B1F9DFF8E406407C002801D0002000E069
S315080029400120DFF8D816087001BD000030B58BB03D
S3150800295072A00400DFF8C006407C002808D1DFF822
S31508002960C416DFF8BC06DFF8B826D2F8B0219047BF
S31508002970DFF8A406407C00280BD1DFF89C06C28845
S31508002980DFF8A416DFF89806DFF89436D3F8B031E6
S315080029909847DFF88406407C00280BD1DFF87806D4
S315080029A08288DFF88816DFF87806DFF87436D3F8F9
S315080029B0B0319847DFF86006407C00280CD1DFF874
S315080029C0580690F83B20DFF86816DFF85406DFF85B
S315080029D05036D3F8B0319847DFF83C0690F83B00FC
S315080029E0012809D3DFF8300690F83B00102803D2F7
S315080029F0DFF8400604004EE0DFF81C0690F83B00BE
S31508002A00102809D3DFF8100690F83B00202803D2D7
S31508002A10DFF8240604003EE0DFF8FC0590F83B00EA
S31508002A20202809D3DFF8F00590F83B00402803D2A8
S31508002A30DFF8080604002EE0DFF8DC0590F83B0016
S31508002A40502809D3DFF8D00590F83B00602803D258
S31508002A50DFF8EC0504001EE0DFF8BC0590F83B0043
S31508002A60102809D3DFF8B00590F83B00202803D2D8
S31508002A70DFF8D00504000EE0DFF89C0590F83B006F
S31508002A80102808D3DFF8900590F83B00302802D2CA
S31508002A90DFF8B4050400DFF88005407C002808D17B
S31508002AA02200C0A1DFF87805DFF87435D3F8B03115
S31508002AB09847DFF86405407C00280BD1DFF85805F5
S31508002AC0027BDFF88815DFF85805DFF85435D3F8A8
S31508002AD0B0319847DFF87805807C022811D1DFF8F5
S31508002AE03805407C00280CD1DFF82C0590F83A20F0
S31508002AF0DFF86015DFF82805DFF82435D3F8B0319C
S31508002B009847DFF81405407C002814D1DFF808053B
S31508002B10407C002804D0DFF8402503E000000000D0
S31508002B20DFF83825DFF83815DFF8F404DFF8F03475
S31508002B30D3F8B0319847DFF8E004407C00280BD181
S31508002B40DFF8D404827BDFF81C15DFF8D404DFF83D
S31508002B50D034D3F8B0319847DFF8BC04407C00285D
S31508002B600BD1DFF8B404C27BDFF8FC14DFF8B0043D
S31508002B70DFF8AC34D3F8B0319847DFF89C04407CD2
S31508002B8000280BD1DFF89004027CDFF8E014DFF8A8
S31508002B909004DFF88C34D3F8B0319847DFF878041E
S31508002BA0407C002808D1DFF8C814DFF87404DFF881
S31508002BB07024D2F8B0219047DFF8B804FEF71BFA64
S31508002BC0DFF85404407C00280BD1DFF84C04827AE5
S31508002BD0DFF8A414DFF84804DFF84434D3F8B0313A
S31508002BE09847DFF83404407C00280BD1DFF8280426
S31508002BF0427BDFF88814DFF82804DFF82434D3F89A
S31508002C00B0319847DFF81004407C00280BD1DFF874
S31508002C100804426CDFF86814DFF80404DFF80034AF
S31508002C20D3F8B0319847DFF8F003407C00280CD180
S31508002C30DFF8E40390F84E20DFF84814DFF8E003E5
S31508002C40DFF8DC33D3F8B0319847DFF8CC03407CA3
S31508002C50002812D1DFF8C003007AC3B2DFF8B80340
S31508002C60008980B2020A92B2DFF81C14DFF8B003BA
S31508002C70DFF8AC53D5F8B051A84704A805F07CFA9C
S31508002C80002820D1DFF89003407C00280AD1BDF83F
S31508002C901820DFF8F813DFF88803DFF88433D3F851
S31508002CA0B0319847DFF87003407C00282FD19DF893
S31508002CB01B20DFF8DC13DFF86803DFF86433D3F88A
S31508002CC0B031984723E0DFF85003407C00280CD148
S31508002CD0DFF84403B0F84820DFF8B013DFF8400304
S31508002CE0DFF83C33D3F8B0319847DFF82C03407C43
S31508002CF000280CD1DFF8200390F84D20DFF8901358
S31508002D00DFF81C03DFF81833D3F8B0319847DFF83B
S31508002D100803407C00280CD1DFF8FC0290F84C2010
S31508002D20DFF87013DFF8F802DFF8F432D3F8B031C1
S31508002D309847DFF8E402407C00280CD1DFF8D80277
S31508002D40B0F84A20DFF85013DFF8D402DFF8D032A3
S31508002D50D3F8B0319847DFF8C002407C00281ED16E
S31508002D60DFF83803807A0390DFF83003407A029060
S31508002D70DFF82803007A0190DFF82003C079009075
S31508002D80DFF818038379DFF814038288DFF8101355
S31508002D90DFF88C02DFF88852D5F8B051A8470BB097
S31508002DA030BD00002573000070B588B00400002C03
S31508002DB000F02E81DFF86002C07A012840F0CE804C
S31508002DC0DFF85402407C002809D12288DFF8D412A3
S31508002DD0DFF84C02DFF84832D3F8B0319847DFF80D
S31508002DE03802407C00280AD1A078C0B24208D2B284
S31508002DF0DFF8B4128A488A4BD3F8B0319847864828
S31508002E00407C00280ED1A078C00702D5DFF89C22A6
S31508002E1001E0DFF89C22DFF89C128148804BD3F84A
S31508002E20B03198477C48407C00280DD12079C007EE
S31508002E3001D578A201E0DFF88022DFF88012784811
S31508002E40774BD3F8B03198477348407C00280AD1AD
S31508002E502079C0B24208D2B2DFF864127048704BCB
S31508002E60D3F8B03198476C48407C002807D162797E
S31508002E70DFF850126A486A4BD3F8B031984766486B
S31508002E80407C002807D1627ADFF83C126448644B1C
S31508002E90D3F8B03198476048407C002808D1A07A1A
S31508002EA010F00F0289495E485D4BD3F8B031984758
S31508002EB05948407C002809D1A07AC0B20209D2B28A
S31508002EC083495748564BD3F8B03198475248407C07
S31508002ED0002806D1E27A7F495148514BD3F8B031E0
S31508002EE098474D48407C002806D1E2787A494C48F4
S31508002EF04B4BD3F8B03198474748407C002808D157
S31508002F00207A10F00F0275494548454BD3F8B03181
S31508002F1098474148407C002809D1207AC0B2020966
S31508002F20D2B26F493E483E4BD3F8B03198473A483B
S31508002F30407C002806D1A2796A493948384BD3F82B
S31508002F40B03198473448407C002861D1E279664917
S31508002F503348334BD3F8B031984759E02E48C07AF6
S31508002F60022855D100F00DFC002826D02A48407CBE
S31508002F70002805D15D492A48294AD2F8B021904748
S31508002F802548407C002843D120890790E07906909F
S31508002F90A079059060890490607903902079029061
S31508002FA0A0780190E07800902378627850491C4810
S31508002FB01B4DD5F8B051A8472AE000F0D2FB0028EF
S31508002FC026D025001448407C002805D149491448D4
S31508002FD0134AD2F8B02190470F48407C002817D1F1
S31508002FE068890790E87906902879059028890490D9
S31508002FF0A8780390A879029068790190E8780090FB
S315080030002B786A783C490648054ED6F8B061B04731
S3150800301008B070BD4E6F0000900D0020940C002083
S31508003020C40A0020F48501081C8601082C860108BC
S3150800303040860108548601086886010880860108CA
S3150800304098860108B0860108C4860108DC8601084E
S31508003050E80D0020F4860108288701083087010852
S3150800306008870108388701086487010890870108DE
S31508003070C4870108C20D0020E4870108FC870108FF
S315080030801C880108348801084C8801086C880108E6
S315080030908C880108AC880108C488010860100020E3
S315080030A0E088010810890108208901084889010873
S315080030B050890108348901087C8901085889010862
S315080030C0848901089C890108B0890108CC8901080E
S315080030D0EC8901080C8A0108208A0108388A010847
S315080030E04C8A0108608A0108748A0108888A0108DE
S315080030F0C88A0108008B01083C8B010880B50121AC
S315080031000220FEF728FD0220FEF76CFD01BD81B006
S315080031100020ADF80000BDF8000040F6FF718842B7
S3150800312009D2BDF80000ADF80000BDF80000401C4B
S31508003130ADF80000EFE701B0704738B50400052088
S3150800314005000220FEF739FDFFF7E1FF2000C0B2B7
S3150800315003F04CFF002804D12800451EC0B2002801
S31508003160F4D10220FEF73EFD31BD38B5040000F06B
S31508003170F8FA002811D12078FFF7DFFF6078FFF70B
S31508003180DCFF00200500EDB2042D06D2EDB22819A9
S315080031908078FFF7D2FF6D1CF5E731BD37B504001F
S315080031A0DFF8A00D00780621DFF8982D01FB002036
S315080031B07E218170DFF88C0D00780621DFF8842DDA
S315080031C001FB0020C470022201A9DFF8780D0078FF
S315080031D00623DFF8705D03FB0050001D03F032FC88
S315080031E0022202A9DFF85C0D00780623DFF8545D99
S315080031F003FB0050801D03F025FCDFF8480D00781E
S31508003200401CDFF8401D0870DFF8380D00782028CC
S3150800321003D3DFF8300D0021017037BD0021080007
S31508003220DFF8201D4978DFF81C2D1278914219D055
S31508003230DFF8101D49780622DFF8083D02FB013148
S31508003240891C0800DFF8FC1C4978491CDFF8F42CB7
S315080032505170DFF8F01C4978202903D3DFF8E41C05
S3150800326000224A70704780B5DFF8000C407C0028C1
S3150800327008D1DFF8FC1BDFF8FC0BDFF8F82BD2F8D7
S31508003280B02190470120FEF7ADFC01BD80B5DFF8FF
S31508003290DC0B407C002808D1DFF8DC1BDFF8D40BF8
S315080032A0DFF8D02BD2F8B02190470120FEF785FC35
S315080032B001BD80B5DFF8B40B407C002808D1DFF8E3
S315080032C0BC1BDFF8B00BDFF8AC2BD2F8B021904767
S315080032D0DFF8B80C0068800703D50120FEF782FCEA
S315080032E002E00120FEF769FC01BD38B50400DFF8ED
S315080032F0A00C407B002831D1DFF8700B407C0028F9
S3150800330008D1DFF87C1BDFF86C0BDFF8682BD2F8E6
S31508003310B021904700200500EDB2082D09D2002201
S3150800332000215420DFF8683CD3F8D43098476D1C48
S31508003330F2E7DFF85C0C54210172DFF80C0C808A86
S3150800334050F02000DFF8001C8882DFF8440C807DEE
S31508003350002803D0DFF8380C0021817531BD38B557
S315080033600400DFF8080B407C002808D1DFF8241C8D
S31508003370DFF8000BDFF8FC2AD2F8B02190470020CE
S315080033800500EDB2082D09D2002200215320DFF8EE
S31508003390003CD3F8D43098476D1CF2E7DFF8F00B01
S315080033A053210172DFF8A00B808A50F02000DFF865
S315080033B0981B888231BD70B504002500002C4CD0BE
S315080033C0287850280ED1DFF8A40A407C002829D195
S315080033D0DFF8C41BDFF89C0ADFF8982AD2F8B02178
S315080033E090471FE0287851280ED1DFF8800A407CE4
S315080033F0002817D1DFF8A41BDFF8780ADFF8742A4B
S31508003400D2F8B02190470DE0DFF8600A407C00282A
S3150800341008D1DFF88C1BDFF85C0ADFF8582AD2F8E7
S31508003420B021904700200600F6B2082E09D2AA88D5
S3150800343069882878DFF8583BD3F8D4309847761C43
S31508003440F2E7DFF84C0B29780172DFF8FC0A808A6C
S3150800345050F02000DFF8F01A888270BD30B4020000
S315080034600800002529002B002C00C9B2082909D21A
S31508003470D50700D55B1CD50500D5641C491C92B23E
S315080034805208F2E71D1B0570E518457030BC7047F9
S3150800349010B5EC220021DFF8F80A03F016FBC22269
S315080034A00021DFF8A00A03F010FB0C220021DFF848
S315080034B0E80B03F00AFB0C220021DFF86C0C03F082
S315080034C004FB20220021DFF8D40B03F0FEFADFF814
S315080034D0780ADFF8981991F83A108176DFF8680AC1
S315080034E0DFF8881991F83B10C176DFF85C0ADFF837
S315080034F0B01B8162DFF8500ADFF8A81BC162DFF84B
S31508003500480ADFF8A41B0164DFF8840ADFF85C19AF
S3150800351091F83A100175DFF8780ADFF8501991F832
S315080035203B104175DFF8680A5321C175DFF8600A58
S3150800353008214180DFF8580ADFF8601BC0F8B01090
S31508003540DFF84C0ADFF8E41BC0F8D410DFF8400AAD
S31508003550DFF8201CC0F8D810DFF8340ADFF8181C8A
S31508003560C0F8DC10DFF8280ADFF8101CC0F8E010F5
S31508003570DFF81C0ADFF8081CC0F8E410DFF8100AA8
S31508003580DFF8001CC0F8E810DFF8040ADFF8F81BBB
S31508003590C0F8AC10DFF8D40890F83A00DFF8881BBA
S315080035A00870DFF8840BDFF8C41891F83B104170F7
S315080035B0FFF7A4FDFFF7B1F900F0D3F8002853D0C0
S315080035C001210120FEF7C7FA0120FEF7F6FA0821C5
S315080035D00020FEF7C0FA08210420FEF7BCFA0020F6
S315080035E0FEF7EBFA0420FEF7E8FADFF8A409DFF89D
S315080035F0A81A0161DFF898090069DFF8701891F8D0
S315080036003A100170DFF888090069DFF8601891F848
S315080036103B104170DFF8780900690021C171DFF8B5
S315080036207009006900218171DFF8640900690021C9
S31508003630C170DFF85C09006900214171DFF85009A3
S31508003640006900218170DFF84809006900210171CD
S31508003650DFF83C09006900214181DFF83409006977
S3150800366042F2486101817BE000F08BF8002877D0B0
S315080036700A220021DFF8C40B03F027FADFF8BC2B77
S315080036800A214FF4805006F0E1FEDFF8B40B03F090
S31508003690C2FC00200400E4B2052C39D2E4B2DFF8FB
S315080036A0F00810EB440090F82000002808D0E4B297
S315080036B0DFF8DC0810EB440090F82100002800D160
S315080036C026E0E4B2DFF8C80810EB440090F82000C2
S315080036D0FF2808D0E4B2DFF8B80810EB440090F8E9
S315080036E02100FF2800D113E0E4B2DFF8A40810EBAC
S315080036F0440090F82120E4B2DFF8940810EB440067
S3150800370090F82010DFF83C0B03F085FC641CC2E738
S31508003710DFF87C088473DFF87808807B0400E4B25D
S31508003720052C11D2E4B2DFF8680810EB440000213A
S3150800373080F82010E4B2DFF8580810EB44000021A6
S3150800374080F82110641CEAE7DFF8F02ADFF8400861
S31508003750817B002000F0A1FADFF83408002101611E
S3150800376010BDDFF8080790F83B00102807D3DFF8EC
S31508003770FC0690F83B00202801D2012000E000203A
S315080037807047DFF8E80690F83B00202807D3DFF8F3
S31508003790DC0690F83B00402801D2012000E000201A
S315080037A07047010000221000DFF8E42792F82A206B
S315080037B0C0B290420DD2C0B2DFF8D42712EB400255
S315080037C092F82C20C9B28A4201D1C0B202E0401C4C
S315080037D0EAE7FF20704700B583B0DFF86C0A807B04
S315080037E0022840F09A80FFF7BCFF00282BD0DFF8AC
S315080037F05807007D400640F19080DFF87006407C4F
S3150800380000280CD1DFF8880700698279DFF83C1AAE
S31508003810DFF86006DFF85C36D3F8B0319847DFF892
S315080038207007006901900C200090522300220221A3
S31508003830DFF81C0A03F060FCDFF80C07818A21F028
S315080038404001818269E0DFF80007007DC00664D583
S315080038500C22DFF8001ADFF8400803F037F90028D1
S3150800386021D00C22DFF8EC19DFF82C0803F0EAF86F
S31508003870DFF8F805407C002808D1DFF8DC19DFF806
S31508003880F405DFF8F025D2F8B0219047DFF80808EC
S3150800389001900C200090522300220221DFF8B00983
S315080038A003F02AFC33E0DFF8A006807ADFF8BC15BF
S315080038B0897A90FBF1F201FB1200002827D1DFF884
S315080038C08806C07CDFF88016897A88421FD0DFF820
S315080038D07806DFF87416897AC174DFF89005407C9B
S315080038E0002808D1DFF87419DFF88805DFF8842581
S315080038F0D2F8B0219047DFF8A00701900C2000907D
S31508003900522300220221DFF8480903F0F5FBDFF80D
S315080039103806818A21F01001818207BD80B5DFF85B
S315080039204C05407C002808D1DFF83419DFF8440537
S31508003930DFF84025D2F8B021904782220021DFF82F
S31508003940240903F0C2F8DFF848060021C172DFF83F
S31508003950D80700218170DFF8380600218175DFF865
S31508003960E80500210177DFF82806DFF8241691F824
S315080039702A10C176DFF8D005808A50F01000DFF8EB
S31508003980C815888201BD30B583B0DFF8DC08007D34
S31508003990800640F18181FFF7E4FE00280ED0DFF8AB
S315080039A0C808818A21F020018182DFF8BC08808A54
S315080039B050F01000DFF8B01888826DE1DFF8D00506
S315080039C0407E002800F03781DFF8C405407EDFF826
S315080039D0C015897A884200F02E81DFF8B405C088C0
S315080039E0DFF88418497A3C22DFF87C389B7A02FB98
S315080039F00131884206D1DFF87008818A21F020015A
S31508003A00818249E1DFF88805DFF88415497E8172ED
S31508003A10DFF85408407A3C21DFF84C28927A01FBFB
S31508003A200020DFF86C15C880DFF86405807AFFF798
S31508003A30B8FE0400DFF8580590F82A00E4B2A04260
S31508003A4026D2DFF84C0590F82A00002801D001207C
S31508003A5000E01020DFF83815897D0843DFF83015B7
S31508003A608875DFF80804407C002840F0DB80DFF822
S31508003A70200590F82A30DFF81805827ADFF8EC1767
S31508003A80DFF8F003DFF8EC53D5F8B051A847C9E0E2
S31508003A90DFF8FC0490F82B00E4B284420BD0DFF880
S31508003AA0F00480F82B40DFF8E804807D50F002002F
S31508003AB0DFF8DC148875DFF8D80490F82B00DFF8F7
S31508003AC0D01411EB400090F82D00DFF8C414C8722A
S31508003AD0DFF8BC04D0F8AC00DFF8B414C97A01707A
S31508003AE0DFF8AC04D0F8AC000078502802D140F6D4
S31508003AF0AC500AE0DFF89804D0F8AC0000785128FA
S31508003B0002D140F6A66000E00020DFF88414D1F860
S31508003B10AC104880DFF87804D0F8AC00007850285C
S31508003B2002D140F6A6600AE0DFF86404D0F8AC00DB
S31508003B300078512802D140F6AC5000E00020DFF8AA
S31508003B405014D1F8AC108880DFF84404D0F8AC00E3
S31508003B50DFF81417096C8847DFF83404C07A53284D
S31508003B6006D1C248807A14214843DFF824144873E2
S31508003B70BE48407C00281AD1DFF8140490F82B00C0
S31508003B800090DFF80C04D0F8AC000378DFF80004E6
S31508003B9090F82B00DFF8F81311EB400090F82C2072
S31508003BA0DFF8CC16B348B34DD5F8B051A847DFF8BF
S31508003BB0E003DFF8DC1391F82B108176DFF8D003E9
S31508003BC090F82B00401CDFF8C81381F82B00DFF8AB
S31508003BD0C00390F82B00DFF8B81391F82A10884232
S31508003BE020D3DFF8AC0390F82A0000281AD000206A
S31508003BF0DFF87416C96A8847FFF790FEDFF8900366
S31508003C00807D50F00400DFF888138875DFF8880493
S31508003C1001900C2000905A2300220221DFF830067A
S31508003C2003F06AFADFF84006808A50F01000DFF8E1
S31508003C30381688822AE0DFF85803C07A532814D148
S31508003C40D348C07D532810D00020DFF81C16C96A57
S31508003C508847CF4800218175DFF80C06808A50F026
S31508003C601000DFF80416888210E00C22DFF8E4154D
S31508003C70DFF8240402F02AFF002807D0DFF8E80559
S31508003C80808A50F01000DFF8E0158882DFF8D80542
S31508003C90818A21F02001818237BD2DE9F84304008D
S31508003CA00D00160000208046E4B2EDB2281980B255
S31508003CB0402802D34046C0B2D5E0B548007A53281A
S31508003CC004D00020DFF8A015C96A884755EA040021
S31508003CD0C0B2002804D1FFF721FE4046C0B2C2E0B8
S31508003CE0EDB22A00E4B22100DFF8880503F093F963
S31508003CF02700FFB2EDB2E4B2601987421DDAFFB2BF
S31508003D00A34810EB4700317880F82C10FFB2A04882
S31508003D1010EB4700717880F82D1030787178081804
S31508003D2010EB080873783278FFB23900DFF84805D7
S31508003D3003F071F97F1CB61CDBE7954890F82A005A
S31508003D40EDB2E4B26119884203DA2819904981F87C
S31508003D502A008F488E4991F82A10C1768C4890F827
S31508003D602A00052875D2E4B2002C72D1002007007B
S31508003D708146874890F82A00FFB287420BD2FFB2E5
S31508003D80834810EB470090F82D00532801D119F10C
S31508003D9001097F1CEDE75FFA89F9B9F1010F58D1DE
S31508003DA07B487B4991F82A108173794890F82A0054
S31508003DB080B2420092B2DFF88414DFF8C00402F041
S31508003DC085FE002845D0724890F82A10DFF8B0041E
S31508003DD003F021F90A220021DFF8600402F075FEDB
S31508003DE0002007006A4890F82A00FFB2874229D2C5
S31508003DF0FFB2674810EB4700FFB2654911EB470170
S31508003E0091F82C1080F82010FFB2614810EB47009B
S31508003E10FFB25F4911EB470191F82D1080F8211088
S31508003E20FFB25B4810EB470090F82120FFB25848D4
S31508003E3010EB470090F82010DFF8480403F0EBF881
S31508003E407F1CCFE70A22DFF8F4134FF4805006F000
S31508003E50C7FADFF81404808A50F01000DFF8081457
S31508003E6088824046C0B2BDE8F2830000900D00206B
S31508003E70708B0108C40A0020808B0108908B01080A
S31508003E80A48B010880B5DFF8C003807B022814D113
S31508003E90DFF8B403007C00280DD1DFF8AC0301215C
S31508003EA0017406F0DFFA284908832748808A50F00B
S31508003EB0020025498882FFF78EFCFFF764FDFFF7AD
S31508003EC050FC00283CD0324800690079304909691D
S31508003ED0C978884218D02E4800692D490969C978D9
S31508003EE001712B480069C078032804D12848D0F806
S31508003EF0E000804708E026480069C078022803D118
S31508003F002348D0F8DC00804721480069C07801289A
S31508003F1016D11F4800694089401C1D490969488116
S31508003F201B48006940891A4909690989884207D3E3
S31508003F301748D0F8E40080471548006900214181F8
S31508003F4001BD0000440F00206010002080B5FFF777
S31508003F5008FC002817D0DFF830030068C00707D42C
S31508003F60DFF8280390F83B00C0B24000C0B20BE06F
S31508003F70C5480068C00606D4C44890F83B0040000F
S31508003F80401CC0B200E0002002BD00000CB000409A
S31508003F90580E0020B88B0108C88B0108E08B010871
S31508003FA0F88B010838B5BA480088401CB84908801B
S31508003FB0A548807B02281ED1B6480068401CB54932
S31508003FC00860A34803F078F8002814D1B1480068BF
S31508003FD04FF44871B0FBF1F201FB120000280AD138
S31508003FE09B4803F073F80400A31DA27800216078AB
S31508003FF0954D2D6DA847FFF7B4FB002834D0A4488B
S3150800400000884FF48071884245D3FFF79FFF04006C
S315080040109F48407AE4B2844220D1E4B2002C1DD0F5
S315080040209B48006984719A4800690121C1719748C3
S31508004030407C002808D196480069827996499748B5
S31508004040964BD3F8B03198478748808A50F040009D
S31508004050854988828E480021417201E08C48447265
S315080040608B480021018016E0FFF78BFB002812D051
S31508004070874800888649498888420CD38448D0F8FE
S31508004080D80080470400824800210180002C02D015
S315080040902000FFF76AF831BD7A10002014100020BE
S315080040A0EB3200085F330008B733000880B56E4866
S315080040B0407A7649897A90FBF1F201FB12000028D2
S315080040C01BD16948807C6849497A884215D0664878
S315080040D06549497A81745C48807B02280DD1FFF7CF
S315080040E050FB002809D06048007DC00605D45E480C
S315080040F0808A50F010005C4988826548C07A532847
S3150800410009D16348407B002805D06148407B401EA2
S315080041105F49487306E05E48407B002802D05C4849
S315080041200021417301BD0000081000209D310008E0
S315080041300278CA7042780A710A79002A05D08A7804
S3150800414052F008028A70D2B204E08A7812F0F702B6
S315080041508A70D2B282784A71C279037A52EA032205
S315080041604A814B4A92F82B208A71494A92F82A20AA
S31508004170CA7170471D320008673200088D32000880
S31508004180B33200085D3400083410002010B504006E
S31508004190FFF7F7FA002808D06078052805D3A07934
S315080041A0002802D02079002800D146E038488088C7
S315080041B0401C374988806079002809D138484079F9
S315080041C0A179884204D13648C078217988421ED020
S315080041D03349201DFFF7ACFF0C2231491D4802F078
S315080041E031FC2F48C07854280AD100201E49896A14
S315080041F088472748C07A532802D125485421C172D6
S315080042001948808A50F020001749888215E020480E
S315080042108088802811D32249201DFFF789FF0C22A8
S315080042201F490C4802F00EFC0F48808A50F0100017
S315080042300D49888216480021818010BD780E00201D
S31508004240088C0108208C0108E80D0020388C01082C
S31508004250EC0C00206C0E0020748C0108888C010878
S31508004260AC8C0108820E002060100020D48C010856
S31508004270048D0108288D0108488D0108840E002048
S31508004280708D0108988D010808B00040900D002037
S31508004290580E00203C100020A48D0108C40A0020F6
S315080042A00810002038B5344C40F20730206072B64A
S315080042B03248016849084900016031481121016006
S315080042C06069800620D46069C00601D52D4805E0DE
S315080042D02D4803E04FF0CD3140F8041B2B498842A6
S315080042E0F8D32B482B492C4A00F07EF82B482C494A
S315080042F0002200F073F82B482B4900F06FF82B4882
S315080043002B492C4A00F070F82B4D2C4868604FF06A
S31508004310784068612A48A8612A48E8612A482B49F2
S3150800432001604FF0803141608160C160E021016128
S315080043302748A860102028614FF4E020286206F07C
S31508004340B3F86069800608D52248002101702868FC
S3150800435040F08050286006F0E3F805F0F9F900F01F
S315080043604FF862B6FDF79CFB07B5D4211A48BDE89D
S31508004370344000F057BD00BF18000040FCED00E0D7
S31508004380008000409400002000000020580700200C
S315080043901495010858070020BC0A0020BC0A002012
S315080043A047140020481400205C1900200000000073
S315080043B0000000000000000004ED00E00001000815
S315080043C0F8F8F88080F8408000E400E080804080BB
S315080043D00004FA05F8100020D48D010801E040F821
S315080043E0042B8842FBD3704703E050F8043B41F89E
S315080043F0043B9142F9D3704780F311887047000057
S31508004400EFF31180602181F311887047EFF3118073
S315080044106028D4BF0120002070470000002181F3E6
S315080044201188704710B500F015F81040C84010BD47
S3150800443010B500F00FF8D44320401140084380B26D
S31508004440D860022018600020186058680028FCD13F
S3150800445010BD0000064B5C68002CFCD1986001205A
S3150800446018600020186058680028FCD11869704741
S31508004470E81000402B490A68920992010A600A6806
S3150800448010430860DFF8C4034FF4004101600021BF
S315080044900160642005F036B92DE9F0478046DFF85B
S315080044A0A45628681FFA80FA286840F40040286055
S315080044B01C4E306820F480503060DFF84C98DFF8E6
S315080044C05848607860B1E078A17809EB810111F865
S315080044D02A1C401A09EB880111F82A1C081804E05E
S315080044E020270120607001E0781C87B23846FFF764
S315080044F0C1FF306B042804D0306B4007F4D4781E13
S31508004500F3E7F06A30B184F80280E770C5F800A0D6
S31508004510BDE8F08707B540F2F31109F1400000F055
S3150800452081FCE6E7D010004010B504464FF47872D7
S31508004530610189B21020FFF77BFF1F222146102058
S31508004540BDE8104074E700002DE9F04F85B08346BA
S315080045509BF800004FF67F7202EA0004012202FA75
S3150800456001F1ADF80010000603D400F06BF808421C
S315080045705CD0314D286880B20490686880B2039098
S31508004580DFF8B880D8F8000080B202902C4F38685F
S3150800459080B2019048F2800028600220686048F2E4
S315080045A0D000C8F800000220386000240526012043
S315080045B0711E88401FFA80F949EA0404A0B2FFF781
S315080045C0B3FF00F0A3FB78681FFA80FABAF1C00FB0
S315080045D002DB24EA0904A4B2701E86B2012EE6DACA
S315080045E01F2C12DA661CB0B2FFF79EFF00F08EFB96
S315080045F07868C0384EF6FF710840AAF1C0014EF639
S31508004600FF721140884200D2B4B204982860039819
S3150800461068600298C8F80000019838608BF8004076
S3150800462000F010F88843DFF8F016C880A0B205B08D
S31508004630BDE8F04F78E700BF0C1100404410004079
S3150800464010400040DFF8D006C088BDF8001070475B
S315080046503F22410089B22020EAE62DE9F34F97B0C0
S31508004660DFF89C57DFF8B0060079002814BF686A9F
S31508004670286980B20390179800784FF67F7101EA8F
S31508004680000418990978039B5B1C8B4203DB039B88
S315080046905B1E994201DA012100E00021012303FA99
S315080046A002F2ADF80A20000609D4DFF86C06008984
S315080046B0BDF80A20104202D1002900F0BE80E86C3D
S315080046C080B20690286880B20590604EF06A80B283
S315080046D004904FF6FF7200211120FFF7A3FE8346D0
S315080046E04FF6FF720021A020FFF79CFE82464FF48A
S315080046F00040286000203061706148F2020000F036
S31508004700B9F84CF68C30E86448F2F000F0624FF4E1
S31508004710805211461120FFF78BFE4FF6FF720021DB
S3150800472000F012FA00F0ABF802A900F09BF900F0CD
S31508004730ADF800F095F94CF69C30E8640020FFF7D8
S3150800474087FF0020009006231A46C02106F0BCF811
S315080047500024A0B2FFF77CFF00F091F807A800EB51
S31508004760440100F07FF9641C202CF2DB01A900F05B
S3150800477079F91020FFF76CFF00F088F801A900F01E
S3150800478071F9BDF80400BDF80610401ABDF83C10D2
S31508004790BDF808208C1A404304FB04084FF01009A2
S315080047A0112700F055F800F071F801A900F05AF940
S315080047B000F056F804DB8046B9467F1C202FF0DB54
S315080047C01FFA89F9B9F1100F10D10F2700F040F838
S315080047D000F05CF801A900F045F900F041F805DBA6
S315080047E08046B9467F1E3FB2002FEFD54FEA4904EF
S315080047F0A4B20698E864059828600498F0624FF613
S31508004800FF7259461120FFF713FE4FF6FF72514605
S3150800481000F09AF901203061002000F02BF8179873
S315080048200470189803990170DFF8EC040089BDF844
S315080048300A108843DFF8E01408813F222146202029
S31508004840FFF7F6FD19B0BDE8F08F0000181000401C
S3150800485007A830F81700BDF80810441AB8B2F7E6EA
S31508004860BDF80400BDF80610401A404304FB0400D6
S3150800487040457047306040F24C4004F043BF00208A
S31508004880009006230622C02106F01EB800200090DC
S3150800489006230722C02106F017B800000C48DFF8E7
S315080048A07C158A780AB149780FE089566FF00802B4
S315080048B0914201DA302108E0C16D39B140F24A313E
S315080048C0C26DB1FBF2F189B2C91E0160704700BF23
S315080048D06410004000B587B00A237F22414801884A
S315080048E003A804F053FDBDF812104FF6FF7291426B
S315080048F073D1DFF82805808900F0D6F84FF47C627A
S315080049004FF40071C020FFF793FD0323892200F0BE
S3150800491074F801A900F06CF800F06DF80DF10201C9
S3150800492000F066F8BDF8020000F05EF8ADF8020087
S315080049300323B92200F061F802A900F059F8BDF87E
S31508004940080000F051F8ADF808004FF47C624FF407
S315080049506061C020FFF76CFD00F04DF800A900F07B
S3150800496047F8BDF8000000F03FF8ADF80000032353
S31508004970B92200F042F80DF1060100F039F8BDF849
S31508004980060000F031F8ADF80600BDF80600BDF8DF
S315080049900010490801EB0040BDF80010B0FBF1F02B
S315080049A080B2BDF80810BDF80220520802EB01419A
S315080049B0BDF80220B1FBF2F1411A89B24FF47C62CC
S315080049C0A0F5404001EBD1735B1003EB0010B0FB80
S315080049D0F1F0083800F03F008101C020FFF728FDFC
S315080049E007B000BDF2940108BDF80410401A7047DC
S315080049F00020FBF7E1BC0323A922C0210020FBF716
S31508004A0048BC7CB500F046F800200090022303223B
S31508004A10002105F059FF00F023F8BDF806400020F4
S31508004A20009002230122014605F04EFF00F018F817
S31508004A30BDF806500020009002230246014605F004
S31508004A4043FF00F00DF8BDF8066005F067FF00F0BB
S31508004A5019F80EBF4FF4E1600A2190FBF1F004E06B
S31508004A600DF10601002005F049BFADF80400301B22
S31508004A700004291BB0FBF1F0BDF8041048434000C0
S31508004A80000C76BDBDF804004FF6FF7188427047EA
S31508004A900000000002237F220248018801A804F0D2
S31508004AA075BC00BFF69401082DE9F04182B00546B1
S31508004AB0DFF86843B5F5004F0FD102237F221F4860
S31508004AC000F0A0F9BDF80000000AFF2800D000B9E0
S31508004AD018206070BDF80000C54305F0010805F010
S31508004AE00200470808EB4800154946184FF4F852E3
S31508004AF0B0780102E020FFF79BFC1248016841F4F8
S31508004B00004101604FF440527078010389B22020B9
S31508004B10FFF78EFC404605F06BFF4022B90100F016
S31508004B2013F817B915F0040000D00120A070FFF79C
S31508004B30B5FEA5810020BDE8F68100BFF8940108FE
S31508004B40508E01081C100040A02071E4B3488089EB
S31508004B50704710B5704800786A490A880123A0F1A1
S31508004B600B04A3401A430A80BDE8104000E0000089
S31508004B702DE9F04F83B08046A8F10B04A4B206F0E5
S31508004B80E5FA8246B8F10B0F02D3B8F11B0F02D330
S31508004B908A20BDE8FE8F564EB068000702D43068FA
S31508004BA0C00701D58C20F4E75B4D85F80080514F8E
S31508004BB038680C2801D10020EBE7287938B9786ADB
S31508004BC040F400507862786A20F4805078624A4847
S31508004BD00078012801D106F081FA4848D0F80090FB
S31508004BE047484FF4E0610160306A20F00200306205
S31508004BF00423E2B2002100A804F0C8FB9DF80000D7
S31508004C008DF807009DF801008DF806009DF8020052
S31508004C108DF805009DF803008DF804003A4830F831
S31508004C202400F86148F2607B2879B8B1C7F824B047
S31508004C30306A400840003062012004F063FD306AA3
S31508004C4040F00100306200F061F8786A20F4805084
S31508004C507862786A40F40050786202E04046FFF7CE
S31508004C601BFC21460DF1010006F082F821460DF1E4
S31508004C700200FFF769FC224600A90DF10300FFF7C1
S31508004C80ECFC9DF800009DF80710884211D19DF8AC
S31508004C9001009DF8061088420BD19DF802009DF888
S31508004CA00510884205D19DF803009DF80410884236
S31508004CB005D0042300AAE1B2002004F0B9FB09F4E8
S31508004CC0E0600E49086005F033FC306A40F00200E7
S31508004CD03062287918B1C7F824B000F017F805F043
S31508004CE01DFEBAF1010F01D106F0C8F963E700BF4E
S31508004CF060200040AC100040B40A002000E100E04B
S31508004D0080E100E00C140020E48D0108642004F022
S31508004D10F9BC0148007870476C0A00202DE9F0417B
S31508004D2086B006466FF02A00864201DA8B205DE0DF
S31508004D3014237F222F4800F065F8BDF810004FF6BF
S31508004D40FF71884204D00E21084201D0012506E0F1
S31508004D503F220021F020FFF765FB0446002528487E
S31508004D602E49042E0FDA0022234B01E0521CD2B240
S31508004D70D756B742FADB02600F70002000260746B6
S31508004D804FF003080EE0092ED0DA725C02600E704E
S31508004D9014237F22194800F035F80320012601273D
S31508004DA04FF0280825B14FF6BF72BDF8101018E06D
S31508004DB04FF46052C10200F029F84FF4E062310264
S31508004DC000F024F88022F90100F020F884F0200091
S31508004DD008EB0004A4B2402C00DB3F243F2284F0F9
S31508004DE02001FFF7B1FEFFF759FD002006B0BDE828
S31508004DF0F08100BFEE940108308E0108F094010896
S31508004E00C0100040018800A804F0C0BA89B2A020EA
S31508004E10FFF70EBB014890F900007047980800207C
S31508004E2042DE704738B504460D46FCF78FFEFFF79D
S31508004E30E7FA2A462146DFF8E40102F0ECF82946AB
S31508004E402046BDE83440EBE72DE9F8434FF42068E7
S31508004E50DFF8CC110868DFF8CC61371D38650A6AB7
S31508004E607A65DFF8C4211268BA654A6AFA658A6AF9
S31508004E703A66CA6A7A660A6BBA66896BF96697F8F9
S31508004E80341049074CBFFD6BBD6B40F2FF14DFF8C9
S31508004E909C91DFF89C21954227D3A94525D305F295
S31508004EA0180555F8041B396455F8041B7964204025
S31508004EB006281DD1386C00884DF64261884217D104
S31508004EC006F28800716841607968816055F8040BBC
S31508004ED0706055F8040B786055F8040BB86055F8FF
S31508004EE0040B786340F2017802E0002038647864A5
S31508004EF000F082F8B8640020F864002206EB80010E
S31508004F004A67401C0628F9DB386C00283DD000208B
S31508004F10DFF82021DFF8203103E006EB800CCCF81F
S31508004F207410A9452CD359F8041D9942F9D3914216
S31508004F30F7D25FEAC17CF4D54FF0000C06EB8C0E75
S31508004F40DEF874E08E4504D00CF1010CBCF1060FB6
S31508004F50F4DBBCF1060FE4D100281ABF401EC0B22C
S31508004F600520DAE7396F4FF0000C06EB8C02936FD9
S31508004F7053670CF1010CBCF1050FF6DBC6F8881077
S31508004F800146481EC0B20029ECD1386D20400228DF
S31508004F900AD0032816D0042817D0052818D00628C2
S31508004FA019D00C281DD01FE0DFF89000016889078A
S31508004FB048BF40F602181CD40068C00719D540F24D
S31508004FC0025816E040F6012813E040F6022810E0E1
S31508004FD040F603280DE0B8F5206F0AD140F60428FC
S31508004FE007E040F6052804E018B1212838BF40F646
S31508004FF007284046BDE8F28311480068C00654BF3A
S315080050000B48104800E0001D084A904203D2036886
S31508005010B3F1CD3FF7D0101A70470000588E01083B
S3150800502004ED00E00000002000E300E0580700203F
S3150800503000000020427C0108840100081CA00040F2
S315080050402C00004094000020F8B50C461646C0888F
S31508005050000422D50027BC4D781901798C4219D154
S31508005060AEB9FF210171204600F0E7F9E878401E45
S31508005070E870C0B2002808D1A878B249097808189B
S31508005080A87000F00CF800F044F80120F2BD304694
S3150800509000F03FF87F1C0A2FDEDB0020F2BD70B55A
S315080050A0A94CA678A74D04E0E078401CE070761C71
S315080050B0F6B2A078301A29788842BCBF6078864252
S315080050C00FDA06F0FF0101EB00202083301903797F
S315080050D004F11002A18B207803F0F4F90028E3D03C
S315080050E070BDE078002804D1FF2020700020FBF76F
S315080050F0F2F9002070BD38B504460025285DFF2862
S3150800510003D0FF21295500F098F96D1C0A2DF5DB0F
S3150800511031BD38B504000BD08B4D2878FF2807D051
S31508005120281DFFF7E8FFFF2028702046FBF7D3F974
S3150800513031BD10B5834800780146844A13799478BE
S315080051400419A342BCBF93FBF0F100FB1131012007
S315080051508840401EC043D07010BD2DE9F84F074661
S315080051608A46F888000402D40020BDE8F28F97F832
S3150800517008900325764C754E308B4FF6FF718842A2
S3150800518017D170480078814513DA03F05FFE308343
S31508005190B87A70700020B0707071FF203071FFF718
S315080051A0C8FF0A22FF2106F1080001F0E7FC00F01B
S315080051B0ACF803F04BFE318B884203D1B87A71788C
S315080051C0884201D00120D0E7F078FF280BD1B078CB
S315080051D05C4909780A18914505DB0818B070FFF78D
S315080051E0A8FF00F092F8574800780146B2788A1866
S315080051F09145E7DA4FF0010899FBF1F201FB1291AC
S3150800520008FA01F1CCB2F17821404D1EAD41ED0FFF
S3150800521031780C4204BF44EA01003070D2D0B9F1AB
S31508005220000F0AD13989090A31718B46834538BF7F
S31508005230FFF77FFFBBF10B0F64D2F0782043F070C5
S3150800524009EB06043DB17079401C707184F808A01A
S31508005250504600F0E5F8F0783179491E89450BD0BB
S315080052603849097899FBF1F201FB129108FA01F124
S31508005270491E0143FF2909D1B17801EB002080B20C
S3150800528003F054FBFF21788803F079FB70793179B4
S31508005290884297D1504600F072FA4FF00009FF286D
S315080052A030D02072504600F0C8F80021504600F071
S315080052B014FA4F461FE007EB060898F808402048FE
S315080052C00068255C05EB090B5FFA8BF1504600F088
S315080052D004FAB8B90095002322464946504600F01C
S315080052E0DCFA5FFA8BF9204600F0A7F8FF2088F869
S315080052F008007F1CFFB230798742DCDB4FF6FF706F
S31508005300308331E700F009F85CE7208805FB00F1F7
S3150800531089B206F1140012F0EFB938B50B4C00202B
S3150800532020754FF6FF75208BA84204D004F10800BB
S31508005330FFF7E1FE258331BD064812F0FCB90000EF
S3150800534018090020A00A0020C4080020A808002088
S31508005350760A00206C8E01080249096801EB4010A4
S31508005360704700BF14090020DFF8542412688154DE
S31508005370704700002DE9F041040001D1FF204BE001
S31508005380FFF73EF8DFF88813FF22454DDFF8D034E3
S315080053901E78FE2E1CD100261E70204E37782F70E0
S315080053A00027DFF8F4C509E007F1010E07F808E061
S315080053B0DCF8008007F808205FFA8EF796F800E018
S315080053C0D1F800807745EFDB0EEB080606F8012CCE
S315080053D02E78A64202D2FFF70FF8CFE7361B2E70BB
S315080053E01D78454E1F78D6F800C04FF0010E07F815
S315080053F00CE0D1F800C017F80CE083F800E0641E52
S31508005400E4B2002CEED107F80C2000F0D2F8002206
S315080054106A54FEF7F1FF2846BDE8F081950A002098
S3150800542010B50446FEF7ECFF33490968625C521C66
S315080054306254BDE81040FEF7DFBF2DE9F04105468E
S3150800544000F030F88046FEF7DBFFDFF81414144A44
S31508005450AF4B294E00E06546FF2D1DD03768EC5D41
S31508005460641EEC55376815F807C07F241CEA040F3C
S3150800547012D11C6815F804C00024EC5517787F1C57
S3150800548017701F680C78EC550D70BCF1FF0FE2D150
S3150800549045464FF0FF08DFE7BDE8F041FEF7ACBF31
S315080054A0960A002080B514490968415C090603D5A7
S315080054B0FFF752FF007802BDFF2002BDB0B50546D2
S315080054C00C46FFF7EFFFFF2801D0FFF7B6FF0A4F9C
S315080054D0FF2C04D13868295C01F07F0106E02046DC
S315080054E0FFF79EFF3868295C41F080012954284659
S315080054F0FFF732FF0470B0BD1C0900200EB430B5AA
S3150800550004460120FFF736FF0546FFF725FFFF2D66
S3150800551001D1FF200EE000F04CF86C5403A90022DC
S3150800552005E051F8043B00F8013B521CD2B2A242F6
